:020000040800F2
:10000000B004002001010008811C00082916000826
:100010007D1C000865040008991C00080000000011
:10002000000000000000000000000000891C000823
:100030006904000800000000851C00088D1C0008F1
:100040001B0100081B0100081B0100081B01000820
:100050001B0100081B0100081B0100081B01000810
:100060001B0100081B0100081B0100081B01000800
:100070001B0100081B0100081B0100081B010008F0
:100080001B0100081B0100081B0100081B010008E0
:100090001B0100081B0100081B0100081B010008D0
:1000A0001B0100081B0100081B0100081B010008C0
:1000B0001B0100081B0100081B0100081B010008B0
:1000C0001B0100081B0100081B0100081B010008A0
:1000D0001B0100081B0100081B0100081B01000890
:1000E0001B0100081B0100081B010008DFF80CD0F1
:1000F00000F0A6F900480047B11C0008B004002039
:100100000648804706480047FEE7FEE7FEE7FEE7B1
:10011000FEE7FEE7FEE7FEE7FEE7FEE7951C0008C8
:10012000ED000008D2B201E000F8012B491EFBD21D
:1001300070470022F6E710B513460A4604461946F2
:10014000FFF7F0FF204610BD2DE9FE4F804681EA03
:100150000300C00F0C46009021F0004123F0004541
:10016000B8EB0200A94105D24046214690461C4604
:100170000B46024623F00040104347D0270DC7F33B
:100180000A00C3F30A510290401A019040286BDA2A
:10019000C3F3130040F4801B0098924620B1002363
:1001A000D2EB030A63EB0B0B01985946C0F14002F6
:1001B000504600F0B6F806460D4650465946019A9C
:1001C00000F0CEF810EB08006141002487EA1152DC
:1001D00084EAE7731A4340D0009A62B3019A012A75
:1001E0004FEA075215DC001B61EB02014FF00042A1
:1001F00002EA0752CDE90042001C41F58011324667
:100200002B4600F0CEF803B0BDE8F08F4046214603
:10021000F9E7001B61EB0201001C41F58013001897
:100220005B412018A2F5001747EB030140EAD570A7
:10023000B6196D4111E06D084FEA360645EAC07502
:100240004FEA0752001B61EB0201001C41F58011CF
:1002500049084FEA30000019514132462B4603B09D
:10026000BDE8F04F00F08EB8009801224000002356
:10027000D0EB020263EBE073009821464FEAE07492
:10028000B8EB000061EB0401E9E783F000435BE7B2
:1002900081F0004158E70EB5C10F80EAE0700844D4
:1002A000CA07002140F233438DE80E000A460B4690
:1002B00000F077F803B000BD70B5C1F30A5201F049
:1002C00000450024C1F3130140F2FF3341F48011D3
:1002D0009A4201DA002070BD40F233439A42A2F202
:1002E000334203DC524200F02BF800E090402C43F4
:1002F000F1D0404270BD30B50B46014600202022AF
:10030000012409E021FA02F59D4205D303FA02F522
:10031000491B04FA02F52844151EA2F10102F1DC82
:1003200030BD202A04DB203A00FA02F10020704799
:100330009140C2F1200320FA03F319439040704723
:10034000202A04DB203A21FA02F00021704721FA2A
:1003500002F3D040C2F12002914008431946704791
:10036000202A06DBCB17203A41FA02F043EAE07379
:1003700006E041FA02F3D040C2F120029140084366
:100380001946704710B5141E73F1000408DA401CBA
:1003900041F1000192185B411A4301D120F00100A4
:1003A00010BD2DE9F04D92469B4611B1B1FA81F294
:1003B00002E0B0FA80F220329046FFF7B2FF044626
:1003C0000F4640EA0A0041EA0B0153465A460843E9
:1003D00013D0114653EA010019D0C8F1400250462B
:1003E000FFF7AEFF05460E46504659464246FFF718
:1003F00098FF084305D0012004E020463946BDE8B7
:10040000F08D0020054346EAE0762C4337430A98F6
:100410006305E40AA0EB08000022FD0A44EA475401
:100420000A3002D500200146E9E7010510196941AB
:10043000DDE9084500196941BDE8F04DA2E700007B
:10044000064C074D06E0E06840F0010394E8070021
:1004500098471034AC42F6D3FFF74CFE0023000857
:1004600020230008FEE7000070470000EFF3108033
:1004700072B600BFFEE70000B0B5044600F010F908
:10048000054640F20800C2F200000078611C18BF67
:10049000044400BF00F004F9401BA042FAD3B0BDF1
:1004A0002DE9F04F82B041F20042C4F201020E6821
:1004B0000423904208BF0323002E009300F0EC8039
:1004C00040F20C4E40F2004CC4F2010E0022C4F285
:1004D000010C01244FF0000A4FF000093FE0012514
:1004E00002F00C040F27A7402BEA070705FA04F4D3
:1004F0003C4343F826404E68F303DCF8003054BF19
:1005000023EA080343EA0803CCF80030DCF804309F
:10051000B40354BF23EA080343EA0803CCF80430C9
:10052000F402DCF8083054BF23EA080343EA080366
:10053000B402CCF80830DEF800304FF0010454BFAC
:1005400023EA080343EA0803CEF800300E680AF1F4
:10055000010A36FA0AF302F1040200F09D8004FA5F
:100560000AFB16EA0B08F1D04B684FF6FF75C1F293
:100570001005AB4210DC122B50D8DFE803F0330A31
:1005800041454F4F4F4F4F4F4F4F4F4F4F4F4F489A
:100590004C00D1F80C9041E04FF6FF75C1F22105F7
:1005A000AB420FDC0025C1F21105AB421AD0002589
:1005B000C1F21205AB4215D00025C1F22105AB42B4
:1005C00010D02BE00025C1F22205AB420AD0002555
:1005D000C1F23105AB4205D00025C1F23205AB4274
:1005E0001CD100BF8B6843B1012B14BFC0F814B0FD
:1005F000C0F810B04FF0080910E04FF004090DE00A
:10060000CB6803F1080909E04FF0000906E0CB6868
:1006100003F1040902E0CB6803F10C091346054617
:10062000B8F5807F24BF203B04352E680F279F40FC
:10063000BE4309FA03F333432B60CB79DB067FF526
:1006400085AF41F21804C4F2020423684FEA9A0607
:1006500043F001032360236840F6000403F0010324
:100660000193019BACF57E7353F826B0C4F20104EC
:10067000A0420FD040F60044C4F20104A0423FF46F
:100680002EAF41F20004C4F20104009DA04208BF55
:10069000022525E7002523E702B0BDE8F08F000022
:1006A00040F2A800C2F2000000687047F0B581B0C7
:1006B000B0B3044690F83D0028B9002084F83C000F
:1006C000204600F075FB242084F83D002068016876
:1006D00021F001010160016841F4004101600168FD
:1006E00021F40041016000F01DFD48F28041C0F29C
:1006F0001E0140F60012656888424FF00001C0F20A
:100700003D0248F2A16C4FF0000338BF0121904236
:10071000C0F2010C38BF0123654538BF0B4613B149
:10072000012001B0F0BD4DF68361C4F21B31A0FB86
:10073000011221684FEA924E4B684FF4967623F0EF
:100740003F0343EA92434B6044F6D3530F6A0EFBD8
:1007500006F6C1F26203A6FB033627F03F03B70992
:10076000654538BF970C7A1C1A430A62CA6948F279
:10077000A0674CF6FF73C0F20107BD4222EA030CEA
:100780000AD801386A00B0FBF2F001306FF31F3075
:10079000042898BF04202BE0A368A0F1010E9BB1B0
:1007A00019206843BEFBF0F00422013062F31F30D1
:1007B000000512D09BB119206843BEFBF0F0042263
:1007C000013062F31F3011E005EB4500BEFBF0F095
:1007D00001306FF31F300005ECD1012008E005EB7C
:1007E0004500BEFBF0F001306FF31F3040F40040D5
:1007F00040EA0C00C8610868D4E9072320F0C00073
:10080000104318430860886848F2FF3204F10C076F
:1008100090438CCF18431043A6698860C86820F0C5
:10082000FF0038433043C860086840F001000860AA
:1008300000202021206484F83D10206384F83E00CD
:1008400001B0F0BD2DE9F04F85B004460020984678
:1008500017460E460490FFF723FF94F83D10202919
:1008600020D1DDE90EBA05462068806910F0020942
:1008700014D0FFF715FF401B1A28F5D300202021C4
:10088000206384F83D1084F83E00216CB9F1000F1C
:1008900041F02001216484F83C0003D194F83C002D
:1008A000012803D1022005B0BDE8F08F01212068A6
:1008B00084F83C100168C90703D1016841F00101C7
:1008C00001600168DDF8409021F4006101602220A0
:1008D00084F83D00402084F83E0000202064C4F8E5
:1008E00024B0A4F82AA0608D314620850020CFF6E0
:1008F000FF70E06220463A464346CDF800900195ED
:1009000000F094FE18B1012005B0BDE8F08F208DF5
:10091000022810D0012824D0002838D100200390CC
:10092000206841690391816903910399016841F449
:100930000071016037E02068016841F400610160E6
:10094000EFF3108072B60020039020684169039194
:10095000816903910399016821F48061016062B6A5
:1009600021E02068016821F480610160EFF31080CC
:1009700072B6002003902068416903918169039158
:100980000399016841F40071016062B60BE02068D0
:10099000016841F480610160002103914169039184
:1009A000806903900398208D002800F0048140F2B4
:1009B00004064BF2895A4FF0010B09F10107C2F20C
:1009C0000006C1F2F84A042818D202283DD00128B6
:1009D00040F07D8020684169490600F1DB80416973
:1009E000C90600F1EF80FFF75BFEB9F1000F00F0E0
:1009F000F580401B4845EDD9F0E000BF2068416913
:100A000049060DD44169C90600F1DC80FFF748FEB4
:100A1000B9F1000F00F0E280401B4845EED9DDE05F
:100A20002068616A00690870606A228D0130013AAD
:100A3000606222852168628D013A62854A695207A7
:100A400040F1B58009690170A8E02068D04640698E
:100A500010F0040024D18BEA900A06E02068406977
:100A600010F004008BEA900A1AD1002FF6D0FFF79D
:100A700017FEB9F1000F02D0401B4845EED9002106
:100A80002020216384F83D0084F83E10206C40F063
:100A9000200020645FEACA7084F83C107FF433AF12
:100AA000EFF3108072B62068616A0268C24642F4B1
:100AB0000072026000690870606A218D0130606216
:100AC000481E2085608D0138608562B662E020682E
:100AD000B046406910F0040023D18BEA900606E08E
:100AE0002068406910F004008BEA900619D1002FAD
:100AF000F6D0FFF7D5FDB9F1000F02D0401B4845F5
:100B0000EED900212020216384F83D0084F83E10B6
:100B1000206C40F020002064F00784F83C107FF443
:100B2000F2AE20684646016821F480610160EFF36F
:100B3000108072B62068616A00690870606A218D51
:100B40000130013960622185618D01396185D8F8F4
:100B50000010C908A1FB0A12110A23225143049173
:100B60000499013904910499002949D021684A69FE
:100B70005207F5D50A6842F400720A6009690170EB
:100B8000606A218D01306062481E2085608D0138C9
:100B9000608562B62068616A00690870606A218DAC
:100BA00001306062481E2085608D01386085208D8F
:100BB00000287FF408AF202084F83D00002084F84E
:100BC0003E0017E06FF010014161002020212063FA
:100BD00084F83D1084F83E00206C09E000202021BC
:100BE000206384F83D1084F83E00206C40F0200023
:100BF00020640120002184F83C1005B0BDE8F08F8E
:100C000000202021206384F83D1084F83E00206CF1
:100C100040F02000206462B60120EBE72DE9F04FA0
:100C200083B0994616460F460446FFF739FD94F8FF
:100C30003D10202922D1DDF83880DDF830B005469E
:100C40002068806910F0020A14D0FFF729FD401BCC
:100C50001A28F5D300202021206384F83D1084F861
:100C60003E00216CBAF1000F41F02001216484F8AC
:100C70003C0003D194F83C00012803D1022003B0CA
:100C8000BDE8F08F0121206884F83C100168C90795
:100C900003D1016841F0010101600168324621F48D
:100CA00000610160212084F83D00402084F83E006E
:100CB000002020640D98C4F824B06085608D39460A
:100CC00020850020CFF6FF70E06220464B46CDF82D
:100CD0000080019500F0D2FD18B1012003B0BDE8FD
:100CE000F08F208DA8B308F1010600BF206850F8EE
:100CF000141F09060FD40168490540D4002EF5D011
:100D0000FFF7CEFCB8F1000F4FF020013BD0401BA5
:100D10004045EBD937E0606A2168034613F8012BA0
:100D20000A61228D6362531E2385678D013F6785AB
:100D30004F697F070AD51B0408D0437802300B6146
:100D40006062901E2085608D01386085208D0028AE
:100D5000CCD1204641462A4600F07AFEF8B92068F8
:100D6000016841F400710160202084F83D000020FA
:100D700084F83E0084F83C0003B0BDE8F08F6FF4C7
:100D800080610160042100202022206384F83D203E
:100D900084F83E00226C1143216484F83C00206CEE
:100DA00004289AD12068016841F40071016094E739
:100DB00010B586B0016845F20040C4F200008142DF
:100DC0004FF00001CDE90411CDE9021101D006B0C8
:100DD00010BD41F21804C4F20204216800F5384045
:100DE00041F008012160216801F008010191019999
:100DF000C0210291122103910321059102A9FFF75D
:100E00004FFB606840F400106060606800F4001000
:100E10000190019806B010BD40F2080040F2A80110
:100E2000C2F20000C2F2000100780A6810440860B3
:100E30007047000080B542F20000C4F20200016871
:100E400041F010010160032000F07EF80F2000F057
:100E500005F800F02BF8002080BD0000B0B540F28E
:100E60000802C2F2000240F204011278C2F200014C
:100E70004FF47A730968B3FBF2F20446B1FBF2F166
:100E8000084600F00FFB0F2C4FF001050CD858B9A5
:100E90004FF0FF3021460022002500F029F840F2F3
:100EA0000C00C2F2000004602846B0BD82B041F2DE
:100EB0001800C4F202000168022241F00101016041
:100EC000016801F0010101910199416841F08051EF
:100ED0004160406800F08050009000980420C4F207
:100EE0000100016862F31A61016002B070470000FE
:100EF00010B54EF60C5CCEF2000CDCF80030C3F3FB
:100F0000022E8EF00704042C28BF0424BEF1030334
:100F10004FF0FF3E0EFA04F438BF0023A14399407E
:100F20000EFA03F39A4300F00F03043B11436344AA
:100F300009010C3300F16042B0F1FF3FC8BF02F578
:100F40006443197010BD00004EF60C51CEF2000142
:100F50000A684FF6FF031A4060F30A2242F08060ED
:100F600040F0FD70086070472DE9F04381B0002823
:100F700000F0858042F20008C4F202080446D8F866
:100F800000000D4600F0070088420CD2D8F800009F
:100F900020F007002843C8F80000D8F8000000F04F
:100FA0000700A8426BD1206841F204098107C4F20E
:100FB000020917D5410705D5D9F8001041F4E061C1
:100FC000C9F80010010705D5D9F8001041F46051A7
:100FD000C9F80010D9F80010A26821F0F0011143FF
:100FE000C9F80010C00741D1D8F8000000F0070090
:100FF000A8420CD9D8F8000020F007002843C8F810
:101000000000D8F8000000F00700A84237D120689F
:10101000410707D5D9F80010E26821F4E0611143D7
:10102000C9F80010000708D5D9F80000216920F49C
:10103000605040EAC100C9F80000D9F8002002F071
:101040000C00082841F20020C0F27A004ED142F292
:10105000EE23C2F38341C0F60003595CD20339D4B6
:1010600040F60010C0F23D0048433FE060680228AF
:1010700009D0012829D159F8041C890307D401207B
:1010800001B0BDE8F08359F8041C8901F7D5D9F8FF
:10109000001021F003010843C9F80000FFF700FB2E
:1010A000064641F2883700BFD9F80000616800F0B9
:1010B0000C00B0EB810F97D0FFF7F2FA801BB8421B
:1010C000F2D9032001B0BDE8F08359F8041C890768
:1010D000D5D5DCE7D9F8002042F2D423C2F3404250
:1010E000C0F600039A5C4843B0FBF2F0D9F8001058
:1010F00042F2D622C1F30311C0F60002515C40F265
:10110000040220FA01F140F20C00C2F20000006873
:10111000C2F200021160FFF7A1FE002001B0BDE89D
:10112000F083000040F2040041F20401C2F200002A
:10113000C4F202010068096842F2E622C1F302210A
:10114000C0F60002515CC8407047000040F2040045
:1011500041F20401C2F20000C4F202010068096811
:1011600042F2E622C1F3C221C0F60002515CC8403F
:10117000704700002DE9F04182B0002800F0D780D0
:101180000446007841F20006C007C4F2020644D0CB
:10119000706800F00C00042817D0706800F00C0094
:1011A000082802D17068C0030FD465682DB1B5F569
:1011B000A02F10D0B5F5803F11D0306820F48030DA
:1011C0003060306820F480200CE03068800324D543
:1011D000606810BBABE0306840F48020306030685D
:1011E00040F480303060FFF75BFA002D054611D0E7
:1011F0003068800311D4FFF753FA401B6428F7D9F5
:1012000016E100BFFFF74CFA401B64284FF00300C3
:1012100000F28A8030688003F4D42078800718D5E3
:10122000706810F00C0F07D0706800F00C000828F0
:1012300027D17068C00324D43068800702D52069A4
:10124000012874D13068616920F0F80040EAC100DB
:101250003060207800074FD5A06940B30020C4F269
:1012600042200121C0F88014FFF71AFA054600BF9A
:10127000706A80072DD4FFF713FA401B0228F7D9B4
:10128000D6E02069002840F20000C4F2422000F0BD
:10129000A68001210160FFF703FA05463068800748
:1012A000D0D4FFF7FDF9401B0228F7D9C0E0002099
:1012B000C4F242200021C0F88014FFF7F1F905467E
:1012C000706A800718D5FFF7EBF9401B0228F7D9A1
:1012D000AEE040F20400C2F20000006844F6D351D0
:1012E000C1F26201A0FB0101480A019000BF019810
:1012F000411E00280191F9D1207840071BD4E569EF
:101300008DB1706800F00C00082846D1012D0ED078
:101310007068216A00F480328A4208D1616A00F460
:101320007010884203D1002002B0BDE8F081012096
:1013300002B0BDE8F081F06910F0805808D1F06982
:1013400040F08050F061F06900F08050009000980B
:1013500047F20007C4F200073868C0050FD43868A8
:1013600040F480703860FFF79BF905463868C00587
:1013700005D4FFF795F9401B6428F7D958E0E568D4
:101380001DB1052D3CD0012D3ED0306A20F001006A
:101390003062306A20F0040039E00027C4F24227AE
:1013A00000203866FFF77CF9022D05460CD100BFFE
:1013B0003068800154D5FFF773F9401B02284FF0C5
:1013C0000300F5D9B0E700BF30688001ABD5FFF767
:1013D00067F9401B02284FF00300F5D9A4E700216C
:1013E0000160FFF75DF90546306880077FF531AF92
:1013F000FFF756F9401B02284FF00300F4D993E79A
:10140000306A40F004003062306A40F0010030621F
:10141000FFF746F9002D054641F2883714D000BF8A
:10142000306A800713D4FFF73BF9401BB842F7D965
:10143000032002B0BDE8F081FFF732F9401BB8424B
:101440004FF003003FF670AF306A8007F4D4B8F174
:10145000000F7FF454AFF06920F08050F0614EE748
:10146000206AB0F5803F05D17168A26821F400318F
:10147000114371607168626A21F47411104308436A
:10148000706001203866FFF70BF904463068800170
:101490003FF549AFFFF704F9001B02284FF00300A6
:1014A000F4D941E7411E0020B0EB116F1CBF0120B1
:1014B00070474EF21002CEF2000251604EF62351F8
:1014C000CEF20001F0230B7007219060116070478D
:1014D000002804BF0120704710B5044690F83D0075
:1014E00028B9002084F83C00204600F05FF8242052
:1014F00084F83D002068D4E90212C36823F4005345
:10150000C360036923F440531A430261D4E90423FE
:101510001143C268194341F20C639A431143C160FD
:101520004169A26921F44071114343F60002C4F2FB
:1015300001029042416102D0FFF7F4FD01E0FFF7A4
:1015400005FE6268192148439100B0FBF1F048F2B2
:101550001F51C5F2EB11A0FB01235A096FF0630381
:1015600002FB0300322303EB0010A0FB0101F02378
:1015700003EA5113206803EB0212C1F34311114433
:101580008160016921F490410161416921F02A01E2
:101590004161C16841F40051C160002020212064F4
:1015A00084F83D1084F83E1010BD000070B586B080
:1015B00040F60004C4F201040068A4F5444100268A
:1015C00088420596CDE90366029601D006B070BD4B
:1015D00041F21800C4F20200416802AD41F400314A
:1015E0004160416801F4003101910199016841F0C5
:1015F000040101600068294600F004000190019890
:101600000420029002200390032005902046FEF75C
:1016100047FF0820CDE90206204629460496FEF73A
:101620003FFF06B070BD0000FEE700002DE9F04F5F
:1016300083B00446006899460368904643F480628C
:1016400002600268DDF834A042F4807202604069F2
:101650000C9E10F001008B4624D180F00105771C10
:1016600007E000BF2068406910F0010080F001052C
:1016700018D1002FF6D0FFF713F81EB1A0EB0A0027
:10168000B042EFD900202021206384F83D1084F877
:101690003E00216C41F020012164E90784F83C0000
:1016A00040F0A78020680BF0FE07076141698907B9
:1016B0002BD44169490513D4751C00BF4DB1FEF709
:1016C000EFFF002E00F0CE80A0EB0A00B04200F247
:1016D000C98020684169890717D441694905EDD55A
:1016E000016841F4007101606FF480614161002084
:1016F0002021206384F83D1084F83E00216C41F0E5
:101700000401216484F83C0096E0002002902068E7
:1017100050F8141F0291416802910299016809066C
:1017200017D4751C05E000BF206850F8141F090687
:101730000FD40168490567D4002DF5D0FEF7B0FF3E
:10174000002E4FF0200163D0A0EB0A00B042EBD98D
:101750005EE0B9F1010F1ED020684FEA1821016147
:1017600050F8141F090616D4751C04E0206850F8C0
:10177000141F09060FD40168490545D4002DF5D082
:10178000FEF78EFF002E4FF0200141D0A0EB0A00A3
:10179000B042EBD93CE020685FFA88F1016150F873
:1017A000141F090616D4751C05E000BF206850F808
:1017B000141F09060ED40168490525D4002DF5D063
:1017C000FEF76EFF4FF0200116B3A0EB0A00B04207
:1017D000ECD91DE0206800220168334641F4807195
:1017E000016020464FF00111CDF800A000F066F92D
:1017F00030B320680068C00544BF4FF40070206417
:10180000032003B0BDE8F08F6FF480610160042114
:1018100000202022206384F83D2084F83E00226CC2
:101820001143216484F83C00206C042804D1206812
:10183000016841F400710160012003B0BDE8F08F40
:10184000206847F0010101610221C0F20101204638
:101850003246534600F06CF9002818BF012003B04F
:10186000BDE8F08F00202021206384F83D1084F82B
:101870003E00216C41F0200143E700002DE9F04FCC
:1018800081B00446006890460268DDF82CB042F44E
:101890008072026040690A9E994610F001008A46F3
:1018A0002ED180F00107751C07E000BF2068406959
:1018B00010F0010080F0010722D1002DF6D0FEF7D4
:1018C000EFFE1EB1A0EB0B00B042EFD900202021AB
:1018D000206384F83D1084F83E00216C41F0200123
:1018E0002164F90784F83C000AD020680068C0052C
:1018F00044BF4FF400702064032001B0BDE8F08FB6
:1019000020680AF0FE010161416989072BD4416911
:10191000490513D4771C00BF4FB1FEF7C1FE002E5E
:1019200000F08A80A0EB0B00B04200F285802068B6
:101930004169890717D441694905EDD5016841F42A
:10194000007101606FF480614161002020212063FB
:1019500084F83D1084F83E00216C41F004012164BC
:1019600084F83C0064E000200090206850F8141FC8
:1019700000914168009100990168090616D4771C0E
:1019800005E000BF206850F8141F09060ED4016856
:10199000490535D4002FF5D0FEF782FE4FF0200127
:1019A00096B3A0EB0B00B042ECD92DE0B9F1010FDA
:1019B0001ED020684FEA1821016150F8141F090653
:1019C00016D4771C05E000BF206850F8141F0906E4
:1019D0000ED40168490513D4002FF5D0FEF760FE40
:1019E0004FF0200186B1A0EB0B00B042ECD90BE028
:1019F00020685FFA88F10161002001B0BDE8F08F36
:101A00006FF480610160042100202022206384F8AB
:101A10003D2084F83E00226C1143216484F83C0090
:101A2000206C042804D12068016841F40071016031
:101A3000012001B0BDE8F08F00202021206384F850
:101A40003D1084F83E00216C41F0200187E7000042
:101A5000F0B581B004460068154650F8143F5A07A7
:101A600015D40E464F1C04E0206850F8141F490797
:101A70000DD4016849050DD4002FF5D0FEF710FEF6
:101A80004FF0200156B1401BB042EDD906E00020D6
:101A900001B0F0BD6FF480610160042100202022BC
:101AA000206384F83D2084F83E00226C11432164B9
:101AB00084F83C00012001B0F0BD00002DE9F047A2
:101AC000DDF820801D469146824601F47F078EB2E4
:101AD0005C1C00BFDAF80000B7F5803F14BF183077
:101AE000143000683040801BB0FA80F0400948454F
:101AF0001BD1002CEED0FEF7D3FD1DB1A0EB0800EA
:101B0000A842E7D900202021CAF830008AF83D1009
:101B10008AF83E00DAF8401041F02001CAF840107F
:101B20008AF83C000120BDE8F0870020BDE8F0877E
:101B30002DE9F04104460068984643698FB203EAF4
:101B40000701B94202D10020BDE8F0814169490591
:101B500014D41646551C00BF45B1FEF7A1FD4FF049
:101B600020019EB1A0EB0800B0420FD82068416967
:101B70003940B942E7D041694905EDD5016841F4E2
:101B8000007101606FF48061416104210020202216
:101B9000206384F83D2084F83E00226C11432164C8
:101BA00084F83C000120BDE8F081000081B041F2E2
:101BB0001800C4F20200016841F0100101600168E0
:101BC00001F0100100910099016841F020010160CD
:101BD000016801F0200100910099016841F00401C1
:101BE0000160016801F0040100910099016841F071
:101BF00008010160006800F008000090009801B042
:101C00007047000080B540F2100045F20041C2F27A
:101C10000000C4F2000141F6802200234FF4804C02
:101C2000C0F2060280E80E00C0E9033CC0E90533BB
:101C3000C0E90733FEF73AFD002818BFFEF716FC8F
:101C400080BD000080B540F2640044F20041C2F261
:101C50000000C4F2000100234FF00C0C4FF4E132FD
:101C600080E80E00C0E90333C0E905C3C361FFF794
:101C70002FFC002818BFFEF7F9FB80BDFEE700002F
:101C8000FEE70000704700007047000080B5FFF7D6
:101C9000C3F880BD70470000FEE7000044F2004139
:101CA000C4F200010A685206FCD5C2B24A6070470D
:101CB00094B0FFF7BFF80AAC20462821FEF739FAA6
:101CC00001200A900E904FF4E01000254FF480316F
:101CD0000226139020460995CDE90755CDE9055513
:101CE000CDE90B15CDE91161FFF744FA18B1EFF317
:101CF000108072B6FEE70F20CDE905064FF4806034
:101D0000CDE9080505A802210795FFF72DF920B1B7
:101D1000EFF3108072B600BFFEE7FFF747FFFFF753
:101D200071FFFFF78FFF00F085F90FF2700A00BF17
:101D300000F054F8834600F083F8814600F0B2F8D2
:101D4000054600F0CBF946F261014843C11501EBAD
:101D5000D070FEF7A0FA47F2A40244F2D733C0F6DF
:101D60003D22C4F24203FEF7EFF9FEF7A5FA06465C
:101D700000F0CAF8074600F0F9F8804600F028F9AC
:101D80000446504659464A462B468DE8C001039406
:101D900000F0D6F9C820FEF76FFBC9E76163635F07
:101DA000783D25642C6163635F793D25642C616314
:101DB000635F7A3D25642C74656D703D25642C67E6
:101DC000795F783D25642C67795F793D25642C67C0
:101DD000795F7A3D25640D0A000000002DE9F0418D
:101DE00084B040F2100401270DF10E00C2F200048D
:101DF00000254FF06408CDE900072046D0213B22A2
:101E000001238DF80E50CDF80880FEF71BFD0DF173
:101E10000F009DF80E60CDE900072046D0213C223E
:101E200001238DF80F50CDF80880FEF70BFD9DF8CB
:101E30000F0040EA062000B204B0BDE8F0810000C7
:101E40002DE9F04184B040F2100401270DF10E009D
:101E5000C2F2000400254FF06408CDE900072046D7
:101E6000D0213D2201238DF80E50CDF80880FEF7D9
:101E7000E9FC0DF10F009DF80E60CDE9000720464A
:101E8000D0213E2201238DF80F50CDF80880FEF7B7
:101E9000D9FC9DF80F0040EA062000B204B0BDE86E
:101EA000F08100002DE9F04184B040F210040127D8
:101EB0000DF10E00C2F2000400254FF06408CDE9D8
:101EC00000072046D0213F2201238DF80E50CDF887
:101ED0000880FEF7B7FC0DF10F009DF80E60CDE90C
:101EE00000072046D021402201238DF80F50CDF865
:101EF0000880FEF7A7FC9DF80F0040EA062000B21C
:101F000004B0BDE8F08100002DE9F04184B040F25A
:101F1000100401270DF10E00C2F2000400254FF05D
:101F20006408CDE900072046D021432201238DF823
:101F30000E50CDF80880FEF785FC0DF10F009DF8DE
:101F40000E60CDE900072046D021442201238DF800
:101F50000F50CDF80880FEF775FC9DF80F0040EAA1
:101F6000062000B204B0BDE8F08100002DE9F04188
:101F700084B040F2100401270DF10E00C2F20004FB
:101F800000254FF06408CDE900072046D021452206
:101F900001238DF80E50CDF80880FEF753FC0DF1AB
:101FA0000F009DF80E60CDE900072046D0214622A3
:101FB00001238DF80F50CDF80880FEF743FC9DF803
:101FC0000F0040EA062000B204B0BDE8F081000036
:101FD0002DE9F04184B040F2100401270DF10E000C
:101FE000C2F2000400254FF06408CDE90007204646
:101FF000D021472201238DF80E50CDF80880FEF73E
:1020000021FC0DF10F009DF80E60CDE90007204680
:10201000D021482201238DF80F50CDF80880FEF71B
:1020200011FC9DF80F0040EA062000B204B0BDE8A4
:10203000F0810000F0B585B000208DF81000012679
:1020400004A8CDE9000640F210006425C2F20000A9
:10205000D021752201230295FEF7F4FB9DF81000B4
:1020600068282DD140F210040DF11100C2F20004D5
:102070001827CDE900062046D0211C2201238DF827
:1020800011700295FEF7CAFD0DF11200CDE90006B0
:102090002046D0211B2201238DF812700295FEF7F5
:1020A000BDFD0DF11300CDE900062046D0216B22C5
:1020B00001238DF813600295FEF7B0FD05B0F0BD69
:1020C00004A400BF204600F03BF84FF47A70FEF7FE
:1020D000D3F9F7E74572726F722021002DE9F041C4
:1020E00084B040F2100401270DF10E00C2F200048A
:1020F00000254FF06408CDE900072046D021412299
:1021000001238DF80E50CDF80880FEF79BFB0DF1F2
:102110000F009DF80E60CDE900072046D021422235
:1021200001238DF80F50CDF80880FEF78BFB9DF84A
:102130000F0040EA062000B204B0BDE8F0810000C4
:102140000FB4054B10B503A9044A029800F018F823
:1021500010BC5DF814FB00009D1C0008000000206E
:1021600002E008C8121F08C1002AFAD17047704760
:10217000002001E001C1121F002AFBD170470000BE
:102180002DE9FF4F89B09B460446002506E025282F
:102190000BD05A460B999047641C6D1C2078002880
:1021A000F5D10DB02846BDE8F08F0027B8460122D2
:1021B000474900E0074314F8013F203B02FA03F0CF
:1021C0000842F7D120782E2819D114F8010F47F0D2
:1021D00004072A280ED06FF02F022078A0F13001DA
:1021E00009290CD808EB880102EB410100EB01083A
:1021F000641CF2E70A98641C50F8048B0A9020785B
:102200000028CED0642808D0692806D075281ED0B2
:102210005A460B9990476D1C58E00A994FF00A09ED
:1022200001C90A91002802DA40422D2102E0390555
:1022300004D52B218DF82010012103E0F90704D0EB
:102240002021F7E78A4608AE0DE00021FAE70A9957
:102250004FF00A0901C90A91F7E74946FEF74BF822
:10226000303106F8011D0028F7D1ADEB060000F172
:102270002009780701D44FF00108C84502DDA8EB1A
:10228000090000E000208046002706E008A85A4622
:10229000C05D0B9990476D1C7F1C5745F6DB04E031
:1022A00030205A460B9990476D1CB8F10001A8F1F7
:1022B0000108F5DC05E016F8010B5A460B9990472A
:1022C0006D1CB9F10001A9F10109F4DC641C65E79A
:1022D00009280100010200000000000000000102C6
:1022E00003040607080900000000010203040203BA
:1022F0000405060708090A0B0C0D0E0F101000004C
:1023000020230008000000201000000060210008C9
:102310003023000810000020A004000070210008F5
:10232000000000000024F400010000001000000084
:04000005080000ED02
:00000001FF
