:020000040800F2
:10000000C82400208901000889110008791000081F
:100010008511000881030008951A000800000000FF
:10002000000000000000000000000000311A00087D
:10003000850300080000000091110008551A00080F
:10004000A3010008A3010008A3010008A301000800
:10005000A3010008A3010008A3010008A3010008F0
:10006000A3010008A3010008A3010008A3010008E0
:10007000A3010008A3010008A3010008A3010008D0
:10008000A3010008A3010008A3010008A3010008C0
:10009000A3010008A3010008A3010008A3010008B0
:1000A000A3010008A3010008A3010008A3010008A0
:1000B000A3010008A3010008891A0008A301000891
:1000C000A3010008A3010008A3010008A301000880
:1000D000A3010008A3010008A3010008A301000870
:1000E000A3010008A3010008A301000800F002F822
:1000F00000F03AF80AA090E8000C82448344AAF188
:100100000107DA4501D100F02FF8AFF2090EBAE885
:100110000F0013F0010F18BFFB1A43F0010318473B
:10012000503A0000703A0000103A24BF78C878C1F5
:10013000FAD8520724BF30C830C144BF04680C60ED
:10014000704700000023002400250026103A28BF35
:1001500078C1FBD8520728BF30C148BF0B60704739
:100160001FB51FBD10B510BD00F0D7F81146FFF741
:10017000F7FF01F091FD00F0F5F803B4FFF7F2FF8F
:1001800003BC01F087FD000009488047094800478B
:10019000FEE7FEE7FEE7FEE7FEE7FEE7FEE7FEE737
:1001A000FEE7FEE704480549054A064B7047000094
:1001B000851A0008ED000008C81E0020C824002091
:1001C000C8200020C8200020032A40F2308010F010
:1001D000030C00F0158011F8013BBCF1020F6244E2
:1001E00098BF11F801CB00F8013B38BF11F8013B73
:1001F000A2F1040298BF00F801CB38BF00F8013B20
:1002000011F0030300F05780083AC0F0088051F85D
:10021000043B083A51F804CBA0E80810F5E7121D9A
:100220005CBF51F8043B40F8043BAFF30080D207B9
:1002300024BF11F8013B11F801CB48BF11F8012B85
:1002400024BF00F8013B00F801CB48BF00F8012BA8
:10025000704702F0FF0343EA032242EA024200F041
:1002600002B84FF0000200B5134694469646203976
:1002700022BFA0E80C50A0E80C50B1F12001BFF45F
:10028000F7AF090728BFA0E80C5048BF0CC05DF8C5
:1002900004EB890028BF40F8042B08BF704748BF13
:1002A00020F8022B11F0804F18BF00F8012B704787
:1002B00070477047704710B5203AC0F00B80B1E826
:1002C0001850A0E81850B1E81850A0E81850203A8B
:1002D000BFF4F5AF5FEA027C24BFB1E81850A0E894
:1002E000185044BF18C918C0BDE810405FEA827CAE
:1002F00024BF51F8043B40F8043B08BF7047D207C5
:1003000028BF31F8023B48BF11F8012B28BF20F865
:10031000023B48BF00F8012B7047754600F02CF8EF
:10032000AE4605006946534620F00700854618B0E2
:1003300020B5FFF737FFBDE820404FF000064FF033
:1003400000074FF000084FF0000BAC46ACE8C009C6
:10035000ACE8C009ACE8C009ACE8C00921F007016D
:100360008D46704710B50446AFF300802046BDE8C7
:100370001040FFF702BF0000004870471000002047
:10038000FEE70000704700002DE9F04F82B041F217
:100390000042C4F201020E680423904208BF032306
:1003A000002E009300F0F68040F20C4E4FF6FF7CDA
:1003B000C4F2010E00220124C1F2100C4FF0000A19
:1003C0004FF0000943E000BF012502F00C040F27A5
:1003D000A7402BEA070705FA04F43C4343F82640FC
:1003E000D1F804B040F20045C4F201055FEACB3316
:1003F0002B6854BF23EA080343EA08032B606B68A9
:100400005FEA8B3454BF23EA080343EA08036B60B6
:100410005FEACB24AB6854BF23EA080343EA08032E
:100420005FEA8B24AB60DEF800304FF0010454BF6C
:1004300023EA080343EA0803CEF800300E680AF105
:10044000010A36FA0AF302F1040200F0A38004FA6A
:100450000AF816EA080FF1D04B68634512DC122B3C
:1004600056D8DFE803F0350B4549555555555555D8
:10047000555555555555554D510000BFD1F80C9067
:1004800046E000BF4FF6FF77C1F22107BB420FDC09
:100490000027C1F21107BB421AD00027C1F2120790
:1004A000BB4215D00027C1F22107BB4210D02FE07C
:1004B0000027C1F22207BB420AD00027C1F2310750
:1004C000BB4205D00027C1F23207BB4220D100BF9A
:1004D0008B684BB1012B14BFC0F81480C0F810809A
:1004E0004FF0080914E000BF4FF0040910E000BF0E
:1004F000CB6803F108090BE04FF0000908E000BFEA
:10050000CB6803F1040903E0CB6803F10C0900BFD9
:1005100013460546BAF1080F24BF203B04352E6868
:100520000F279F40BE4309FA03F333432B60CB7977
:10053000DB067FF583AF41F21804C4F2020423689E
:100540004FEA9A0643F001032360236840F6000453
:1005500003F001030193019B40F20043C4F2010345
:10056000A3F57E7353F826B0C4F20104A0420FD065
:1005700040F60044C4F20104A0423FF425AF41F22A
:100580000004C4F20104009DA04208BF02251CE73C
:1005900000251AE702B0BDE8F08F0000002A08BF6E
:1005A000090401617047000041F68060C2F200005A
:1005B0000068704740F2000041F68061C2F200001E
:1005C000C2F2000100780A68104408607047000019
:1005D00080B542F20000C4F20200016841F010014F
:1005E0000160032000F0CAF80F2000F005F800F0C9
:1005F00061F8002080BD0000B0B586B041F21C015A
:10060000C4F202010A68044642F004020A60096862
:1006100001A801F0040101910199694600F09EF9D9
:10062000049D002D18BF012500F0BAF94DF6836135
:10063000A840C4F21B31A0FB01014FF0FF3000EBDA
:10064000914140F6E84040F60002C2F20000C4F2D8
:10065000000240F2E7330025C0E90021C0E902535F
:100660000561856100F08EFB054618B1284606B08D
:10067000B0BD00BF40F6E840C2F2000000F0FAFB57
:1006800005460028F2D11E2000F03CF80F2C0DD8B2
:100690001E2021460022002500F044F840F204000C
:1006A000C2F200000460284606B0B0BD012528460D
:1006B00006B0B0BD80B582B041F21800C4F20200AD
:1006C0000168002241F001010160016801F00101AF
:1006D00001910199416841F08051416040680F21CA
:1006E00000F08050009000986FF0010000F01AF8C0
:1006F0000420C4F201000168022262F31A61016061
:1007000002B080BD002848BF704700F01F010122E1
:1007100002FA01F14EF200124009CEF2000242F854
:100720002010704710B54EF60C5CCEF2000CDCF8D1
:100730000030C3F3022E8EF00704042C28BF0424DB
:10074000BEF103034FF0FF3E0EFA04F438BF00235E
:10075000A14399400EFA03F39A43114300F00F02AC
:10076000043A624409010C3200F16043B0F1FF3FEA
:10077000C8BF03F56442117010BD00004EF60C5165
:10078000CEF200010A684FF6FF031A4060F30A2216
:1007900042F0806040F0FD70086070472DE9F04342
:1007A00081B0002800F0858042F20008C4F20208FF
:1007B0000446D8F800000D4600F0070088420CD22D
:1007C000D8F8000020F007002843C8F80000D8F847
:1007D000000000F00700A8426BD1206841F2040934
:1007E0008107C4F2020917D5410705D5D9F80010D1
:1007F00041F4E061C9F80010010705D5D9F80010EF
:1008000041F46051C9F80010D9F80010A26821F035
:10081000F0011143C9F80010C00741D1D8F8000019
:1008200000F00700A8420CD9D8F8000020F007001B
:100830002843C8F80000D8F8000000F00700A842DC
:1008400037D12068410707D5D9F80010E26821F4B4
:10085000E0611143C9F80010000708D5D9F800007D
:10086000216920F4605040EAC100C9F80000D9F8BD
:10087000002002F00C00082841F20020C0F27A00AB
:1008800050D143F64833C2F38341C0F60003595CAC
:10089000D2033BD440F60010C0F23D00484341E093
:1008A000606802280AD001282AD159F8041C89035B
:1008B00008D4012001B0BDE8F08300BF59F8041C42
:1008C0008901F6D5D9F8001021F003010843C9F8D1
:1008D0000000FFF769FE064641F28837D9F80000AC
:1008E000616800F00C00B0EB810F97D0FFF75CFE61
:1008F000801BB842F2D9032001B0BDE8F08300BFED
:1009000059F8041C8907D4D5DCE700BFD9F80020CA
:1009100043F60833C2F34042C0F600039A5C4843F2
:10092000B0FBF2F0D9F8001043F60A32C1F303111C
:10093000C0F60002515C40F2080220FA01F140F2D8
:100940000400C2F200000068C2F200021160FFF76A
:1009500053FE002001B0BDE8F08300000F220260CA
:1009600041F20402C4F20202136803F0030343607D
:10097000136803F0F0038360136803F4E063C3605B
:1009800012684FF4E06303EAD202026142F200000F
:10099000C4F20200006800F0070008607047000021
:1009A00040F2080041F20401C2F20000C4F2020168
:1009B0000068096843F61A32C1F30221C0F600024A
:1009C000515CC840704700002DE9F04182B000281A
:1009D00068D00446007841F20006C007C4F202065F
:1009E00025D0706800F00C0004281BD0706800F05F
:1009F0000C00082802D17068C00313D46068002876
:100A000000F06881B0F5A02F00F07C81B0F5803F48
:100A100000F07C81306820F480303060306820F451
:100A2000802076E13068800301D56068D0B32078FB
:100A3000800718D5706810F00C0F07D0706800F0B0
:100A40000C0008286ED17068C0036BD43068800732
:100A500002D52069012825D13068616920F0F800AD
:100A600040EAC1003060207800071FD4207840079A
:100A700032D4E56995B1706800F00C00082840F0A8
:100A80008F80012D0ED07068216A00F480328A4276
:100A900008D1616A00F47010884203D1002002B0CE
:100AA000BDE8F081012002B0BDE8F081A069002816
:100AB00062D00020C4F242200121C0F88014FFF768
:100AC00073FD0546706A800700F18C80FFF76CFDAE
:100AD000401B0228F6D92AE1F06910F0805808D1AD
:100AE000F06940F08050F061F06900F080500090B3
:100AF000009847F20007C4F200073868C00529D4FF
:100B0000386840F480703860FFF74EFD054600BF3E
:100B10003868C0051ED4FFF747FD401B6428F7D98D
:100B200005E100BF2069002840F20000C4F2422025
:100B300000F0828001210160FFF736FD054600BF0D
:100B4000306880073FF588AFFFF72EFD401B022875
:100B5000F6D9ECE0E068002800F08080052800F07D
:100B60009780012800F09880306A20F00100306200
:100B7000306A20F0040092E00020C4F242200021FC
:100B8000C0F88014FFF710FD054600BF706A8007AB
:100B90007FF56CAFFFF708FD401B0228F6D9C6E0D1
:100BA0000027C4F2422700203866FFF7FDFC022D23
:100BB00005460BD13068800140F1BE80FFF7F4FCA0
:100BC000401B02284FF00300F4D968E73068800129
:100BD0007FF564AFFFF7E8FC401B02284FF00300ED
:100BE000F4D95CE740F20800C2F20000006844F665
:100BF000D351C1F26201A0FB0101480A019000BF7C
:100C000000BF0198411E002801913FF42FAF00BFA3
:100C10000198411E002801913FF428AF00BF0198C0
:100C2000411E002801913FF421AF00BF0198411EF1
:100C300000280191E4D119E700210160FFF7B4FC1D
:100C4000054600BF306880077FF50DAFFFF7ACFCAD
:100C5000401B02284FF00300F4D920E7306A20F04F
:100C600001003062306A20F004003062FFF79CFC23
:100C7000054641F2883700BF306A800720D5FFF76C
:100C800093FC401BB8424FF00300F5D907E700BFC3
:100C9000306A40F004003062306A40F00100306297
:100CA000FFF782FC054641F2883700BF306A8007B3
:100CB00006D4FFF779FC401BB842F7D937E000BFF4
:100CC000B8F1000F7FF4D5AEF06920F08050F061EC
:100CD000CFE600BF306820F480303060306820F408
:100CE00080203060FFF760FC054600BF306880035D
:100CF0007FF59DAEFFF758FC401B64284FF00300C2
:100D0000F4D9CCE6306840F480203060306840F49C
:100D100080303060FFF748FC054600BF3068800334
:100D20003FF585AEFFF740FC401B6428F6D9032051
:100D300002B0BDE8F08100BF206AB0F5803F05D168
:100D40007168A26821F40031114371607168626AB0
:100D500021F4741110430843706001203866FFF7D6
:100D600023FC0446306880013FF598AEFFF71CFC79
:100D7000001B02284FF00300F4D990E670470000F2
:100D800070470000002804BF0120704710B50446DA
:100D900090F83D0028B9002084F83C00204600F07F
:100DA00067F8022084F83D00206840F2FF73026873
:100DB000C4F2000342F6004C9842C4F2010C15DC68
:100DC000B0F1804F1AD040F20041C4F200018842D5
:100DD00014D0984218DCB0F1804F1DD040F2004191
:100DE000C4F20001884217D01AE000BF604505D068
:100DF00040F60001C4F200018842EAD1A16822F065
:100E000070020A439842E6DD604505D040F60001D5
:100E1000C4F20001884203D1216922F440720A43DE
:100E2000A36922F08001D4F804E0E2681943604528
:100E30000160C262C0F828E002D16169CCF83010CC
:100E400001214161002084F8461084F83E1084F8A6
:100E50003F1084F8401084F8411084F8421084F860
:100E6000431084F8441084F8451084F83D1010BDF8
:100E70007047000090F83D1001291CBF0120704709
:100E8000022180F83D10006840F2FF72C168C4F290
:100E90000002904241F00101C16009DCB0F1804FD5
:100EA00012D040F20041C4F2000188420CD012E09E
:100EB00042F60041C4F20101884205D040F600012B
:100EC000C4F20001884206D1816801F007010629B9
:100ED00004BF00207047016841F00101016000205B
:100EE000704700007047000010B5016804460869AB
:100EF000800744BFC8685FEA807039D4086940073A
:100F000044BFC8685FEA40703ED40869000744BF28
:100F1000C8685FEA007045D40869C00644BFC86865
:100F20005FEAC0604AD40869C0071CBFC8685FEAAE
:100F3000C07051D10869000644BFC8685FEA00600C
:100F400052D40869400644BFC8685FEA406053D481
:100F50000869800646BFC8685FEA806010BD6FF010
:100F6000200220460A61BDE81040FFF709BF00BF1C
:100F70006FF002000861012020778869800743D064
:100F80002046FFF7AFFF45E06FF004000861022044
:100F90002077886910F4407F40D02046FFF7A2FFF9
:100FA00042E000BF6FF00800086104202077C869A4
:100FB00080073DD02046FFF795FF3FE06FF010001F
:100FC000086108202077C86910F4407F3AD0204695
:100FD000FFF788FF3CE000BF6FF00100086120468A
:100FE00000F03EF82168A5E76FF080000861204618
:100FF000FFF7C4FE2168A4E76FF0400008612046B7
:1010000000F038F82168A3E7204600F025F82046D4
:1010100000F024F82168002020776FE7204600F0D8
:101020001BF8204600F01AF82168002020776CE7B2
:10103000204600F011F8204600F010F8216800204A
:10104000207769E7204600F007F8204600F006F810
:1010500021680020207766E7704700007047000095
:10106000006840F60001C4F20001884208BFFFF7A3
:10107000A1BA704770470000FEE7000082B041F25D
:10108000000443F66E36C4F2010410A711A5C0F6A1
:10109000000600BF20464FF400510022FFF77EFA01
:1010A0004FF47A7000F032FE20464FF400510122D6
:1010B000FFF774FA4FF47A7000F028FE00202946FA
:1010C00032463346009700F097F9E3E71B5B306D3B
:1010D0000000000020202573257348656C6C6F208C
:1010E000576F726C6420210D0A25730080B541F2A0
:1010F0007D0043F62432C0F60000C0F60002002155
:1011000000F05EFE40F2E031C2F20001086080BDF6
:1011100070B584B041F21800C4F20200016841F2D7
:10112000000441F0100101600168C4F2010401F003
:101130001001009100990168012241F02001016035
:1011400001684FF4005501F02001009100990168F9
:10115000012641F00401016000684FF4005100F0E5
:101160000400009000982046FFF718FA0020029033
:101170000220039069462046CDE90056FFF704F9A6
:1011800004B070BDFEE70000FEE7000000000000B4
:10119000EFF30980BFF36F8F0D4B1A6820E9F00F52
:1011A00010602DE908404FF0500080F3118801F0E5
:1011B000BBFE4FF0000080F31188BDE808401968BD
:1011C0000868B0E8F00F80F30988BFF36F8F7047AD
:1011D00070000020F0B581B040F64007C2F2000771
:1011E00014463A780D460646D2BB07F13000782106
:1011F000FFF737F803203861786143F6663140F62F
:10120000E800C0F60001C2F20000B961F8614FF4D5
:10121000806038620020B8627862F862396640F215
:101220004411C2F20001013179661021B9665321DF
:101230003867F86678673970452147227970BA7047
:10124000FA703971522120227971BA71F9715421E1
:1012500039727972B872F87238737873B873F87338
:10126000EFF311874FF0200181F3118830462946B2
:10127000224600F005F887F3118801B0F0BD0000A8
:101280002DE9F04F81B040F6400300EB4000C2F280
:10129000000303EBC006F06A14460228894611D009
:1012A000012845D048B9354655F8247F6868B842CA
:1012B00076D9F9430844A04279D20026304601B0DD
:1012C000BDE8F08F56F8245F301DA6F1040BB2463E
:1012D000A6F108080026009020E000BFDBF800001F
:1012E000EA4311440144471BB94238BF0F46D8F8BE
:1012F0000000A74228BF2746284449463A46FEF741
:1013000063FFDBF800007919E41B0D1A3E44B94471
:1013100018BF0D46002CCAF8005057D0009801683D
:10132000A942DBD9EA43DBF800001144DBE700BF48
:10133000B04658F8247FD8F80410B94204D9FA43CB
:10134000306A114404E000BF306AFA43114401449A
:10135000A14238BF0C46C51B56F81C0FAC4238449E
:101360000CD249462246FEF72FFFE019C8F80000CC
:101370002646304601B0BDE8F08F00BF49462A46F8
:10138000FEF722FF671B306809EB05013A46FEF7BE
:101390001BFFC8F800702646304601B0BDE8F08F4C
:1013A000316AFA4310440844A042FFF486AF56F86D
:1013B0001C0F71683844A1EB0708A0450AD94946BB
:1013C0002246FEF701FF381928602646304601B054
:1013D000BDE8F08F49464246FEF7F6FEA4EB08074B
:1013E000306809EB08013A46FEF7EEFE2F6026460C
:1013F000304601B0BDE8F08F82B080B582B0CDE953
:10140000042304AA019201AA00F006F802B0BDE884
:10141000804002B0704700002DE9F04F9BB091462C
:1014200006AA16924022002505901A900DF1580840
:1014300000208B461792CDE918550AE03B46CDF8BF
:1014400004A000F029FB19985946B0F1FF3F40F382
:10145000EB821BF8013B252B1CD0002B00F0D48223
:10146000DDE91720411C914207D8169A13541998A8
:10147000179A01301990084618919042E3D11699B5
:101480001A98FFF7A7FE1899884240F0B78218957E
:10149000D9E700BF04314FF0000A11F8033CA3F173
:1014A00023070D2F00F25A800222DFE807F00757CA
:1014B00057575757575709570B57570C082202E0F1
:1014C000042200E0012211F8023C4AEA020AA3F1D8
:1014D00023070D2F00F24A800222DFE807F00747BA
:1014E00047474747474709470B47470C082202E051
:1014F000042200E0012211F8013C4AEA020AA3F1A9
:1015000023070D2F3CD80222DFE807F0083A3A3AC9
:101510003A3A3A3A0A3A0C3A3A0D00BF082202E047
:10152000042200E001220B784AEA020AA3F1230711
:101530000D2F1CD80222DFE807F00D1A1A1A1A1A0A
:101540001A1A0F1A0B1A1A074AEA020A0431A4E7F8
:101550000122F9E70822F7E70422F5E70339A3F1AE
:101560003A0212F10A0F07D310E000BF0239A3F1CB
:101570003A0212F10A0F09D200222E2B40D083E04A
:101580000139A3F13A0212F10A0FF5D30231002218
:1015900002EB820203EB420211F8013C303AA3F164
:1015A0003A0717F10A0F27D302EB820203EB42023C
:1015B0000B78303AA3F13A0717F10A0F1ED302EB6A
:1015C000820203EB42024B78303AA3F13A0717F15B
:1015D0000A0F55D302EB820203EB42028B78303ABA
:1015E000A3F13A0717F10A0F01F10401D0D2023931
:1015F0002E2B05D048E000BF013900BF2E2B43D170
:101600000E4616F8013FA3F13A0717F10A0F03D26D
:101610000027314639E000BF0231002707EB87077A
:1016200003EB47070B78303FA3F13A0616F10A0F98
:101630002BD307EB870703EB47074B78303FA3F12A
:101640003A0616F10A0FC0F0098107EB870703EB92
:1016500047078B78303FA3F13A0616F10A0FC0F026
:10166000FF8007EB870703EB4707CB78303FA3F1F9
:101670003A0616F10B0F01F10401CFD8013904E04D
:1016800001312E2BBCD000BF002703F0FB06682ED3
:1016900022D101F1040B00BF1BF8033C03F0FB0156
:1016A000682921D11BF8023C03F0FB01682940F0B6
:1016B0004B801BF8013C03F0FB01682916D11BF895
:1016C000043B03F0FB016829E6D0ABF1030BA3F167
:1016D000580120290ED93DE001F1010BA3F1580179
:1016E000202907D936E000BFABF1020BA3F1580166
:1016F00020292FD8DFE801F01E1C1C1C1C1C1C1C00
:101700001C1C1C3A4A1C1C1C1C1C1C1C1C1C1C1CCD
:10171000781C1C861C121C1C1E0000BFD9F800007F
:10172000011DC9F800100168009240460A2285E6B2
:1017300089E600BFD9F80000011DC9F80010016852
:1017400000924046102279E6ABF1010BA3F158015B
:101750002029CFD9252B7FF476AEDDE91720411C57
:1017600091423FF68AAE169A25237FE6DDE91720DF
:10177000D9F80030411C1F1D9142C9F800703FF696
:101780007CAE1A68169B1A5471E600BFD9F8001097
:1017900042F210750B1DC9F800300C68002C214670
:1017A000C4F1000348BF19460A2904935AD34FF0E5
:1017B000020800BF64295FD3B1F57A7F56D3A942EE
:1017C00058D341F25973CDF2B713A1FB033648F257
:1017D0009F63C0F2010399424FEA563108F10408B1
:1017E000E8D8A8F1010847E0D9F800001022011D4F
:1017F000C9F80010016808200090404608230195B0
:101800001FE600BFD9F800100A1DC9F800200C68B7
:1018100006E000BFB0F1FF3F04F101047FF713AE13
:101820002778002F3FF40FAEDDE917214B1C9342C0
:1018300007D8169847541998179A013019461893E3
:1018400019909142E6D116991A98FFF7C3FC18999E
:10185000884240F0D38019981895DBE7013114E7EE
:10186000023112E74FF0010806E000BF08F101085D
:1018700002E000BF08F10208B84538BFB8466AB1B7
:101880000021002C48BF01210AF0040341EA930122
:10189000551A1AF0020605D126E000BF00251AF0FD
:1018A000020621D007BB002800F1A480B4F1FF3F5D
:1018B00046DD5FEA4A7166D5DDE917214B1C93428C
:1018C00008D816982B2242541998179A01301946B5
:1018D0001893199091424ED116991A98FFF77AFCF5
:1018E0001899884244D089E05FEACA71DBD1002DA3
:1018F000D9D0039603E000BF002835467AD46E1E87
:10190000AE4238BFA84539D2DDE917214B1C9342BE
:1019100008D81698202242541998179A013019466F
:10192000189319909142E7D116991A98FFF752FC33
:101930001899884262D1199800211891DCE700BFFC
:10194000DDE917214B1C934208D816982D224254EA
:101950001998179A013019461893199091420FD18E
:1019600016991A98FFF736FC1899049C884245D1BD
:10197000002018901998002805D53BE0039E92E7B7
:10198000049C002836D46EB90DF158084046214613
:101990000A223B460095CDF804A000F07DF8002512
:1019A00051E500BF0AF001013943EDD1002DEBD024
:1019B0006E1EAE4238BFA845E6D2DDE917214B1CAA
:1019C000934208D81698302242541998179A013039
:1019D000194618931990914209D116991A98FFF750
:1019E000F9FB1899884209D119980021189100280B
:1019F0003546DDD500250DF1580824E54FF0FF30C0
:101A00001BB0BDE8F08F00BF40B1189A52B10598E5
:101A100006A9FFF7DFFBDDE9181004E000201BB08A
:101A2000BDE8F08F002108441BB0BDE8F08F000036
:101A3000074B19680868B0E8F00F80F30988BFF316
:101A40006F8F4FF0000080F311884EF00D0E70473D
:101A50007000002080B54FF0500080F31188BFF374
:101A60006F8FBFF34F8F01F07FFE30B14EF6045001
:101A7000CEF200004FF080510160002080F3118809
:101A800080BD00007047000040F6E840C2F2000050
:101A9000FFF72ABAFEE700002DE9F04F81B08B4630
:101AA000DDE90A911F4615469345044602D24FF0E0
:101AB00001081FE04FF00408584600BFB0FBF5F0E6
:101AC000A84211D3B0FBF5F0A84211D3B0FBF5F05A
:101AD000A8420FD3B0FBF5F008F10408A842EDD2FC
:101AE000A8F1030806E000BFA8F1020802E000BF69
:101AF000A8F10108B84538BFB846B9F1000F01F0A8
:101B00000100009034D098BB2026880748BF3026BB
:101B10004FF0000A2020002F18BF064608E000BF43
:101B2000C4F808A0E068A9F10109B0F1FF3F1FDD8A
:101B3000B9F1000F1CD0C8451AD2D4E90120411CCC
:101B4000914207D822681654E06862680130E0606C
:101B50000846A1609042E5D121682069FFF73AFB71
:101B6000A1688842DCD04FF0FF30E060A9F10109A4
:101B7000E068002859D4012602E000BF013F6E430F
:101B8000022F01D3013F03E0BBFBF6F1A9421BD3B7
:101B9000012F05FB06F601D9013F03E0BBFBF6F17F
:101BA000A94211D3012F05FB06F601D9013F03E03D
:101BB000BBFBF6F1A94207D3012F05FB06F6DDD8E2
:101BC000BBFBF6F1A942DAD2A2682EA76168BBFB83
:101BD000F6FA531C8B4209D817F80A00216888547A
:101BE000E068616801301A46A360E0608A4209D16A
:101BF00021682069FFF7EEFAA26890420CD1E068F4
:101C00000022A26000280AD4B6FBF5F10AFB16BB3D
:101C1000AE420E46DAD202E04FF0FF30E0600099AB
:101C2000002918BFB9F1000F02D101B0BDE8F08F53
:101C30002025A9F101064E4538BFC845F5D2616897
:101C4000531C8B4207D820688554E06861680130D6
:101C50001A46A360E0608A4209D121682069FFF733
:101C6000B9FAA168884207D1E0680022A260B0F109
:101C7000FF3FB146DDDCD8E74FF0FF30E06001B058
:101C8000BDE8F08F303132333435363738394142A0
:101C900043444546FEE7000090B0FEF799FC00245F
:101CA0000120CDE90B44CDE9094406900A904FF498
:101CB000E0104FF4803102250F9006A8CDE90714FB
:101CC000CDE90D51FEF780FE20B1EFF3108072B622
:101CD000FEE700BF0F20CDE901054FF48060CDE99C
:101CE000040401A802210394FEF758FD20B1EFF38C
:101CF000108072B6FEE700BFFFF70AFA00F020F886
:101D0000FFF7F4F900F03AF8FEE7000080B5EFF3D2
:101D1000058111B9EFF3108111B16FF0050080BD9D
:101D200040F2DC31C2F200010968022903D1EFF36D
:101D300011810029F1D108B100F0AEFF002080BD73
:101D4000EFF3058010B9EFF3108018B16FF00500C4
:101D5000704700BF40F2DC30C2F200000168022987
:101D600004D1EFF311810029F0D10168002911BFDE
:101D70004FF0FF30012101600020704780B5EFF384
:101D8000058010B9EFF3108010B16FF0050080BD31
:101D900040F2DC30C2F200000168022904D1EFF306
:101DA00011810029F1D1016801291CBF4FF0FF30DA
:101DB00080BD0221016001F039F8002080BD0000E3
:101DC0002DE9F04186B000240B460494EFF3058121
:101DD00021B1204606B0BDE8F08100BFEFF31081CD
:101DE00021B10024204606B0BDE8F08140F2DC318C
:101DF000C2F200010968022908D100284FF000044E
:101E0000EFF31181E5D019B1E3E700BF0028E8D076
:101E100000240DF117018DF817408AB31768D2F826
:101E200018E0002F18BF3946BEF1000F08BF4FF071
:101E3000180EBEF1380FD4D81779FF07D1D15769E2
:101E4000D2E902864FEA970C002F654608BF80252D
:101E5000B8F1000F26D05C2EC3D312690024002AEB
:101E600018BF002FB5D0CDE900E26246CDF808805A
:101E700001F02AFC0446204606B0BDE8F08100BF10
:101E800080254FF0180E04AFAAB2CDF800E00197FC
:101E900001F0EAFB0499012808BF0C46204606B071
:101EA000BDE8F081002E9CD11269002A99D1EAE7A1
:101EB0002DE9F041044600F0B1FD40F27006C2F297
:101EC0000006F06840F620650130F0603068C2F22C
:101ED000000558B13069002840F007813068E16A98
:101EE000C06A884298BF3460FFE000BF3460F06889
:101EF000012840F0FA80284600F040FD05F114006A
:101F000000F03CFD05F1280000F038FD05F13C0033
:101F100000F034FD05F1500000F030FD05F16400E3
:101F200000F02CFD05F1780000F028FD05F18C0093
:101F300000F024FD05F1A00000F020FD05F1B40043
:101F400000F01CFD05F1C80000F018FD05F1DC00F3
:101F500000F014FD05F1F00000F010FD05F58270B1
:101F600000F00CFD05F58C7000F008FD05F596708D
:101F700000F004FD05F5A07000F000FD05F5AA7065
:101F800000F0FCFC05F5B47000F0F8FC05F5BE703F
:101F900000F0F4FC05F5C87000F0F0FC05F5D27017
:101FA00000F0ECFC05F5DC7000F0E8FC05F5E670EF
:101FB00000F0E4FC05F5F07000F0E0FC05F5FA70C7
:101FC00000F0DCFC05F5027000F0D8FC05F50770A8
:101FD00000F0D4FC05F50C7000F0D0FC05F5117094
:101FE00000F0CCFC05F5167000F0C8FC05F51B7080
:101FF00000F0C4FC05F5207000F0C0FC05F525706C
:1020000000F0BCFC05F52A7000F0B8FC05F52F7057
:1020100000F0B4FC05F5347000F0B0FC05F5397043
:1020200000F0ACFC05F53E7000F0A8FC05F543702F
:1020300000F0A4FC05F5487000F0A0FC05F54D701B
:1020400000F09CFC05F5527000F098FC05F5577007
:1020500000F094FC05F55C7000F090FC05F56170F3
:1020600000F08CFC05F5667000F088FC05F56B70DF
:1020700000F084FC05F5707000F080FC05F57570CB
:1020800000F07CFC05F57A7000F078FC05F57F70B7
:1020900000F074FC05F5826000F070FC05F224404D
:1020A00000F06CFC05F5876000F068FC05F24C4020
:1020B00000F064FC40F25818C2F20008404600F0FC
:1020C0005DFC08F11407384600F058FC06F1640086
:1020D00000F054FC06F13C0000F050FC06F150000A
:1020E00000F04CFCC6F81C8037627068716A421CB4
:1020F000E06A72608842626488BF706200EB8000B0
:1021000005EB8000211D00F07BFC00F0ABFC30698A
:1021100088B13068E16AC06A884228BFBDE8F081B2
:102120004EF60450CEF200004FF080510160BFF334
:102130004F8FBFF36F8FBDE8F081000040F2700554
:1021400040F620664EF60458C2F20005C2F20006C0
:10215000CEF200084FF0805703E000BF204600F0A9
:1021600099FCA868D0B100F059FCA86CC468201D87
:1021700000F0D6FBE8680138E860A8680138A8607C
:1021800000F070FC94F859000228EAD00128E5D04C
:1021900070B9206B00F07EFCE0E700BF30680228D9
:1021A000DFD3C8F80070BFF34F8FBFF36F8FD8E74E
:1021B0004FF0500080F31188BFF36F8FBFF34F8F44
:1021C000FEE700002DE9F0470A9C8246206B164688
:1021D0000F46DDE908599100A5229846FEF739F827
:1021E0003978206B84F8341000EB86003978043895
:1021F000002920F007064BD0787884F835007878ED
:10220000002845D0B87884F83600B87800283FD048
:10221000F87884F83700F878D0B3387984F8380043
:102220003879A8B3787984F83900787980B3B879A7
:1022300084F83A00B87958B3F87984F83B00F87913
:1022400030B3387A84F83C00387A08B3787A84F866
:102250003D00787AE0B1B87A84F83E00B87AB8B137
:10226000F87A84F83F00F87A90B1387B84F840001F
:10227000387B68B1787B84F84100787B40B1B87BCB
:1022800084F84200B87B00281CBFF87B84F8430028
:102290000027201D84F84370372D28BF3725E562BD
:1022A000C4E9135700F076FB04F1180000F072FB4C
:1022B000C5F13800A061304651464246246164624F
:1022C000676584F8587000F01BFBB9F1000F2060BF
:1022D00018BFC9F80040BDE8F08700000648006854
:1022E000006880F3088862B661B6BFF34F8FBFF312
:1022F0006F8F00DF00BF000008ED00E081B000201C
:10230000009040F20C00C2F2000000684FF0500153
:1023100081F31188BFF36F8FBFF34F8F013007D068
:10232000FEE700BF009830B9009820B9009810B9B6
:1023300000980028F6D001B07047000088B040F245
:10234000E80AC2F2000A4FF0000B0DF11009E8464E
:10235000DAF8080005681DB1C068046801E000BF34
:10236000002400F0D9FD01F0F9F9DAF81010064662
:10237000884224D3002DCAF8106053D0A64251D30E
:1023800001F0F0FADAF80800C068C7683D1D284679
:1023900000F0C6FAF869012840F08080B8693F6112
:1023A0000119B14279605BD90AF108005DE000BF14
:1023B0006860DAF8080039462D6100F0EFFADAF8C3
:1023C0000800016821B3C068C56804682F1D38463D
:1023D00000F0A6FA696A28468847E8690128EED124
:1023E000A8692044A042E3D8DAF80000002800F0F1
:1023F0002581CDE904B4069501F0A0F9DAF80000D2
:1024000049460022002300F0F1FE0028D7D115E153
:10241000DAF80C10CAF81060CAE9021001F0A2FA4A
:1024200046E000BF15B1002206E000BFDAF80C005C
:102430000068B0FA80F04209DAF80000A11B00F051
:1024400001FC01F08FFA98BB4EF60450CEF200006A
:102450004FF080510160BFF34F8FBFF36F8F27E0C4
:10246000311B814206D20AF10C000068294600F0B7
:1024700095FA13E0DAF80000002800F0FD80CDE9BD
:1024800004B4069701F05AF9DAF800004946002230
:10249000002300F0ABFE002800F0EE80796A384699
:1024A000884705E00AF10C00006800F077FA00BFE9
:1024B000DAF800004146002200F0AEFF00283FF4A9
:1024C00047AF0098B0F1FF3F06DCDDE9012003993A
:1024D000904700980028EBD4029E706910B1301D1F
:1024E00000F01EFA01F03AF9DAF8101007468842B7
:1024F0000DD30098CAF8107009283BD9D8E700BF5F
:102500006860DAF8080021462D6100F047FADAF831
:102510000800016821B3C068C568D0F800802C1D90
:10252000204600F0FDF9696A28468847E8690128D5
:10253000EDD1A86940444045E2D8DAF8000000280F
:1025400072D0CDE904B8069501F0F8F8DAF8000089
:1025500049460022002300F049FE0028D7D163E05D
:10256000DAF80C10E846CAE902100098CAF81070B0
:1025700009289DD80121814011F0C70F10D0019A80
:10258000B0693146831841F8043FBB4236611DD91A
:1025900097420AF10800BFF487AF93421AD283E74B
:1025A00011F4047F34D001980028B0615AD0384427
:1025B00031460AF10C0241F8040F3661B84288BF77
:1025C0000AF10802106800F0E9F971E7BA1A8242CC
:1025D000FFF468AF716A30468847F06901287FF4DC
:1025E00067AFDAF80000002832D00198B16906968A
:1025F0000844CDE904B001F0A1F8DAF8000049463A
:102600000022002300F0F2FD00287FF451AF1FE00C
:1026100005287FF44DAF96F82C0000287FF448AFD2
:10262000304600F037FA43E74FF0500080F311884E
:10263000BFF36F8FBFF34F8FFEE700BF4FF0500027
:1026400080F31188BFF36F8FBFF34F8FFEE700BF9A
:102650004FF0500080F31188BFF36F8FBFF34F8F9F
:10266000FEE700BF4FF0500080F31188BFF36F8F7B
:10267000BFF34F8FFEE700BF4FF0500080F311888B
:10268000BFF36F8FBFF34F8FFEE70000F0B581B04F
:10269000044600F0C3F994F94560012E0FDB04F104
:1026A000240500BF286850B1284601F021F9002810
:1026B00018BF00F03BFBF0B2013E0128F2D8FF2624
:1026C00084F8456000F0CEF900F0A8F994F9447060
:1026D000012F0EDB04F11005286850B1284601F0E7
:1026E00007F9002818BF00F021FBF8B2013F0128CC
:1026F000F2D884F8446001B0BDE8F04000F0B2B90F
:1027000070B5044600F008FC40F2241CC2F2000C34
:10271000DCF8040050B19CF80000002818BF4FF00E
:1027200000404FF000058CBB8FE000BF41F28020DD
:10273000C2F20000C21D22F0070210F00701A0EB58
:10274000020318BF104600224FF44065CCF8100079
:10275000CCF81420002918BF03F540654119083949
:1027600021F00701CCF80410C1E90022DCF80420B4
:10277000091AC0E9002101208CF800004FF0004048
:10278000CCE90211002C4FF000055ED020405CD156
:1027900004F1100020F00702600708BF04F10802EE
:1027A000002A4FF0000550D0DCF8080082424CD8D7
:1027B000604650F810EFDEF8045095422BD2DEF858
:1027C0000010B9B174464D68954217D20B68ABB191
:1027D0005D68954216D21868A0B14568954215D239
:1027E00004689CB16568954214D22168A646002908
:1027F000E9D110E00CF110000DE000BF8E4620463C
:1028000009E000BF9E46084605E000BF8646184620
:1028100001E000BFA646DCF804108E4514D0016824
:10282000DEF80040AB1A112B04604CD30EEB02050E
:10283000680719D04FF0500080F31188BFF36F8FF5
:10284000BFF34F8FFEE700BF002501F08BF868074C
:1028500054D04FF0500080F31188BFF36F8FBFF357
:102860004F8F00BFFEE700BF0CF110006B60CEF889
:10287000042000BF0368AB420AD21868A8420BD2FA
:102880000368AB4204D218681A46A842F2D304E0A7
:102890000246184601E000BF1A4653686C68D61815
:1028A000AE4202D11C44154654602B19834206D116
:1028B000DCF80430984202D009C823446B60AA4275
:1028C000286018BF156001F10805DEF80400DCE996
:1028D0000212091A9142CCF8081038BFCCF80C103B
:1028E0009CF8001000294FF0000118BF40F0004094
:1028F000CEE9001001F036F86807AAD1284670BD6D
:10290000034642F2FD20C0F600004FF0807C21F02B
:10291000010103E90310A3F1400043F8202C7047A4
:10292000D0E9013201699A60D1F804C08268844517
:10293000536008BF4A6000220261086801380860DD
:102940000868704740F28033C2F20003036040F22F
:102950008010C2F200000860802010607047000004
:1029600040F2E473C2F20003036040F2E430C2F2CA
:10297000000008604FF48070106070474FF0FF3126
:10298000024642F8081F00214260C0E903220160AC
:1029900070470000002101617047000010B5D1F8B8
:1029A00000E01EF1010213D000F108046268136810
:1029B000734511D853681C68744511D85A68146857
:1029C00074450FD854682368A4467345EED90BE0CC
:1029D0000269D2F804C007E09446224604E000BF32
:1029E0009C4601E094461A46C1F804C0CCF8081091
:1029F0008A605160086101680131016010BD00000A
:102A0000D0F800C0436808619A684B608A609A6891
:102A1000996051600CF10101016070474FF0500066
:102A200080F31188BFF36F8FBFF34F8F40F20C001C
:102A3000C2F2000001684A1C026009B1704700BF81
:102A40004EF60450CEF200000068000608BF704742
:102A50004FF0500080F31188BFF36F8FBFF34F8F9B
:102A6000FEE7000040F20C00C2F20000016839B13C
:102A70000139016018BF7047002080F3118870474A
:102A80004FF0500080F31188BFF36F8FBFF34F8F6B
:102A9000FEE7000070B5002808BF70BD40F22416A4
:102AA000C2F200060446307854F8041C002818BF0F
:102AB0004FF0004008420DD0A4F108052A689AB1F1
:102AC0004FF0500080F31188BFF36F8FBFF34F8F2B
:102AD000FEE700BF4FF0500080F31188BFF36F8F07
:102AE000BFF34F8FFEE700BF21EA000044F8040C5B
:102AF00000F012FA54F8041CB0680844B06006F103
:102B0000100000BF0368AB420AD21868A84221D265
:102B10000368AB4204D218681A46A842F2D301E017
:102B2000024618465368D418AC4202D119441546DF
:102B300051606B18834205D17368984202D009C86E
:102B400019446960AA42286018BF1560BDE870404A
:102B500000F008BF1A465368D418AC42E9D1E5E743
:102B60004EF21000CEF2000000210160816040F2C0
:102B70000801C2F20001096844F6D352C1F26202B0
:102B8000A1FB02124FF0FF3101EB921141600721CE
:102B90000160704741F6846CC2F2000CDCF8002042
:102BA00022B3634653F8082F42B3634653F8102FFD
:102BB00052B3634653F8182F62B3634653F8202F7D
:102BC00072B3634653F8282F82B3634653F8302F0D
:102BD00092B3634653F8382F002A18BF7047072274
:102BE00019600CEBC2014860704700BF00226346C9
:102BF00019600CEBC2014860704700BF01221960E8
:102C00000CEBC20148607047022219600CEBC20154
:102C100048607047032219600CEBC201486070479E
:102C2000042219600CEBC20148607047052219604C
:102C30000CEBC20148607047062219600CEBC20120
:102C40004860704770B515460E460446FFF7E6FE2D
:102C500094F84400FF2804BF002084F8440094F84E
:102C60004500FF2804BF002084F84500FFF7FAFE66
:102C7000A06B28B12046BDE87040FFF707BD00BF3C
:102C800004F1240031462A4600F092F82046BDE8BF
:102C90007040FFF7FBBC000070B588B340F27005D0
:102CA000C2F200050446686950B14FF0500080F34D
:102CB0001188BFF36F8FBFF34F8F00BFFEE700BFD8
:102CC000686901306861AE6928680430FFF728FE42
:102CD0002868A419446005D3286A29680431FFF7DD
:102CE0005DFE08E0E86929680431FFF757FEE86AED
:102CF000844238BFEC6200F035FE002818BF70BD7A
:102D00004EF60450CEF200004FF080510160BFF348
:102D10004F8FBFF36F8F70BD40F27001C2F20001A0
:102D20008A6B0260896941607047000040F2700060
:102D3000C2F20000012101637047000070B5D8B1F4
:102D400040F27004C2F200040D4621681831FFF70A
:102D500025FEA66920680430FFF7E2FD681C15D047
:102D60002068AD19456019D3206A21680431BDE897
:102D70007040FFF713BE00BF4FF0500080F3118882
:102D8000BFF36F8FBFF34F8FFEE700BF54F8500BB8
:102D9000011D2046BDE87040FFF732BEE0692168A2
:102DA0000431FFF7FBFDE06A854238BFE56270BD84
:102DB000F0B581B0C0B140F27004C2F200040D461B
:102DC000216816461831FFF71BFEA76920680430FA
:102DD000FFF7A6FD96B154F8500B011D204601B037
:102DE000BDE8F040FFF70CBE4FF0500080F31188B3
:102DF000BFF36F8FBFF34F8FFEE700BF2068ED1961
:102E0000456007D3206A2168043101B0BDE8F04075
:102E1000FFF7C4BDE06921680431FFF7BFFDE06A38
:102E2000854238BFE56201B0F0BD000010B588B042
:102E30000020CDE9050006A805A904AAFFF782FD38
:102E4000059800283CD0069C002C43D05C21049AB5
:102E5000079107995C2947D12063022084F8590023
:102E600007A80021CDE9001042F23D10C0F6000095
:102E700027A100230294FFF7A5F92046FFF718F8D1
:102E8000079840F27004C2F20004A062B0B100F0F2
:102E9000E1FD411C32D0012810D14FF0500080F3E9
:102EA0001188BFF36F8FBFF34F8F4FF0FF30E06299
:102EB000012020610020A06100F094F808B010BD4E
:102EC0004FF0500080F31188BFF36F8FBFF34F8F27
:102ED000FEE700BF4FF0500080F31188BFF36F8F03
:102EE000BFF34F8FFEE700BF4FF0500080F3118813
:102EF000BFF36F8FBFF34F8FFEE700BF4FF050005F
:102F000080F31188BFF36F8FBFF34F8FFEE700BFD1
:102F100049444C450000000040F27000C2F200003D
:102F2000416901314161704780B540F2700EC2F2D3
:102F3000000EDEF8141019B10121CEF8301080BD5A
:102F40000021CEF83010DEF8241040F6206C01EBA2
:102F50008103C2F2000C5CF823208AB101EB8102EC
:102F60000CEB820353F8042F5268181D82421A603A
:102F700020D0D068CEF80000CEF8241080BD00BF6D
:102F80000CEB8302A2F12803E1B15A6922BB0129AB
:102F900018D01A6812BB022914D053F8142CFAB9AD
:102FA00003290FD053F8282C0439002AA3F1500329
:102FB000EAD0D3E752681A60D068CEF80000CEF8A5
:102FC000241080BD4FF0500080F31188BFF36F8F45
:102FD000BFF34F8FFEE700BF0139BFE70239BDE7FE
:102FE0000339BBE7B0B584B04EF2004CCEF2000C12
:102FF0009CF800100291FF218CF800109CF8001042
:103000008DF807109DF8071001F0500240F23C11B6
:10301000C2F200010A7007224A609DF90720B2F14E
:10302000FF3F5FDC032200BFD31C4B609DF807000D
:1030300040008DF807009DF90700B0F1FF3F23DC49
:10304000931C4B609DF8070040008DF807009DF928
:103050000700B0F1FF3F17DC531C4B609DF80700E1
:1030600040008DF807009DF90700B0F1FF3F0BDC31
:103070004A609DF80700043A40008DF807009DF96A
:1030800007000028D0D4131D032B2BD14FF4407020
:10309000486002988CF80000DCF8200940F47000C9
:1030A000CCF82009DCF8200940F07040CCF8200969
:1030B000FFF756FD40F20C04C2F200040025256023
:1030C000FFF70CF9FFF730FF039520684FF0500130
:1030D00081F31188BFF36F8FBFF34F8F013011D091
:1030E000FEE700BF4FF0500080F31188BFF36F8FF1
:1030F000BFF34F8FFEE700BF039830B9039820B9A4
:10310000039810B903980028F6D0002004B0B0BD91
:1031100070B582B070B11C46B3B1F9B9F2B14FF0DD
:10312000500080F31188BFF36F8FBFF34F8F00BF44
:10313000FEE700BF4FF0500080F31188BFF36F8FA0
:10314000BFF34F8FFEE700BF4FF0500080F31188B0
:10315000BFF36F8FBFF34F8FFEE700BF51B14AB986
:103160004FF0500080F31188BFF36F8FBFF34F8F84
:10317000FEE700BF50230193019B502B2CD1069EEC
:103180000123002984F8463014BF22602460C4E97A
:103190000F01FFF743FC2068D4E90F12002502FB62
:1031A0000103013901FB0201A563C4E90130FF20DD
:1031B000E16084F8440084F8450004F11000FFF752
:1031C000DDFB04F12400FFF7D9FBFFF74BFC2046A1
:1031D00084F84C6002B070BD4FF0500080F311884D
:1031E000BFF36F8FBFF34F8FFEE700002DE9F04F65
:1031F00083B00292C0B11D4617460E460446E9B19F
:10320000022D03D1E06B012840F0888000F096FA8F
:1032100010BB0FB34FF0500080F31188BFF36F8FD6
:10322000BFF34F8FFEE700BF4FF0500080F31188CF
:10323000BFF36F8FBFF34F8FFEE700BF206C0028F6
:10324000DED04FF0500080F31188BFF36F8FBFF3D3
:103250004F8F00BFFEE700BFFFF7E0FBA06B022D22
:1032600066D0E16B884263D304F1100801206F46F9
:103270000DF108090DE000BF2046FFF707FA00F046
:1032800071FBFFF7CBFBA06BE16B88424FF00000B6
:103290004ED30299002973D0C00702D03846FFF7F9
:1032A0003BFDFFF7DFFBFFF737FEFFF7B7FB94F8B7
:1032B0004400FF2804BF002084F8440094F845002F
:1032C000FF2804BF002084F84500FFF7CBFB3846F9
:1032D000494600F077F9002858D1FFF79FFBD4F852
:1032E00038A0D4F83CB0FFF7BDFBDA45C4D1029951
:1032F0004046FFF723FD2046FFF7C8F900F032FBF8
:103300000028BED14EF60450CEF200004FF080519E
:103310000160BFF34F8FBFF36F8FB2E74FF05000E4
:1033200080F31188BFF36F8FBFF34F8FFEE700BFAD
:10333000A76B226CD2B19DB3E0683146FCF744FF25
:10334000E168206C2268091A9142E16003D2616849
:1033500040420844E060A81EB0FA80F040093946B7
:10336000002F18BF012108403F1A26E020680025E1
:1033700020BB606800F076FA656005461EE000BF7D
:10338000FFF770FB002003B0BDE8F08F2046FFF789
:103390007DF900F0E7FA002003B0BDE8F08F00BF30
:1033A000A0683146FCF710FF216CD4E901200844E5
:1033B0009042A06001D32068A0600025781CA06323
:1033C00054F8240FA0B1204600F092FA50B14EF606
:1033D0000450CEF200004FF080510160BFF34F8FD8
:1033E000BFF36F8FFFF73EFB012003B0BDE8F08F06
:1033F000002DF7D04EF60450CEF200004FF0805171
:103400000160BFF34F8FBFF36F8FFFF72BFB0120DE
:1034100003B0BDE8F08F00002DE9F04F83B00292B9
:1034200090B116460D460446002949D000F086F9B1
:10343000A0B99EB14FF0500080F31188BFF36F8F99
:10344000BFF34F8FFEE700BF4FF0500080F31188AD
:10345000BFF36F8FBFF34F8FFEE700BFFFF7DEFABA
:10346000D4F838A0BAF1000F38D0226C52B1E0681D
:1034700063688118E160994224BF2168E1602846B1
:10348000FCF7A2FEAAF10100A06354F8100F80B16E
:10349000204600F02DFA002800F086804EF60450F9
:1034A000CEF200004FF080510160BFF34F8FBFF3A9
:1034B0006F8F0126FFF7D6FA304603B0BDE8F08FD4
:1034C000206C0028B2D04FF0500080F31188BFF379
:1034D0006F8FBFF34F8F00BFFEE700BF002E4FF08E
:1034E000000662D0EB46584604F12408FFF714FCAE
:1034F0000DF10809FFF7B6FAFFF70EFDFFF78EFA98
:1035000094F84400FF2808BF84F8446094F845000C
:10351000FF2808BF84F84560FFF7A4FA58464946DB
:1035200000F050F860B12046FFF7B0F800F01AFA4A
:10353000FFF774FAA76BFFF795FA1FBB3CE000BFDB
:10354000FFF76CFAA76BFFF78DFA2FB12046FFF754
:103550009DF800F007FA15E002994046FFF7EEFBF0
:103560002046FFF793F800F0FDF958B94EF60450E5
:10357000CEF200004FF080510160BFF34F8FBFF3D8
:103580006F8F00BFFFF74AFAD4F838A0BAF1000FE6
:103590007FF46BAF02980028ACD10026FFF762FAE7
:1035A000304603B0BDE8F08F0126FFF75BFA3046E6
:1035B00003B0BDE8F08F00BF0026304603B0BDE881
:1035C000F08F0000B0B5D8B10D4619B30446FFF72F
:1035D00025FA40F2700CC2F2000CDCF818202968C1
:1035E0004B1C21D0D4E9000EDCF83830834221D0C6
:1035F00072451FD30124FFF735FA2046B0BD00BF46
:103600004FF0500080F31188BFF36F8FBFF34F8FDF
:10361000FEE700BF4FF0500080F31188BFF36F8FBB
:10362000BFF34F8FFEE700BF0024FFF71BFA2046D1
:10363000B0BD00BFA2EB0E0291420DD9881A2860DE
:10364000DCF838002060DCF8180060600024FFF728
:1036500009FA2046B0BD00BF002001242860FFF712
:1036600001FA2046B0BD00002DE9F04383B00746C3
:103670009000984615468946FFF742F8F8B106468D
:103680005C20FFF73DF8B8B10446DDE90A100022DE
:10369000266384F85920CDE90010384649462A4669
:1036A00043460294FEF78EFD2046FEF701FC012002
:1036B00003B0BDE8F08300BF3046FFF7EBF94FF0F1
:1036C000FF3003B0BDE8F08370B586B00B9CBCB191
:1036D0000C9EFEB15C250495049D5C2D24D10A9DB1
:1036E0003463022486F8594005ACCDE900540296B3
:1036F000FEF768FD3046FEF7DBFB059806B070BDAF
:103700004FF0500080F31188BFF36F8FBFF34F8FDE
:10371000FEE700BF4FF0500080F31188BFF36F8FBA
:10372000BFF34F8FFEE700BF4FF0500080F31188CA
:10373000BFF36F8FBFF34F8FFEE7000040F27000C2
:10374000C2F20000016900290FBF01204069B0FAF0
:1037500080F0400918BF40007047000040F2700040
:10376000C2F20000806970472DE9F04381B040F259
:103770007006C2F20006706920B1706B002401303F
:10378000706367E0B06910F10109C6F8189020D3A2
:10379000F069006850B14FF0500080F31188BFF31A
:1037A0006F8FBFF34F8F00BFFEE700BFF069316A34
:1037B000F1613062B06B0130B063F069006828B12C
:1037C000F069C068C068406802E000BF4FF0FF3099
:1037D000F062F06A40F620688145C2F2000801D22A
:1037E00000242EE0F0690024006813E0F86A716A92
:1037F000884288BF706200EB800008EB8000294699
:10380000FFF7FEF8F86A3168C96AF269884228BF92
:103810000124106890B1F069C068C7683D4655F84A
:10382000040F81450CD32846FFF77AF8B86A0028C0
:10383000DCD007F11800FFF773F8D7E74FF0FF303F
:10384000F0623068C06A00EB800058F82000012860
:1038500088BF0124306B002818BF0124204601B026
:10386000BDE8F08370B588B140F27006C2F2000680
:1038700004463068A0420BD04FF0500080F311880E
:10388000BFF36F8FBFF34F8FFEE700BF002070BD07
:10389000206D18B3411EE06AE26C216590424FF042
:1038A000000008BF70BDC1B9251D2846FFF738F8D4
:1038B000E06CC0F13801E062A161716A884240F6B3
:1038C000206188BF706200EB8000C2F2000101EB52
:1038D00080002946FFF794F8012070BD4FF050009A
:1038E00080F31188BFF36F8FBFF34F8FFEE70000A7
:1038F00070B5C068C5686DB105F118042046FFF7C2
:103900000FF840F27006C2F20006706960B106F16D
:1039100064001AE04FF0500080F31188BFF36F8FFE
:10392000BFF34F8FFEE700BF2C1D2046FEF7F8FFC8
:10393000E86A716A884240F6206188BF706200EBD5
:103940008000C2F2000101EB80002146FFF758F829
:10395000E86A3168C96A884292BF0020012030635A
:1039600070BD00002DE9F04140F27005C2F2000583
:10397000686968B1FFF752F8686901386861686979
:1039800080B10024FFF76EF82046BDE8F08100BF4B
:103990004FF0500080F31188BFF36F8FBFF34F8F4C
:1039A000FEE700BFE8680028EBD0686E88B340F6F9
:1039B0002066C2F200064FF0010800BF286FC768FA
:1039C00007F11800FEF7ACFF3C1D2046FEF7A8FFEC
:1039D000F86A696A884288BF686200EB800006EB7B
:1039E00080002146FFF70CF8F86A2968C96A884206
:1039F00028BFC5F83080686E0028DFD1E86900680C
:103A000020B1E869C068C068406801E04FF0FF304D
:103A1000E8626C6B4CB10126FFF7A6FE002818BFC8
:103A20002E63013CF8D100206863286B0028A8D0E1
:103A30004EF60450CEF200004FF080510160BFF30B
:103A40004F8F0124BFF36F8FFFF70CF82046BDE8BE
:103A5000F081000070B586B0FEF7E0FF40F2E806A6
:103A6000C2F20006306808BB06F114042046FEF7D7
:103A700085FF06F128052846FEF780FF40F6305204
:103A800040F6D053C6E902450025C2F20002C2F258
:103A900000030A2010210095FFF73AFB306028B19F
:103AA00043F66131C0F60001FFF774F8FEF7DAFF64
:103AB0003068D8B10020CDE9040005A804A903AA04
:103AC000FEF74EFFDDE903200221059DCDE9001040
:103AD00042F23D30C0F6000009A100230295FFF735
:103AE000F3FD706010B1012006B070BD4FF05000C2
:103AF00080F31188BFF36F8FBFF34F8FFEE700BFD6
:103B0000546D722053766300010200000000000033
:103B1000000001020304060708090000000001027A
:103B200003040000583B00080000000000000000F3
:103B30000000000000000000000400001800000069
:103B40000000000000000000020304050607080949
:103B50000A0B0C0D0E0F10104C45445F5461736B33
:103B600000546D7251005465726D696E616C000095
:103B7000903B000800000020100000002801000811
:103B8000A03B000810000020B824000044010008F9
:103B900001000000100000000024F400AAAAAAAA54
:04000005080000ED02
:00000001FF
