:020000040800F2
:100000004007002091010008F919000805190008AF
:10001000F5190008010500080D1A0008000000008D
:10002000000000000000000000000000011A0008AD
:100030000505000800000000FD190008051A000869
:10004000AB010008AB010008AB010008AB010008E0
:10005000AB010008AB010008AB010008AB010008D0
:10006000AB010008AB010008AB010008AB010008C0
:10007000AB010008AB010008AB010008AB010008B0
:10008000AB010008AB010008AB010008AB010008A0
:10009000AB010008AB010008AB010008AB01000890
:1000A000AB010008AB010008AB010008AB01000880
:1000B000AB010008AB010008AB010008AB01000870
:1000C000AB010008AB010008AB010008AB01000860
:1000D000AB010008AB010008AB010008AB01000850
:1000E000AB010008AB010008AB01000800F002F80A
:1000F00000F03FF80AA090E8000C82448344AAF183
:100100000107DA4501D100F034F8AFF2090EBAE880
:100110000F0013F0010F18BFFB1A43F0010318473B
:10012000241A0000441A0000103A24BF78C878C18D
:10013000FAD8520724BF30C830C144BF04680C60ED
:10014000704700000023002400250026103A28BF35
:1001500078C1FBD8520728BF30C148BF0B60704739
:10016000642900F07780002070471FB51FBD10B5CF
:1001700010BD00F037F91146FFF7F7FF01F05EFC04
:1001800000F055F903B4FFF7F2FF03BC01F040FCA7
:100190000948804709480047FEE7FEE7FEE7FEE71B
:1001A000FEE7FEE7FEE7FEE7FEE7FEE70448054957
:1001B000054A064B70470000091A0008ED000008C8
:1001C00040010020400700204003002040030020A1
:1001D000704700000FB4044910B503AA029800F05C
:1001E000D3F810BC5DF814FB700000202DE9F0413D
:1001F0000E460446002020622046E168884730B35E
:10020000252805D0D4E901219047206A401CF2E757
:10021000E168204600278847050018D0A5F1410075
:10022000192802D820354FF4006732462946204667
:100230002760FFF795FF40B1012804D0F61D26F096
:1002400007060836D8E7361DD6E72846DAE7206ADB
:10025000BDE8F0812DE9F0410646002410687529BB
:10026000314616A510D0AFF30080002802DA4042D4
:1002700013A507E031688A0701D512A502E04907F6
:1002800004D511A5012401E0AFF3008000210A226A
:1002900006F1240709E0B0FBF2FCB0FBF2F302FB2D
:1002A0001C00303078541846491C0028F3D12346EE
:1002B0002A463046BDE8F04100F00CB800000000CE
:1002C0002D0000002B000000200000007047704748
:1002D000704770472DE9F0470D469946924604460F
:1002E00000F124080168880604D5E06921F01001B6
:1002F000216000E00120A84201DD471B00E000274B
:10030000A1697A1902EB0900081AA0612078C006D9
:1003100002D42046AFF30080002608E0D4E9012192
:100320001AF806009047206A401C761C20624E4551
:10033000F4DB2078C0060AD52046AFF3008006E043
:10034000D4E9012130209047206A401C2062381EE9
:10035000A7F10107F4DC07E0D4E9012118F8050052
:100360009047206A401C2062281EA5F10105F3DC9D
:100370002046AFF300802078000602D50220BDE8B9
:10038000F0870120FBE70000074B70B50D467B446A
:1003900000F011F80446284600F020F810B14FF0A4
:1003A000FF3070BD204670BD8316000001694A1CF5
:1003B00002610878704700B58FB0CDE901310021A6
:1003C000059105497944CDE9031011466846FFF7C8
:1003D0000DFF0FB000BD0000E5FFFFFF007B00F048
:1003E00080007047754600F02BF8AE460500694660
:1003F000534620F00700854618B020B5FFF7D6FE1B
:10040000BDE820404FF000064FF000074FF0000815
:100410004FF0000BAC46ACE8C009ACE8C009ACE852
:10042000C009ACE8C00921F007018D46704710B53E
:100430000446AFF300802046BDE81040FFF7A2BE9F
:100440000048704710000020B0B582B0044600207C
:10045000019021688A68D2074FD1886840F0010076
:10046000886040F20800C2F2000000684DF6836127
:10047000C4F21B31A0FB0101880C01900198A0B1CE
:10048000019801380190019878B1019801380190E4
:10049000019850B1019801380190019828B1019854
:1004A0000138019001980028EAD100F0D9FC2168B8
:1004B0008968C9071CD1054603E000BF8068C007F2
:1004C0001AD100F0CDFC411B20680329F6D38168C6
:1004D000C907F3D1A06A40F01000A062E06A40F0C2
:1004E0000100E062002084F82400012002B0B0BDC9
:1004F000002002B0B0BD00BF002002B0B0BD0000BF
:10050000FEE7000070470000EFF3108072B600BFF6
:10051000FEE7000010B581B00022009290F8242080
:10052000012A03D10221084601B010BD4B68012207
:10053000062B80F8242015D8026803EB8303A3F16F
:10054000050E1F23D2F834C003FA0EF40B682CEA10
:10055000040C03FA0EF444EA0C045463092B17D973
:1005600037E000BF02680C2B20D803EB8303A3F114
:1005700023041F23D2F830C003FA04FE0B682CEAD0
:100580000E0C03FA04F444EA0C041463092B20D87B
:10059000D2F810C003EB4303072489689C402CEA7F
:1005A0000404994021431161002136E003EB8303E9
:1005B000A3F141041F23D2F82CC003FA04FE0B68F8
:1005C0002CEA0E0C03FA04F444EA0C04D462092B5E
:1005D000DED903EB4304D2F80CC0A4F11E0E0724AD
:1005E000896804FA0EF42CEA040401FA0EF121439E
:1005F00023F00104102CD1600ED142F20841C4F264
:100600000101A1F10804A2420ED0816A41F020014B
:100610008162012101E000BF0021002280F8242036
:10062000084601B010BD00BF0A68120230D40A6843
:10063000102B42F400020A602CD140F20801C2F2F1
:10064000000109684DF68362C4F21B32A1FB02125D
:10065000910C01EB8101490000910099E1B10099F1
:10066000013900910099C9B10099013900910099AF
:10067000B1B1009901390091009999B100990139FE
:100680000091009900294FF00001E8D1C5E700BFB3
:100690000021C2E70021C0E70021BEE70021BCE73E
:1006A0000021BAE70021B8E70068C06C704700007D
:1006B000B0B5002800F0A8800446806A20B1216807
:1006C0008868C0070BD114E00020E06284F82400A1
:1006D000204600F09BF821688868C00709D0886828
:1006E00020F00100886000F0BBFB21688A68D20717
:1006F00026D1A06AC0063AD4A06A41F20212904301
:100700000230A062E069D4E9013240EA030C531ED2
:10071000B3FA83F35D091346B2F5807F18BF2B024D
:10072000207D257B01284CEA450030D135B3A56AF0
:1007300045F02005A562E56A45F00105E56226E081
:10074000054602E08868C007D3D000F089FB401B53
:1007500021680328F6D38868C007F3D0A06A40F068
:100760001000A062E06A40F00100E062A06AA06AA6
:1007700040F01000A0620120B0BD00BFD4F818C046
:100780004EF60005CFF6FF7505EB4C352B434D6853
:10079000B2F5807F25F4694543EA05034B608B6819
:1007A0004FF2FD75CFF6E17503EA050343EA000356
:1007B0008B6001D0012A07D122690023CFF6F073A4
:1007C00003EB025201E000BF0022CB6A23F4700366
:1007D0001A43CA62896840F6FE62CFF61F72114062
:1007E000814207D10020E062A16A012262F3010187
:1007F000A162B0BDA06A40F0100020F00200A0622B
:10080000E06A40F00100E0620120B0BD80B586B032
:10081000014640F60000C4F20100096800F5E0520C
:1008200091424FF00001CDE9041101D006B080BD26
:1008300041F21801C4F202010A6842F400720A602F
:100840000A6802F400720192019A0A6842F00402F6
:100850000A60096801F004010191019908210291DF
:100860000321039102A900F0F1F906B080BD000058
:10087000F0B581B000270D460446009700F0F0FA6D
:1008800021688A68D20543D406464868C00503D467
:10089000C86A10F4700F45D040F20800C2F20000A0
:1008A0000768022000F086FB216844F624130A69D9
:1008B000B7FBF0F0C2F292431A4206D1CA6844F67E
:1008C0002413C0F292031A425ED00A6942F29243A4
:1008D000C1F249231A4207D1CA6842F29243C0F2D8
:1008E00049031A4200F0C0800A6949F24923C0F264
:1008F00024031A424FF0FC0257D1CF681F4208BFB1
:100900005422009B02FB00F7BB4253D3C3E000BF5D
:10091000A06A40F02000A06284F82470012001B099
:10092000F0BD00BF0868800700F1B580681C00F0CA
:10093000A880FDB90868800772D50868800700F1B3
:10094000AA80086880076BD50868800700F1A3803B
:100950000868800764D50868800700F19C800868F3
:1009600080075DD508688007E4D594E008688007B3
:1009700000F1918000F074FA801B2168A842F5D93B
:1009800008688007F2D44BE00A6942F29243C1F250
:1009900049231A424FF0290207D1CB6842F292470D
:1009A000C0F249073B4208BF1422009B02FB00F73C
:1009B000BB4270D2681C4FD055BB0098B8422FD3B1
:1009C0000098013000900098B84264D20098B84274
:1009D00026D30098013000900098B8425BD200986E
:1009E000B8421DD30098013000900098B84252D20E
:1009F0000098B84214D30098013000900098B84293
:100A0000DBD348E00098013000900098B84233D220
:100A100000F026FA801BA842F4D90098B842F1D21F
:100A2000A06A40F00400A062002084F824000320A3
:100A300001B0F0BD0098013000900098B8422AD271
:100A40000098013000900098B84224D200980130FC
:100A500000900098B8421ED2009801300090009893
:100A6000B842E7D317E000BF5422009B02FB00F717
:100A7000BB429FD30FE000BF21680CE008688007ED
:100A800009D40868800706D4086880075CBF086836
:100A90005FEA8070F2D56FF012000860A06A40F43F
:100AA0000070A062886800F46020B0F5602F01D16A
:100AB000207B18B1002001B0F0BD00BFA06A20F477
:100AC0008070A062A06AC004F4D4A06A40F0010063
:100AD000A062002001B0F0BD10B5044690F82400DB
:100AE000012804BF022010BD012084F82400204604
:100AF000FFF7AAFC20B1002184F8241010BD00BF2C
:100B000042F2044C2068A16AC4F2010C40F20132A6
:100B100091430CF57F7201F580719042A16233D050
:100B2000A16A21F48011A1624168490504D5A16A36
:100B3000012363F30D31A162A16A0023C9044FF0C0
:100B4000000144BFE16A21F00601E1626FF0020199
:100B500084F824300160816801F46021B1F5602FD0
:100B600006D190420AD1DCF8001011F4702F05D0A4
:100B7000816841F480118160002010BD816841F4DA
:100B8000A0018160002010BDDCF8001011F4702F6E
:100B9000C6D0A16A41F48011A162DCF800104905B9
:100BA000C5D4C9E7B0B5044690F82400012804BFB5
:100BB0000220B0BD0121206884F824108168C90793
:100BC00009D0816821F00101816000F049F92168B4
:100BD0008968C9070ED1214651F8280F41F2011248
:100BE00020EA0202002042F001020A60002184F89B
:100BF0002410B0BD054602E08068C007EBD000F0CD
:100C00002FF9411B20680329F6D38168C907F3D067
:100C1000A06A214640F01000A06251F82C2F01205C
:100C2000E1E70000B0B5044600F01AF9054640F2CD
:100C30000000C2F200000078611C18BF044400BF2D
:100C400000F00EF9401BA042FAD3B0BD2DE9F04FE1
:100C500082B041F20042C4F201020E6804239042C5
:100C600008BF0323002E009300F0F68040F20C4EE4
:100C70004FF6FF7CC4F2010E00220124C1F2100CD9
:100C80004FF0000A4FF0000943E000BF012502F0D9
:100C90000C040F27A7402BEA070705FA04F43C438E
:100CA00043F82640D1F804B040F20045C4F20105F3
:100CB0005FEACB332B6854BF23EA080343EA0803F7
:100CC0002B606B685FEA8B3454BF23EA080343EA66
:100CD00008036B605FEACB24AB6854BF23EA0803C8
:100CE00043EA08035FEA8B24AB60DEF800304FF084
:100CF000010454BF23EA080343EA0803CEF8003096
:100D00000E680AF1010A36FA0AF302F1040200F051
:100D1000A38004FA0AF816EA080FF1D04B6863457D
:100D200012DC122B56D8DFE803F0350B4549555538
:100D300055555555555555555555554D510000BFAF
:100D4000D1F80C9046E000BF4FF6FF77C1F22107C3
:100D5000BB420FDC0027C1F21107BB421AD00027AB
:100D6000C1F21207BB4215D00027C1F22107BB42D6
:100D700010D02FE00027C1F22207BB420AD0002783
:100D8000C1F23107BB4205D00027C1F23207BB4296
:100D900020D100BF8B684BB1012B14BFC0F8148069
:100DA000C0F810804FF0080914E000BF4FF00409AC
:100DB00010E000BFCB6803F108090BE04FF0000919
:100DC00008E000BFCB6803F1040903E0CB6803F13E
:100DD0000C0900BF13460546BAF1080F24BF203B9B
:100DE00004352E680F279F40BE4309FA03F33343AF
:100DF0002B60CB79DB067FF583AF41F21804C4F298
:100E0000020423684FEA9A0643F001032360236833
:100E100040F6000403F001030193019B40F20043FC
:100E2000C4F20103A3F57E7353F826B0C4F20104A3
:100E3000A0420FD040F60044C4F20104A0423FF4A7
:100E400025AF41F20004C4F20104009DA04208BF96
:100E500002251CE700251AE702B0BDE8F08F00006C
:100E600040F23810C2F200000068704740F2000003
:100E700040F23811C2F20000C2F2000100780A68A4
:100E8000104408607047000080B542F20000C4F2D0
:100E90000200016841F010010160032000F07AF8BF
:100EA0000F2000F005F800F027F8002080BD0000BA
:100EB00070B540F20006C2F2000640F20801327836
:100EC000C2F200014FF47A730968B3FBF2F20446F0
:100ED000B1FBF2F1084600F04DFC0F2C4FF001057C
:100EE00008D838B94FF0FF3021460022002500F025
:100EF00025F87460284670BD82B041F21800C4F233
:100F000002000168022241F001010160016801F064
:100F1000010101910199416841F0805141604068AF
:100F200000F08050009000980420C4F20100016895
:100F300062F31A61016002B07047000010B54EF60E
:100F40000C5CCEF2000CDCF80030C3F3022E8EF005
:100F50000704042C28BF0424BEF103034FF0FF3E16
:100F60000EFA04F438BF0023A14399400EFA03F3AC
:100F70009A43114300F00F02043A624409010C3213
:100F800000F16043B0F1FF3FC8BF03F56442117048
:100F900010BD00004EF60C51CEF200010A684FF66B
:100FA000FF031A4060F30A2242F0806040F0FD70B7
:100FB0000860704780B5012818D0022836D0102864
:100FC00032D141F20401C4F202010A6851F8040C62
:100FD000C00129D5C2F383402DA3185CD2033DD4B0
:100FE00040F60012C0F23D02504343E041F20400DB
:100FF000C4F20200C16940F202320A40B2F5817FB8
:1010000004BF4FF4004080BD01F44071B1F5407F52
:101010001CD0B1F5007F07D1006A49F64041800736
:1010200001EAE07080BD00BF002080BD00F0B4F98F
:1010300041F20401C4F2020109680222C1F38131C4
:1010400002EB4101B0FBF1F080BD00BF50F8040C91
:101050004FF22441800301EAE07080BD0A6810A3CA
:10106000C2F340429A5C41F20023C0F27A03B3FB20
:10107000F2F250430968490248BF80BD4AF6AB21ED
:101080004000CAF6AA21A0FB0101480880BD00BFAC
:1010900002030405060708090A0B0C0D0E0F1010B9
:1010A000010200002DE9F04182B00446007841F2CF
:1010B0001C06C007C4F202064AD0306810F08058FF
:1010C00008D1306840F080503060306800F08050C7
:1010D0000190019847F20007C4F200073868C00584
:1010E00012D4386840F480703860FFF7B9FE0546C6
:1010F0003868C00508D4FFF7B3FE401B6428F7D951
:10110000032002B0BDE8F081706810F4407012D086
:10111000616801F4407188420DD0706840F240422D
:10112000C4F24222012320F4407113600023C0075F
:10113000136071602AD17068616820F440700843C0
:10114000B8F1000F706003D1306820F0805030603B
:101150002068810707D556F8181CA26821F4404181
:10116000114346F8181CC00604D4002002B0BDE8A4
:10117000F08100BF56F8180CE16820F480000843A5
:1011800046F8180C002002B0BDE8F081FFF768FEB9
:10119000054641F2883700BF70688007CBD4FFF75F
:1011A0005FFE401BB8424FF00300F5D9EBE70000AB
:1011B0002DE9F04381B0002800F0858042F200085C
:1011C000C4F202080446D8F800000D4600F00700FB
:1011D00088420CD2D8F8000020F007002843C8F855
:1011E0000000D8F8000000F00700A8426BD120688A
:1011F00041F204098107C4F2020917D5410705D558
:10120000D9F8001041F4E061C9F80010010705D5D4
:10121000D9F8001041F46051C9F80010D9F8001055
:10122000A26821F0F0011143C9F80010C00741D1B4
:10123000D8F8000000F00700A8420CD9D8F8000048
:1012400020F007002843C8F80000D8F8000000F09C
:101250000700A84237D12068410707D5D9F8001008
:10126000E26821F4E0611143C9F80010000708D5D5
:10127000D9F80000216920F4605040EAC100C9F8A3
:101280000000D9F8002002F00C00082841F20020EC
:10129000C0F27A0050D141F63233C2F38341C0F636
:1012A0000003595CD2033BD440F60010C0F23D006D
:1012B000484341E0606802280AD001282AD159F841
:1012C000041C890308D4012001B0BDE8F08300BFED
:1012D00059F8041C8901F6D5D9F8001021F0030152
:1012E0000843C9F80000FFF7BBFD064641F2883706
:1012F000D9F80000616800F00C00B0EB810F97D0C6
:10130000FFF7AEFD801BB842F2D9032001B0BDE863
:10131000F08300BF59F8041C8907D4D5DCE700BF6F
:10132000D9F8002041F61833C2F34042C0F600035A
:101330009A5C4843B0FBF2F0D9F8001041F61A323B
:10134000C1F30311C0F60002515C40F2080220FA1A
:1013500001F140F20400C2F200000068C2F2000293
:101360001160FFF7A5FD002001B0BDE8F08300008B
:1013700040F2080041F20401C2F20000C4F202018E
:101380000068096841F62A32C1F30221C0F6000262
:10139000515CC8407047000040F2080041F204016F
:1013A000C2F20000C4F202010068096841F62A3264
:1013B000C1F3C221C0F60002515CC8407047000072
:1013C0002DE9F04182B0002868D00446007841F24F
:1013D0000006C007C4F2020625D0706800F00C00B9
:1013E00004281BD0706800F00C00082802D1706837
:1013F000C00313D46068002800F06881B0F5A02F06
:1014000000F07C81B0F5803F00F07C81306820F4F2
:1014100080303060306820F4802076E130688003CE
:1014200001D56068D0B32078800718D5706810F0B7
:101430000C0F07D0706800F00C0008286ED170689F
:10144000C0036BD43068800702D52069012825D1FC
:101450003068616920F0F80040EAC100306020780F
:1014600000071FD42078400732D4E56995B1706831
:1014700000F00C00082840F08F80012D0ED070681D
:10148000216A00F480328A4208D1616A00F4701047
:10149000884203D1002002B0BDE8F081012002B0F3
:1014A000BDE8F081A069002862D00020C4F242208B
:1014B0000121C0F88014FFF7D3FC0546706A80074D
:1014C00000F18C80FFF7CCFC401B0228F6D92AE102
:1014D000F06910F0805808D1F06940F08050F06158
:1014E000F06900F080500090009847F20007C4F2C5
:1014F00000073868C00529D4386840F48070386027
:10150000FFF7AEFC054600BF3868C0051ED4FFF7E4
:10151000A7FC401B6428F7D905E100BF206900281B
:1015200040F20000C4F2422000F0828001210160FC
:10153000FFF796FC054600BF306880073FF588AF8F
:10154000FFF78EFC401B0228F6D9ECE0E06800288B
:1015500000F08080052800F09780012800F0988036
:10156000306A20F001003062306A20F0040092E01E
:101570000020C4F242200021C0F88014FFF770FC64
:10158000054600BF706A80077FF56CAFFFF768FC07
:10159000401B0228F6D9C6E00027C4F242270020EB
:1015A0003866FFF75DFC022D05460BD130688001DF
:1015B00040F1BE80FFF754FC401B02284FF00300AF
:1015C000F4D968E7306880017FF564AFFFF748FC25
:1015D000401B02284FF00300F4D95CE740F20800FA
:1015E000C2F20000006844F6D351C1F26201A0FBD0
:1015F0000101480A019000BF00BF0198411E002868
:1016000001913FF42FAF00BF0198411E00280191C6
:101610003FF428AF00BF0198411E002801913FF41C
:1016200021AF00BF0198411E00280191E4D119E7C4
:1016300000210160FFF714FC054600BF30688007F9
:101640007FF50DAFFFF70CFC401B02284FF00300A5
:10165000F4D920E7306A20F001003062306A20F0CF
:1016600004003062FFF7FCFB054641F2883700BFFB
:10167000306A800720D5FFF7F3FB401BB8424FF0DC
:101680000300F5D907E700BF306A40F0040030627C
:10169000306A40F001003062FFF7E2FB054641F29C
:1016A000883700BF306A800706D4FFF7D9FB401B9C
:1016B000B842F7D937E000BFB8F1000F7FF4D5AEDC
:1016C000F06920F08050F061CFE600BF306820F470
:1016D00080303060306820F480203060FFF7C0FB3D
:1016E000054600BF306880037FF59DAEFFF7B8FB6D
:1016F000401B64284FF00300F4D9CCE6306840F476
:1017000080203060306840F480303060FFF7A8FB04
:10171000054600BF306880033FF585AEFFF7A0FBAC
:10172000401B6428F6D9032002B0BDE8F08100BF59
:10173000206AB0F5803F05D17168A26821F40031BC
:10174000114371607168626A21F474111043084397
:10175000706001203866FFF783FB04463068800123
:101760003FF598AEFFF77CFB001B02284FF003000B
:10177000F4D990E6411E0020B0EB116F1CBF012090
:1017800070474EF21002CEF2000251604EF6235125
:10179000CEF20001F0230B700721906011607047BA
:1017A000002804BF0120704710B5044690F83D00A2
:1017B00028B9002084F83C00204600F05FF824207F
:1017C00084F83D002068D4E90212C36823F4005372
:1017D000C360036923F440531A430261D4E904232C
:1017E0001143C268194341F20C639A431143C1602B
:1017F0004169A26921F44071114343F60002C4F229
:1018000001029042416103D0FFF7B2FD02E000BF48
:10181000FFF7C2FD6268192148439100B0FBF1F067
:1018200048F21F51C5F2EB11A0FB01235A096FF0DA
:10183000630302FB0300322303EB0010A0FB010152
:10184000F02303EA5113206803EB0212C1F34311A2
:1018500011448160016921F490410161416921F0E5
:101860002A014161C16841F40051C160002020217A
:10187000206484F83D1084F83E1010BD70B586B029
:1018800040F60044C4F20104006804F5305100261B
:101890008842049602D006B070BD00BF41F2180025
:1018A000C4F20200016802AD41F4804101600168A8
:1018B00001F4804101910199016841F00801016042
:1018C0000068294600F0080001900198402002902D
:1018D00002200390032005902046FFF7B7F98020EF
:1018E000CDE90206204629460496FFF7AFF9042009
:1018F000C4F20100016841F0E06141F004010160BF
:1019000006B070BDFEE70000B0B584B040F2C40080
:1019100042F20041C2F20000C4F2010100244FF47F
:101920006022012504730475C261C0E9001484605B
:101930000561FEF7BDFE002818BFFEF7E5FD032098
:10194000CDE9010540F2C400C2F2000001A90394F0
:10195000FEF7E0FD002818BFFEF7D6FD04B0B0BDCD
:1019600081B041F21800C4F20200016841F0100198
:101970000160016801F0100100910099016841F0D7
:1019800020010160016801F02001009100990168C7
:1019900041F004010160016801F004010091009927
:1019A000016841F008010160006800F00800009043
:1019B000009801B07047000080B540F2F40043F693
:1019C0000001C2F20000C4F2010100234FF00C0C30
:1019D0004FF4E13280E80E00C0E90333C0E905C3EB
:1019E000C361FFF7DDFE002808BF80BDBDE8804071
:1019F000FEF78ABDFEE70000FEE70000704700002A
:101A000070470000FFF732BA70470000FEE70000A1
:101A10007047000043F60001C4F201010A68520653
:101A200009D40A6852065CBF0A685FEA426202D4BF
:101A30000A685206F2D5C2B24A60704794B0FFF706
:101A400023FA00240120CDE90F44CDE90D440A908A
:101A50000E904FF4E0104FF48031022513900AA845
:101A60000494CDE90244CDE90B14CDE91151FFF7FF
:101A7000A7FC28B1EFF3108072B600BFFEE700BFED
:101A80000F20CDE905054FF48060CDE9080405A8D5
:101A900002210794FFF78CFB20B1EFF3108072B6A0
:101AA000FEE700BF022001904FF40040039001A820
:101AB000FFF7F8FA20B1EFF3108072B6FEE700BF2F
:101AC000FFF74EFFFFF778FFFFF71EFF40F2C40459
:101AD000C2F200040CA500BF2046FEF7FDFF204621
:101AE0003221FEF7C5FE2046FEF7DEFD0646204603
:101AF000FFF758F8B1B22846FEF76CFB4FF4FA70C6
:101B0000FFF790F8E8E700BF76616C7565203D202F
:101B100025640D0A00000000010200000000000022
:101B2000000001020304060708090000000001028A
:101B3000030402030405060708090A0B0C0D0E0F27
:101B400010100000681B00080000002010000000BA
:101B500028010008781B0008100000203007000052
:101B60004401000800000000010000001000000017
:081B70000024F4000000000055
:04000005080000ED02
:00000001FF
