:020000040800F2
:10000000980E002099010008F11B0008CD1A000885
:10001000ED1B0008BD0D000845230008000000008E
:100020000000000000000000000000003523000870
:10003000C10D000800000000F51B0008392300086E
:10004000B3010008B3010008B3010008B3010008C0
:10005000B3010008B3010008B3010008B3010008B0
:10006000B3010008B3010008B3010008B3010008A0
:10007000B3010008B3010008B3010008B301000890
:10008000B3010008B3010008B3010008B301000880
:10009000B3010008B3010008B3010008B301000870
:1000A000B3010008B3010008B3010008B301000860
:1000B000B3010008B3010008B3010008B301000850
:1000C000B3010008B3010008B3010008B301000840
:1000D000B3010008B3010008B3010008B301000830
:1000E000B3010008B3010008B301000800F002F8F2
:1000F00000F042F80AA090E8000C82448344AAF180
:100100000107DA4501D100F037F8AFF2090EBAE87D
:100110000F0013F0010F18BFFB1A43F0010318473B
:10012000542E0000742E0000103A24BF78C878C105
:10013000FAD8520724BF30C830C144BF04680C60ED
:10014000704700000023002400250026103A28BF35
:1001500078C1FBD8520728BF30C148BF0B60704739
:100160001FB59DE8030000F065FD00F011FB1FBD09
:1001700010B500F076FB10BD00F017FD1146FFF73B
:10018000EFFF02F02DFA00F08BFD03B4FFF7F0FF54
:1001900003BC02F09FF90000094880470948004766
:1001A000FEE7FEE7FEE7FEE7FEE7FEE7FEE7FEE727
:1001B000FEE7FEE704480549054A064B7047000084
:1001C00041230008ED00000898080020980E002048
:1001D000980A0020980A002070B50446C06881077C
:1001E00013D0800601D5A56A04E0A16960680844BF
:1001F0002169451A204600F087FA00220646294662
:10020000204600F0D1F9304670BD002070BD70B5B9
:1002100010B1BDE87040DFE70025074C6E1E07E017
:100220002046FFF7D9FF00B13546206D20F00104CC
:10023000002CF5D1284670BD1800002010B50446EA
:1002400003E002F014FE401C09D014F8010B05492C
:100250000028F6D1BDE810400A2002F008BE4FF099
:10026000FF3010BD6C000020032A40F2308010F0F7
:10027000030C00F0158011F8013BBCF1020F624441
:1002800098BF11F801CB00F8013B38BF11F8013BD2
:10029000A2F1040298BF00F801CB38BF00F8013B7F
:1002A00011F0030300F01083083AC0F0088051F801
:1002B000043B083A51F804CBA0E80810F5E7121DFA
:1002C0005CBF51F8043B40F8043BAFF30080D20719
:1002D00024BF11F8013B11F801CB48BF11F8012BE5
:1002E00024BF00F8013B00F801CB48BF00F8012B08
:1002F00070474FF0000200B51346944696462039E9
:1003000022BFA0E80C50A0E80C50B1F12001BFF4CE
:10031000F7AF090728BFA0E80C5048BF0CC05DF834
:1003200004EB890028BF40F8042B08BF704748BF82
:1003300020F8022B11F0804F18BF00F8012B7047F6
:100340004FF0013C50F8042B51F8043B9A4221D164
:10035000A2EB0C03934313EACC1317D150F8042BF0
:1003600051F8043B9A4215D1A2EB0C03934313EAD4
:10037000CC130BD150F8042B51F8043B9A4209D10D
:10038000A2EB0C03934313EACC13DBD04FF0000035
:10039000704700BFD01A01BAB1FA81F101F018011B
:1003A00022FA01F0CB40DBB2C0B2C01AC1F1200189
:1003B0002CFA01F3D11A914311EAC311E6D1704727
:1003C0007047704770472DE9F05F054617460C46A9
:1003D000C86820F4201040F48000C860800602D570
:1003E000084600F0B4F9E06841F282014FF0FF3AAC
:1003F0000140022903D0204600F052F9B9E000F490
:100400002041B1F5004F0FD1C00306D56168E06A05
:10041000884200D80846606006E02069E0626060BB
:10042000606902F059F8A061A0680022EEB20028CD
:100430000DDAE1688B050AD4C043A06041F4903026
:100440002260E0606068411C61600670AAE0E068BC
:100450009146226040F40050E060206978BB6069FA
:1004600002F03CF804F124054FF00108A8B1A0897E
:1004700010F4407F08D0E06900F058FA206118B10C
:10048000E06840F4006017E0C4F81C802561E06873
:1004900020F4407040F480600EE0E06900F046FA1D
:1004A00000282061F0D0E06840F4006010F4407F44
:1004B000E06002D140F48070E06020696060E06834
:1004C00025696FF0010BC1051ED56168E06A88429D
:1004D00000D80846411B04D02246284600F0EAF81E
:1004E000E8BB1FB1E562C4E9015959E0681CE0624C
:1004F0006060E069401EA060E06840F48030E06029
:1005000030462E70BDE8F09F17B100F480320AE04B
:100510006068411C61600670E0680A2E40F480301B
:10052000E06006D00022E16A6068814203D90B4690
:1005300002E00122F7E70346B4F80CC05B1B5FEA58
:100540004C5C04D4D4F81CC09C4500DD02B381424D
:1005500000D80146002BA1EB0008E56200E008E0AE
:10056000C4E9015907DD22461946284600F0A2F8E1
:1005700008B15046C6E7B8F1000F09D0A169E5629D
:100580006560A1EB0800A061E06840F01000E06049
:1005900047B16168A069E562491B08446560A061D4
:1005A0005846AFE73046ADE72DE9F0410446164620
:1005B0000D464769007B80072ED0384601F08EFF3C
:1005C00050BB3EB3012E02D0022E25D104E02046BE
:1005D00000F002FA05441DE0384601F07DFFE168B5
:1005E000002841F01001E16005DA204600F058F8DB
:1005F0000120BDE8F081C9030BD56268E16A914230
:1006000000D81146A26911442269891A814200DD8D
:1006100008460544002D01DA0220EAE7E16A606835
:10062000E268814206D29103E06203D522F40031F0
:1006300041F01002A6690027AE4213DCE16A814254
:1006400001D90B4600E0034603EB060C2369ACEB33
:10065000030CAC4506DD814201D98C4600E084469E
:100660009C4505D1A760276042F02000A5620DE0FF
:10067000AD1BE669AE1B8142A66000D90846C01AD0
:10068000281A20605819606022F0200003490840B1
:10069000E060002084F84870ABE70000BFCFD7FFD0
:1006A000C16821F4001141F08001C1600021816026
:1006B000016070472DE9F047814614460E464FF021
:1006C000FF383248D5685769054209D03846A169D4
:1006D00001F026FF002811DB2C48C0430540E560EF
:1006E0002B4632464946384601F01CFFA16920F0EE
:1006F0000042B21A11440028A16103D02046FFF73E
:10070000CFFF4046BDE8F08770B504460569C06A72
:100710006168884200D80846E16821F42011E16050
:10072000C90312D5A84208D02246411B2846FFF72C
:10073000C1FF10B14FF0FF3070BD0020E562C4E989
:100740000150E06820F48030E060002070BD10B5FA
:100750000446C06820F02000E060A16AA0698842D9
:100760000DD02046FFF7D0FFE06820F4405040F065
:100770001000E060A06AA0612069E062606044F25D
:100780004001E0688843E06010BD000010000200F6
:1007900010B542485421FFF7ACFD41485421FFF702
:1007A000A8FD40485421FFF7A4FD3F493B483C4A7F
:1007B0003F4B08603D490A603A491960531C036584
:1007C000481C1065012008653B48344A39A178442B
:1007D00000F046F920B9384878440A3800F0DEF9CC
:1007E00037482F4A35A1784400F03AF920B9344807
:1007F00078440A3800F0D2F932482A4A2FA17844C6
:1008000000F02EF920B92F4878440A3800F0C6F9D4
:1008100040232248DC000021224600F0FEF820B1EF
:1008200025487844543800F0B9F91D482246402341
:10083000002100F0F2F820B121487844543800F04B
:10084000ADF9184822461023002100F0E6F80028F0
:1008500006D01C487844BDE81040563800F09EB9D8
:1008600010BD104870B5006D20F001040B4800F079
:100870006FF90B4800F06CF90A4800F069F909E0DB
:10088000206D20F00105204600F062F9204600F0BE
:100890007CF82C46002CF3D170BD0000180000201D
:1008A0006C000020C0000020000000200400002098
:1008B0000800002072000000EB2600007700000016
:1008C000DA260000B326000010B5203AC0F00B80F5
:1008D000B1E81850A0E81850B1E81850A0E8185036
:1008E000203ABFF4F5AF5FEA027C24BFB1E81850AC
:1008F000A0E8185044BF18C918C0BDE810405FEA0E
:10090000827C24BF51F8043B40F8043B08BF704789
:10091000D20728BF31F8023B48BF11F8012B28BF8E
:1009200020F8023B48BF00F8012B704770B506461F
:1009300000F060F9056806F10B0020F00704B442EE
:100940009CBF002070BD2B466A68BAB11068A042F7
:1009500010D304F1080188423CBF5068586007D3A7
:100960005168101941601168091B016058601460DA
:10097000101D70BD13465268002AE7D12146284653
:1009800000F044F90028DED170BD70B50446051FA3
:1009900000F030F90068002C14BF446870BD002CD2
:1009A00018BFAC423CBF20466468F8D301680A18FF
:1009B000AA4218BF456003D12A6805461144016068
:1009C00028684119A1421CBF6C6070BD61686960F4
:1009D00021680844286070BD10B50146C2689007C0
:1009E00003D0900607D5886A0AE000F007F90121D4
:1009F0000160881E10BD8B69486818440B69C01AD5
:100A000091F848301BB191F84910401A10BD1103FC
:100A1000FCD50028FADD401E10BD70B5C468A507DE
:100A200013D0650211D4B2F5807F09D0B2F5007FF2
:100A300006D0B2F5806F08D1012300F1240106E051
:100A40005D1E6FF07F46B54201D3012070BD01618C
:100A5000C361416024F470611143C160002070BD26
:100A60002DE9F0410C461646070047D0104600F02D
:100A70006FF82078611C61280AD0722802D077288C
:100A80003CD102E00125002405E00225042402E017
:100A9000082448F2020511F8010B2B2806D0622821
:100AA00009D011F8010C74280AD00BE045F00305B9
:100AB00044F00204EFE745F0040544F00104EAE7DE
:100AC00044F010043846214601F010FD411C15D0B9
:100AD0000021316171604FF40071F560F161706166
:100AE000200704D5304602220021FFF75DFD306D5E
:100AF00040F0010030653046BDE8F0810020FBE7A2
:100B00002DE9F0410D460646104C206DC10704D07A
:100B1000410804D020F00104F7E722460EE05420FB
:100B2000FFF704FF07000ED0206D47F001010843D6
:100B3000542120653846FFF7DCFB3A46294630460B
:100B4000BDE8F0418CE70020D6E700001800002047
:100B50002DE9F04704464FF000094FF0FF37C56814
:100B6000D4E90486A80707D02046FFF7CDFD30461C
:100B700001F0AEFC002802DA3846BDE8F08728050F
:100B800002D54046FFF701FF4C212046FFF7B1FB9D
:100B9000206D20F0010020654846EEE710B500F01A
:100BA0008DF8BDE8104000F084B8754600F0A0F85C
:100BB000AE4605006946534620F00700854618B04A
:100BC00020B5FFF7F7FABDE820404FF000064FF0E0
:100BD00000074FF000084FF0000BAC46ACE8C0092E
:100BE000ACE8C009ACE8C009ACE8C00921F00701D5
:100BF0008D467047004870471C0100200048704730
:100C000014010020704770477047704738B504469C
:100C10000A4600206946AFF30080002808BF38BDAF
:100C200002460099204600F067F8012038BD0120F7
:100C300000F095B8F8B5AFF30080054600200C46EB
:100C4000102000BF0646A819A0420DD932466946B9
:100C50000020AFF30080070008BF00F080F8009884
:100C6000A04218BF0546C419FFF7C4FF0560074638
:100C7000F01D20F007004619284600F00AF8B4429B
:100C800008BFF8BDA21B31463868BDE8F84000F047
:100C900033B800210160C0E901107047102070478F
:100CA00010B50446AFF300802046BDE81040FFF7C2
:100CB0006CBA002801D001F00DBC704710B5014698
:100CC00002A000F033F8012010BD00005349475244
:100CD000545245443A2052656469726563743A20FF
:100CE00063616E2774206F70656E3A20000000000B
:100CF0000048704714010020034640688C460028D5
:100D000018BF88423CBF03464068F8D318681844AF
:100D1000884207D00CF1030020F00700001D411AA3
:100D2000521A0146081D0A60FFF72FBE70B505462E
:100D30000C460A2000E06D1C01F000FC35B128785B
:100D40000028F8D102E0641C01F0F8FB14B120780F
:100D50000028F8D1BDE870400A2001F0EFBB10B5C3
:100D600000F004F8BDE81040FFF7A3BF10B501285C
:100D700005D0002103A0FFF7D9FF012010BD09A174
:100D8000F8E7000053494752544D454D3A204F75FE
:100D900074206F662068656170206D656D6F727973
:100DA000000000003A2048656170206D656D6F722B
:100DB0007920636F7272757074656400FEE70000DD
:100DC00070470000EFF3108072B600BFFEE700002E
:100DD000B0B5044600F01CF9054640F21000C2F21E
:100DE00000000078611C18BF044400BF00F010F937
:100DF000401BA042FAD3B0BD2DE9F04F82B041F2C2
:100E00000042C4F201020E680423904208BF03238B
:100E1000002E009300F0EC8040F20C4E40F2004CAB
:100E2000C4F2010E0022C4F2010C01244FF0000AAA
:100E30004FF000093FE0012502F00C040F27A74006
:100E40002BEA070705FA04F43C4343F826404E68B2
:100E5000F303DCF8003054BF23EA080343EA080335
:100E6000CCF80030DCF80430B40354BF23EA0803A4
:100E700043EA0803CCF80430F402DCF8083054BF2D
:100E800023EA080343EA0803B402CCF80830DEF88A
:100E900000304FF0010454BF23EA080343EA08037B
:100EA000CEF800300E680AF1010A36FA0AF302F1B0
:100EB000040200F09D8004FA0AFB16EA0B08F1D048
:100EC0004B684FF6FF75C1F21005AB4210DC122BD8
:100ED00050D8DFE803F0330A41454F4F4F4F4F4F93
:100EE0004F4F4F4F4F4F4F484C00D1F80C9041E0BF
:100EF0004FF6FF75C1F22105AB420FDC0025C1F2B0
:100F00001105AB421AD00025C1F21205AB4215D033
:100F10000025C1F22105AB4210D02BE00025C1F223
:100F20002205AB420AD00025C1F23105AB4205D003
:100F30000025C1F23205AB421CD100BF8B6843B122
:100F4000012B14BFC0F814B0C0F810B04FF008095E
:100F500010E04FF004090DE0CB6803F1080909E047
:100F60004FF0000906E0CB6803F1040902E0CB680A
:100F700003F10C0913460546B8F5807F24BF203BDA
:100F800004352E680F279F40BE4309FA03F333430D
:100F90002B60CB79DB067FF585AF41F21804C4F2F4
:100FA000020423684FEA9A0643F001032360236892
:100FB00040F6000403F001030193019BACF57E733E
:100FC00053F826B0C4F20104A0420FD040F600440A
:100FD000C4F20104A0423FF42EAF41F20004C4F277
:100FE0000104009DA04208BF022525E7002523E754
:100FF00002B0BDE8F08F00008068084018BF0120F3
:1010000070470000002A08BF090401617047000012
:1010100040F69000C2F200000068704740F21000F5
:1010200040F69001C2F20000C2F2000100780A68A6
:10103000104408607047000080B542F20000C4F21E
:101040000200016841F010010160032000F07EF809
:101050000F2000F005F800F02BF8002080BD000004
:10106000B0B540F21002C2F2000240F20C01127858
:10107000C2F200014FF47A730968B3FBF2F204463E
:10108000B1FBF2F1084600F05DFC0F2C4FF00105BA
:101090000CD858B94FF0FF3021460022002500F04F
:1010A00029F840F21400C2F2000004602846B0BDE6
:1010B00082B041F21800C4F202000168022241F03D
:1010C00001010160016801F001010191019941688C
:1010D00041F080514160406800F0805000900098DD
:1010E0000420C4F20100016862F31A61016002B0D9
:1010F0007047000010B54EF60C5CCEF2000CDCF828
:101100000030C3F3022E8EF00704042C28BF042401
:10111000BEF103034FF0FF3E0EFA04F438BF002384
:10112000A14399400EFA03F39A4300F00F03043BE6
:101130001143634409010C3300F16042B0F1FF3FF9
:10114000C8BF02F56443197010BD00004EF60C5183
:10115000CEF200010A684FF6FF031A4060F30A223C
:1011600042F0806040F0FD70086070472DE9F04368
:1011700081B0002800F0858042F20008C4F2020825
:101180000446D8F800000D4600F0070088420CD253
:10119000D8F8000020F007002843C8F80000D8F86D
:1011A000000000F00700A8426BD1206841F204095A
:1011B0008107C4F2020917D5410705D5D9F80010F7
:1011C00041F4E061C9F80010010705D5D9F8001015
:1011D00041F46051C9F80010D9F80010A26821F05C
:1011E000F0011143C9F80010C00741D1D8F8000040
:1011F00000F00700A8420CD9D8F8000020F0070042
:101200002843C8F80000D8F8000000F00700A84202
:1012100037D12068410707D5D9F80010E26821F4DA
:10122000E0611143C9F80010000708D5D9F80000A3
:10123000216920F4605040EAC100C9F80000D9F8E3
:10124000002002F00C00082841F20020C0F27A00D1
:101250004ED142F6CC63C2F38341C0F60003595C21
:10126000D20339D440F60010C0F23D0048433FE0BD
:101270006068022809D0012829D159F8041C890383
:1012800007D4012001B0BDE8F08359F8041C89019E
:10129000F7D5D9F8001021F003010843C9F8000080
:1012A000FFF7B6FE064641F2883700BFD9F80000C6
:1012B000616800F00C00B0EB810F97D0FFF7A8FE3B
:1012C000801BB842F2D9032001B0BDE8F08359F881
:1012D000041C8907D5D5DCE7D9F8002042F68A63DB
:1012E000C2F34042C0F600039A5C4843B0FBF2F000
:1012F000D9F8001042F68C62C1F30311C0F6000267
:10130000515C40F20C0220FA01F140F21400C2F2EA
:1013100000000068C2F200021160FFF7A1FE002089
:1013200001B0BDE8F083000040F20C0041F204017E
:10133000C2F20000C4F202010068096842F69C6231
:10134000C1F30221C0F60002515CC84070470000A2
:1013500040F20C0041F20401C2F20000C4F20201AA
:101360000068096842F69C62C1F3C221C0F600021F
:10137000515CC840704700002DE9F04182B0002860
:1013800000F0D7800446007841F20006C007C4F29E
:10139000020644D0706800F00C00042817D0706872
:1013A00000F00C00082802D17068C0030FD46568F3
:1013B0002DB1B5F5A02F10D0B5F5803F11D0306814
:1013C00020F480303060306820F480200CE03068F9
:1013D000800324D5606810BBABE0306840F4802007
:1013E0003060306840F480303060FFF711FE002D2F
:1013F000054611D03068800311D4FFF709FE401B69
:101400006428F7D916E100BFFFF702FE401B6428ED
:101410004FF0030000F28A8030688003F4D4207813
:10142000800718D5706810F00C0F07D0706800F0B6
:101430000C00082827D17068C00324D430688007C6
:1014400002D52069012874D13068616920F0F80064
:1014500040EAC1003060207800074FD5A06940B352
:101460000020C4F242200121C0F88014FFF7D0FD13
:10147000054600BF706A80072DD4FFF7C9FD401BE9
:101480000228F7D9D6E02069002840F20000C4F213
:10149000422000F0A68001210160FFF7B9FD05465A
:1014A00030688007D0D4FFF7B3FD401B0228F7D97E
:1014B000C0E00020C4F242200021C0F88014FFF7F1
:1014C000A7FD0546706A800718D5FFF7A1FD401BF0
:1014D0000228F7D9AEE040F20C00C2F2000000682A
:1014E00044F6D351C1F26201A0FB0101480A019008
:1014F00000BF0198411E00280191F9D120784007D2
:101500001BD4E5698DB1706800F00C00082846D145
:10151000012D0ED07068216A00F480328A4208D111
:10152000616A00F47010884203D1002002B0BDE867
:10153000F081012002B0BDE8F081F06910F0805820
:1015400008D1F06940F08050F061F06900F08050FF
:101550000090009847F20007C4F200073868C00501
:101560000FD4386840F480703860FFF751FD0546AD
:101570003868C00505D4FFF74BFD401B6428F7D938
:1015800058E0E5681DB1052D3CD0012D3ED0306AF4
:1015900020F001003062306A20F0040039E00027BA
:1015A000C4F2422700203866FFF732FD022D0546BF
:1015B0000CD100BF3068800154D5FFF729FD401BD6
:1015C00002284FF00300F5D9B0E700BF3068800172
:1015D000ABD5FFF71DFD401B02284FF00300F5D9E6
:1015E000A4E700210160FFF713FD0546306880077E
:1015F0007FF531AFFFF70CFD401B02284FF00300D1
:10160000F4D993E7306A40F004003062306A40F069
:1016100001003062FFF7FCFC002D054641F28837DF
:1016200014D000BF306A800713D4FFF7F1FC401BD1
:10163000B842F7D9032002B0BDE8F081FFF7E8FC1B
:10164000401BB8424FF003003FF670AF306A80078E
:10165000F4D4B8F1000F7FF454AFF06920F080505B
:10166000F0614EE7206AB0F5803F05D17168A2684D
:1016700021F40031114371607168626A21F47411C0
:1016800010430843706001203866FFF7C1FC044630
:10169000306880013FF549AFFFF7BAFC001B022814
:1016A0004FF00300F4D941E770B538B10446406A01
:1016B00030B10020206104F1140007E0012070BD6A
:1016C0006068B0F5827F03D004F11C000021016046
:1016D0000026A66294F8510020B9204684F8506094
:1016E00000F038F8022084F8510094E8071001F463
:1016F0008271036802F4044223F04003036023690B
:1017000011440CF40062114403F0020263691144B5
:1017100003F00102A369E569114403F40072114466
:1017200005F03802256A114405F08002A56A1143CC
:1017300005F4005211430160042101EA13414160A4
:10174000C16921F40061C1610120666584F851001E
:10175000304670BD80B586B0014640F60000C4F248
:101760000100096800F5205291424FF00001CDE9D7
:101770000411CDE9021101D006B080BD41F218017B
:10178000C4F202010A6842F480520A600A6802F454
:1017900080520192019A0A6842F004020A600968C4
:1017A00001F0040101910199A0210291022103910C
:1017B0000321059102A9FFF71FFB06B080BD0000C1
:1017C0002DE9F04381B0044690F85000012803D180
:1017D000022001B0BDE8F0834FF001091D46164616
:1017E0000F4684F85090FFF713FC94F8511001292C
:1017F0005DD18046002F4FF0010018BF002E00F091
:101800009980032084F85100002060652763A68634
:10181000E686A063A087E087A168C4E91000B1F55F
:10182000004F08D12068016821F040010160016883
:1018300041F48041016020680168490603D40168D1
:1018400041F0400101606168731EE268B1FA81F104
:10185000B3FA83F349095B09B2F5006F41EA03016A
:1018600027D139B1216B31F8022BC2602163E08EA0
:101870000138E086E08E002841D06E1C0AE000BFEF
:10188000216B31F8022BC2602163E08E0138E086C3
:10189000E08EA0B3206881688907F1D4FFF7B8FB18
:1018A000002EF5D0A0EB0800A842F1D325E00220DD
:1018B00040E039B139780173206B01302063E08E4C
:1018C0000138E086E08ED0B16E1C0AE0216B097809
:1018D0000173206B01302063E08E0138E086E08EDA
:1018E00068B1206881688907F0D4FFF791FB002E6A
:1018F000F5D0A0EB0800A842F1D303201AE020465F
:1019000080212A46434600F0ADFC28B1606D40F0CE
:101910002000606520206065A06838B90020009034
:101920002068C1680091806800900098606D002870
:1019300018BF0120002184F8519084F8501001B0A4
:10194000BDE8F083411E0020B0EB116F1CBF0120E9
:1019500070474EF21002CEF2000251604EF6235153
:10196000CEF20001F0230B700721906011607047E8
:10197000002804BF0120704710B5044690F83D00D0
:1019800028B9002084F83C00204600F05FF82420AD
:1019900084F83D002068D4E90212C36823F40053A0
:1019A000C360036923F440531A430261D4E904235A
:1019B0001143C268194341F20C639A431143C16059
:1019C0004169A26921F44071114343F60002C4F257
:1019D00001029042416102D0FFF7A6FC01E0FFF74F
:1019E000B7FC6268192148439100B0FBF1F048F25E
:1019F0001F51C5F2EB11A0FB01235A096FF06303DD
:101A000002FB0300322303EB0010A0FB0101F023D3
:101A100003EA5113206803EB0212C1F3431111448E
:101A20008160016921F490410161416921F02A013D
:101A30004161C16841F40051C1600020202120644F
:101A400084F83D1084F83E1010BD000070B586B0DB
:101A500040F60044C4F201040068A4F544410026A5
:101A600088420596CDE90366029601D006B070BDA6
:101A700041F21800C4F20200416802AD41F4802135
:101A80004160416801F4802101910199016841F0B0
:101A9000080101600068294600F0080001900198E3
:101AA0004FF48060029002200390032005902046AE
:101AB000FFF7A2F94FF40060CDE90206204629465F
:101AC0000496FFF799F906B070BD0000FEE700002C
:101AD000F0B585B0002641F21800CDE90366CDE9E6
:101AE0000166C4F20200016840F6000441F01001F2
:101AF00001600168C4F2010401F010010091009935
:101B00000168002241F02001016001681C2501F0FC
:101B1000200100910099016841F004010160016811
:101B200001F0040100910099016841F00801016091
:101B300000681C2100F00800009000982046FFF784
:101B400061FA0195022001AD012704902046294643
:101B5000CDE90276FFF750F904F580602946CDE91A
:101B600001760397FFF748F905B0F0BD80B540F264
:101B70005C6043F20001C2F20000C4F201014FF4C4
:101B80008272002380E80E0000F114014FF4007C03
:101B90004FF0080E81E808500A21C0E90333C0E97C
:101BA0000833C0E90A31FFF77FFD002818BFFFF7AF
:101BB00009F980BD80B540F2B46044F60001C2F27C
:101BC0000000C4F2000100234FF00C0C4FF4E1328E
:101BD00080E80E00C0E90333C0E905C3C361FFF725
:101BE000C7FE002818BFFFF7EDF880BDFEE7000034
:101BF000FEE7000070470000F0B581B040F27417B6
:101C0000C2F2000714463A780D46064672BB3846C3
:101C1000A821FEF76EFB03203861786142F6F76079
:101C200040F22C21C0F60000C2F20001B861F96157
:101C30004FF4806139620021B9627962F9623866D5
:101C400040F21C20C2F200007866102042F6A46226
:101C5000B8663967F9667967781E0F21C0F6000209
:101C6000535C01394F1C00F8013FF9D1EFF31187A4
:101C70004FF0200181F3118830462946224600F0BA
:101C800005F887F3118801B0F0BD00002DE9F04F91
:101C900081B040F2741300EB4000C2F2000303EB8A
:101CA000C006F06A1446022889460BD001283DD0B0
:101CB000002844D1354655F8247F6868B84267D972
:101CC000F94368E056F8245F301DA6F1040BB246D4
:101CD000A6F108080026009022E000BFDBF8001003
:101CE000EA4310440844DBF800104F1BB84238BFE9
:101CF0000746D8F80000A74228BF2746284449468F
:101D00003A46FEF7B1FADBF800007919E41B0D1A28
:101D10003E44B94418BF0D46002CCAF800505DD0AF
:101D200000980068A842D9D9E943DBE7B04658F8E3
:101D3000247FD8F80400B84203D9F94304E0002610
:101D40004CE0316AFA431044084456F81C1FA04284
:101D5000726838BF0446D51BAC4201EB070008D2BD
:101D600049462246FEF780FAE019C8F800002646E8
:101D700034E049462A46FEF777FA671B306809EBDC
:101D800005013A46FEF770FAC8F80070264625E0CD
:101D9000316AFA4310440844A04201D200261DE0F3
:101DA00056F81C0F71683844A1EB0708A04507D905
:101DB00049462246FEF758FA3819286026460DE0B3
:101DC00049464246FEF750FAA4EB0807306809EB93
:101DD00008013A46FEF748FA2F602646304601B021
:101DE000BDE8F08F82B080B582B0CDE9042304AAAB
:101DF000019201AA00F006F802B0BDE8804002B0EE
:101E0000704700002DE9F04F9BB00E4606A915461D
:101E1000169140214FF000084FF0FF3A0DF1580B9A
:101E2000179103901A90CDE91888059207E0CDF834
:101E3000608000BF1998B0F1FF3F40F3018216F8AF
:101E4000010B25281CD0002800F0FA81DDE91732AB
:101E5000511C994205D8169B985419981891013035
:101E60001990DDE917028242E4D116991A98FFF71A
:101E7000C3FE18998842DAD0CDF864A0DAE700BF33
:101E80004FF0000902E001360020F8B93078A0F1E7
:101E900023010D294FF00100F7D8DFE801F0090711
:101EA0000707070707070C070F070713EDE700BF32
:101EB00049F00809E7E749F00409E4E749F00109B6
:101EC000E1E700BF49F00209DDE700BF3178A1F189
:101ED0003A0010F10A0F01D200200EE000200A465D
:101EE00016F8011F00EB800002EB4000A1F13A025E
:101EF000303812F10B0F0A46F2D82E2916D116F8F7
:101F0000011F0024A1F13A0212F10A0F10D300BF01
:101F100004EB840201EB420216F8011FA2F1300427
:101F2000A1F13A0313F10B0FF2D801E0002400BF36
:101F300016F8011B01F0FB02682AF9D0A1F1580242
:101F4000202A1BD8DFE802F0121111111111111112
:101F50001111112A35111111111111111111111134
:101F60006811117611A11111120063E729680A1D89
:101F70002A6009680090584610228DE025297FF4D8
:101F800059AFDDE91721481C90423FF66AAF169A17
:101F90002523535419991890481C61E7DDE91772FD
:101FA0002868511C031DB9422B603FF65AAF0068E8
:101FB00051E729684FF0010B0A1D2A60D1F8008013
:101FC00046F26765B8F1000F4146C8F1000748BF07
:101FD00039460A29C6F2666509DB00BF81FB052385
:101FE0009A10632902EBD3710BF1010BF6DCA345C8
:101FF00038BFA3460028049754D00021B8F1000F41
:1020000048BF012109F0040241EA9201A0EB010A54
:1020100019F002074BD14BE028681022011D2960FE
:1020200001680820009058460823CDF8048000F08D
:102030008BF9FFE62868011D2960046806E000BFEF
:1020400019980134B0F1FF3F7FF7F4AE20780028F3
:102050003FF4F0AEDDE91732511C994205D8169BCA
:1020600098541998189101301990DDE917028242AD
:10207000E6D116991A98FFF7BFFD189988420CBF50
:10208000CDF86080CDF864A0DAE729680A1D2A60DF
:102090000968009058460A222346CDF8049000F0C3
:1020A00053F9C7E64FF0000A19F0020700D02CB12F
:1020B0005FEAC97002D1BAF1000F2FD11998002838
:1020C0004ED4B8F1FF3F4DDD5FEA49701BD5DDE925
:1020D0001721481C904206D8169A2B23535419995D
:1020E0001890481C1990DDE9170282420BD116990D
:1020F0001A98FFF781FD1899884207BF00201890B1
:102100004FF0FF301990059DCDF8108048E000BFDA
:102110001998AAF1010AB0F1FF3FCFDDBAF1000F23
:10212000CCD0D345CAD2DDE91721481C904206D84D
:10213000169A2023535419991890481C1990DDE9D8
:1021400017028242E4D116991A98FFF755FD1899A3
:10215000884207BF002018904FF0FF301990D7E752
:10216000059D35E0DDE91721481C904206D8169AF6
:102170002D23535419991890481C1990DDE9170222
:10218000059D82420CD116991A98FFF735FD1899D2
:10219000884202D10020189002E04FF0FF301990E1
:1021A0001998002814D4D7B91998002810D40DF123
:1021B000580B049958460A222346CDF800A0CDF8C2
:1021C000049000F0C1F84FF000084FF0FF3A31E6FC
:1021D0004FF000084FF0FF3A0DF1580B2AE609F0D6
:1021E00001002043E0D1BAF1000F07D1DCE700BFC6
:1021F0001998AAF1010AB0F1FF3FD5DDBAF1000F3D
:10220000D2D0D345D0D2DDE91721481C904206D860
:10221000169A3023535419991890481C1990DDE9E7
:1022200017028242E4D116991A98FFF7E5FC189933
:10223000884207BF002018904FF0FF301990D7E771
:102240001998012809DB189A1AB1039806A9FFF713
:10225000D3FCDDE918010844199019981BB0BDE8BA
:10226000F08F00002DE9F04381B01E4690460D46E8
:102270008146FEF7CDFE301A00EB0807FEF7C8FED8
:1022800040F20C01C2F200010968C1F3CB3179437D
:102290000091D9F8001089682940A94219D1064651
:1022A00008F1010406E000BFD9F80000806828406A
:1022B000A8420ED1002CF7D0FEF7AAFE801BB84230
:1022C0000BD200980099002808BF0746481E0090CE
:1022D000EAE7002001B0BDE8F083D9E900014268D7
:1022E000B1F5827F22F0E00242600BD1D9F80810EC
:1022F000B1F5004F02D0B1F5806F03D1016821F034
:1023000040010160D9F82810B1F5005F07D10168DC
:1023100021F400510160016841F400510160012085
:1023200089F85100002089F85000032001B0BDE871
:10233000F08300007047000080B5FEF76FFE80BD9F
:1023400070470000FEE700002DE9F04F81B08B469A
:10235000DDE90A911F461546934504464FF00108F2
:1023600006D35846B0FBF5F008F10108A842F9D2AF
:10237000B84538BFB846B9F1000F01F00100009030
:1023800032D088BB2026880748BF30264FF0FF3A5E
:102390002020002F18BF064606E000BFE068A9F124
:1023A0000109B0F1FF3F1FDDB9F1000F1CD0C84596
:1023B0001AD2D4E90121481C904205D8226856540B
:1023C000E168A060481CE060D4E901028242E5D1E6
:1023D00021682069FFF710FCA168884206BF002031
:1023E000A060C4F80CA0D9E7E06800283BD401261F
:1023F00002E000BF013F6E43022FFBD2BBFBF6F0B1
:10240000A842F8D22EA700BFD4E90121BBFBF6FAFF
:10241000481C904207D817F80A2023685A54E168EC
:10242000A060481CE060D4E9010282420BD121681F
:102430002069FFF7E1FBA168884207BF0020A06088
:102440004FF0FF30E060E068002806D4B6FBF5F0FE
:102450000AFB16BBAE420646D6D20098002818BF2B
:10246000B9F1000F02D101B0BDE8F08F4FF0000AC2
:102470004FF0FF362027A9F101054D4538BFC8456B
:10248000F1D2D4E90121481C904205D82268575462
:10249000E168A060481CE060D4E90102824209D1F1
:1024A00021682069FFF7A8FBA16888420CBFC4F827
:1024B00008A0E660E068A946B0F1FF3FDBDCD2E7A8
:1024C000303132333435363738394142434445466A
:1024D00000207047FEE70000002070470021B0F5A3
:1024E000004FC8BF012108467047000010B542F6F2
:1024F000C461C0F600010446FDF722FF68B142F650
:10250000B561C0F600012046FDF71AFF0146002024
:10251000002908BF48F2030010BD48F2020010BDB8
:102520000020704748F20203984205D180B5002090
:10253000FFF762FBBDE880400020704710B540F215
:102540006C04C2F20004214600F091FC2046FDF725
:102550005EFE10BD40F2F860C2F200000021016092
:102560007047000040F2F860C2F2000001680131DB
:102570000160704700EB8100C2607047F0B581B028
:102580000E462C211C4615460746FDF7B2FEB878CC
:10259000082161F31F10B8702046BE60B047F9787B
:1025A0003C7101F03F0141EAC01005F0010140EA31
:1025B0008110F87001B0F0BD40F25861C2F2000124
:1025C0000A683AB1824204BF4FF0FF307047926A06
:1025D000002AF7D10A680860826200207047000074
:1025E00090B0FEF729FD06AC20462821FDF781FEBC
:1025F000012006900A904FF4E01000254FF480313E
:1026000002260F9020460595CDE90355CDE90155E9
:10261000CDE90715CDE90D61FEF7AEFE18B1EFF378
:10262000108072B6FEE70F20CDE901064FF48060FE
:10263000CDE9040501A802210395FEF797FD20B11D
:10264000EFF3108072B600BFFEE7FFF741FAFFF725
:102650008DFAFFF7AFFA40F60000C4F20100102136
:102660000122FEF7CFFC40F2FC60C2F2000000F055
:102670008DF840F22C64C2F2000442F27971C0F687
:102680000001204600220023FFF778FF42F2655246
:10269000C0F6000220460121FFF76CFF42F25552BE
:1026A000C0F6000220460521FFF764FF2046FFF731
:1026B00083FF42F6DC6942F6E16542F6F666C0F653
:1026C0000009C0F60005C0F600060FF2780A0FF206
:1026D0007C0B20A423A70FF2940800BF13A0FDF7E2
:1026E000ADFD0020294632463346CDF80090FFF775
:1026F00079FB0020294611A25346CDF80090FFF740
:1027000071FB002029465A462346CDF80090FFF77A
:1027100069FB002029463A464346CDF80090FFF772
:1027200061FB4FF47A70FEF753FBD7E748656C6C9A
:102730006F20576F726C6420210D00001B5B313BD2
:1027400033316D004572726F723A20001B5B313B72
:1027500033326D00496E666F726D6174696F6E3AE7
:10276000200000001B5B313B33336D005761726EFC
:10277000696E673A2000000080B540F60040C4F260
:1027800001000121FEF738FC80BD000010B542F6C3
:10279000007142F6ED2242F64963C0F60001C0F630
:1027A0000002C0F60003044600F078F8204600F06E
:1027B0006DF92046002100F071F910BD10B5B0F898
:1027C0004E40DDF808C0B0F84CE094420BD96245A9
:1027D0004FF000024FF0000488BF0122E64538BFE9
:1027E000012422430AE062454FF000024FF000044A
:1027F00088BF0122E64538BF01242240002A04BFD9
:10280000002010BDB0F84A20B0F848008A420BD929
:10281000002299424FF0000188BF0121984238BF41
:10282000012241EA020010BD002299424FF000014E
:1028300088BF0121984238BF012201EA020010BD81
:1028400042F61911C0F60001C1657047B0B50446E3
:10285000049884F838204FF48072A4F89120012263
:1028600084F8932002680025C4E90B302046A56552
:1028700084F8395084F86D50616390470020CFF69A
:10288000FF70216B206560654968204688472046B7
:10289000FFF7D6FF84F87050B0BD0000B0B582B02D
:1028A0009C4613460C4642F6FD4142F67132C0F694
:1028B0000001C0F600020546CDF800C000F0F6F8B1
:1028C0000DF1070000F078F89DF8072042F61D137F
:1028D0000146C0F6000328460094FFF7B7FF02B098
:1028E000B0BD000010B582B0B0F83EE0DDF810C019
:1028F000C46AA2EB0E0292B2CDF800C0A04702B0AB
:1029000010BD000080B582B0DDF810C0CDF800C069
:10291000FFF7E8FF02B080BD002070472DE9F041CD
:1029200002F00705012490F8926004FA05F7022EE0
:10293000BC4628BF4FF0000CB6F1010E18BFBE46D2
:102940000668DDF81880367C22F00707426B7E436C
:10295000B8F1000FB6B220D0324411440EE000BFEF
:10296000428F90F892601144012E98BFA44618BF80
:10297000A646013B1A0408BFBDE8F0810A7801357C
:1029800042EA0C0282EA0E0215F007050A70E7D04F
:102990004FEA4C0C4FEA4E0EEBE788191044013811
:1029A00010F8011F013B41EA0C0181EA0E011A04F3
:1029B0000170F5D1BDE8F081014640F2907002222D
:1029C000C2F200000A707047B0B590F83810056880
:1029D000CB00838795F810C090F8393095F811E056
:1029E0004FEACC0CDA005C18A0F83AC0C2877445F4
:1029F00088BFAEEB03011944C900A0F84020A0F83D
:102A0000421069694164B0BD70B582B00446216C62
:102A1000B0F84400E164B4F85010B4F85420B4F8AD
:102A20005230B4F856500026A4F84A002046A4F8C4
:102A300048600095FFF7C2FE20B3B4F84810B4F820
:102A400050000122814284F88C2038BFA4F848004D
:102A5000B4F84A10B4F85200814288BFA4F84A0082
:102A6000B4F84C10B4F85400814238BFA4F84C00BC
:102A7000B4F84E10B4F85600814288BFA4F84E0056
:102A800002B070BD84F88C6002B070BD80B5D0F823
:102A900008C00A2100220023E04780BD80B5D0F89D
:102AA00008C00A460B210023E04780BD10B54FF453
:102AB0007F44A0F82340FF244FF0000E80F8284008
:102AC00000F10804DDF808C0C0F800E080F826E056
:102AD00084E80E5000F002F810BD000080B5D0F878
:102AE00008C0092100220023E04780BD80B5A1F184
:102AF000140CBCF10C0F4FF0000088BF80BD0FF22A
:102B00000601DFE80CF0171818071717181818181F
:102B10001818100040F25C60C2F200001946C82389
:102B2000FEF74EFE06E040F60000C4F20100082168
:102B3000FEF768FA012080BD80B582B08DF80710DD
:102B40000DF10702012100F003F802B080BD000082
:102B500080B5D0F810C013460A461721E04780BD63
:102B600080B5D0F810C00A4620210023E04780BD80
:102B70002DE9F0410F461439052912D805461E46A5
:102B80009046DFE801F015030311151528460021D2
:102B9000FFF7E6FF28464146FFF7CEFF0120BDE8DC
:102BA000F0810020BDE8F08128460121FFF7D8FF21
:102BB0002C692846394642463346A047BDE8F08195
:102BC00080B5D0F80CC0192100220023E04780BD59
:102BD00080B5D0F80CC00A4616210023E04780BD1E
:102BE00080B5D0F80CC00A4615210023E04780BD0F
:102BF00080B5D0F80CC013460A461721E04780BDC7
:102C0000F0B581B00E4604460DF103050AE000BFA1
:102C1000A1F11800022817D2E668204600220023FE
:102C2000B0473E46374617F8011B1729F0DCA1F1E3
:102C30001500022813D27278E768204600238DF829
:102C40000320B8470236EDE7FE2914D172782046FA
:102C500029218DF8032000F0F1F80236E2E7172968
:102C600009D1707801218DF8030020462A46FFF72C
:102C7000BFFF0236D6E701B0F0BD000080B5D0F846
:102C80000CC0182100220023E04780BD10B5D0F809
:102C900014C02821002200230446E047D4F80CC0C9
:102CA0002046142100220023E04720464B21012228
:102CB00000F0C4F8206829210279204600F0BEF80F
:102CC00020464B21002200F0B9F820682921027922
:102CD000204600F0B3F820464B21012200F0AEF868
:102CE000206829214279204600F0A8F810BD000094
:102CF0008A7C016080F8222070470000B0B50D4644
:102D0000044600F01FF808B10120B0BD092D0DD018
:102D10000A2D14D12046FFF7B9FF42F61A71C0F60A
:102D200000012046FFF76CFF0120B0BD42F65C7148
:102D3000C0F600012046FFF7DBFF0120B0BD0020F8
:102D4000B0BD00002DE9F0410B39044604294FF0D5
:102D5000000088BFBDE8F0811546DFE801F0035FA1
:102D6000131F30002046002D07BF42F64F71C0F6FA
:102D7000000142F65471C0F60001FFF741FF012047
:102D8000BDE8F081002D4BD042F61371C0F6000172
:102D90002046FFF735FF2068C07C4AE02046FFF759
:102DA0006DFF20468121FFF71BFF20462946FFF7D4
:102DB0000FFF2046FFF704FF0120BDE8F081204609
:102DC0001E46FFF75BFF707994F8221001EBC007F5
:102DD000204640215FFA87F8FFF702FF4FEA1810FC
:102DE00000F110012046FFF7FBFE07F00F0120461F
:102DF000FFF7EEFEB07940F0B0012046FFF7E8FEA5
:102E000030793268C000C1B22046FFF7F1FE013DC3
:102E10002806F5D12046FFF7D3FE0120BDE8F0815A
:102E200042F60C71C0F600012046FFF7E9FE20686B
:102E3000807C84F822000120BDE8F08180B5D0F8C4
:102E400014C00023E04780BD80B54A2906D0292957
:102E50000BD11046FDF7BCFF012080BD40F60000FD
:102E6000C4F201000821FEF7CDF8012080BD8A6878
:102E7000002A02DC0022FDF7A6BA521E8A604A68C8
:102E8000C0B2531C4B60107070470102000000007C
:102E9000000000000102030406070809000000000A
:102EA0000102030400000000000054545220524567
:102EB00047474553003A535444455252003A5354FD
:102EC00044494E003A5354444F55540002030405FC
:102ED000060708090A0B0C0D0E0F10101B5B306D56
:102EE0000020202573257348656C6C6F2052545464
:102EF00020210D0A2573005465726D696E616C00A6
:102F0000C9290008092A0008052900081815A11573
:102F1000C819FF1815A015C019FF1815AE15D5163C
:102F20008015A8163F15D316001540158D161415DB
:102F300020160015A115C815DA1612158116CF1521
:102F4000D916F115DB1640152E15A415A619FF1874
:102F500015AF19FF1815AE19FF0000000001140A83
:102F60006464323200093D0003042896100802020E
:102F700080004000982F000800000020180000008A
:102F800028010008B02F000818000020800E000063
:102F900044010008000000000000000000000000E4
:102FA000000000000024F4000100000010000000F8
:04000005080000ED02
:00000001FF
