:020000040800F2
:1000000078060020890100084D0B0008C90A000885
:10001000490B0008910200084D0C00080000000088
:10002000000000000000000000000000AD0B000810
:1000300095020008000000007D0B0008E10B00089D
:10004000A3010008A3010008A3010008A301000800
:10005000A3010008A3010008A3010008A3010008F0
:10006000A3010008A3010008A3010008A3010008E0
:10007000A3010008A3010008A3010008A3010008D0
:10008000A3010008A3010008A3010008A3010008C0
:10009000A3010008A3010008A3010008A3010008B0
:1000A000A3010008A3010008A3010008A3010008A0
:1000B000A3010008A3010008A3010008A301000890
:1000C000A3010008A3010008A3010008A301000880
:1000D000A3010008A3010008A3010008A301000870
:1000E000A3010008A3010008A301000800F002F822
:1000F00000F03AF80AA090E8000C82448344AAF188
:100100000107DA4501D100F02FF8AFF2090EBAE885
:100110000F0013F0010F18BFFB1A43F0010318473B
:10012000C80B0000E80B0000103A24BF78C878C163
:10013000FAD8520724BF30C830C144BF04680C60ED
:10014000704700000023002400250026103A28BF35
:1001500078C1FBD8520728BF30C148BF0B60704739
:100160001FB51FBD10B510BD00F058F81146FFF7C0
:10017000F7FF00F097FD00F076F803B4FFF7F2FF09
:1001800003BC00F07DF8000009488047094800479B
:10019000FEE7FEE7FEE7FEE7FEE7FEE7FEE7FEE737
:1001A000FEE7FEE704480549054A064B7047000094
:1001B000490C0008ED0000087800002078060020B7
:1001C00078020020780200204FF0000200B51346AC
:1001D00094469646203922BFA0E80C50A0E80C5067
:1001E000B1F12001BFF4F7AF090728BFA0E80C5018
:1001F00048BF0CC05DF804EB890028BF40F8042B11
:1002000008BF704748BF20F8022B11F0804F18BF7D
:1002100000F8012B7047704770477047754600F033
:100220002BF8AE4605006946534620F00700854688
:1002300018B020B5FFF7B6FFBDE820404FF000062C
:100240004FF000074FF000084FF0000BAC46ACE851
:10025000C009ACE8C009ACE8C009ACE8C00921F0AD
:1002600007018D46704710B50446AFF30080204665
:10027000BDE81040FFF781BF004870471000002024
:1002800001491820ABBEFEE72600020070470000BF
:10029000FEE7000070470000EFF3108072B600BF69
:1002A000FEE70000B0B5044600F014F9054640F240
:1002B0000400C2F200000078611C18BF044400BFB3
:1002C00000F008F9401BA042FAD3B0BD2DE9F04F71
:1002D00082B00E68002E00F0F38041F20042C4F2BA
:1002E0000102042340F2004E904208BF03234FF660
:1002F000FF7CC4F2010E009300240123C1F2100C14
:100300004FF0000A4FF0000940E0012504F00C0313
:100310000F279F402BEA070705FA03F33B4342F8F8
:1003200026304E68F203DEF8002054BF22EA0802AD
:1003300042EA0802CEF80020DEF80420B30354BFDE
:1003400022EA080242EA0802CEF80420F302DEF8AC
:10035000082054BF22EA080242EA0802B30240F22F
:100360000C43CEF80820C4F201031A6854BF22EAF5
:10037000080242EA08021A6001230E680AF1010A23
:1003800036FA0AF204F1040400F09A8003FA0AFB38
:1003900016EA0B08F1D04A68624511DC122A51D8DE
:1003A000DFE802F0340A424650505050505050504E
:1003B0005050505050494D00D1F80C9042E000BFD1
:1003C0004FF6FF75C1F22105AA420FDC0025C1F2EC
:1003D0001105AA421AD00025C1F21205AA4215D071
:1003E0000025C1F22105AA4210D02BE00025C1F260
:1003F0002205AA420AD00025C1F23105AA4205D041
:100400000025C1F23205AA421CD100BF8A6842B160
:10041000012A14BFC0F814B0C0F810B04FF008099A
:1004200010E04FF004090DE0CA6802F1080909E084
:100430004FF0000906E0CA6802F1040902E0CA6848
:1004400002F10C0922460546B8F5807F24BF203A08
:1004500004352E680F279740BE4309FA02F2324353
:100460002A60CA79D2067FF588AF41F21803C4F238
:1004700002031A684FEA9A0642F001021A601A68EB
:1004800040F6000302F001020192019AAEF57E727D
:1004900052F826B0C4F2010398420FD040F6004350
:1004A000C4F2010398423FF430AF41F20003C4F2BA
:1004B0000103009D984208BF022527E7002525E794
:1004C00002B0BDE8F08F0000002A08BF09040161F6
:1004D0007047000040F27000C2F2000000687047F0
:1004E00040F2040040F27001C2F20000C2F20001CA
:1004F00000780A68104408607047000080B542F236
:100500000000C4F20200016841F010010160032004
:1005100000F062F80F2000F005F800F02BF8002042
:1005200080BD0000B0B540F20402C2F2000240F209
:1005300000011278C2F200014FF47A730968B3FB2C
:10054000F2F20446B1FBF2F1084600F0B9FA0F2CC2
:100550004FF001050CD858B94FF0FF30214600226A
:10056000002500F029F840F20800C2F20000046003
:100570002846B0BD82B041F21800C4F20200016802
:10058000022241F001010160016801F001010191C5
:100590000199416841F080514160406800F080500D
:1005A000009000980420C4F20100016862F31A610F
:1005B000016002B07047000070B514460D46064653
:1005C00000F046FB2946224600F0C2FA01463046BA
:1005D00000F046FB70BD000080B500F053FB80BD0D
:1005E0002DE9F04381B0002800F0898042F2000834
:1005F000C4F202080446D8F800000D4600F00700D7
:1006000088420CD2D8F8000020F007002843C8F830
:100610000000D8F8000000F00700A8426FD1206861
:1006200041F204098107C4F2020917D5410705D533
:10063000D9F8001041F4E061C9F80010010705D5B0
:10064000D9F8001041F46051C9F80010D9F8001031
:10065000A26821F0F0011143C9F80010C00745D18C
:10066000D8F8000000F00700A8420CD9D8F8000024
:1006700020F007002843C8F80000D8F8000000F078
:100680000700A8423BD12068410707D5D9F80010E0
:10069000E26821F4E0611143C9F80010000708D5B1
:1006A000D9F80000216920F4605040EAC100C9F87F
:1006B000000000F04FF8D9F8001040F6D842C1F31E
:1006C0000311C0F60002515C40F2000220FA01F171
:1006D00040F20800C2F200000068C2F2000211609D
:1006E000FFF720FF002001B0BDE8F083606802281A
:1006F00009D0012829D159F8041C890307D4012005
:1007000001B0BDE8F08359F8041C8901F7D5D9F888
:10071000001021F003010843C9F80000FFF7DAFEDA
:10072000064641F2883700BFD9F80000616800F042
:100730000C00B0EB810F93D0FFF7CCFE801BB842CA
:10074000F2D9032001B0BDE8F08359F8041C8907F1
:10075000D5D5DCE741F2040CC4F2020CDCF8003021
:1007600003F00C00082841F20020C0F27A0018BF04
:100770007047C3F383420AA18A5CD90305D440F6CB
:100780000010C0F23D0050437047DCF8001008A391
:10079000C1F34041595C5043B0FBF1F0704700BFDA
:1007A00002030405060708090A0B0C0D0E0F1010B2
:1007B000010200002DE9F04182B0002800F0C48061
:1007C0000446007841F20006C007C4F2020643D096
:1007D000706800F00C00042817D0706800F00C005E
:1007E000082802D17068C0030FD465682DB1B5F533
:1007F000A02F10D0B5F5803F11D0306820F48030A4
:100800003060306820F480200CE03068800323D50D
:10081000606808BB98E0306840F480203060306841
:1008200040F480303060FFF755FE002D054610D0B3
:100830003068800310D4FFF74DFE401B6428F7D9C1
:1008400004E100BFFFF746FE401B64284FF00300A1
:1008500077D830688003F5D42078800718D5706881
:1008600010F00C0F07D0706800F00C00082826D19B
:100870007068C00323D43068800702D5206901283E
:1008800062D13068616920F0F80040EAC100306050
:10089000207800073DD5A06938B30020C4F242207B
:1008A0000121C0F88014FFF715FE0546706A800725
:1008B0002DD4FFF70FFE401B0228F7D9C6E02069B0
:1008C000002840F20000C4F2422000F0968001218E
:1008D0000160FFF7FFFD054630688007D1D4FFF7C0
:1008E000F9FD401B0228F7D9B0E00020C4F24220F5
:1008F0000021C0F88014FFF7EDFD0546706A8007FF
:1009000007D5FFF7E7FD401B0228F7D99EE000F06E
:1009100037F9207840071BD4E5698DB1706800F085
:100920000C00082847D1012D0ED07068216A00F410
:1009300080328A4208D1616A00F47010884203D183
:10094000002002B0BDE8F081012002B0BDE8F081D6
:10095000F06910F0805808D1F06940F08050F061E3
:10096000F06900F080500190019847F20007C4F24E
:1009700000073868C00510D4386840F480703860CB
:10098000FFF7A8FD054600BF3868C00505D4FFF78E
:10099000A1FD401B6428F7D958E0E5681DB1052D7D
:1009A0003CD0012D3ED0306A20F001003062306A28
:1009B00020F0040039E00027C4F242270020386606
:1009C000FFF788FD022D05460CD100BF306880017D
:1009D00054D5FFF77FFD401B02284FF00300F5D9E7
:1009E000AFE700BF30688001AAD5FFF773FD401B59
:1009F00002284FF00300F5D9A3E700210160FFF7BB
:100A000069FD0546306880077FF542AFFFF762FD5C
:100A1000401B02284FF00300F4D992E7306A40F0FF
:100A200004003062306A40F001003062FFF752FD8E
:100A3000002D054641F2883714D000BF306A800788
:100A400013D4FFF747FD401BB842F7D9032002B08B
:100A5000BDE8F081FFF73EFD401BB8424FF00300B8
:100A60003FF66FAF306A8007F4D4B8F1000F7FF41F
:100A700053AFF06920F08050F0614DE7206AB0F587
:100A8000803F05D17168A26821F400311143716083
:100A90007168626A21F47411104308437060012088
:100AA0003866FFF717FD0446306880013FF548AF10
:100AB000FFF710FD001B02284FF00300F4D940E7B8
:100AC00080B500F075F880BDFEE70000F0B585B098
:100AD000002541F21800CDE90355CDE90155C4F2D6
:100AE0000200016841F2000441F010010160016858
:100AF000C4F2010401F01001009100990168012283
:100B000041F02001016001684FF4005601F020011E
:100B1000009100990168012741F00401016000681B
:100B20004FF4005100F00400009000982046FFF7B9
:100B3000CBFC0220049001A92046CDE90167039572
:100B4000FFF7C4FB05B0F0BDFEE70000FEE70000C4
:100B500000F0070080F00703042B28BF04234FF0A8
:100B6000FF3C03380CFA03F338BF0020994381405F
:100B70000CFA00F022EA00000843704770470000BA
:100B800081B040F20000C2F20000006844F6D35188
:100B9000C1F26201A0FB0101480A009000BF009869
:100BA000411E00280091F9D101B070477047000044
:100BB000B0B501380024B4EB106F1CBF0120B0BDEC
:100BC0004EF21005CEF2000568604FF0FF300F21A5
:100BD00000F046F80720AC6028602046B0BD000059
:100BE00080B5FFF77DFC80BD70B590B006AC2046A7
:100BF0002821FFF7E9FA012006900A904FF4E0104F
:100C000000254FF4803102260F9020460595CDE94E
:100C10000355CDE90155CDE90715CDE90D61FFF784
:100C2000C9FD78B90F20CDE901064FF48060CDE908
:100C3000040501A802210395FFF7D2FC002804BF98
:100C400010B070BDFFF728FB70470000FEE7000002
:100C50004EF60C50CEF200000068C0F30220704740
:100C60004EF6145300F00F02CEF2000309011A44AD
:100C700000F16043B0F1FF3FC8BF03F5644211705B
:100C8000704700004EF60C51CEF200010A684FF694
:100C9000FF031A4060F30A2242F0806040F0FD70CA
:100CA0000860704741F20004C4F20104FFF726FC1B
:100CB000FFF79AFFFFF70AFF20464FF40051012289
:100CC000FFF702FC20464FF400510022FFF7FCFB27
:100CD0006420FFF7E7FAEFE70000000000000000E3
:100CE0000102030406070809080D0008000000209F
:100CF0001000000028010008180D00081000002056
:100D000068060000440100080024F400010000000F
:080D10001000000000000000CB
:04000005080000ED02
:00000001FF
