:020000040800F2
:100000007806002089010008C50B0008410B000894
:10001000C10B000891020008DD0B00080000000081
:10002000000000000000000000000000CD0B0008F0
:100030009502000800000000C90B0008D10B000861
:10004000A3010008A3010008A3010008A301000800
:10005000A3010008A3010008A3010008A3010008F0
:10006000A3010008A3010008A3010008A3010008E0
:10007000A3010008A3010008A3010008A3010008D0
:10008000A3010008A3010008A3010008A3010008C0
:10009000A3010008A3010008A3010008A3010008B0
:1000A000A3010008A3010008A3010008A3010008A0
:1000B000A3010008A3010008A3010008A301000890
:1000C000A3010008A3010008A3010008A301000880
:1000D000A3010008A3010008A3010008A301000870
:1000E000A3010008A3010008A301000800F002F822
:1000F00000F03AF80AA090E8000C82448344AAF188
:100100000107DA4501D100F02FF8AFF2090EBAE885
:100110000F0013F0010F18BFFB1A43F0010318473B
:10012000880B0000A80B0000103A24BF78C878C1E3
:10013000FAD8520724BF30C830C144BF04680C60ED
:10014000704700000023002400250026103A28BF35
:1001500078C1FBD8520728BF30C148BF0B60704739
:100160001FB51FBD10B510BD00F058F81146FFF7C0
:10017000F7FF00F035FD00F076F803B4FFF7F2FF6B
:1001800003BC00F07DF8000009488047094800479B
:10019000FEE7FEE7FEE7FEE7FEE7FEE7FEE7FEE737
:1001A000FEE7FEE704480549054A064B7047000094
:1001B000D90B0008ED000008780000207806002028
:1001C00078020020780200204FF0000200B51346AC
:1001D00094469646203922BFA0E80C50A0E80C5067
:1001E000B1F12001BFF4F7AF090728BFA0E80C5018
:1001F00048BF0CC05DF804EB890028BF40F8042B11
:1002000008BF704748BF20F8022B11F0804F18BF7D
:1002100000F8012B7047704770477047754600F033
:100220002BF8AE4605006946534620F00700854688
:1002300018B020B5FFF7B6FFBDE820404FF000062C
:100240004FF000074FF000084FF0000BAC46ACE851
:10025000C009ACE8C009ACE8C009ACE8C00921F0AD
:1002600007018D46704710B50446AFF30080204665
:10027000BDE81040FFF781BF004870471000002024
:1002800001491820ABBEFEE72600020070470000BF
:10029000FEE7000070470000B0B5044600F016F914
:1002A000054640F20400C2F200000078611C18BF4D
:1002B000044400BF00F00AF9401BA042FAD3B0BDCD
:1002C0002DE9F04F82B041F20042C4F201020E6803
:1002D0000423904208BF0323002E009300F0EC801B
:1002E00040F20C4E40F2004CC4F2010E0022C4F267
:1002F000010C01244FF0000A4FF000093FE00125F6
:1003000002F00C040F27A7402BEA070705FA04F4B4
:100310003C4343F826404E68F303DCF8003054BFFA
:1003200023EA080343EA0803CCF80030DCF8043081
:10033000B40354BF23EA080343EA0803CCF80430AB
:10034000F402DCF8083054BF23EA080343EA080348
:10035000B402CCF80830DEF800304FF0010454BF8E
:1003600023EA080343EA0803CEF800300E680AF1D6
:10037000010A36FA0AF302F1040200F09D8004FA41
:100380000AFB16EA0B08F1D04B684FF6FF75C1F275
:100390001005AB4210DC122B50D8DFE803F0330A13
:1003A00041454F4F4F4F4F4F4F4F4F4F4F4F4F487C
:1003B0004C00D1F80C9041E04FF6FF75C1F22105D9
:1003C000AB420FDC0025C1F21105AB421AD000256B
:1003D000C1F21205AB4215D00025C1F22105AB4296
:1003E00010D02BE00025C1F22205AB420AD0002537
:1003F000C1F23105AB4205D00025C1F23205AB4256
:100400001CD100BF8B6843B1012B14BFC0F814B0DE
:10041000C0F810B04FF0080910E04FF004090DE0EB
:10042000CB6803F1080909E04FF0000906E0CB684A
:1004300003F1040902E0CB6803F10C0913460546F9
:10044000B8F5807F24BF203B04352E680F279F40DE
:10045000BE4309FA03F333432B60CB79DB067FF508
:1004600085AF41F21804C4F2020423684FEA9A06E9
:1004700043F001032360236840F6000403F0010306
:100480000193019BACF57E7353F826B0C4F20104CE
:10049000A0420FD040F60044C4F20104A0423FF451
:1004A0002EAF41F20004C4F20104009DA04208BF37
:1004B000022525E7002523E702B0BDE8F08F000004
:1004C000002A08BF090401617047000040F2700073
:1004D000C2F200000068704740F2040040F2700170
:1004E000C2F20000C2F2000100780A6810440860FD
:1004F0007047000080B542F20000C4F202000168BB
:1005000041F010010160032000F07EF80F2000F0A0
:1005100005F800F02BF8002080BD0000B0B540F2D7
:100520000402C2F2000240F200011278C2F200019D
:100530004FF47A730968B3FBF2F20446B1FBF2F1AF
:10054000084600F0E7FA0F2C4FF001050CD858B917
:100550004FF0FF3021460022002500F029F840F23C
:100560000800C2F2000004602846B0BD82B041F22B
:100570001800C4F202000168022241F0010101608A
:10058000016801F0010101910199416841F0805138
:100590004160406800F08050009000980420C4F250
:1005A0000100016862F31A61016002B07047000047
:1005B00010B54EF60C5CCEF2000CDCF80030C3F344
:1005C000022E8EF00704042C28BF0424BEF103037E
:1005D0004FF0FF3E0EFA04F438BF0023A1439940C8
:1005E0000EFA03F39A4300F00F03043B11436344F4
:1005F00009010C3300F16042B0F1FF3FC8BF02F5C2
:100600006443197010BD00004EF60C51CEF200018B
:100610000A684FF6FF031A4060F30A2242F0806036
:1006200040F0FD70086070472DE9F04381B000286C
:1006300000F0858042F20008C4F202080446D8F8AF
:1006400000000D4600F0070088420CD2D8F80000E8
:1006500020F007002843C8F80000D8F8000000F098
:100660000700A8426BD1206841F204098107C4F257
:10067000020917D5410705D5D9F8001041F4E0610A
:10068000C9F80010010705D5D9F8001041F46051F0
:10069000C9F80010D9F80010A26821F0F001114348
:1006A000C9F80010C00741D1D8F8000000F00700D9
:1006B000A8420CD9D8F8000020F007002843C8F859
:1006C0000000D8F8000000F00700A84237D12068E9
:1006D000410707D5D9F80010E26821F4E061114321
:1006E000C9F80010000708D5D9F80000216920F4E6
:1006F000605040EAC100C9F80000D9F8002002F0BB
:100700000C00082841F20020C0F27A004ED140F6D9
:100710009643C2F38341C0F60003595CD20339D437
:1007200040F60010C0F23D0048433FE060680228F8
:1007300009D0012829D159F8041C890307D40120C4
:1007400001B0BDE8F08359F8041C8901F7D5D9F848
:10075000001021F003010843C9F80000FFF7B6FEBE
:10076000064641F2883700BFD9F80000616800F002
:100770000C00B0EB810F97D0FFF7A8FE801BB842AA
:10078000F2D9032001B0BDE8F08359F8041C8907B1
:10079000D5D5DCE7D9F8002040F68443C2F34042C7
:1007A000C0F600039A5C4843B0FBF2F0D9F80010A1
:1007B00040F68642C1F30311C0F60002515C40F2DC
:1007C000000220FA01F140F20800C2F200000068C5
:1007D000C2F200021160FFF7A1FE002001B0BDE8E7
:1007E000F08300002DE9F04182B0002800F0D780AE
:1007F0000446007841F20006C007C4F2020644D065
:10080000706800F00C00042817D0706800F00C002D
:10081000082802D17068C0030FD465682DB1B5F502
:10082000A02F10D0B5F5803F11D0306820F4803073
:100830003060306820F480200CE03068800324D5DC
:10084000606810BBABE0306840F4802030603068F6
:1008500040F480303060FFF739FE002D054611D09E
:100860003068800311D4FFF731FE401B6428F7D9AC
:1008700016E100BFFFF72AFE401B64284FF003007B
:1008800000F28A8030688003F4D42078800718D57D
:10089000706810F00C0F07D0706800F00C0008288A
:1008A00027D17068C00324D43068800702D520693E
:1008B000012874D13068616920F0F80040EAC10075
:1008C0003060207800074FD5A06940B30020C4F203
:1008D00042200121C0F88014FFF7F8FD054600BF53
:1008E000706A80072DD4FFF7F1FD401B0228F7D96D
:1008F000D6E02069002840F20000C4F2422000F057
:10090000A68001210160FFF7E1FD05463068800700
:10091000D0D4FFF7DBFD401B0228F7D9C0E0002050
:10092000C4F242200021C0F88014FFF7CFFD054635
:10093000706A800718D5FFF7C9FD401B0228F7D958
:10094000AEE040F20000C2F20000006844F6D3516D
:10095000C1F26201A0FB0101480A019000BF0198A9
:10096000411E00280191F9D1207840071BD4E56988
:100970008DB1706800F00C00082846D1012D0ED012
:100980007068216A00F480328A4208D1616A00F4FA
:100990007010884203D1002002B0BDE8F081012030
:1009A00002B0BDE8F081F06910F0805808D1F0691C
:1009B00040F08050F061F06900F0805000900098A5
:1009C00047F20007C4F200073868C0050FD4386842
:1009D00040F480703860FFF779FD05463868C0053F
:1009E00005D4FFF773FD401B6428F7D958E0E5688C
:1009F0001DB1052D3CD0012D3ED0306A20F0010004
:100A00003062306A20F0040039E00027C4F2422747
:100A100000203866FFF75AFD022D05460CD100BFB5
:100A20003068800154D5FFF751FD401B02284FF07C
:100A30000300F5D9B0E700BF30688001ABD5FFF700
:100A400045FD401B02284FF00300F5D9A4E7002123
:100A50000160FFF73BFD0546306880077FF531AF49
:100A6000FFF734FD401B02284FF00300F4D993E751
:100A7000306A40F004003062306A40F001003062B9
:100A8000FFF724FD002D054641F2883714D000BF42
:100A9000306A800713D4FFF719FD401BB842F7D91D
:100AA000032002B0BDE8F081FFF710FD401BB84203
:100AB0004FF003003FF670AF306A8007F4D4B8F10E
:100AC000000F7FF454AFF06920F08050F0614EE7E2
:100AD000206AB0F5803F05D17168A26821F4003129
:100AE000114371607168626A21F474111043084304
:100AF000706001203866FFF7E9FC04463068800129
:100B00003FF549AFFFF7E2FC001B02284FF003005E
:100B1000F4D941E7411E0020B0EB116F1CBF01204A
:100B200070474EF21002CEF2000251604EF6235191
:100B3000CEF20001F0230B70072190601160704726
:100B4000FEE70000F0B585B0002541F21800CDE9C0
:100B50000355CDE90155C4F20200016841F20004D9
:100B600041F0100101600168C4F2010401F01001BC
:100B7000009100990168012241F0200101600168A3
:100B80004FF4005601F020010091009901680127FF
:100B900041F00401016000684FF4005100F00400CE
:100BA000009000982046FFF78BFC0220049001A9DA
:100BB0002046CDE901670395FFF782FB05B0F0BD44
:100BC000FEE70000FEE700007047000070470000ED
:100BD00080B5FFF781FC80BD70470000FEE7000094
:100BE00090B0FFF787FC06AC20462821FFF7ECFA0F
:100BF000012006900A904FF4E01000254FF4803158
:100C000002260F9020460595CDE90355CDE9015503
:100C1000CDE90715CDE90D61FFF7E4FD18B1EFF35C
:100C2000108072B6FEE70F20CDE901064FF4806018
:100C3000CDE9040501A802210395FFF7F5FC20B1D9
:100C4000EFF3108072B600BFFEE741F20004C4F279
:100C50000104FFF777FF20464FF400510122FFF710
:100C60002FFC00BF20464FF400510022FFF728FC64
:100C70006420FFF711FB20464FF400510122FFF7DB
:100C80001FFCEFE70102000000000000000001026D
:100C900003040607080902030405060708090A0BEE
:100CA0000C0D0E0F10100000C80C000800000020F2
:100CB0001000000028010008D80C000810000020D7
:100CC00068060000440100080024F4000100000050
:080CD00010000000000000000C
:04000005080000ED02
:00000001FF
