:020000040800F2
:1000000090060020010100081D150008F9130008E2
:1000100019150008E9060008051600080000000090
:10002000000000000000000000000000F5150008BE
:10003000ED0600080000000021150008F915000871
:100040001B0100081B0100081B0100081B01000820
:100050001B0100081B0100081B0100081B01000810
:100060001B0100081B0100081B0100081B01000800
:100070001B0100081B0100081B0100081B010008F0
:100080001B0100081B0100081B0100081B010008E0
:100090001B0100081B0100081B0100081B010008D0
:1000A0001B0100081B0100081B0100081B010008C0
:1000B0001B0100081B0100081B0100081B010008B0
:1000C0001B0100081B0100081B0100081B010008A0
:1000D0001B0100081B0100081B0100081B01000890
:1000E0001B0100081B0100081B010008DFF80CD0F1
:1000F00000F00EF900480047A11800089006002003
:100100000648804706480047FEE7FEE7FEE7FEE7B1
:10011000FEE7FEE7FEE7FEE7FEE7FEE70116000862
:10012000ED000008D2B201E000F8012B491EFBD21D
:1001300070470022F6E710B513460A4604461946F2
:10014000FFF7F0FF204610BD0FB400B589B00BA833
:1001500000906A4603480A9900F0D0F809B05DF8AB
:1001600014FB0000000000202DE9FF5F1D464FF04A
:10017000FF3BD5E9014691465F464FF00008A9696B
:100180007F1C01988847296A824688470028F6D153
:10019000BAF1FF3F0CD024F4C064002E19DD6006D4
:1001A00014D5BAF12B0F09D0BAF12D0F0ED103E0FF
:1001B000584604B0BDE8F09F44F48064A9697F1CF0
:1001C00001988847761E8246002E02DDBAF1300F74
:1001D00003D0B9F1000F26D032E0A969761E44F4AD
:1001E00000747F1C019888478246002E05DDBAF115
:1001F000780F06D0BAF1580F03D0B9F1000F10D024
:100200001EE0B9F1000F02D0B9F1100F18D1A969A1
:10021000761E24F400747F1C0198884782461020C3
:1002200002E0082000E00A20814609E008FB0908F6
:10023000A969761E44F400747F1C019888478246A1
:10024000002E05DD4946504600F04AF80028EDDA58
:10025000E96901988847A00502D46FF00100A8E77A
:10026000E00725D1600613D5600502D5C8F100006E
:1002700000E0404629680A1D2A600968220501D568
:10028000087015E0220701D5088011E008600FE032
:100290002868011D29600068210502D580F80080CA
:1002A00006E0210702D5A0F8008001E0C0F8008038
:1002B00038467EE730B50B46014600202022012457
:1002C00009E021FA02F59D4205D303FA02F5491B24
:1002D00004FA02F52844151EA2F10102F1DC30BD3A
:1002E0003A2800D2303820F02002412A01D3A2F16E
:1002F0003700884201D34FF0FF307047024B9361C3
:10030000024BD36100F032B87118000851030008A5
:10031000064C074D06E0E06840F0010394E8070052
:1003200098471034AC42F6D3FFF7E4FE947C000803
:10033000B47C0008094910B508784C1C18B1401E5F
:100340000870205C10BD00210720ABBE207010BDDE
:1003500002490878421C0A7070470000080000201B
:10036000026811441378016018467047D16004494F
:1003700051610449116200211161114600F00AB86F
:100380006103000889030008C0B24FF4F05100F087
:1003900097B900002DE9F34F8BB04FF0000801F141
:1003A0000C000C464FF0010B46460DF1080A019077
:1003B0006269012101989047051E2DD0252D2CD072
:1003C000216A8847C0B16269012101989047216A7A
:1003D00088470028F7D1411E62690198904700E0E4
:1003E000761CA1690B988847216A88470028F7D1B5
:1003F000E1690B988847DBE7A1690B9888470746B6
:10040000A84201D1761CD3E7E1690B9888477F1C8D
:1004100002D1B8F1000F6FD046E1002762693D4676
:100420003946019890472A2804D162690121019830
:1004300090470125DFF88492626901210198904775
:10044000A0F130010A290AD24F45E5DC07EB87010C
:1004500000EB4107303FDFD445F01005ECE7E9063B
:1004600001D46FF000476C280AD04C2814D06828BB
:1004700015D06A280DD074281CD07A281AD01DE017
:1004800062690121019890476C2802D045F004056B
:1004900014E045F002050DE045F020050AE0626930
:1004A000012101989047682802D045F0080505E031
:1004B00045F400656269012101989047C4E901573C
:1004C00065283DD019DC58287AD00CDC452837D077
:1004D00004DC252826D0412831D131E046282FD010
:1004E00047282CD12CE05B2877D0612828D06328BE
:1004F0007CD0642823D15AE0D0E06F2848D008DCB3
:1005000066281DD067281BD0692821D06E2816D1F7
:1005100027E0702845D0732868D0752847D0782800
:100520000DD14DE0A1690B988847054625283FF479
:1005300069AFE1690B9888476D1C3FF46AAFB3E07F
:1005400023466A466FF001000B99AFF300809EE0EE
:1005500045F040006060A80723464FF0000236D403
:100560003EE0E8077FF447AF2068011D2160006886
:10057000290501D506701BE7290701D5068017E775
:10058000A90703D5F117C0E9006111E706600FE77D
:1005900045F040006060A80723464FF0080216D4DB
:1005A0001EE040F60E0125EA0100606016E045F00D
:1005B00040006060A80723464FF00A0207D40FE00E
:1005C00045F040006060A80708D5234610226FF070
:1005D00001000B99AFF3008059E007E02346102299
:1005E0006FF001000B99FFF7BFFD50E04FF00009DD
:1005F0004F464B46632802D05B2806D040E0E80611
:1006000001D40120A06001273AE06269012101982C
:1006100090475E2805D14FF001096269494601986B
:100620009047216939B900210A46534643F82120F1
:10063000491C0829FADBB0B3216969B9C11700EB7D
:10064000D16253110AEB830122F01F02821A0120AA
:100650000B68904003430B60626901210198904749
:100660005D28E8D1B9F1000F09D00020514651F8BA
:100670002020D24341F82020401C0828F7DB02ABA1
:10068000224600976FF001000B99AFF3008000281D
:100690000CDA401C08D1BBF1000F05D04FF0FF3041
:1006A0000DB0BDE8F08FFFE74046F9E7E90701D15B
:1006B00008F1010806444FF0000B79E6CCCCCC0CD5
:1006C0007F2801D9002208E0064A02EB5002C00749
:1006D000127800D1120902F00F0201209040084068
:1006E00070470000B22C0008FEE7000070470000D1
:1006F000EFF3108072B600BFFEE70000B0B504460D
:1007000000F01CF9054640F21000C2F2000000782B
:10071000611C18BF044400BF00F010F9401BA04248
:10072000FAD3B0BD2DE9F04F82B041F20042C4F2DD
:1007300001020E680423904208BF0323002E009399
:1007400000F0EC8040F20C4E40F2004CC4F2010E7E
:100750000022C4F2010C01244FF0000A4FF00009FE
:100760003FE0012502F00C040F27A7402BEA070702
:1007700005FA04F43C4343F826404E68F303DCF8E2
:10078000003054BF23EA080343EA0803CCF80030E2
:10079000DCF80430B40354BF23EA080343EA080337
:1007A000CCF80430F402DCF8083054BF23EA080324
:1007B00043EA0803B402CCF80830DEF800304FF00A
:1007C000010454BF23EA080343EA0803CEF80030CB
:1007D0000E680AF1010A36FA0AF302F1040200F087
:1007E0009D8004FA0AFB16EA0B08F1D04B684FF61D
:1007F000FF75C1F21005AB4210DC122B50D8DFE8B8
:1008000003F0330A41454F4F4F4F4F4F4F4F4F4F1C
:100810004F4F4F484C00D1F80C9041E04FF6FF7518
:10082000C1F22105AB420FDC0025C1F21105AB423C
:100830001AD00025C1F21205AB4215D00025C1F235
:100840002105AB4210D02BE00025C1F22205AB42BE
:100850000AD00025C1F23105AB4205D00025C1F216
:100860003205AB421CD100BF8B6843B1012B14BFD2
:10087000C0F814B0C0F810B04FF0080910E04FF005
:1008800004090DE0CB6803F1080909E04FF0000905
:1008900006E0CB6803F1040902E0CB6803F10C0920
:1008A00013460546B8F5807F24BF203B04352E68EB
:1008B0000F279F40BE4309FA03F333432B60CB79E4
:1008C000DB067FF585AF41F21804C4F20204236809
:1008D0004FEA9A0643F001032360236840F60004C0
:1008E00003F001030193019BACF57E7353F826B02E
:1008F000C4F20104A0420FD040F60044C4F2010447
:10090000A0423FF42EAF41F20004C4F20104009D66
:10091000A04208BF022525E7002523E702B0BDE875
:10092000F08F00008068084018BF01207047000069
:10093000002A08BF090401617047000040F28820C6
:10094000C2F200000068704740F2100040F28821B7
:10095000C2F20000C2F2000100780A681044086088
:100960007047000080B542F20000C4F20200016846
:1009700041F010010160032000F07EF80F2000F02C
:1009800005F800F02BF8002080BD0000B0B540F263
:100990001002C2F2000240F20C011278C2F2000111
:1009A0004FF47A730968B3FBF2F20446B1FBF2F13B
:1009B000084600F05DFC0F2C4FF001050CD858B92B
:1009C0004FF0FF3021460022002500F029F840F2C8
:1009D0001400C2F2000004602846B0BD82B041F2AB
:1009E0001800C4F202000168022241F00101016016
:1009F000016801F0010101910199416841F08051C4
:100A00004160406800F08050009000980420C4F2DB
:100A10000100016862F31A61016002B070470000D2
:100A200010B54EF60C5CCEF2000CDCF80030C3F3CF
:100A3000022E8EF00704042C28BF0424BEF1030309
:100A40004FF0FF3E0EFA04F438BF0023A143994053
:100A50000EFA03F39A4300F00F03043B114363447F
:100A600009010C3300F16042B0F1FF3FC8BF02F54D
:100A70006443197010BD00004EF60C51CEF2000117
:100A80000A684FF6FF031A4060F30A2242F08060C2
:100A900040F0FD70086070472DE9F04381B00028F8
:100AA00000F0858042F20008C4F202080446D8F83B
:100AB00000000D4600F0070088420CD2D8F8000074
:100AC00020F007002843C8F80000D8F8000000F024
:100AD0000700A8426BD1206841F204098107C4F2E3
:100AE000020917D5410705D5D9F8001041F4E06196
:100AF000C9F80010010705D5D9F8001041F460517C
:100B0000C9F80010D9F80010A26821F0F0011143D3
:100B1000C9F80010C00741D1D8F8000000F0070064
:100B2000A8420CD9D8F8000020F007002843C8F8E4
:100B30000000D8F8000000F00700A84237D1206874
:100B4000410707D5D9F80010E26821F4E0611143AC
:100B5000C9F80010000708D5D9F80000216920F471
:100B6000605040EAC100C9F80000D9F8002002F046
:100B70000C00082841F20020C0F27A004ED142F663
:100B80000C53C2F38341C0F60003595CD20339D43D
:100B900040F60010C0F23D0048433FE06068022884
:100BA00009D0012829D159F8041C890307D4012050
:100BB00001B0BDE8F08359F8041C8901F7D5D9F8D4
:100BC000001021F003010843C9F80000FFF7B6FE4A
:100BD000064641F2883700BFD9F80000616800F08E
:100BE0000C00B0EB810F97D0FFF7A8FE801BB84236
:100BF000F2D9032001B0BDE8F08359F8041C89073D
:100C0000D5D5DCE7D9F8002042F6F243C2F34042E2
:100C1000C0F600039A5C4843B0FBF2F0D9F800102C
:100C200042F6F442C1F30311C0F60002515C40F2F7
:100C30000C0220FA01F140F21400C2F20000006838
:100C4000C2F200021160FFF7A1FE002001B0BDE872
:100C5000F083000040F20C0041F20401C2F20000F7
:100C6000C4F202010068096842F60452C1F302218D
:100C7000C0F60002515CC8407047000040F20C0012
:100C800041F20401C2F20000C4F2020100680968E6
:100C900042F60452C1F3C221C0F60002515CC840C2
:100CA000704700002DE9F04182B0002800F0D780A5
:100CB0000446007841F20006C007C4F2020644D0A0
:100CC000706800F00C00042817D0706800F00C0069
:100CD000082802D17068C0030FD465682DB1B5F53E
:100CE000A02F10D0B5F5803F11D0306820F48030AF
:100CF0003060306820F480200CE03068800324D518
:100D0000606810BBABE0306840F480203060306831
:100D100040F480303060FFF711FE002D054611D001
:100D20003068800311D4FFF709FE401B6428F7D90F
:100D300016E100BFFFF702FE401B64284FF00300DE
:100D400000F28A8030688003F4D42078800718D5B8
:100D5000706810F00C0F07D0706800F00C000828C5
:100D600027D17068C00324D43068800702D5206979
:100D7000012874D13068616920F0F80040EAC100B0
:100D80003060207800074FD5A06940B30020C4F23E
:100D900042200121C0F88014FFF7D0FD054600BFB6
:100DA000706A80072DD4FFF7C9FD401B0228F7D9D0
:100DB000D6E02069002840F20000C4F2422000F092
:100DC000A68001210160FFF7B9FD05463068800764
:100DD000D0D4FFF7B3FD401B0228F7D9C0E00020B4
:100DE000C4F242200021C0F88014FFF7A7FD054699
:100DF000706A800718D5FFF7A1FD401B0228F7D9BC
:100E0000AEE040F20C00C2F20000006844F6D3519C
:100E1000C1F26201A0FB0101480A019000BF0198E4
:100E2000411E00280191F9D1207840071BD4E569C3
:100E30008DB1706800F00C00082846D1012D0ED04D
:100E40007068216A00F480328A4208D1616A00F435
:100E50007010884203D1002002B0BDE8F08101206B
:100E600002B0BDE8F081F06910F0805808D1F06957
:100E700040F08050F061F06900F0805000900098E0
:100E800047F20007C4F200073868C0050FD438687D
:100E900040F480703860FFF751FD05463868C005A2
:100EA00005D4FFF74BFD401B6428F7D958E0E568EF
:100EB0001DB1052D3CD0012D3ED0306A20F001003F
:100EC0003062306A20F0040039E00027C4F2422783
:100ED00000203866FFF732FD022D05460CD100BF19
:100EE0003068800154D5FFF729FD401B02284FF0E0
:100EF0000300F5D9B0E700BF30688001ABD5FFF73C
:100F00001DFD401B02284FF00300F5D9A4E7002186
:100F10000160FFF713FD0546306880077FF531AFAC
:100F2000FFF70CFD401B02284FF00300F4D993E7B4
:100F3000306A40F004003062306A40F001003062F4
:100F4000FFF7FCFC002D054641F2883714D000BFA6
:100F5000306A800713D4FFF7F1FC401BB842F7D981
:100F6000032002B0BDE8F081FFF7E8FC401BB84267
:100F70004FF003003FF670AF306A8007F4D4B8F149
:100F8000000F7FF454AFF06920F08050F0614EE71D
:100F9000206AB0F5803F05D17168A26821F4003164
:100FA000114371607168626A21F47411104308433F
:100FB000706001203866FFF7C1FC0446306880018C
:100FC0003FF549AFFFF7BAFC001B02284FF00300C2
:100FD000F4D941E770B538B10446406A30B1002019
:100FE000206104F1140007E0012070BD6068B0F5D5
:100FF000827F03D004F11C00002101600026A6625C
:1010000094F8510020B9204684F8506000F038F878
:10101000022084F8510094E8071001F482710368FB
:1010200002F4044223F040030360236911440CF4EA
:101030000062114403F002026369114403F00102EB
:10104000A369E569114403F40072114405F0380204
:10105000256A114405F08002A56A114305F4005287
:1010600011430160042101EA13414160C16921F487
:101070000061C1610120666584F85100304670BD91
:1010800080B586B0014640F60000C4F20100096850
:1010900000F5205291424FF00001CDE90411CDE955
:1010A000021101D006B080BD41F21801C4F2020164
:1010B0000A6842F480520A600A6802F4805201927F
:1010C000019A0A6842F004020A60096801F004010A
:1010D00001910199A021029102210391032105911F
:1010E00002A9FFF71FFB06B080BD00002DE9F04309
:1010F00081B0044690F85000012803D1022001B0CD
:10110000BDE8F0834FF001091D4616460F4684F8EE
:101110005090FFF713FC94F8511001295DD18046DF
:10112000002F4FF0010018BF002E00F0998003201F
:1011300084F85100002060652763A686E686A063D8
:10114000A087E087A168C4E91000B1F5004F08D17D
:101150002068016821F040010160016841F480418C
:10116000016020680168490603D4016841F040012C
:1011700001606168731EE268B1FA81F1B3FA83F32A
:1011800049095B09B2F5006F41EA030127D139B182
:10119000216B31F8022BC2602163E08E0138E086BA
:1011A000E08E002841D06E1C0AE000BF216B31F8B0
:1011B000022BC2602163E08E0138E086E08EA0B38E
:1011C000206881688907F1D4FFF7B8FB002EF5D0BD
:1011D000A0EB0800A842F1D325E0022040E039B19D
:1011E00039780173206B01302063E08E0138E0868E
:1011F000E08ED0B16E1C0AE0216B09780173206B80
:1012000001302063E08E0138E086E08E68B120680E
:1012100081688907F0D4FFF791FB002EF5D0A0EB91
:101220000800A842F1D303201AE0204680212A4674
:10123000434600F077F928B1606D40F0200060650A
:1012400020206065A06838B9002000902068C1683F
:101250000091806800900098606D002818BF012000
:10126000002184F8519084F8501001B0BDE8F0835B
:10127000411E0020B0EB116F1CBF012070474EF2E1
:101280001002CEF2000251604EF62351CEF2000160
:10129000F0230B700721906011607047002804BF95
:1012A0000120704710B5044690F83D0028B9002091
:1012B00084F83C00204600F05FF8242084F83D00CC
:1012C0002068D4E90212C36823F40053C3600369A1
:1012D00023F440531A430261D4E904231143C26842
:1012E000194341F20C639A431143C1604169A269F9
:1012F00021F44071114343F60002C4F2010290420E
:10130000416102D0FFF7A6FC01E0FFF7B7FC62687D
:10131000192148439100B0FBF1F048F21F51C5F28A
:10132000EB11A0FB01235A096FF0630302FB0300DA
:10133000322303EB0010A0FB0101F02303EA511359
:10134000206803EB0212C1F343111144816001696B
:1013500021F490410161416921F02A014161C16894
:1013600041F40051C16000202021206484F83D1028
:1013700084F83E1010BD000070B586B040F6004401
:10138000C4F201040068A4F5444100268842059691
:10139000CDE90366029601D006B070BD41F2180097
:1013A000C4F20200416802AD41F48021416041680D
:1013B00001F4802101910199016841F00801016067
:1013C0000068294600F00800019001984FF4806001
:1013D000029002200390032005902046FFF7A2F917
:1013E0004FF40060CDE90206204629460496FFF737
:1013F00099F906B070BD0000FEE70000F0B585B0B9
:10140000002641F21800CDE90366CDE90166C4F279
:101410000200016840F6000441F01001016001681B
:10142000C4F2010401F0100100910099016800224A
:1014300041F02001016001681C2501F020010091AC
:101440000099016841F004010160016801F00401A4
:1014500000910099016841F00801016000681C21B9
:1014600000F00800009000982046FFF761FA01950F
:10147000022001AD0127049020462946CDE90276DD
:10148000FFF750F904F580602946CDE9017603970E
:10149000FFF748F905B0F0BD80B540F2480043F2CF
:1014A0000001C2F20000C4F201014FF48272002375
:1014B00080E80E0000F114014FF4007C4FF0080E9C
:1014C00081E808500A21C0E90333C0E90833C0E9C4
:1014D0000A31FFF77FFD002818BFFFF709F980BD2B
:1014E00080B540F2A00044F60001C2F20000C4F250
:1014F000000100234FF00C0C4FF4E13280E80E00A5
:10150000C0E90333C0E905C3C361FFF7C7FE002884
:1015100018BFFFF7EDF880BDFEE70000FEE7000012
:10152000704700002DE9F04381B01E4690460D46FD
:101530008146FFF703FA301A00EB0807FFF7FEF9C0
:1015400040F20C01C2F200010968C1F3CB317943CA
:101550000091D9F8001089682940A94219D106469E
:1015600008F1010406E000BFD9F8000080682840B7
:10157000A8420ED1002CF7D0FFF7E0F9801BB8424B
:101580000BD200980099002808BF0746481E00901B
:10159000EAE7002001B0BDE8F083D9E90001426824
:1015A000B1F5827F22F0E00242600BD1D9F8081039
:1015B000B1F5004F02D0B1F5806F03D1016821F081
:1015C00040010160D9F82810B1F5005F07D101682A
:1015D00021F400510160016841F4005101600120D3
:1015E00089F85100002089F85000032001B0BDE8BF
:1015F000F08300007047000080B5FFF7A5F980BDBB
:1016000070470000FEE7000040F2E400C2F2000074
:10161000002101607047000040F2E400C2F20000C7
:10162000016801310160704700EB8100C2607047C2
:1016300010B50446816800798847E1784A0702D0EE
:10164000228801322280B0EBD11F02D101F0C70005
:101650000FE0012202EBD10202F0070201F0C70302
:1016600043EAC203032AE37004D301F0470141EACD
:10167000C010E070E07800F00701052900F28B80CF
:10168000DFE801F0031D3455895EA278C0F38011B4
:10169000B1EBD01F02F00F0063D1E168A07009B177
:1016A0002046884700202080A078E17800F0F000F4
:1016B0000130A07001F0F8000130E07010BDC0F3FF
:1016C0008011B1EBD01F4FD12088652863D3A0785B
:1016D000216A052262F31F10A07009B120468847D5
:1016E000E07800F0F8000530E07010BDC0F3801124
:1016F000B1EBD01F42D1A078E16800F00F00A070DC
:1017000009B120468847A078411C01F00F026169A9
:1017100000F0F0001044A07009B120468847E1783D
:101720000020208001F0F8000330E07010BDC0F30D
:101730008011B1EBD01F2FD121881F294FD22AE071
:10174000A278C0F38011B1EBD01F02F00F0037D1A7
:10175000616A60300029A07008BF10BD204688472C
:1017600010BD8030A07010BDA0782169012262F305
:101770001F10A070E1B12046884719E020881F287B
:1017800009D3A07800F00F00022821D0012825D12C
:10179000A16930301EE010BDA0782169012262F3FA
:1017A0001F10A07009B12046884720881D2815D831
:1017B000E1780020208001F0F8000230E07010BDD8
:1017C00021691030A07009B120468847E07806E012
:1017D000E1694030A07009B120468847E07800F008
:1017E000F800E07010BD0000F0B581B00E462C216D
:1017F0001C4615460746FEF79CFCB878082161F3A5
:101800001F10B8702046BE60B047F9783C7101F0F7
:101810003F0141EAC01005F0010140EA8110F87073
:1018200001B0F0BD40F24401C2F200010A683AB1D1
:10183000824204BF4FF0FF307047926A002AF7D10E
:101840000A680860826200207047000010B540F20C
:101850004400C2F200000468002C08BF10BD00BFA5
:101860002046FFF7E5FEA46A002CF9D110BD000068
:1018700044F600002021C4F20000C1F2000100BFC4
:1018800002680A42FCD040687047000044F600013C
:10189000C4F200010A685206FCD5C2B24A60704721
:1018A00090B0FFF75FF806AC20462821FEF741FC18
:1018B000012006900A904FF4E01000254FF480318B
:1018C00002260F9020460595CDE90355CDE9015537
:1018D000CDE90715CDE90D61FFF7E4F918B1EFF394
:1018E000108072B6FEE70F20CDE901064FF480604C
:1018F000CDE9040501A802210395FFF7CDF820B139
:10190000EFF3108072B600BFFEE7FFF777FDFFF739
:10191000C3FDFFF7E5FD40F60000C4F20100102111
:101920000122FFF705F840F2F404C2F20004204659
:1019300000F088F840F21805C2F2000541F63121A6
:10194000C0F60001284600220023FFF74DFF41F2B8
:101950001962C0F6000228460121FFF765FE41F238
:101960000962C0F6000228460521FFF75DFE284601
:10197000FFF758FF42F61C5A40F2E40B40F2E8072A
:1019800042F62C59C0F6000AC2F2000B0FF27C0896
:10199000C2F20007C0F600091DA521A6504659460F
:1019A000FEF7D2FBDBF80010404601F09FF84FF441
:1019B0007A70FEF7A3FEDBF800203846514601F0AE
:1019C000A5F82046494600F089F9204600F000F9C4
:1019D000204600210F222B4600F0E6F82046002189
:1019E0001E22334600F0EAF8204600212D223B4615
:1019F00000F0DAF8204600F041F90028E8D1FFF7BE
:101A000025FF0520FEF77AFEC8E700BF25640A001F
:101A100048656C6C6F20576F726C64202100000069
:101A2000E4BDA0E5A5BDE4B896E7958C20210000B3
:101A300080B540F60040C4F201000121FEF772FFBC
:101A400080BD000010B542F6205142F2DD6242F640
:101A50003923C0F60001C0F60002C0F600030446B8
:101A600000F0DEF9204600F0F7FD2046002100F0EE
:101A700003FE10BD2DE9F04782B0002B00F09180ED
:101A800090F88C70002F00F08C80DDF828C0022BBD
:101A900007D3BCF1030F3FD0BCF1020F01D1C91A2B
:101AA00001311CF0010C3CD1B0F84C6097B2B74248
:101AB00077D3B0F84E60B74273D2B0F848A0B0F810
:101AC0004AE08EB2F718BDB27645544638BF0C4690
:101AD000BD4208BF0C4676453E461FFA84F838BF23
:101AE000AEF10106BD424FF0000708BF2E461FFAB7
:101AF00086F90025F04538BF0127D14588BF01256B
:101B00002F40012F44D1D04538BF5446F14588BFFE
:101B10007646331B21463BE0D21A01321CF0010C01
:101B2000C2D0B0F848608FB2B7423AD3B0F84A603A
:101B3000B74236D2B0F84CA0B0F84EE096B2F718E3
:101B4000BDB27645544638BF1446BD4208BF144660
:101B500076453E461FFA84F838BFAEF10106BD4215
:101B60004FF0000708BF2E461FFA86F90025F04502
:101B700038BF0127D14588BF01252F40012F07D14C
:101B8000D04538BF5446F14588BF7646331B2246C0
:101B90003FB1076B89B2BF6892B29BB2CDF800C06B
:101BA000B84702B0BDE8F08780B542F2C96CC0F614
:101BB000000CC0F804C000F091F980BD80B542F679
:101BC000692CC0F6000CC0F804C000F087F980BD95
:101BD00010B5044690F8930040B1206894F838207E
:101BE000017C606B5143C900FEF7A3FA2046002137
:101BF00000F066F810BD000010B5B0F84E40DDF8FA
:101C000008C0B0F84CE094420BD962454FF0000296
:101C10004FF0000488BF0122E64538BF012422436B
:101C20000AE062454FF000024FF0000488BF012235
:101C3000E64538BF01242240002A04BF002010BD21
:101C4000B0F84A20B0F848008A420BD900229942E5
:101C50004FF0000188BF0121984238BF012241EABC
:101C6000020010BD002299424FF0000188BF0121FF
:101C7000984238BF012201EA020010BDB0B5044607
:101C800000F048FC94F8392094F8380021680244A8
:101C90004B7CD5B29D420ED294F893202AB1097C98
:101CA0004143606BC900FEF744FA2046294600F024
:101CB00007F80120B0BD204600F0D6FC0020B0BDE2
:101CC00010B50446006B84F839100268204690472E
:101CD000206B41682046884710BD0000B0B504461F
:101CE000806D88426CD0A16508780D4684F8740038
:101CF000487884F87500887884F87600C87884F885
:101D00007700087984F87800487984F87900887930
:101D100084F87A00C87984F87B00087A84F87C001B
:101D2000487A84F87D00887A84F87E00C87A84F83E
:101D30007F00087B84F88000487B84F88100887BE2
:101D400084F88200C87B84F88300087C84F88400CF
:101D50000846112100F084FBA4F8860028461321D0
:101D600000F07EFBA4F888002846152100F078FBDF
:101D7000A4F88A0025B394F88D1094F9812094F981
:101D80008200002984F88E2084F88F0008BFB0BD3F
:101D9000012908D194F983108A42B8BF84F88E10C3
:101DA00094F9841008E094F97E3094F980100B4483
:101DB0009342C8BF84F88E308842C8BF84F88F1021
:101DC000B0BD000041F6B971C0F60001C1657047B1
:101DD000B0B50446049884F838204FF48072A4F813
:101DE0009120012284F8932002680025C4E90B3079
:101DF0002046A56584F8395084F86D50616390479A
:101E00000020CFF6FF70216B206560654968204691
:101E100088472046FFF7D6FF84F87050B0BD000019
:101E2000B0B582B09C4613460C4642F6ED0142F234
:101E30006172C0F60001C0F600020546CDF800C090
:101E400000F022FC0DF1070000F05CFB9DF807207C
:101E500042F269430146C0F6000328460094FFF7AA
:101E6000B7FF02B0B0BD0000022B07D0012B08D095
:101E7000002B14BF1044084480B27047401A80B24F
:101E80007047801A80B27047022B07D0012B08D010
:101E9000002B14BF401A104480B27047801A80B2E1
:101EA0007047084480B2704710B582B0B0F83EE089
:101EB000DDF810C0C46AA2EB0E0292B2CDF800C0E9
:101EC000A04702B010BD000080B582B0DDF810C0A0
:101ED000CDF800C0FFF7E8FF02B080BD2DE9F04F5C
:101EE00081B01F4692460D4606464FF6FF7800F039
:101EF000B7FD7268397830469047404554D0A8F114
:101F000001017C1C4FF000091FFA81FB08E000BFB3
:101F10008144726814F8011B30469047404545D013
:101F200087B25F45F5D096F870205046032A2946BF
:101F30001AD8DFE802F002080D14F16D3046884728
:101F40005044294610E0F16D30468847291A0AE0CE
:101F5000F16D30468847AAEB0000294604E0F16D98
:101F60003046884741195046A6F86410A6F8660026
:101F70003046394600F02CFA20B10146304600F0D8
:101F80001DF800E0002096F870100329C0D8DFE8A3
:101F900001F005070902AAEB000AB9E70544B7E713
:101FA0008244B5E72D1AB3E74FF000091FFA89F014
:101FB00001B0BDE8F08F0000002070472DE9F04F20
:101FC0008BB090F878300022016680F86C201E46B5
:101FD0000A78082B22BF01310166A3F108064FF0F1
:101FE000FF3101FA03F322EA030E90F87930056E0F
:101FF00080F86C6080F86AE09A192F78D4B2082CC7
:10200000F4B2824627FA04F70AD36C1CCAF860407F
:10201000C6F108066D78F6B205FA06F63743083AB7
:10202000994027EA01009AF89210DAF860308AF8AD
:102030006E10B1FA81F149098AF86F109AF87A1096
:102040008AF86C208AF86B001E785518D7B2EAB26D
:10205000082A26FA07FC03900AD35E1CCAF86060BF
:10206000C7F108075B78FFB2BB404CEA030C083DA0
:102070009AF87B30DAF860408AF86C505E1927785D
:10208000F2B2082AEAB227FA02F70AD3C5F1080227
:10209000651CCAF860506578D2B205FA02F217439F
:1020A000083E9AF87C00DAF860508AF86C6002907A
:1020B00030442A78C4B2082CF4B24FFA8EF922FACE
:1020C00004F40AD3C6F108026E1CCAF860606E7888
:1020D000D2B206FA02F2144308380194B9F1010FA2
:1020E0008AF86C00C0F261814FF0FF304A1E00FA9E
:1020F00001F1D2B24FF080755E1E2CEA010105FAA3
:1021000002F29840F6B2A1EB126127EA0002039FA7
:1021100005FA06F31B0E3A449A1A9AF87060BAF858
:10212000640057B24DB229463A463346FFF79CFE4B
:102130008046BAF8660029463A463346AAF86480D3
:10214000FFF7A2FE032EAAF86600CDF828A009D852
:10215000DFE806F0020B141D039908EB090349B2EE
:1021600001441BE04346014618E0039908F10103CE
:1021700049B2A3EB010800EB09010FE0039908F154
:1021800001034AB2411CA3EB0908881A06E003992F
:1021900049B208EB0103411CA1EB09000A9C8FB274
:1021A0001FFA88F182B29BB220460097FFF724FD08
:1021B000002800F0FA8000202746A4F8680004E018
:1021C000039840B2854280F2EC8097F876003B6E2F
:1021D000394697F86C701D783A18D6B2082E25FA51
:1021E00007FC09D35E1C0E66C7F108075B78FFB2D7
:1021F000BB404CEA030C083A91F877300D6E81F839
:102200006C209F182E78FCB2082CD4B226FA04F663
:1022100009D36C1C0C66C2F108026D78D2B205FAC3
:1022200002F21643083F4FF0FF3202FA00F02CEAA8
:102230000000059002FA03F026EA000081F86C70B5
:102240000F46049005E000BF3746C00786F86C10C3
:10225000B6D097F8684097F86920DDF814B000BF51
:1022600097F86D0097F86A10A1EB040560BB97F82A
:102270007090E8B20890B7F8660066B257B231467F
:1022800009923A464B465FFA8BFAFFF7FDFD0A9931
:102290008046B1F864103A46084631460A9F4B46DC
:1022A000FFF7E2FD0146089897F86F20824528461F
:1022B00038BF584687F89220C3B238464246CDF818
:1022C0000090FFF7D7FB099AE8B25FFA8BF18142E1
:1022D00004D3ABEB050B01320024C1E7049D0BEBEB
:1022E000040387F8683087F8692000BF97F86A0010
:1022F000E9B2A0EB030A5FFA8AF0099181420A99D8
:1023000097F87060D3460890B7F86400B1F866702B
:10231000A84638BFAB465CB255B2069321469146FB
:102320002A463346FFF7A0FD079038460A9F21460C
:102330002A463346FFF7A8FD97F86E10024687F845
:10234000921007995FFA8BF338460096FFF792FBDD
:10235000DDE90810884207D34546A8EB0A0509F1D4
:1023600001020023C2E700BF06983B6E404497F885
:102370006C2087F8680087F869901878511C3E46F1
:10238000CFB2082F20FA02F0FFF45EAF5F1C376671
:10239000C2F108015B78C9B203FA01F10843D11F09
:1023A00052E797F86E0087F8920002994FF0FF30DD
:1023B000019A8840013922EA0000C9B24FF08072C8
:1023C00002FA01F1A0EB116040B20BB0BDE8F08F52
:1023D00070B50C46816DFF2C01F1170104D8612CFA
:1023E00030D3B0F8880031E0B0F88A000E183546D6
:1023F0002846002100F034F806442846022100F067
:102400002FF8A04205F10405F2D33088000400BA89
:10241000B0FA80F14FEA511180B1A0420CD000BF58
:10242000B078315A09040ABAB2FA82F14FEA51116E
:1024300022B1A2420644F3D1F01CFFE7002918BFE5
:10244000002070BD412C02D3B0F8860001444878CA
:1024500020B10A78A242F9D1881C70BD002070BD5D
:10246000405A00BA000C70472DE9F04102F0070510
:10247000012490F8926004FA05F7022EBC4628BFAA
:102480004FF0000CB6F1010E18BFBE460668DDF82D
:102490001880367C22F00707426B7E43B8F1000FAC
:1024A000B6B220D0324411440EE000BF428F90F803
:1024B00092601144012E98BFA44618BFA646013B66
:1024C0001A0408BFBDE8F0810A78013542EA0C021F
:1024D00082EA0E0215F007050A70E7D04FEA4C0CAD
:1024E0004FEA4E0EEBE788191044013810F8011F2F
:1024F000013B41EA0C0181EA0E011A040170F5D199
:10250000BDE8F081014640F288100222C2F20000CC
:102510000A7070472DE9F04F81B0834690F83880FB
:1025200000689BF8396090F81190002501274FF65C
:10253000F87A00BFDBF80000F2B2037CDBF834006D
:1025400005FB03F101EA0A014418584600210094F2
:1025500000F06EF8474506D20136F0B2083548451E
:1025600007F10107E6D301B0BDE8F08FB0B590F8F0
:1025700038100568CB00838795F810C090F8393083
:1025800095F811E04FEACC0CDA005C18A0F83AC0DC
:10259000C287744588BFAEEB03011944C900A0F897
:1025A0004020A0F8421069694164B0BD70B582B0A6
:1025B0000446216CB0F84400E164B4F85010B4F85B
:1025C0005420B4F85230B4F856500026A4F84A000B
:1025D0002046A4F848600095FFF70EFB20B3B4F83E
:1025E0004810B4F850000122814284F88C2038BF92
:1025F000A4F84800B4F84A10B4F85200814288BFE9
:10260000A4F84A00B4F84C10B4F85400814238BF22
:10261000A4F84C00B4F84E10B4F85600814288BFBC
:10262000A4F84E0002B070BD84F88C6002B070BD9A
:1026300080B582B0DDF810C0D0F808E08DF8051044
:102640008DF806208DF804306B460F210122CDF85D
:1026500000C0F04702B080BD80B5D0F808C00A21A4
:1026600000220023E04780BD80B5D0F808C01021CB
:1026700000220023E04780BD80B5D0F808C00A469C
:102680000B210023E04780BD10B54FF47F44A0F834
:102690002340FF244FF0000E80F8284000F108048A
:1026A000DDF808C0C0F800E080F826E084E80E50AD
:1026B00000F002F810BD000080B5D0F808C0092174
:1026C00000220023E04780BD00294FF6FF7008BFBD
:1026D00070470A2918BF08467047000080B5A1F16D
:1026E000140CBCF10C0F4FF0000088BF80BD0FF23E
:1026F0000601DFE80CF01718180717171818181834
:102700001818100040F24800C2F200001946C82311
:10271000FEF7ECFC06E040F60000C4F201000821E0
:10272000FEF706F9012080BD80B582B08DF8071054
:102730000DF10702012100F003F802B080BD000096
:1027400080B5D0F810C013460A461721E04780BD77
:1027500080B5D0F810C00A4620210023E04780BD94
:102760002DE9F0410F461439052912D805461E46B9
:102770009046DFE801F015030311151528460021E6
:10278000FFF7E6FF28464146FFF7CEFF0120BDE8F0
:10279000F0810020BDE8F08128460121FFF7D8FF35
:1027A0002C692846394642463346A047BDE8F081A9
:1027B00080B5D0F80CC0192100220023E04780BD6D
:1027C00080B5D0F80CC00A4616210023E04780BD32
:1027D00080B5D0F80CC00A4615210023E04780BD23
:1027E00080B5D0F80CC013460A461721E04780BDDB
:1027F000F0B581B00E4604460DF103050AE000BFB6
:10280000A1F11800022817D2E66820460022002312
:10281000B0473E46374617F8011B1729F0DCA1F1F7
:102820001500022813D27278E768204600238DF83D
:102830000320B8470236EDE7FE2914D1727820460E
:1028400029218DF8032000F0F1F80236E2E717297C
:1028500009D1707801218DF8030020462A46FFF740
:10286000BFFF0236D6E701B0F0BD000080B5D0F85A
:102870000CC0182100220023E04780BD10B5D0F81D
:1028800014C02821002200230446E047D4F80CC0DD
:102890002046142100220023E04720464B2101223C
:1028A00000F0C4F8206829210279204600F0BEF823
:1028B00020464B21002200F0B9F820682921027936
:1028C000204600F0B3F820464B21012200F0AEF87C
:1028D000206829214279204600F0A8F810BD0000A8
:1028E0008A7C016080F8222070470000B0B50D4658
:1028F000044600F01FF808B10120B0BD092D0DD02D
:102900000A2D14D12046FFF7B9FF47F63B41C0F628
:1029100000012046FFF76CFF0120B0BD47F67C4167
:10292000C0F600012046FFF7DBFF0120B0BD00200C
:10293000B0BD00002DE9F0410B39044604294FF0E9
:10294000000088BFBDE8F0811546DFE801F0035FB5
:10295000131F30002046002D07BF47F67041C0F618
:10296000000147F67541C0F60001FFF741FF012065
:10297000BDE8F081002D4BD047F63441C0F6000190
:102980002046FFF735FF2068C07C4AE02046FFF76D
:102990006DFF20468121FFF71BFF20462946FFF7E8
:1029A0000FFF2046FFF704FF0120BDE8F08120461D
:1029B0001E46FFF75BFF707994F8221001EBC00709
:1029C000204640215FFA87F8FFF702FF4FEA181010
:1029D00000F110012046FFF7FBFE07F00F01204633
:1029E000FFF7EEFEB07940F0B0012046FFF7E8FEB9
:1029F00030793268C000C1B22046FFF7F1FE013DD8
:102A00002806F5D12046FFF7D3FE0120BDE8F0816E
:102A100047F62D41C0F600012046FFF7E9FE206889
:102A2000807C84F822000120BDE8F08180B5D0F8D8
:102A300014C00023E04780BD80B54A2906D029296B
:102A40000BD11046FDF75AFE012080BD40F6000074
:102A5000C4F201000821FDF76BFF012080BD0000DA
:102A6000002180F8261070476FF0010202F1010288
:102A700099B10A2911D090F826304FF6FE7273B141
:102A8000B0F820C001F03F01013B41EA8C1180F811
:102A900026300184180608BF0A4690B27047FB2909
:102AA00003D94FF0010C052318E0F72903D94FF0A3
:102AB000030C042312E0EF2903D94FF0070C032382
:102AC0000CE0DF2903D94FF00F0C022306E0BF29E9
:102AD0009CBF88B270474FF01F0C012301EA0C0124
:102AE00080F82630018490B2704700000FB4054B87
:102AF00010B503A9044A029800F02CF810BC5DF848
:102B000014FB00008D180008040000200FB4084BCF
:102B100010B504A902AA039800F01CF8044602A903
:102B2000002000F0C1F8204610BC5DF814FB000046
:102B3000A92C000802E008C8121F08C1002AFAD117
:102B400070477047002001E001C1121F002AFBD12D
:102B5000704700002DE9FF4F89B09B4604460025D1
:102B600006E025280BD05A460B999047641C6D1C33
:102B700020780028F5D10DB02846BDE8F08F002759
:102B8000B8460122474900E0074314F8013F203BC3
:102B900002FA03F00842F7D120782E2819D114F850
:102BA000010F47F004072A280ED06FF02F0220787B
:102BB000A0F1300109290CD808EB880102EB410192
:102BC00000EB0108641CF2E70A98641C50F8048BBF
:102BD0000A9020780028CED0642808D0692806D032
:102BE00075281ED05A460B9990476D1C58E00A99DB
:102BF0004FF00A0901C90A91002802DA40422D214A
:102C000002E0390504D52B218DF82010012103E0C5
:102C1000F90704D02021F7E78A4608AE0DE000212D
:102C2000FAE70A994FF00A0901C90A91F7E74946FC
:102C3000FDF740FB303106F8011D0028F7D1ADEB60
:102C4000060000F12009780701D44FF00108C845BB
:102C500002DDA8EB090000E000208046002706E026
:102C600008A85A46C05D0B9990476D1C7F1C5745BC
:102C7000F6DB04E030205A460B9990476D1CB8F102
:102C80000001A8F10108F5DC05E016F8010B5A4631
:102C90000B9990476D1CB9F10001A9F10109F4DC11
:102CA000641C65E7092801000A68531C0B6010705A
:102CB0007047DDDDDDDDDCBBBBDDDDDDDDDDDDDD8C
:102CC000DDDD98888888888888887777777777881F
:102CD0008888855555566666666666666666666861
:102CE000888883333332222222222222222222285F
:102CF000888D0102000000000000000001020304B2
:102D0000060708090000000001020304020304058D
:102D1000060708090A0B0C0D0E0F101025640000A1
:102D20006D250008AD250008C91E00083F000402FB
:102D30000505040506101000FE0AFE0BFF01B9038D
:102D4000780565200600A047012108413144E120B3
:102D500021220885284621E3262310462544A5275D
:102D6000834122D2623088F4042414472544273456
:102D700050442292D06C1491540C441900251647EB
:102D800025444323499424228A542C959024228953
:102D9000128D022614472544655392A90889121101
:102DA0004D4294C848260127078130466110280DFE
:102DB00083ED43251149447A13C904290E83E9435D
:102DC0002113C9447A114944002A0EE76444A7A498
:102DD000A2CD26D1A426032B0DE764442756331831
:102DE000646235002C0982AC43419150002D0724C8
:102DF000284561102E07422C4461102F0D462544B2
:102E0000ABA82A940A55A500301446254445134919
:102E10008434938422B2112522190900310C4529EA
:102E20004425234984FA64203210462544639008DF
:102E30008952194DA82A3518331246254463900843
:102E4000895291594A244A0C1200341246254429C9
:102E5000A449442A32894C62304A5500351046252F
:102E600044E120553590A552A2C4200136104625D4
:102E70004465124AA5068A90A3C42001370C462552
:102E800044E1AA2855946A02381146254463900803
:102E90001925068990A3C420013910462544639062
:102EA00008192506AA469109003A09E26C44611006
:102EB0001B043B0B22ED436110532414003C0925F5
:102EC000294429D355073D09A6A444E11E33183EE1
:102ED0000A25254421D54D47003F0F4625446390E0
:102EE000088952A1AA6C2A02401446254465929191
:102EF0002414894544115144248BD820410F462580
:102F00004445136911120D0622470142104625441B
:102F100061A008190D162147830500430F4625447B
:102F20006390085975244A0C1200440F46254461E9
:102F300010C924427E93184400450E462544E120E2
:102F4000553550A45A0D06460D462544E120553509
:102F500050A4BA02471046254463900859950C4284
:102F6000368A4500480C46254421E468301079141F
:102F7000490C452944612009F59381004A0F4725F2
:102F80004465208AF52413C96436004B1346254452
:102F900021A449442A3222512213A94984024C0A0D
:102FA00046254421D55F0D064D0E46254421249A21
:102FB0000C220B8F1C054E1246254421B4D9282221
:102FC0008A88242149688E024F0D46254463900863
:102FD000F9A3C42001500E46254461A008190D161E
:102FE000A9AE00511967E5436310092542895022B3
:102FF0009408254289842221910C7202521246259E
:103000004461A008190D16919A4426111205530F18
:1030100046254463900899391225060900540B4748
:103020002544E12013EB6F00550C46254421E41F95
:10303000250609005613472544216595C844329159
:103040004C4528918A6500570E46254421E4858B1E
:10305000C920321205581146254421244A44DA88F1
:10306000349116215100591047254421A54A642264
:10307000998A54AC1B005A0C462544E1AAA857A9CA
:10308000C1005B0A83F1436110E99F0C5C0D46258A
:10309000442115AB8AA56255015D0A83E54361D2DF
:1030A0003F19045E0A66644645134984025F072798
:1030B000E443E120600763A8462153610F062544DD
:1030C000639008A51283918D6211620F66254421D9
:1030D000D562A11139DA281600630E0625446390E3
:1030E00008A93A4A0C1200640D662544ABC5423368
:1030F000F246B10865100625446390088906035519
:1031000051629000660D65254447122A1948423DD8
:1031100001671566A5432BB1D02432894C64931AFC
:103120002442A2C42001680C66254421D562A11165
:10313000F928690B652944251414F5C9406A0CA5C2
:10314000A543A950D4479288046B1266254421D523
:103150002611A9C8881299484D22146C0A65294481
:1031600043D43F19086D1407254461A188442411F4
:103170004944129144241149016E0B06254421B1A2
:10318000D0887C146F0D062544639008F9283148D7
:1031900000700F46A54321B1D0881C6D148B540AD2
:1031A000710D46A54363A11979A358A40A720C06B0
:1031B000254421B1D088545D01730E0625446390E7
:1031C00008C91C25060900740C4525442554329075
:1031D00084BA12750B06254421E4378A4500760D22
:1031E00006254421649488F4462401771307254476
:1031F00021258948229288242289482A2C00781087
:1032000006254421244A4432224D24111205790F07
:1032100046A54321E451226291AA1824007A0B06A4
:103220002544E12AD4ABC1007B0FA4A943459109F1
:1032300065224535914C487C08C1B143E103017DCD
:1032400010A4A94341948964422535A14C42027ED1
:103250000B6724464323896814007F2610A283212C
:10326000D1EF117A023D623248642689502A9218C1
:103270002432934428351924067B023D811ED11F38
:10328000802610A28321D1EF117A023D6223594C8E
:10329000129144247290880C429144A4289258E8D8
:1032A00009F4047A447F0000001053430DE85E7473
:1032B0000DEC6CE810A4FFFF201308262445E10064
:1032C0004E00082FA085E1074E0314EEE1832DDDAB
:1032D0009B416A201A28D29DF56E30084E071DCFFB
:1032E000A183E157F1F2C120980AA672B15CAC2E1D
:1032F000964B0543B1442898024E09118F218463EF
:10330000F020CFCDE040CF93C1074E0A10EFE1830C
:103310002DDEF3C12018EFC3C1074E0B15EFA183BB
:10332000E167F14EB2996828990AA682F10E014E22
:103330000D1FEEA18363F020980EA7C38A6422922A
:103340008B6452995026944AA452B27433004E0EA4
:103350001A0EA283275D3D38D084D3E9C181BAC556
:10336000E020922E4D8433004E1628EFE1832D93FA
:103370008B6472914C2E92C94532A1C137914C2E6B
:1033800092C94532B948261719E8E2E583030500DA
:103390004E1A27EFE1832B13CD4433D14C2CD34964
:1033A000A64926924A6422A94426114B649499683E
:1033B000269A896652830F4E1C1F0DA6832B5C37FD
:1033C0007810CA4682995C283738D025235599460B
:1033D00015A9A24436074E2429EFA183E157996825
:1033E000269A890D1E44324D324D324D2A9AB42808
:1033F000494412998A482816C94692894834024E8F
:103400002A160FA2832F9E4E6433C954AE2A54A2AB
:103410004AE9E2FD0E4E2D190BAA832BDA6AF02839
:10342000240A8942A29028347810AA8AB6024E3A19
:10343000240DA283AF28980966C2B1C1B3542C15DC
:103440004B645299482A1309E532C14832914B54D2
:1034500046004E3B16EFE1832D0FC803070F82F1A4
:1034600096830365BCBBC1074E481AEDE5832D9CCE
:103470000D6733B9502C144BB52D8A1505238327BE
:10348000C9004E4B13EEE5832B9ECEC3068FFBADDA
:1034900036920C0D0E4E5D200FA2832BDE747090C1
:1034A0000C2543C95030154C0553B958A62C13C9E7
:1034B0006512C9811C4E5F27EFE1832F1ECD443377
:1034C000115966114B6C52934C469129CB9465125D
:1034D0006599482E13CB4433D1D0E0404E661F0E81
:1034E000A2832D930C055399C1652699496692993B
:1034F000CCE081AC7F93C8858239004E8610ECA564
:1035000083E1D396D26CBF4C4463004E8B220FA252
:10351000832F9E1B7C971C1C881A0D0E94C9C18199
:103520003214197C170A0D0E94E1443A084E8C0DA2
:103530004F61846570A0E74F061F4E8E13EFA18385
:103540006570A08CB71B7C17EFE3443A084E9119C5
:10355000EFA1836570A0E764F0593A9E0E0563857C
:10356000A1C1A3643C024E921BCFE18363F02016FD
:10357000AF1E0C74B15CAC2E563718C8D3F1D4E032
:10358000034E941DCFE18363F020176F3A3808A6ED
:1035900082A9602A98CAC572B15C2C33F8004E9B90
:1035A00028EFE1832B13CDE42299268B48289259EA
:1035B0004532A1484D289218244203D94091A718BA
:1035C000DC130D1E24004EA4200FA2832D0F88E7CC
:1035D00006DF6372B160281769158965B289744581
:1035E00054939369A4034EA71A0FA2832D0F080EBC
:1035F0001EE45195A1642637781089771D4FC701C5
:103600004EAC200FA2832D0FC80DBEA7199CE562FA
:10361000B9582E3638AD29CB845A453289542E08F4
:103620004EB2220FA2832D0F480E0EF4B0543293E7
:103630001A7C170F0E1E04B391BA4C55A8A62295FA
:103640000B024EBA1A0FA2832FDEEB443891CD4401
:1036500033C9543095AB4A66B28974004EC0260F08
:10366000A28329154C0553B9582E1693C51483838C
:1036700044592812CBC572B15C2C17CBC572B15C12
:103680002C044ECE2B0FA28329154C0553C1543068
:10369000154C0553C15430948825328958A42216FC
:1036A000496442A94CA82A128A2542C1004ED62F4D
:1036B0000FA283A932944C4482910A5524A208494E
:1036C0001292904411C92406917E156915A950459E
:1036D0008A32915C2692CB6406034D164EE3290F85
:1036E000A2832913C965CA3255A1642831902806DE
:1036F0003A512E912A490553C1582E96A98B6482BE
:10370000894C52130D4EE5260DAA833396CA1465D3
:103710004299A24C612698C98572A15C28924925DC
:1037200042898C281309A5EA32C1004EEA2B0FA268
:103730008329130D45628948552455920A69AA3494
:1037400045894C935022174AE452C1543094C865BD
:10375000CA22A98A9C004EEC310EA2832912CD24E4
:103760003389412612CB446211492C2289254A62B1
:1037700092B24C249689C43291582612CB44629955
:1037800048289189A412004EF62B0FA28329154CCC
:1037900005237599482E33186424999824934A1464
:1037A00095C47289C14126968BE562B9582E968BD5
:1037B00085004EF72A0FA283A93294CC2472A1442B
:1037C0002E532549851439454D934C59A62C5396B3
:1037D00029CB944542B14828964865004EFD330FE9
:1037E000A2832996CB447299482C94496542214D75
:1037F0002A238945121583852494498532A95026A8
:1038000015CAA432A15426948A6412A9442A034FEB
:103810000121EFE1832F9E4E6433C9544C9391A84C
:1038200052BA68269A19AC32D14C3413CDE4061F33
:103830004F18310FA2832913C965CA3255A164629A
:103840007010112562A2442A114A8422A1442E94A8
:10385000C86522B94C24D324539269121A641249C0
:10386000004F1A210FA2832F9E4E6433C9544C2758
:10387000910C06113DC5E0412E5D95AB1A1CA88246
:1038800011004F20290FA283A932940C05238341F4
:10389000AA4E14540C0E1245B148261A190C52C1E6
:1038A00054A62C94C8A582B15C2C044F462C0FA2C0
:1038B00083295E31188822B150249691C43292C176
:1038C000409288C41291B25024168A0C06A2482C49
:1038D00014AF181C64B2004F4D250FA28329130D9D
:1038E0002543C1786270A31666129154A4554D59B0
:1038F000A62C539689E462B9C19B2C004F532A0F22
:10390000A283A932940C0553C1C4E0469513AD12AD
:10391000A151249328CB24CA22AD1289812224AA42
:10392000490553C1540A4F5C2A0FA28329928D6422
:1039300023D1CC60A089248292445011C92542032E
:10394000495132940C254383516528194A866200F7
:103950004F602F0FA2832913CD4433C9CC60A02917
:103960008B486219452895888522994822958914A3
:103970004532915024D3229429CB8512B9540A4F51
:103980007F2B0FA28327154C05074F62B9584C3285
:103990003891642A4A324D0637B15C26920B257263
:1039A000A9602891CB645409D9004FBF2D0FA28381
:1039B000279E181C6452B9C8E026922991644A24B3
:1039C000838B924C934C93C14D492E94C8A582A1F0
:1039D000442E93512564034FDD2C0FA283299E189A
:1039E0000C62895449AA2415920C0621552C912A5F
:1039F000490C8E42BB4CA22CD22A912912D5A4820A
:103A0000A914004FE1290FA283A932154C0C6EE2D4
:103A100069CD60901127B291CC60108AD70C06A1B5
:103A20004C2A94498532834128934A00505A3A0FD0
:103A3000A28327128A4542B148289518286299CC5A
:103A400040A18964229A9244C54011C92432894810
:103A500026914914253289A24426924A0C1445899C
:103A6000542214CB541550A8360FA28327968BE509
:103A7000340345A4289289841219D160A0D08512FC
:103A8000834C2E12196C22899A1249A62433D044F1
:103A9000123525924C4966A08965120050CF350F2A
:103AA000A28329928D0C7489502C313852642219CA
:103AB000494D4632184812A1582493C884128A5698
:103AC00099882C2151A44289AA4CA428A1A8A94ACA
:103AD00001513F240FA283A932940C2543C95032CF
:103AE000940C2543C95032940C0553A14C2A1489D7
:103AF0008512C1C11C514320EFA1836570A06732BC
:103B0000F82A13CD4433D14C32940CD5A4429158A9
:103B100028111CCC015145260FA2832D0FC80DBEC4
:103B20008AA753B9AAC1812E13C965A2996826191B
:103B3000CAA44299502A13D10D120051462B0EA649
:103B4000832993CCA4324D6A22A14426914A6492DF
:103B5000199D26914A64229948A6225318AA0995CC
:103B6000A44289DC600D5148230FA2832F9A8966F5
:103B7000A2838350612A9E1B7C958966A299642842
:103B800019AA498522B9C1200D5149240FA2832FBA
:103B900019AACA8462914C2E529B1B7C958966A2FD
:103BA00099682619EA4D2A14C90D066900514B235C
:103BB0000FA2832F9E1B7C174F0E0E44C9503294C8
:103BC0000C0D0E74996826190AA64291586838108F
:103BD00051651E0FA2832B0FC803E2D58970229C6A
:103BE000C866A299642A98CA550543D148585168B5
:103BF0001FEFE1832F9E4E6433C954AE2A3118243F
:103C000022AA942E1E1D9CC60B070F1200516B207A
:103C1000EEA583319949669299642699498672A9DD
:103C20005C2A174BE552C14C32134D8403516C2171
:103C3000EFE183311BC946A2A16428182B0C55451E
:103C40005231553C934CE562B1C1412C97015173FF
:103C50001E0FA2832757964BE561830365BC6EF068
:103C60005D3A114E6433C9544C27D10A5176240F62
:103C7000A28329154CA5060F5285A9E060104C05BA
:103C800053C1C120980AA64283EF41A95C55320274
:103C90005185220DA6832D5C3678A04AA952AA949C
:103CA00028111245329A5044124B287209AD6542D0
:103CB0009A00518C2AEFA183671019A422AD22AD7E
:103CC00022AD22AD224D06DF445A455A455A455A87
:103CD000455A4512995044D12695C900518D1FEF80
:103CE000A183E177F1E4E040D4478303519F0C3E88
:103CF000498692A164289708053300519B1EEFA1C5
:103D00008363F0401156C572D1C1812E1D89669220
:103D10008303653C37F82E5E0751E024EFA18369E9
:103D20003008A682A9602A980AA682A9602A98CAA1
:103D3000C572B14C249789E43289E4400E51FA21CE
:103D40000DA6832D9C0B95844A4225A192C1812EFC
:103D5000940BC75229554A9552A5060FC40151FB31
:103D6000180FA2832F5E393850C6EB06DFC593A12A
:103D7000FE47830379045206240FA283339A89866F
:103D800082A95C5532934D4406034D2A940C254379
:103D9000C15430958B15256265005207290EA28308
:103DA000275D3318645299AA4C6610C90C5499AA1D
:103DB0004C55A6A4A62253A309654275A9582611FD
:103DC0004B45005220400FA2833D31480C428948A8
:103DD00022124A4412918A9244A4A22411A9284989
:103DE000442A062F9A2422152589484549225251F2
:103DF000928854942422A1444211098912258950A1
:103E000026940052292F0EA2832F951A8412035D47
:103E10002A14498522A950647090888444914C42A8
:103E200013C9244A7A116914496472A25CAA221542
:103E30004B00522B2F0EA2833B3118A412A98A5497
:103E4000A42215A9180C2235B1482616199CD49421
:103E5000D494D494344A4542A94424114A8862092E
:103E60000052302F0EA2837B70102ACCC42235253D
:103E70008954243238484442994424948A84529183
:103E8000C46010294A4542C1D0403498254A1300E5
:103E90005236300EA2832B17A98BD44506834424B7
:103EA00091094552A1C8E0492A1449852291C120AF
:103EB00011E922D245A444118A54A45AA4620900EB
:103EC0005237380FA2833D32188822B15024168A07
:103ED0000C068A484D2852138AD4842291C140117D
:103EE0004994544412251591444945441251843251
:103EF00091442A964AC42A00524D2E0FA283275776
:103F0000964B8506DF4306AA5026529489140D2449
:103F10004599485126523490146552A14C2A94A8D0
:103F2000498422A90C00526A280FA28329151A7C01
:103F30000F19A8429948D140529489140D244599EB
:103F4000542822D26306EF6275A98A902E04529BF0
:103F50001A0CA6832BDB6CF0AA3F8A8562995C263B
:103F600017096512B144610452A0270EA28327DD10
:103F70006AF0245352535253525352535253525392
:103F80005213C94432914C64A08824221951105212
:103F9000A1220FA2832B9E1E0C64AA5824A235D105
:103FA000493246A9CDE032144C0553B95851225636
:103FB0000552A82F0EA283339D1A68D2D9C1209929
:103FC000190C2499482C13896522A950229209259D
:103FD0003291D0609048253289542C9388A52200D4
:103FE00052B3250FA28329154C85061FA5F2A8C13F
:103FF000034528A78A650607C95032144C0553B9F2
:104000005851225605530524EEE183291D1E5CE517
:1040100042C14C62306914498522A950243598A4C4
:104020002A52B1CA4C3234380853162C0FA28329B5
:1040300013CD4433A136A95024254AC444B24428A0
:1040400016C92823896422920CA532A1542694CA49
:10405000A4069B2C0053172B0FA2832B13CD4433A4
:10406000D14C592692196812C18C3213CD4433D1E8
:104070004C3413CA6C4283482694C88406AA240090
:1040800053410E0FA2832FDEBBC177F1FE0E5343C7
:10409000120FA283373B100DE6DD0DBE8BF73B0000
:1040A000534E200FA2832913CD54852229D12A9162
:1040B0009145128A50AF06A24C3C37F82EDE1D0007
:1040C00053551D0FA283275795CCE40607A23E1A2D
:1040D0001C88FA6870A08CE706DFC5EB00535728F0
:1040E0000FA2832F9E1B7C170F0E1E44AA22354D54
:1040F000228341A4AA245592185C445225A99254C3
:104100002611894600535A2D0FA283259648C522B1
:10411000A1C4E04012CB450617834D93C14D24D373
:10412000647013C9B40C250607924C2AD493442812
:10413000980153611A0FA2832D1E1F0C82F1C2C178
:1041400067F1926C261A4AA682F14200537023ED61
:10415000A5834937C80C06B1902C240B0D06899015
:104160002C240BC942B29064D162144986AB00532F
:1041700074280EA283295D34500C06894CA826545D
:1041800013AA191C68AA325599484D452892480C23
:104190002E225589741100539F2BEFA18365F020C7
:1041A000920A869291C120154995A44A0683542407
:1041B00055922A190C52859146914C8B482294882D
:1041C000E50053BB180FA2832F5E393850C6DB0DB4
:1041D0003E8BA7AB72558303790453C81FEFA183AD
:1041E000657010CBC572B1C2543095CC4433D944FC
:1041F000BA229B49A6623A895653CC2CCFA183E1BF
:104200006230884542914C2414C944429944A628FE
:1042100091A9AA88A512A9442A9648D55484329116
:104220004C2496CA1553CD260FA283373B100D960A
:10423000F1F8E04014898522A99A502A53164AE4DD
:1042400052B9542216CA84322A915253D1230EA64F
:10425000832D99A9CA8432958367E1F460A04AA4AA
:104260004A423555A1442A968A25921AD14E53D6F0
:104270002CEFA183E1612631D89464320349A64929
:10428000A64926339064BA08652A429141A264A0E7
:10429000087599490423995C221553D7260FA283E8
:1042A000393BD00C0699542614CB444283078AB07C
:1042B000383338C8A592996C221D5608559AE500E6
:1042C00053E30DABE983E14BFFE5E0413253E41CDE
:1042D0000FA2832FDE6EF05DBC7470968BE562B921
:1042E000582E968B0DCE72190053EA1FEDA58365EB
:1042F00070940BE542B9502E940BE54283A35C1EEB
:10430000938A150523516D0053EF1FEEA583E1033A
:10431000693A35D0A4325599AA4C55A62A5335D0BE
:10432000A432D5B589700853F01F0DA6832B9CAD20
:10433000AACB2413830789681EF02817CA8572A1A7
:104340005C6870948B0053F71BEFA1836770968BAA
:10435000E562B9D8E01E33F8281D1F9CB74DA45361
:104360000053F825ECA5836370A0CD0E0E14D992EE
:10437000C12612CA444299482813096522834D2454
:10438000944926A209005404250FA2832B9E1E0CDB
:1043900082A95C2293CB2472A9B042A8D22C378385
:1043A000B35C2C17CBC50667B90C005408220FA2CA
:1043B000832F9E4E6433C9544C27910C06113DCD7A
:1043C000E02C17CBC572B15C6C7096CB00540C22FC
:1043D000ECA983E183A8C560A0909A0C2692504472
:1043E000128A484211C960220945A4C2843201548C
:1043F0000D230DA2832D9C1D0C52B1502294D1444B
:1044000092896C54397890C88572A15C28171A1C5F
:10441000E502540E230FA283373B500DA4F1F8E0C0
:104420004DBCC560A04AC44291582812CB94454265
:1044300083812E160154111F0DA6832B5B3978A0A2
:10444000B5196834359A1A4D8DA64633D0686AB4CA
:10445000CA843401542729CEE5836B30880C12912D
:104460002E225D44BA887411E962308854A4221562
:10447000C141221849E452B9542E361808544A2032
:104480000FA2832F9A8966A2838350612A9E1B7C88
:104490004F3338CBC572B15C6C7096CB0054582347
:1044A000EDA5836570940BE542837BC4E040928C5C
:1044B000844A4225A192504926214985EC12D20016
:1044C000548C2A0EA2832B3C1CA4430351CDE02222
:1044D00013AAC98832994D49A224134994641291B0
:1044E0005046131A886A42E9240054C121EDA5837D
:1044F0006570940BE542B9502E34B8470F34834DA4
:104500008DA64653A3A9196C069B0654CD330DA660
:1045100083311C1A645291C4E024119324629244A2
:10452000629090244A12924449429228490C1425E0
:104530000949223148A462A9582A94485500552EA9
:104540002A0EA2832912CD24070799506E702049A4
:10455000845291C141A87070A0870C0E42C15030A6
:10456000140C0D0E42C1040055462A0DA6832B1DC6
:104570001B3CC8A47299D4E040928CD4442A52893E
:104580008862A090D444DA444A0692CA482E11099F
:10459000460056682CEFA183652019684A324D32D7
:1045A000998164208C643399C16789A846A6936871
:1045B0002503C94053926992C90C2403050056DBB8
:1045C0001DADE583E1034D8DA64653A3A9D1D44883
:1045D0004219496AA0484EB5836F0356DE21CCE9E3
:1045E00083E183A8C96022094524A1882414918409
:1045F00022925044329848A58307D20056E023ED1A
:10460000A583E103AD2AA54AA9528AC1852A254A74
:104610008444918C261491C4128A5C423BF836562D
:10462000FD21EDA583E103ADC5E0429552A52483AC
:10463000414495522532AA484431B8D06A07DF0672
:1046400056FE24EDA583E103514C14D30C263619F4
:1046500045241152A5340ACD403510A964218D4C52
:10466000251A7C1B5728220FA2832D9E4E0E3E8AB0
:104670008782A99C2A96480C2E22A9602A980AA60D
:1046800082A9E0E04D16573033EFE18327968BE5A2
:1046900062B94C249789241483454411CA2424A167
:1046A000C82212CA448A321145281349A41691CC53
:1046B0002014C92452B1E06010573A2C0EA2832571
:1046C0009D198C72A958556A20096606034928D29B
:1046D00028D228D2A624B2886406914C452413CA55
:1046E0004512B95004573E310FA283279E180C542F
:1046F00099502A5396A9192C22B94C6410CAA44285
:1047000099542892C8A406894C6413498432A16440
:104710002691CB14AA0457402CEFE18327968BE512
:1047200062B94C24978984068B482E1319843291E0
:104730005C2692CB447299486E11098D22A992E4AD
:10474000E020575B22EFE183275E331884E2D9C172
:104750003832B889E562B95430159C6422A35424D8
:1047600034B88B05578327EFE18327944C0553C159
:10477000786430500CC6C1542694CA8452A1482C87
:1047800014894D6A5689543039380857DF330FA2DF
:10479000832598C8042385A9C8E02012CC0C64A9FD
:1047A000CC2011A9892422359144A42692A8C90CB1
:1047B0001235BBC86AD166A3886522CA50005899D1
:1047C000310FA28325968BE522839B582E1329193E
:1047D00048125591C141249E190C4299542893586E
:1047E00084169D6C128B4C28151C0C82A90800584D
:1047F000F01B0FA2832F9E1B7C171C3CC86306076F
:10480000A23E1A1C88E2D5F1741C58F3220FA28331
:104810002F1E1C3C08C6A3837BD0E081222C4E0DAA
:1048200006C15430958B6522B9CC721059042D0FF6
:10483000A28327154C0553C141241889C8329144DD
:104840002A13A949446A129144A62891498692A143
:10485000602293CB086383811C5907230FA2832B0B
:104860009E1E0C64AA9424935D6E2E3783B34C591C
:10487000A66C709629CB940DCE721900590D220F9B
:10488000A283271E1F1C68D289C14D24171B9CE5DB
:104890006283C3F4602053A52499EC7273395916CE
:1048A000270EA28327954BE552B9546C20896522C7
:1048B000A292442614A928C9B4C814158672A9580E
:1048C000552E140C01591A210CA6832B1B1D0C42CA
:1048D000A9CC2817492A6292D066B0AA51452499DA
:1048E0006022A99B2D0159271A0FA2832FDEDDE03C
:1048F000BB783A114E6433D14C3295AB4A46B40280
:1049000059291CEFA1836570A08CB71B7C974E843E
:1049100013D94C34934CE5AA9211AD005934200FB1
:10492000A283311ECD6423C1486528198AC706DFDA
:10493000C513D94C32952B5226B4090059391E0F94
:10494000A2832F5E3878108C66EA22B5B9C177E968
:10495000443891CD2453319D442B59731D0FA283AC
:104960002DDE3A39F82A144C0553B954501455A485
:10497000B5129D2CA48C00597937EFE18327968BD3
:10498000E562B94C24345844129A4822A2C8441211
:10499000094926324844329144A4278A4C22529134
:1049A000CA44329144A4269149C44491C120597DFE
:1049B000290FA283271E1A8C92A16064B02A09C510
:1049C00022A158243118488A5291542C91CAC52AE0
:1049D0005235A12689740A59822A0EA28327DD6ADC
:1049E000F02413C94432914C2413C9443289502411
:1049F00013A9699129AAA9C8946422034528925150
:104A0000035B5013EFA18363F0BAB13A37F82EDE9F
:104A1000E3443A085B571A0FA2832D0F080E1E2895
:104A2000C2E2D060A06E37F82EDE38910E025B58DD
:104A3000260FA2832B9E1C7C144F470683542E25E1
:104A40004B25522589C14126154C0553C15430933D
:104A5000088662005B661F0FA2832593AA09A53210
:104A6000D5A9C10345581C1A0CD461D9E0BB787193
:104A7000221D045B831FEFE1832D0F080E1E28C249
:104A8000E2543C174BE922CB713C980AA682B1C193
:104A900005005B89210FA2832D0F480EDE4423A160
:104AA00054301E1C7C150AA672A2A8242C8E085510
:104AB000A161045B8C250FA2832D0F080E1E28C256
:104AC000E2D0E09E68F020968966A2996428930A55
:104AD0006542A94C443748005B9A230FA2832D0FEF
:104AE000080E1E28C2E23C6670A08C4733D1CC6011
:104AF00095896692894830333890035B9D1EEFE1BB
:104B0000832D0F080E1E28C2E23C64F02018AF1C53
:104B10001C28E3916C2633F8005B9E240FA2832DA2
:104B20000F080E1E28C29AA258241B4986A2996813
:104B30002636F82E91CD2453315D469A005BA22390
:104B40000FA2832D0F080E1E28C29A606A3090B5FE
:104B5000D064979BCBCDE02C17CBC50667B90C0072
:104B60005BA41FEFE1832D0F080E1E28C2E2CCE0EC
:104B700040974EE506A799687270A08CE7061F5B08
:104B8000B6280FA2832D0F080E1E28C2E2C8E041EE
:104B90002EAC0865369264A25022DB28928A884A9D
:104BA000131A6812E91C005BBD280FA2832D0F08A1
:104BB0000E1E28C2A24CCDE04097C9030767B95822
:104BC000A62C5316494482915446931AC406035B9B
:104BD000F9250EA683355D3318051383412A5492B7
:104BE000AA88948512B15022954895846A429964A6
:104BF00036110E015C06310FA2832913CD0C64918E
:104C000050269208A51299442C114A6622B984268E
:104C1000264B25128303492C17C9E432915C2C17CB
:104C20004AE45221005C0F1E0FA2832FDE69A62CDE
:104C3000134A655299502A138A255231595D3C9C7A
:104C40004807015C111C0DA6832D5C19298B644259
:104C50009950A62A11CA2454996024DBA9700A5CD1
:104C600031320FA28325164C25328341A436928D12
:104C70000D148381225311CA54843215A181261147
:104C80000B454289929A4845A4A649A22634C904F4
:104C9000015C4025EEA1836570A049669299C181AF
:104CA000269D1E3C8946228349A348A34822339867
:104CB00024B2CA4438025C4F27EEA1836570A04934
:104CC000669299C18126920A65AA12839B5699AA77
:104CD000C1934C514D2813CA84EA5219005C5E2AD4
:104CE000EEA18365F0241A193C49270637A95C62B6
:104CF0007093C8B418DCA47283174591448BC1200B
:104D000021C92532C104005C711BEBE9832BDA2A2F
:104D10001412854421514814128544215148141A13
:104D20003C0D5DE50E8F218463F02018EFDF0D3E12
:104D30005DF113CCE983E141B627838348B6A969C5
:104D40006270205DF217CCE983E141B64930128CE4
:104D50000C0E22D9A6A689C181005E02210DA68370
:104D60002B9D070D1EC4C275830349A82454122A23
:104D700009958422894828130CC7005E082D0EA6C9
:104D800083279D181C4452A1482A1449852291C1A9
:104D90002011E922D245A48B4817918E221145A6F5
:104DA00024118AA572A160085E162A0EA68325D654
:104DB000A381A8A268B028AA28AA28AAA8180C1219
:104DC0005D25BA4A2416A94C55A62A93190C3255CA
:104DD00009005E26270FA283295218A91A3C4845CC
:104DE0000A23F5A8C103452A264B85066799B24CCC
:104DF000592651968964E339005E38260FA2832F25
:104E00009AA98B540D1E28C29AC120922A4C0507DC
:104E1000836C74709629CB94651265994836075E49
:104E200055270FA2832B131B3C88658283B35C6CD0
:104E300070968B0D0E93836F5A0D0E248A4C85A6A7
:104E4000A22C13C9E6005E7211EFA1836570A08CDD
:104E50007737F82EDEEF005E7318EFA18363F02042
:104E6000188F66EA22995CA43637F82EDE77005E4A
:104E7000741D0FA283271E1F1C6852C1542E961C3E
:104E80001CA442C95032141B7C18EF0C5E76220F12
:104E9000A2832757964BE5518307A9C25430154C7E
:104EA00085061FA582A95C2C17AB4B0543005E7BD2
:104EB000280EA283291DCE0C06996424134B84620C
:104EC00083412E950B0533C9485D22141B0C648960
:104ED000502C9A0847005E7F110EA2832F9ECE0DA4
:104EE0009EA4FBE374380D5E8F260FA2832F0F085C
:104EF0000E1E44E299C120144C55C4EA12830349A2
:104F00002C148965CAEA62B9542C918E015E9427EB
:104F1000EFE1832F0F080E1E44E245A94C2213CA6D
:104F2000448A32914C249489146542A94CA8309546
:104F30004B45060F5E972A0FA2832F0F080E1E44C3
:104F400052C15430154C0D36A9602A18190C4491E1
:104F5000582812CB9465CA22A1C140178B005EA6C7
:104F6000260FA2832F0F080E1E44326599B2C19BF3
:104F70006699B2CC40164F0C06AA482A54934AAD03
:104F8000421AD56E5F0022EFA18363F02055980A84
:104F9000A682A9602A34F828154C0553C1542E96D0
:104FA0008BD5A58221005F0F250FA2833392CD44BC
:104FB00033D1D4E0CB786E20498692A1642A98CA76
:104FC0008406994862904B44A2F2005F15240CA617
:104FD00083773010C542B1502C94188C12C94452BA
:104FE0003A188862A15828168A8532895428165F93
:104FF000531B0CA683ADA82413CA4432A148616A8E
:10500000F0B6C5E0405B3B78900D5F5521EFA18382
:105010006570102F1B9CD70CBE4B86AA3292602263
:10502000218C946932124D22250B025F622BEFA175
:105030008363301095C4429154492816C934C90D70
:105040000E34A148AA24148B649AE4229958A62A03
:1050500013AA494544005F88330FA283299E180C88
:105060005291542893CA441283412C912A49852491
:1050700083412611A94944BA8A6464914C2E128A4C
:105080004512995444A58904015F97300FA28329E2
:105090009E180C529154283318642289542C3118CC
:1050A000A4D292C14092C8652289C14126178B843F
:1050B0006299B25C2C958815015FAE380FA283A768
:1050C000289568128A244A32156D22898162908956
:1050D0004532C1444431587498C84406914426D29C
:1050E0002213A9288A4424A1488B4C2296C8C8328E
:1050F000015FB7340FA28327154CE5128303452EB9
:1051000015490C8E1291442413A9884424838BF2F0
:10511000C4E04012CB95642289482652114A4412B9
:105120009150D540025FC323CFE1832D0FC803E226
:10513000D9782C14C96522B94C2498C80413995401
:1051400044940AA692830D0060002B0FA283275E71
:105150003138C8C472AA8A9A5822154B84149948C7
:10516000261149456A42894C28930AA682A9602AD9
:10517000984A0160272D0FA28327968BE532915C18
:105180002692930C06914493542292492562A14899
:105190002C97190C42B15C2C17CBC57291C14D16DE
:1051A000603B24EFE183275795CCE48183B35C2CEB
:1051B00017CBC50667B96836138AD4442A22B1884A
:1051C0006830C80060C53110A28327168C05238380
:1051D000A358456630C82454B14462F02491CE0CE3
:1051E00006A94CAA66304865523583412A93AAA97C
:1051F000486542120060F32BEFE183299E19C83203
:10520000358345269619A83455938128D1A6245371
:10521000961928B39950A426521189454483410612
:10522000610F270FA2832F393890A59299D4E07B84
:10523000CCE02C171B9CE56283CB8A4C2A92C89445
:10524000487291D060A001611F320FA28335118E88
:1052500064060F22B95862A0886472914C62A0283B
:105260004A6422A2442652111928BACBEC52B960E2
:1052700024138A944544834124620F2D0EA6833360
:105280009DC84612834D24964966068A4862104B93
:105290008422A15424944A8412A1442812AAC94801
:1052A0007491442E242B62102A0FA28333118E6432
:1052B00073830791582E968B65320349A649A68BB6
:1052C00050A6229409452A6A24894C49A22C342BE1
:1052D00062112E0FA2832B939C2442835024168AA2
:1052E000C442A9C14795A14C2A11C9A434919491F3
:1052F000229509554442998A4822A1D24403621654
:10530000280FA2833392CD4453832FE3B98124D352
:1053100024D324D34568A049A423A989243108456E
:1053200012915448260B6234330FA28329951A0C2C
:105330002289582A92187C9A1A0C22A9482783415C
:10534000A49F0C069144285391190C32A94C283281
:10535000384834C944328A942A62402E0FA2832DE1
:1053600095DB3C4B0553C1812298490C06914C2298
:1053700013CA2432A18122134A6542A94C552893AD
:105380000A455275B10800624B180FA283373B10D3
:105390000DE695830365BC6EF05DBC71221D046251
:1053A0004D1D0FA28331DE6CF09D38114E6423D960
:1053B0004834930C0553B9583891CE016253260FE7
:1053C000A283275E32B8898506A35C2C17CB2542C1
:1053D00039554C1652C472B15C2C174B2542895872
:1053E0001500626B270EA283275D321868928341F5
:1053F0002E93CC243389C460901146948B642699F3
:105400004966228381A232920562842D0FA28327EE
:10541000968BE562B950A2643049444215992699A9
:105420008A929C2213C9C82209452C910AA672B1FE
:10543000AA444897D101628A310FA283279E190C92
:105440004299485126523158448A3291A24CA4289C
:1054500091180C42925446935364A2996826962957
:105460004B140D0691300062A42A0FA28327158CDD
:10547000E562B9CCE081229629CB94651289C140BE
:10548000238945343945269A8946B29164A236115A
:105490000562A5380FA283279E190C4299542893C0
:1054A0004A0C16994428134A65A289C460109224B4
:1054B00032194D2293506422895426924865CA328B
:1054C0009144269149648A540162D22E0FA2832707
:1054D0009E190C34A599DC6011CD0C06A14C2A94C0
:1054E000A80A4952194D2AA1C80C06A14C3413CD63
:1054F000041399C140120663092F0FA28327158C4C
:10550000E562B9C8E081229749648A5241C5E04406
:1055100094892842995426940A296275A94428112D
:10552000CA8432AA0400636E3910A2832733188814
:1055300032B1502696180C64A1CC60208A6872891A
:105540009A9C6470D34C5395C80C068A48452A141B
:1055500049A44289482A922849651299C1200163C9
:1055600089300FA28327968BE562034D2C34580CAB
:1055700006A14C2A94480C0621492AA3190C128A28
:105580004CA428968B0C6E62B9582A11AB0B0163A0
:10559000A52F0FA28327944C05238381283B588491
:1055A00052A1482C3138C8A482A29C62F0229449AE
:1055B0006542A9502496522532125144960063CF79
:1055C000340FA2832794498532A9C8E02694890C18
:1055D0002699543C33188412254592369A488522E0
:1055E0003318843291A24CA428136991190C32A16A
:1055F000540263D2300FA2832519CA0D3291812E35
:10560000961A887289C18124964B44123985247177
:1056100092699269B2486C229926998A92C1492668
:105620009700641C350FA2832794C8652209512670
:10563000529489540C168A84281329CA448A1289E0
:10564000C120A48A6906838422944955C4EA5289F8
:10565000502294096554026444390FA283271E190D
:105660000C4499502A33980C16A15466B0CA84365B
:1056700089C140A50B2906894142114A44429144FF
:1056800049281349A4228948285192284A84320281
:105690006458360EA28325958B950C4E4299C840CE
:1056A0009348450627352509C54011516432834882
:1056B00062A088546412918A4C2252315044EA14F8
:1056C0009154A226960064782E0FA283A759A62C87
:1056D0003138CAD40CC691C1201549550C062A454B
:1056E0002A24190C228A54303138AAC8658A1291AA
:1056F0005428921364AD360FA2832536084506BAA6
:105700004CA4A8A266A0180C34A14455265294D0EB
:1057100049248341641329CA448A328341281329C6
:10572000CA445A6406834C28150164CE300FA28304
:10573000A5283418486291CC6031586812A94C22CF
:105740003348844A1299446690486854A1DC60103A
:105750004E0E0E94C1C183605A076536300EA68383
:1057600027140CA522A15424138B6406034951A4C9
:10577000A22652535253921025328A50221349E5E1
:10578000428958A62A920A257201653F2F0FA283EB
:10579000351E1A0C24C1D44054930A6522459948F9
:1057A0006451D22A9189A41299482C1489852283A4
:1057B0004822324845A2A1602C6559360FA28329A0
:1057C000154CA5068BC24864204A443289C14091D9
:1057D00049853291C1A2241309253291542292198C
:1057E000644283582E95888522A1442654130B6564
:1057F00070320FA2832955D22C51134C0D1E243226
:10580000152599488B4C22531109C51291C120933B
:105810000865421D494289942A1152642A448954D8
:105820000065871F0FA2832D0F88E706DFE462B9AA
:10583000AA602A99C926D215D94C3215D349B40287
:1058400065AF360FA2832513CDC42283416210CAEF
:10585000447299486E20C9652283492652349014B7
:105860006522459948C960A088E43291502691A9E3
:10587000D24462A1080065B0320FA283270F084608
:105880000683C4209BCB4482894C6A30500C462549
:10589000B1502433182422B150249428A9895444A7
:1058A0006A1A25325599500465B91F0FA2832D0F2E
:1058B00088E7065FC5CB0783602A980AA672B15CA9
:1058C000AC2E5591CAA50065E01FEEA1836570104E
:1058D0004C371C3C4845A291682499496682A192A4
:1058E0005428911BAC0165E512E9AD83E141CEBBC3
:1058F000C181CE7783035D0065F62B0EA683371D2D
:1059000019C8229958249318DCC422995864208B12
:1059100064229948A6A4A6A4261619C82299583626
:1059200011CE00660E2BEDA5836F70200969222130
:105930004D24A4890C0E24214D24A489843491C1C2
:105940008124A4898462A958AA28118A2500662F77
:10595000250FA2836770968BE56283B35C2C171BBF
:10596000DC6306DF4533D1CC6095492622C14C2249
:10597000971A1C663E24CFE1836770968BE562839D
:10598000B35C2C171B1C6662994E3245894C2495DA
:10599000C8248299D4E003667A290EA283253D901B
:1059A0000C149150265433B8C854644A3291812261
:1059B0000F78954BE55283AB5C2A971A5CE5220081
:1059C00066F41EEFA183E177F1E4E040D44783035E
:1059D000511F0D0E54996C22AD95AC7603016700F2
:1059E0002E0FA2836770968B0DCE72B1C13D66F00B
:1059F00049263A500C44994426345044529948223E
:105A000095184442834845A8221354096708240C7A
:105A1000AA83677093CBE432B94C2E33B8C9657250
:105A2000995C667093CBE422C14830914B281300F7
:105A30006709260FA2832D1E1C7C154F0F06BA582E
:105A40004C964A0C06A2482C53961B0C74B15C2C45
:105A5000174AE4522100670D36EFA18365A0186C48
:105A60002A42998A50A62292C80C1499502611CC29
:105A700024069B8A92CC405192A968944934CA2446
:105A800022A18A369144429308455201671F3A0E7B
:105A9000A2832593CC44068AC12091896422994827
:105AA0002692890C240349269289642299C840923F
:105AB00089642203492692195C6452915024930808
:105AC00025529984AA02672C1F0FA2832FDE70F043
:105AD00020B74D94262A237599AA504D6430882406
