:020000040800F2
:1000000080060020890100080D0D0008690C000819
:10001000090D000845020008210D0008000000003D
:10002000000000000000000000000000150D0008A6
:100030004902000800000000110D0008190D000819
:10004000A3010008A3010008A3010008A301000800
:10005000A3010008A30100084D020008A301000845
:10006000A3010008A3010008A3010008A3010008E0
:10007000A3010008A3010008A3010008A3010008D0
:10008000A3010008A3010008A3010008A3010008C0
:10009000A3010008A3010008A3010008A3010008B0
:1000A000A3010008A3010008A3010008A3010008A0
:1000B000A3010008A3010008A3010008A301000890
:1000C000A3010008A3010008A3010008A301000880
:1000D000A3010008A3010008A3010008A301000870
:1000E000A3010008A3010008A301000800F002F822
:1000F00000F03AF80AA090E8000C82448344AAF188
:100100000107DA4501D100F02FF8AFF2090EBAE885
:100110000F0013F0010F18BFFB1A43F0010318473B
:100120008C0C0000AC0C0000103A24BF78C878C1D9
:10013000FAD8520724BF30C830C144BF04680C60ED
:10014000704700000023002400250026103A28BF35
:1001500078C1FBD8520728BF30C148BF0B60704739
:100160001FB51FBD10B510BD00F031F81146FFF7E7
:10017000F7FF00F0D7FD00F04FF803B4FFF7F2FFF0
:1001800003BC00F057F800000948804709480047C1
:10019000FEE7FEE7FEE7FEE7FEE7FEE7FEE7FEE737
:1001A000FEE7FEE704480549054A064B7047000094
:1001B0001D0D0008ED0000088000002080060020D2
:1001C000800200208002002070477047704775460B
:1001D00000F02CF8AE4605006946534620F00700B3
:1001E000854618B020B5FFF7DDFFBDE820404FF091
:1001F00000064FF000074FF000084FF0000BAC4630
:10020000ACE8C009ACE8C009ACE8C009ACE8C0097A
:1002100021F007018D46704710B50446AFF300800A
:100220002046BDE81040FFF7A8BF00000048704717
:100230001800002001491820ABBEFEE7260002008E
:1002400070470000FEE7000070470000012000F04A
:1002500057B8000010B540F208040128C2F20004AB
:100260003CD1207980B1012838D140F60000C4F299
:100270000100012100F05AF980BB0020207100F03C
:1002800069F920602AE000BF40F60000C4F20100D6
:10029000012100F04BF9012820D100F05BF9216821
:1002A000401A0B280CD300F055F92168401A40F28F
:1002B000DB51884204D840F20110A08012E000BF58
:1002C00000F048F92168401A40F2DD51884203D31A
:1002D00040F20120A08010BD01202071607901282A
:1002E00018BF10BD40F60000C4F2010000F5006028
:1002F0004FF4005100F020F90020607110BD0000A3
:1003000040F21441C4F201010A68024214BF0860BD
:100310007047FFF79FBF00002DE9F04F82B041F218
:100320000042C4F201020E680423904208BF032376
:10033000002E009300F0F68040F20C4E4FF6FF7C4A
:10034000C4F2010E00220124C1F2100C4FF0000A89
:100350004FF0000943E000BF012502F00C040F2715
:10036000A7402BEA070705FA04F43C4343F826406C
:10037000D1F804B040F20045C4F201055FEACB3386
:100380002B6854BF23EA080343EA08032B606B6819
:100390005FEA8B3454BF23EA080343EA08036B6027
:1003A0005FEACB24AB6854BF23EA080343EA08039F
:1003B0005FEA8B24AB60DEF800304FF0010454BFDD
:1003C00023EA080343EA0803CEF800300E680AF176
:1003D000010A36FA0AF302F1040200F0A38004FADB
:1003E0000AF816EA080FF1D04B68634512DC122BAD
:1003F00056D8DFE803F0350B454955555555555549
:10040000555555555555554D510000BFD1F80C90D7
:1004100046E000BF4FF6FF77C1F22107BB420FDC79
:100420000027C1F21107BB421AD00027C1F2120700
:10043000BB4215D00027C1F22107BB4210D02FE0EC
:100440000027C1F22207BB420AD00027C1F23107C0
:10045000BB4205D00027C1F23207BB4220D100BF0A
:100460008B684BB1012B14BFC0F81480C0F810800A
:100470004FF0080914E000BF4FF0040910E000BF7E
:10048000CB6803F108090BE04FF0000908E000BF5A
:10049000CB6803F1040903E0CB6803F10C0900BF4A
:1004A00013460546BAF1080F24BF203B04352E68D9
:1004B0000F279F40BE4309FA03F333432B60CB79E8
:1004C000DB067FF583AF41F21804C4F2020423680F
:1004D0004FEA9A0643F001032360236840F60004C4
:1004E00003F001030193019B40F20043C4F20103B6
:1004F000A3F57E7353F826B0C4F20104A0420FD0D6
:1005000040F60044C4F20104A0423FF425AF41F29A
:100510000004C4F20104009DA04208BF02251CE7AC
:1005200000251AE702B0BDE8F08F0000806808409F
:1005300018BF012070470000C26802EA010391431E
:1005400041EA034101617047002A08BF09040161C3
:100550007047000040F27800C2F200000068704767
:1005600040F2000040F27801C2F20000C2F2000145
:1005700000780A68104408607047000080B542F2B5
:100580000000C4F20200016841F010010160032084
:1005900000F08AF80F2000F005F800F027F800209E
:1005A00080BD000070B540F20006C2F2000640F2C5
:1005B00010013278C2F200014FF47A730968B3FB7C
:1005C000F2F20446B1FBF2F1084600F037FB0F2CC3
:1005D0004FF0010508D838B94FF0FF30214600220E
:1005E000002500F035F87460284670BD82B041F2F5
:1005F0001800C4F202000168022241F0010101600A
:10060000016801F0010101910199416841F08051B7
:100610004160406800F08050009000980420C4F2CF
:100620000100016862F31A61016002B070470000C6
:10063000002848BF704700F01F01012202FA01F1B3
:100640004EF200124009CEF2000242F8201070472C
:1006500010B54EF60C5CCEF2000CDCF80030C3F3A3
:10066000022E8EF00704042C28BF0424BEF10303DD
:100670004FF0FF3E0EFA04F438BF0023A143994027
:100680000EFA03F39A43114300F00F02043A624456
:1006900009010C3200F16043B0F1FF3FC8BF03F520
:1006A0006442117010BD00004EF60C51CEF20001F4
:1006B0000A684FF6FF031A4060F30A2242F0806096
:1006C00040F0FD70086070472DE9F04381B00028CC
:1006D00000F0858042F20008C4F202080446D8F80F
:1006E00000000D4600F0070088420CD2D8F8000048
:1006F00020F007002843C8F80000D8F8000000F0F8
:100700000700A8426BD1206841F204098107C4F2B6
:10071000020917D5410705D5D9F8001041F4E06169
:10072000C9F80010010705D5D9F8001041F460514F
:10073000C9F80010D9F80010A26821F0F0011143A7
:10074000C9F80010C00741D1D8F8000000F0070038
:10075000A8420CD9D8F8000020F007002843C8F8B8
:100760000000D8F8000000F00700A84237D1206848
:10077000410707D5D9F80010E26821F4E061114380
:10078000C9F80010000708D5D9F80000216920F445
:10079000605040EAC100C9F80000D9F8002002F01A
:1007A0000C00082841F20020C0F27A0050D140F637
:1007B0009C53C2F38341C0F60003595CD2033BD47F
:1007C00040F60010C0F23D00484341E06068022856
:1007D0000AD001282AD159F8041C890308D4012021
:1007E00001B0BDE8F08300BF59F8041C8901F6D5BB
:1007F000D9F8001021F003010843C9F80000FFF701
:10080000A9FE064641F28837D9F80000616800F079
:100810000C00B0EB810F97D0FFF79CFE801BB84215
:10082000F2D9032001B0BDE8F08300BF59F8041CE1
:100830008907D4D5DCE700BFD9F8002040F68A53F9
:10084000C2F34042C0F600039A5C4843B0FBF2F0AA
:10085000D9F8001040F68C52C1F30311C0F6000223
:10086000515C40F2100220FA01F140F20400C2F2A1
:1008700000000068C2F200021160FFF793FE002042
:1008800001B0BDE8F08300002DE9F04182B00028FE
:1008900068D00446007841F20006C007C4F20206A0
:1008A00025D0706800F00C0004281BD0706800F0A0
:1008B0000C00082802D17068C00313D460680028B7
:1008C00000F06881B0F5A02F00F07C81B0F5803F8A
:1008D00000F07C81306820F480303060306820F493
:1008E000802076E13068800301D56068D0B320783D
:1008F000800718D5706810F00C0F07D0706800F0F2
:100900000C0008286ED17068C0036BD43068800773
:1009100002D52069012825D13068616920F0F800EE
:1009200040EAC1003060207800071FD420784007DB
:1009300032D4E56995B1706800F00C00082840F0E9
:100940008F80012D0ED07068216A00F480328A42B7
:1009500008D1616A00F47010884203D1002002B00F
:10096000BDE8F081012002B0BDE8F081A069002857
:1009700062D00020C4F242200121C0F88014FFF7A9
:10098000E9FD0546706A800700F18C80FFF7E2FD03
:10099000401B0228F6D92AE1F06910F0805808D1EE
:1009A000F06940F08050F061F06900F080500090F4
:1009B000009847F20007C4F200073868C00529D440
:1009C000386840F480703860FFF7C4FD054600BF0A
:1009D0003868C0051ED4FFF7BDFD401B6428F7D959
:1009E00005E100BF2069002840F20000C4F2422067
:1009F00000F0828001210160FFF7ACFD054600BFD9
:100A0000306880073FF588AFFFF7A4FD401B022840
:100A1000F6D9ECE0E068002800F08080052800F0BE
:100A20009780012800F09880306A20F00100306241
:100A3000306A20F0040092E00020C4F2422000213D
:100A4000C0F88014FFF786FD054600BF706A800776
:100A50007FF56CAFFFF77EFD401B0228F6D9C6E09C
:100A60000027C4F2422700203866FFF773FD022DED
:100A700005460BD13068800140F1BE80FFF76AFD6A
:100A8000401B02284FF00300F4D968E7306880016A
:100A90007FF564AFFFF75EFD401B02284FF00300B7
:100AA000F4D95CE740F21000C2F20000006844F69E
:100AB000D351C1F26201A0FB0101480A019000BFBD
:100AC00000BF0198411E002801913FF42FAF00BFE5
:100AD0000198411E002801913FF428AF00BF019802
:100AE000411E002801913FF421AF00BF0198411E33
:100AF00000280191E4D119E700210160FFF72AFDE8
:100B0000054600BF306880077FF50DAFFFF722FD77
:100B1000401B02284FF00300F4D920E7306A20F090
:100B200001003062306A20F004003062FFF712FDED
:100B3000054641F2883700BF306A800720D5FFF7AD
:100B400009FD401BB8424FF00300F5D907E700BF8D
:100B5000306A40F004003062306A40F001003062D8
:100B6000FFF7F8FC054641F2883700BF306A80077E
:100B700006D4FFF7EFFC401BB842F7D937E000BFBF
:100B8000B8F1000F7FF4D5AEF06920F08050F0612D
:100B9000CFE600BF306820F480303060306820F449
:100BA00080203060FFF7D6FC054600BF3068800328
:100BB0007FF59DAEFFF7CEFC401B64284FF003008D
:100BC000F4D9CCE6306840F480203060306840F4DE
:100BD00080303060FFF7BEFC054600BF3068800300
:100BE0003FF585AEFFF7B6FC401B6428F6D903201D
:100BF00002B0BDE8F08100BF206AB0F5803F05D1AA
:100C00007168A26821F40031114371607168626AF1
:100C100021F4741110430843706001203866FFF717
:100C200099FC0446306880013FF598AEFFF792FCCE
:100C3000001B02284FF00300F4D990E6411E00206B
:100C4000B0EB116F1CBF012070474EF21002CEF2C4
:100C5000000251604EF62351CEF20001F0230B70DA
:100C60000721906011607047FEE7000070B584B006
:100C700041F21800C4F20200016841F2000441F0A0
:100C8000100101600168C4F2010401F0100100913B
:100C900000990168012241F02001016001684FF4D0
:100CA000005501F02001009100990168012641F0F2
:100CB0000401016000684FF4005100F0040000904E
:100CC00000982046FFF740FC0020CDE90056029036
:100CD00002206D46039020462946FFF71DFB0020A9
:100CE000C1F23100CDE90106A4F500602946009665
:100CF000FFF712FB062001210022FFF7A9FC0620C6
:100D0000FFF796FC04B070BDFEE70000FEE70000B0
:100D10007047000070470000FFF722BC70470000DA
:100D2000FEE7000090B0FFF729FC00240120CDE988
:100D30000B44CDE9094406900A904FF4E0104FF4BB
:100D4000803102250F9006A8CDE90714CDE90D5199
:100D5000FFF79AFD20B1EFF3108072B6FEE700BFF7
:100D60000F20CDE901054FF48060CDE9040401A80E
:100D700002210394FFF7A8FC20B1EFF3108072B6B4
:100D8000FEE700BFFFF772FFFEE701020000000070
:100D9000000000000102030406070809020304051D
:100DA000060708090A0B0C0D0E0F1010D00D0008D5
:100DB000000000201800000028010008E80D0008CD
:100DC0001800002068060000440100080000000030
:100DD0000100000010000000000000000100000001
:080DE0000024F40000000000F3
:04000005080000ED02
:00000001FF
