:020000040800F2
:100000003009002001010008A1110008290E000894
:100010009D11000891010008311300080000000044
:1000200000000000000000000000000001120008B5
:100030009501000800000000D111000835120008E9
:100040001B0100081B0100081B0100081B01000820
:100050001B0100081B0100081B0100081B01000810
:100060001B0100081B0100081B0100081B01000800
:100070001B0100081B0100081B0100081B010008F0
:100080001B0100081B0100081B0100081B010008E0
:100090001B0100081B0100081B0100081B010008D0
:1000A0001B0100081B0100081B0100081B010008C0
:1000B0001B0100081B0100081B0100081B010008B0
:1000C0001B0100081B0100081B0100081B010008A0
:1000D0001B0100081B0100081B0100081B01000890
:1000E0001B0100081B0100081B010008DFF80CD0F1
:1000F00000F03CF800480047891300083009002050
:100100000648804706480047FEE7FEE7FEE7FEE7B1
:10011000FEE7FEE7FEE7FEE7FEE7FEE79D120008CA
:10012000ED00000840EA01039B0703D009E008C97D
:10013000121F08C0042AFAD203E011F8013B00F8AC
:10014000013B521EF9D27047D2B201E000F8012BF8
:10015000491EFBD270470022F6E710B513460A4647
:1001600004461946FFF7F0FF204610BD064C074D28
:1001700006E0E06840F0010394E807009847103477
:10018000AC42F6D3FFF7B6FF102200083022000879
:10019000FEE7000070470000EFF3108072B600BF6A
:1001A000FEE70000B0B5044600F00EF9054640F247
:1001B0000400C2F200000078611C18BF044400BFB4
:1001C00000F002F9401BA042FAD3B0BD2DE9F04F78
:1001D00082B00E68002E00F0F38041F20042C4F2BB
:1001E0000102042340F2004E904208BF03234FF661
:1001F000FF7CC4F2010E009300240123C1F2100C15
:100200004FF0000A4FF0000940E0012504F00C0314
:100210000F279F402BEA070705FA03F33B4342F8F9
:1002200026304E68F203DEF8002054BF22EA0802AE
:1002300042EA0802CEF80020DEF80420B30354BFDF
:1002400022EA080242EA0802CEF80420F302DEF8AD
:10025000082054BF22EA080242EA0802B30240F230
:100260000C43CEF80820C4F201031A6854BF22EAF6
:10027000080242EA08021A6001230E680AF1010A24
:1002800036FA0AF204F1040400F09A8003FA0AFB39
:1002900016EA0B08F1D04A68624511DC122A51D8DF
:1002A000DFE802F0340A424650505050505050504F
:1002B0005050505050494D00D1F80C9042E000BFD2
:1002C0004FF6FF75C1F22105AA420FDC0025C1F2ED
:1002D0001105AA421AD00025C1F21205AA4215D072
:1002E0000025C1F22105AA4210D02BE00025C1F261
:1002F0002205AA420AD00025C1F23105AA4205D042
:100300000025C1F23205AA421CD100BF8A6842B161
:10031000012A14BFC0F814B0C0F810B04FF008099B
:1003200010E04FF004090DE0CA6802F1080909E085
:100330004FF0000906E0CA6802F1040902E0CA6849
:1003400002F10C0922460546B8F5807F24BF203A09
:1003500004352E680F279740BE4309FA02F2324354
:100360002A60CA79D2067FF588AF41F21803C4F239
:1003700002031A684FEA9A0642F001021A601A68EC
:1003800040F6000302F001020192019AAEF57E727E
:1003900052F826B0C4F2010398420FD040F6004351
:1003A000C4F2010398423FF430AF41F20003C4F2BB
:1003B0000103009D984208BF022527E7002525E795
:1003C00002B0BDE8F08F000040F22C50C2F20000F5
:1003D00000687047F0B581B0B0B3044690F83D00B6
:1003E00028B9002084F83C00204600F05BF9242066
:1003F00084F83D002068016821F001010160016876
:1004000041F400410160016821F40041016000F005
:10041000BDFA48F28041C0F21E0140F60012656844
:1004200088424FF00001C0F23D0248F2A16C4FF04B
:10043000000338BF01219042C0F2010C38BF0123F4
:10044000654538BF0B4613B1012001B0F0BD4DF634
:100450008361C4F21B31A0FB011221684FEA924E66
:100460004B684FF4967623F03F0343EA92434B6088
:1004700044F6D3530F6A0EFB06F6C1F26203A6FBE5
:10048000033627F03F03B709654538BF970C7A1C40
:100490001A430A62CA6948F2A0674CF6FF73C0F2B9
:1004A0000107BD4222EA030C0AD801386A00B0FBFA
:1004B000F2F001306FF31F30042898BF04202BE0C6
:1004C000A368A0F1010E9BB119206843BEFBF0F0B8
:1004D0000422013062F31F30000512D09BB11920B5
:1004E0006843BEFBF0F00422013062F31F3011E0DC
:1004F00005EB4500BEFBF0F001306FF31F30000547
:10050000ECD1012008E005EB4500BEFBF0F0013026
:100510006FF31F3040F4004040EA0C00C8610868E7
:10052000D4E9072320F0C00010431843086088680E
:1005300048F2FF3204F10C0790438CCF184310436C
:10054000A6698860C86820F0FF0038433043C8605F
:10055000086840F00100086000202021206484F831
:100560003D10206384F83E0001B0F0BD2DE9F04756
:1005700082B01E46174689460446FFF725FF94F8C9
:100580003D1020290ED102210546C0F2100120465F
:1005900001221923009500F0E9FC18B994F83C00F9
:1005A000012803D1022002B0BDE8F08701212068B4
:1005B00084F83C100168DDF82880C90703D1016880
:1005C00041F00101016001684FF0000A21F400616F
:1005D0000160212084F83D00102084F83E00C4F81A
:1005E00040A067626685608D494620850020CFF671
:1005F000FF70E062204642462B4600F02FFC18B107
:10060000012002B0BDE8F087CDF804A02068416960
:10061000019180690190019806E000BF20464146A3
:100620002A4600F073FC20BB208D58B3204641467B
:100630002A4600F01BFDE0B9606A2168024612F804
:10064000013B0B616262628D013A6285228D571E09
:1006500027854B693F0418BF13F00403DED04378AD
:1006600002300B616062608D01386085901E2085CC
:10067000D4E7206C0428C3D12068016841F40071DC
:100680000160BDE72068016841F40071016020202D
:1006900084F83D00002084F83E0084F83C0002B05D
:1006A000BDE8F08710B586B0016845F20040C4F29D
:1006B000000081424FF00001CDE90411CDE90211A3
:1006C00001D006B010BD41F21804C4F20204216842
:1006D00000F5384041F008012160216801F008016F
:1006E00001910199C02102911221039103210591E9
:1006F00002A9FFF76BFD606840F40010606060685D
:1007000000F400100190019806B010BD40F2040002
:1007100040F22C51C2F20000C2F2000100780A68D7
:10072000104408607047000080B542F20000C4F237
:100730000200016841F010010160032000F062F83E
:100740000F2000F005F800F02BF8002080BD00001D
:10075000B0B540F20402C2F2000240F20001127889
:10076000C2F200014FF47A730968B3FBF2F2044657
:10077000B1FBF2F1084600F0E3FA0F2C4FF001054F
:100780000CD858B94FF0FF3021460022002500F068
:1007900029F840F20800C2F2000004602846B0BD0B
:1007A00082B041F21800C4F202000168022241F056
:1007B00001010160016801F00101019101994168A5
:1007C00041F080514160406800F0805000900098F6
:1007D0000420C4F20100016862F31A61016002B0F2
:1007E0007047000070B514460D46064600F0A2FDA5
:1007F0002946224600F0D6FC0146304600F0A2FD14
:1008000070BD000080B500F0AFFD80BD2DE9F04364
:1008100081B0002800F0898042F20008C4F202088A
:100820000446D8F800000D4600F0070088420CD2BC
:10083000D8F8000020F007002843C8F80000D8F8D6
:10084000000000F00700A8426FD1206841F20409BF
:100850008107C4F2020917D5410705D5D9F8001060
:1008600041F4E061C9F80010010705D5D9F800107E
:1008700041F46051C9F80010D9F80010A26821F0C5
:10088000F0011143C9F80010C00745D1D8F80000A5
:1008900000F00700A8420CD9D8F8000020F00700AB
:1008A0002843C8F80000D8F8000000F00700A8426C
:1008B0003BD12068410707D5D9F80010E26821F440
:1008C000E0611143C9F80010000708D5D9F800000D
:1008D000216920F4605040EAC100C9F8000000F02E
:1008E00079F8D9F8001042F28412C1F30311C0F66E
:1008F0000002515C40F2000220FA01F140F20800CF
:10090000C2F200000068C2F200021160FFF720FF8F
:10091000002001B0BDE8F0836068022809D00128FA
:1009200029D159F8041C890307D4012001B0BDE87E
:10093000F08359F8041C8901F7D5D9F8001021F08B
:1009400003010843C9F80000FFF73EFD064641F2E7
:10095000883700BFD9F80000616800F00C00B0EBE8
:10096000810F93D0FFF730FD801BB842F2D90320EE
:1009700001B0BDE8F08359F8041C8907D5D5DCE740
:1009800040F20000C2F200000068704780B5FFF737
:10099000F7FF41F20401C4F20201096842F2941225
:1009A000C1F30221C0F60002515CC84080BD0000C6
:1009B00080B5FFF7E5FF41F20401C4F202010968C6
:1009C00042F29412C1F3C221C0F60002515CC84049
:1009D00080BD000041F2040CC4F2020CDCF80030CF
:1009E00003F00C00082841F20020C0F27A0018BF82
:1009F0007047C3F383420AA18A5CD90305D440F649
:100A00000010C0F23D0050437047DCF8001008A30E
:100A1000C1F34041595C5043B0FBF1F0704700BF57
:100A200002030405060708090A0B0C0D0E0F10102F
:100A3000010200002DE9F04182B0002800F0C480DE
:100A40000446007841F20006C007C4F2020643D013
:100A5000706800F00C00042817D0706800F00C00DB
:100A6000082802D17068C0030FD465682DB1B5F5B0
:100A7000A02F10D0B5F5803F11D0306820F4803021
:100A80003060306820F480200CE03068800323D58B
:100A9000606808BB98E0306840F4802030603068BF
:100AA00040F480303060FFF78FFC002D054610D0F9
:100AB0003068800310D4FFF787FC401B6428F7D907
:100AC00004E100BFFFF780FC401B64284FF00300E7
:100AD00077D830688003F5D42078800718D57068FF
:100AE00010F00C0F07D0706800F00C00082826D119
:100AF0007068C00323D43068800702D520690128BC
:100B000062D13068616920F0F80040EAC1003060CD
:100B1000207800073DD5A06938B30020C4F24220F8
:100B20000121C0F88014FFF74FFC0546706A80076A
:100B30002DD4FFF749FC401B0228F7D9C6E02069F5
:100B4000002840F20000C4F2422000F0968001210B
:100B50000160FFF739FC054630688007D1D4FFF704
:100B600033FC401B0228F7D9B0E00020C4F2422039
:100B70000021C0F88014FFF727FC0546706A800743
:100B800007D5FFF721FC401B0228F7D99EE000F0B3
:100B900021FB207840071BD4E5698DB1706800F017
:100BA0000C00082847D1012D0ED07068216A00F48E
:100BB00080328A4208D1616A00F47010884203D101
:100BC000002002B0BDE8F081012002B0BDE8F08154
:100BD000F06910F0805808D1F06940F08050F06161
:100BE000F06900F080500190019847F20007C4F2CC
:100BF00000073868C00510D4386840F48070386049
:100C0000FFF7E2FB054600BF3868C00505D4FFF7D3
:100C1000DBFB401B6428F7D958E0E5681DB1052DC2
:100C20003CD0012D3ED0306A20F001003062306AA5
:100C300020F0040039E00027C4F242270020386683
:100C4000FFF7C2FB022D05460CD100BF30688001C2
:100C500054D5FFF7B9FB401B02284FF00300F5D92C
:100C6000AFE700BF30688001AAD5FFF7ADFB401B9E
:100C700002284FF00300F5D9A3E700210160FFF738
:100C8000A3FB0546306880077FF542AFFFF79CFB6A
:100C9000401B02284FF00300F4D992E7306A40F07D
:100CA00004003062306A40F001003062FFF78CFBD4
:100CB000002D054641F2883714D000BF306A800706
:100CC00013D4FFF781FB401BB842F7D9032002B0D1
:100CD000BDE8F081FFF778FB401BB8424FF00300FE
:100CE0003FF66FAF306A8007F4D4B8F1000F7FF49D
:100CF00053AFF06920F08050F0614DE7206AB0F505
:100D0000803F05D17168A26821F400311143716000
:100D10007168626A21F47411104308437060012005
:100D20003866FFF751FB0446306880013FF548AF55
:100D3000FFF74AFB001B02284FF00300F4D940E7FD
:100D400080B500F05FFA80BD002804BF0120704725
:100D500010B5044690F83D0028B9002084F83C0006
:100D6000204600F021F8242084F83D002068C16866
:100D700021F40051C160204600F092FA2068016918
:100D800021F490410161416921F02A014161C1686A
:100D900041F40051C16000202021206484F83D10FE
:100DA00084F83E1010BD000070B586B040F60044D7
:100DB000C4F201040068A4F5444100268842059667
:100DC000CDE90366029601D006B070BD41F218006D
:100DD000C4F20200416802AD41F4802141604168E3
:100DE00001F4802101910199016841F0080101603D
:100DF0000068294600F00800019001984FF48060D7
:100E0000029002200390032005902046FFF7DEF9B0
:100E10004FF40060CDE90206204629460496FFF70C
:100E2000D5F906B070BD0000FEE700000268516908
:100E300049054FF000010FD56FF480635361202204
:100E4000016380F83D2080F83E10026C42F00402FD
:100E5000026480F83C100121084670472DE9F041FA
:100E600082B00446C06A1D46164610F5803F0F4604
:100E700018BF012823D12068016841F48071016006
:100E800020464FF0011100223346009500F06EF825
:100E900050B120680068C00544BF4FF40070206462
:100EA000032002B0BDE8F081206940F20208B0F5ED
:100EB000804FC0F2010808D107F0FE0018E00828B2
:100EC000D9D0206B1228D6D0DAE7062000EAD71056
:100ED0002168F030086108F10601204632462B46B1
:100EE00000F07EF818B1012002B0BDE8F081F8B240
:100EF000216832460861204641462B4600F070F8D2
:100F0000002818BF012002B0BDE8F081F0B581B023
:100F1000044600684069400724D415460E464F1C1D
:100F200004E000BF2068406940071BD42046FFF75B
:100F30007DFFA0B9002FF5D0FFF746FA16B1401B90
:100F4000B042EFD900202021206384F83D1084F8BE
:100F50003E00216C41F02001216484F83C00012016
:100F600001B0F0BD002001B0F0BD00002DE9F04758
:100F7000DDF820801D469146824601F47F078EB23F
:100F80005C1C00BFDAF80000B7F5803F14BF1830D2
:100F9000143000683040801BB0FA80F040094845AA
:100FA0001BD1002CEED0FFF70FFA1DB1A0EB08000B
:100FB000A842E7D900202021CAF830008AF83D1065
:100FC0008AF83E00DAF8401041F02001CAF84010DB
:100FD0008AF83C000120BDE8F0870020BDE8F087DA
:100FE0002DE9F04104460068984643698FB203EA50
:100FF0000701B94202D10020BDE8F08141694905ED
:1010000012D41646551C00BF35B1FFF7DDF916B3F3
:10101000A0EB0800B0421ED8206841693940B942AF
:10102000E9D041694905EFD5016841F400710160DB
:101030006FF48061416100202021206384F83D101D
:1010400084F83E00216C41F00401216484F83C00E6
:101050000120BDE8F08100202021206384F83D10AC
:1010600084F83E00216C41F02001EEE7F0B581B03C
:10107000044600684069000624D415460E464F1CFD
:1010800004E000BF2068406900061BD42046FFF73B
:10109000CDFEA0B9002FF5D0FFF796F916B1401B91
:1010A000B042EFD900202021206384F83D1084F85D
:1010B0003E00216C41F02001216484F83C000120B5
:1010C00001B0F0BD002001B0F0BD000081B041F2E0
:1010D0001800C4F20200016841F0100101600168CB
:1010E00001F0100100910099016841F020010160B8
:1010F000016801F0200100910099016841F00801A8
:101100000160016801F0080100910099016841F057
:1011100004010160006800F004000090009801B034
:101120007047000080B540F2100045F20041C2F265
:101130000000C4F2000148F2A06200234FF4804C8A
:10114000C0F2010280E80E00C0E9033CC0E90533AB
:10115000C0E90733FFF73EF9002818BFFFF71CF876
:1011600080BD000080B540F2640044F60001C2F288
:101170000000C4F2000100234FF00C0C4FF4E132E8
:1011800080E80E00C0E90333C0E905C3C361FFF77F
:10119000DBFD002818BFFEF7FFFF80BDFEE7000063
:1011A000FEE7000000F0070080F00703042B28BFD3
:1011B00004234FF0FF3C03380CFA03F338BF002040
:1011C000994381400CFA00F022EA0000084370477E
:1011D0007047000081B040F20000C2F200000068D9
:1011E00044F6D351C1F26201A0FB0101480A00900C
:1011F00000BF0098411E00280091F9D101B070474E
:1012000070470000B0B501380024B4EB106F1CBF6C
:101210000120B0BD4EF21005CEF2000568604FF01F
:10122000FF300F2100F08EF80720AC6028602046C8
:10123000B0BD000080B5FFF769FA80BD70B590B011
:1012400006AC20462821FEF786FF012006900A9072
:101250004FF4E01000254FF4803102260F90204615
:101260000595CDE90355CDE90155CDE90715CDE942
:101270000D61FFF7DFFB78B90F20CDE901064FF4D0
:101280008060CDE9040501A802210395FFF7BEFAAD
:10129000002804BF10B070BDFEF77EFF704700004D
:1012A00010B504460068D4E902C22369016921F43B
:1012B000405111430161616943EA0C021143C26864
:1012C00041F20C639A431143C1604169A26921F460
:1012D0004071114343F60002C4F2010290424161A1
:1012E00002D0FFF753FB01E0FFF762FB62681921B0
:1012F00048439100B0FBF1F048F21F51C5F2EB11E9
:10130000A0FB01235A096FF0630302FB03003223A1
:1013100003EB0010A0FB0101F02303EA5113206846
:1013200003EB0212C1F343111144816010BD0000B0
:10133000FEE700004EF60C50CEF200000068C0F34D
:10134000022070474EF6145300F00F02CEF2000355
:1013500009011A4400F16043B0F1FF3FC8BF03F533
:1013600064421170704700004EF60C51CEF200013D
:101370000A684FF6FF031A4060F30A2242F08060C9
:1013800040F0FD7008607047ADF5267DFFF7CCF9A1
:10139000FFF754FFFFF79AFEFFF7C4FEFFF7E2FEE8
:1013A00081AC204600F01EF841F68C7103ADC0F60A
:1013B000000128464FF4FC72FEF7B4FE402600BF41
:1013C000204600F001F900BF2046202100224023E2
:1013D0000096019500F0CEF8204600F01FF9002895
:1013E000F2D1EDE710B542F29C1141F6C52241F66B
:1013F000CD63C0F60001C0F60002C0F6000304464B
:1014000000F06CF9204600F0EFFA2046002100F0D1
:10141000FBFA204600F002F810BD000080B501681C
:1014200090F83820097C406B5143C900FEF793FEC9
:1014300080BD0000B0B584B0002BADF80E10ADF843
:101440000C20ADF80A304AD0044690F88C000028F1
:1014500045D00898012B07D0032819D0022803D1C2
:10146000C91A0131ADF80E1010F0010517D1BDF801
:101470000C00B4F84C10884231D3B4F84E108842B6
:101480002DD2B4F84820B4F84A300DF10E0015E022
:10149000D11A0131ADF80C1010F00105E7D0BDF8FC
:1014A0000E00B4F84810884219D3B4F84A108842A4
:1014B00015D2B4F84C20B4F84E3003A80DF10A014F
:1014C00000F06AF958B1206BBDF80E10D0F808C0D2
:1014D000BDF80C20BDF80A3020460095E04704B066
:1014E000B0BD00002DE9F04F83B00F46824690F862
:1014F00092905818511C1C468DB283B25046394602
:101500009046009500F06EF880B36CB30C9DB9FA6C
:1015100089F040094FF0010B0026029019E000BF4E
:101520008AF89200B9B25046424601230096FFF76E
:1015300081FF1BF07F004FF4FF7000EA4B0BA4F11A
:10154000010407F1010704BF01354FF0010B20042E
:101550000AD028781BEA000F4846E1D19AF891009A
:1015600000280298E5D1DBE78AF8929003B0BDE845
:10157000F08F00002DE9F04782B00A9C8A46814630
:101580005818A11898468FB283B24846514615465E
:10159000009700F027F8002818BF002C11D008F1A0
:1015A00007000B9F80B2C608AAB248465146434680
:1015B0000097FFF797FF013C3744200405F1010530
:1015C000F2D102B0BDE8F08710B5044690F8930060
:1015D00010B12046FFF722FF2046002100F03EF820
:1015E00010BD0000F0B581B00646B6F84E401F466B
:1015F000069BB0F84C000D46214600F013F948B1A7
:10160000B6F84800B6F84A102A463B4600F00AF9F8
:1016100001B0F0BD002001B0F0BD0000B0B504463F
:1016200000F06EF994F8390094F8381022680844F4
:10163000517CC5B28D420BD294F8930010B1204674
:10164000FFF7ECFE2046294600F008F80120B0BD67
:10165000204600F0D1F90020B0BD000010B50446CE
:10166000006B84F83910026820469047206B41686F
:101670002046884710BD000041F62101C0F6000158
:10168000C165704780B50021CFF6FF71026B01651F
:1016900041655168884780BDB0B50446049884F818
:1016A00038204FF48072A4F89120012284F893200E
:1016B00002680025C4E90B302046A56584F839503E
:1016C00084F86D50616390472046FFF7DBFF2046AA
:1016D000FFF7D2FF84F87050B0BD0000B0B582B003
:1016E0009C4613460C4641F6895141F63542C0F6F8
:1016F0000001C0F600020546CDF800C000F08CF9EC
:101700000DF1070000F0F4F89DF8072041F65503AD
:101710000146C0F6000328460094FFF7BDFF02B063
:10172000B0BD000010B582B0B0F85010B0F8542031
:10173000B0F85230B0F856C00446CDF800C0FFF7FC
:1017400051FF20B3B4F84810B4F850000122814290
:1017500084F88C2038BFA4F84800B4F84A10B4F8D4
:101760005200814288BFA4F84A00B4F84C10B4F883
:101770005400814238BFA4F84C00B4F84E10B4F8BD
:101780005600814288BFA4F84E0002B010BD002070
:1017900084F88C0002B010BDB0B505880C889D425D
:1017A00004EB050C1FFA8CFE144638BF2C46E645A8
:1017B0000CBF2C46A3F1010E9D4228BFE6469C4279
:1017C0004FF0000C0FD21FFA8EF595420BD99442C0
:1017D00038BF14469D4288BF9E460480AEEB04008D
:1017E0004FF0010C08806046B0BD000010B582B01B
:1017F000B0F83EE0DDF810C0C46AA2EB0E0292B26F
:10180000CDF800C0A04702B010BD000080B582B086
:10181000DDF810C0CDF800C0FFF7E8FF02B080BDD2
:10182000002070478A420BD283424FF000004FF0F5
:10183000000188BF01209A4288BF012108437047F8
:1018400083429CBF0020704700209A4288BF01203D
:10185000704700002DE9F04102F00705012490F8DF
:10186000926004FA05F7022EBC4628BF4FF0000C28
:10187000B6F1010E18BFBE460668DDF81880367C4A
:1018800022F00707426B7E43B8F1000FB6B220D0BA
:10189000324411440EE000BF428F90F89260114430
:1018A000012E98BFA44618BFA646013B1A0408BFE4
:1018B000BDE8F0810A78013542EA0C0282EA0E02A4
:1018C00015F007050A70E7D04FEA4C0C4FEA4E0EB0
:1018D000EBE788191044013810F8011F013B41EA79
:1018E0000C0181EA0E011A040170F5D1BDE8F08106
:1018F000014640F2A8000822C2F200000A707047B8
:101900002DE9F041044690F83880006894F8396079
:10191000477C0025E9B2F2B2204600F00DF801360E
:10192000F0B2B84228BFBDE8F0810135E8B24045C9
:10193000F0D3BDE8F081000080B582B00368D0F834
:1019400034C01B7C5943C90089B28C440021CDF8B6
:1019500000C000F035F802B080BD0000B0B590F8CE
:1019600038100568CB00838795F810C090F839309F
:1019700095F811E04FEACC0CDA005C18A0F83AC0F8
:10198000C287744588BFAEEB03011944C900A0F8B3
:101990004020A0F8421069694164B0BD80B5FFF7EE
:1019A000DDFF80BD80B50021A0F84810B0F84410DC
:1019B000026CA0F84A10C264FFF7B4FE80BD0000BC
:1019C00080B582B0DDF810C0D0F808E08DF80510C1
:1019D0008DF806208DF804306B460F210122CDF8DA
:1019E00000C0F04702B080BD80B5D0F808C00A2121
:1019F00000220023E04780BD80B5D0F808C0102148
:101A000000220023E04780BD80B5D0F808C00A4618
:101A10000B210023E04780BD2DE9F041DDF818805F
:101A20001C4615460E46074600F00AF83846C7E938
:101A30000265C7E9044800F019F8BDE8F08100002C
:101A4000002141F6C9620160C0F600024FF47F43F5
:101A500080F826108161FF21A0F82330C0E902221E
:101A6000C0E9042280F828107047000080B5D0F843
:101A700008C0092100220023E04780BD80B5D0F8CE
:101A800010C0192100220023E04780BD80B582B03C
:101A90008DF807100DF10702012100F003F802B0E4
:101AA00080BD000080B5D0F810C013460A4617214B
:101AB000E04780BD80B5D0F810C018210022002377
:101AC000E04780BDB0B582B0A1F1140CBCF10C0FA1
:101AD0004FF0000042D80FF20601DFE80CF0073F9C
:101AE0003F0A232A3F3F3F3F3F3F4100FFF71AFB9A
:101AF00036E0AAB340F2A84CC2F2000C9CF80000F9
:101B000040F2A94E591EC2F2000E00BF11F8013F6B
:101B1000013AC4B2013015060EF80430F6D18CF843
:101B200000001DE040F2A840C2F200000021017058
:101B300016E040F2A840C2F20000037840F2100024
:101B400040F2A9424FF47A75C2F20000C2F20002DC
:101B500078210095FEF70AFD10B1002002B0B0BD5B
:101B6000012002B0B0BD000080B5D0F80CC0192132
:101B700000220023E04780BD80B5D0F80CC00A46A3
:101B800016210023E04780BD80B5D0F80CC00A467E
:101B900015210023E04780BD80B5D0F80CC0134666
:101BA0000A461721E04780BDF0B581B00E460446D5
:101BB0000DF103050AE000BFA1F11800022817D2B9
:101BC000E668204600220023B0473E46374617F815
:101BD000011B1729F0DCA1F11500022813D272783D
:101BE000E768204600238DF80320B8470236EDE76A
:101BF000FE2914D17278204629218DF8032000F0A7
:101C000099F90236E2E7172909D1707801218DF898
:101C1000030020462A46FFF7BFFF0236D6E701B091
:101C2000F0BD000080B5D0F80CC0182100220023C0
:101C3000E04780BDF0B581B01546A1F11402052A38
:101C400067D804461E46DFE802F003112A2F4E55DE
:101C500094F824002A46FF2804BF782084F8240042
:101C6000276920463346B84701B0F0BD40F22956F7
:101C7000C2F200063078012802D12046FFF7FEFEAE
:101C80002046FFF717FF20460021FFF7FFFE204602
:101C90002946FFF7FBFE0120307001B0F0BD204661
:101CA0002946FFF7F3FE31E040F22957C2F2000760
:101CB0003878012802D12046FFF7E0FE192D0AD31B
:101CC00020461821324600F03BF9183DE8B21828AA
:101CD00006F11806F4D8E9B22046324600F030F991
:101CE0000020387012E040F22950C2F200000021BA
:101CF00001700BE040F22955C2F200052878012856
:101D000002D12046FFF7BAFE00202870012001B062
:101D1000F0BD002001B0F0BD10B5D0F814C02821EE
:101D2000002200230446E047D4F80CC020461421CA
:101D300000220023E04720464B21012200F0FAF860
:101D4000206829210279204600F0F4F820464B2132
:101D5000002200F0EFF8206829210279204600F0E7
:101D6000E9F820464B21012200F0E4F820682921FF
:101D70004279204600F0DEF810BD00008A7C016048
:101D800080F8222070470000B0B50D46044600F0F0
:101D90001FF808B10120B0BD092D0DD00A2D14D1B6
:101DA0002046FFF7B9FF42F2B611C0F60001204607
:101DB000FFF7FAFE0120B0BD42F2F811C0F60001B3
:101DC0002046FFF7DBFF0120B0BD0020B0BD0000C2
:101DD0002DE9F0410B39044604294FF0000088BF7B
:101DE000BDE8F0811546DFE801F0035F131F300006
:101DF0002046002D07BF42F2EB11C0F6000142F26F
:101E0000F011C0F60001FFF7CFFE0120BDE8F08120
:101E1000002D4BD042F2AF11C0F600012046FFF773
:101E2000C3FE2068C07C4AE02046FFF7FBFE204648
:101E30008121FFF7A9FE20462946FFF79DFE204697
:101E4000FFF792FE0120BDE8F08120461E46FFF715
:101E5000E9FE707994F8221001EBC007204640217A
:101E60005FFA87F8FFF790FE4FEA181000F11001B3
:101E70002046FFF789FE07F00F012046FFF77CFEA2
:101E8000B07940F0B0012046FFF776FE3079326835
:101E9000C000C1B22046FFF77FFE013D2806F5D104
:101EA0002046FFF761FE0120BDE8F08142F2A81153
:101EB000C0F600012046FFF777FE2068807C84F89A
:101EC00022000120BDE8F0810020704780B529394B
:101ED0002A292AD8DFE801F0181D262924292929D2
:101EE0002929292929292929292929292929292962
:101EF000292929292929292929292924242929166F
:101F000016161600002111E00120FEF74BF9012002
:101F100080BD0020B0F59F7F00F1010000BFF9D91E
:101F2000012080BD012000BF80BD012180F8271065
:101F3000012080BD80B5D0F814C00023E04780BDEB
:101F4000F0B581B017460D460646FFF7B3FD3046A3
:101F50004021FFF79BFD3469304617212A463B4656
:101F6000A0473046FFF78AFD01B0F0BD02E008C887
:101F7000121F08C1002AFAD170477047002001E003
:101F800001C1121F002AFBD170470000FFFFFFDFD5
:101F9000FEFFFF7FFFFFFF2081FFFF7FFFFF1FFF8F
:101FA0007FFCFF7FFFFFE3FFFFE3FF7FFFFFFCFFFF
:101FB000BFCFFF7FFF7FFFF34F3FFF7FFF9FFFF903
:101FC00097FFFC7FFFEFFFFBDFFFF97FFF67FDFC63
:101FD000CFFFF77FFF7BFEFFB7FFE67FFF7DF9FFB7
:101FE000FF5FDF7FFF7CF697F42F9F7F7FFFFDB4BD
:101FF00055BF7F7F3FFFBEAAAABE7F7EBFFDAFADAC
:10200000D6FAFF7EDFFF5775ADF6FF7DCFFD6BCBB8
:10201000B5EDB77D6FF155616BEDDF7B77EB5AE086
:102020005E551772F77D176A55DBA777F77B4DE092
:1020300001B7FB77FBBF156249EBFE6FFB5F9BE0CF
:10204000117FFF6FFBFF2E241CDBFA6FFDAF1581A4
:1020500048BFFD4FFD5F1FA8826BFB5FFDEF2AC1EC
:1020600070DFFE5FFD5F1F84546BFB5FFDB795283B
:102070000EBFFD5FFCCF1FCE21EBF65F1D4F9528F5
:1020800004BFFB5EBE8F1F9550EB7E5DFD57600168
:1020900002BFFB5F1CBF1A4908DBF65DFDEF8FC175
:1020A00027FF7D5F7DBF5AF40F57FF5E5DEF1F7006
:1020B0005FFFFD5EBDBF9DFA0BDBBE4FFD7FD7BC52
:1020C000047F7B5F7BDF1FFEA9D7FF6E7BFF96EE51
:1020D000C3FFBE6FFBBD1FFFFFB6BF6777FF5D7F0E
:1020E000FFFF7F77F7FE97F76FDBCF77E7FFDEFF26
:1020F000FFFFFF7BEFF7DFDDDDB7C37BDFFBDBAD92
:10210000ACFDFF79DFDFFF9BCBFFFB7EBFEFFFFB6B
:10211000DDFFF47E3F5F7FFFFFFF7B7E7FDFFFFF02
:10212000FF3FBF7FFFBCFEFFFFEFBE7FFFFDF6FF5F
:10213000FFDBCF7FFFF3ABFFFFB7EF7FFFF7DBFEE8
:10214000BFEFF37FFFCFDFAA56FFFD7FFF9FBF7B6F
:10215000577FFE7FFF7FFE6BFFBFFF7FFFFFF9FF13
:10216000FFCFFF7FFFFFE3FFFFF1FF7FFFFF1FFEBA
:102170005FFEFF7FFFFFFF0040FFFF7FFFFFFFFFCE
:10218000FFFFFF7F000000000000000001020304C9
:102190000607080900000000010203049D19000859
:1021A000A51900080D1800081815A115C819FF1861
:1021B00015A015C019FF1815AE15D5168015A8164F
:1021C0003F15D316001540158D1614152016001551
:1021D000A115C815DA1612158116CF15D916F115E5
:1021E000DB1640152E15A415A619FF1815AF19FFFB
:1021F0001815AE19FF0000000001140A64643232A1
:1022000000127A00000428961008000080004000A8
:102210003022000800000020100000006C1F0008A1
:102220004022000810000020200900007C1F000848
:102230000024F40001000000100000000000000075
:04000005080000ED02
:00000001FF
