:020000040800F2
:10000000B011002001010008D15C0008695200080D
:10001000CD5C00080D3000087D6000080000000085
:10002000000000000000000000000000815D0008EA
:100030003D32000800000000415D0008495F0008F3
:100040001B0100081B0100081B0100081B01000820
:100050001B0100081B0100081B01000841320008B9
:100060001B0100081B0100081B0100081B01000800
:100070001B0100081B0100081B0100081B010008F0
:100080001B0100081B0100081B0100081B010008E0
:100090001B0100081B0100081B0100081B010008D0
:1000A0001B0100081B0100081B0100081B010008C0
:1000B0001B0100081B0100081B0100081B010008B0
:1000C0001B0100081B0100081B0100081B010008A0
:1000D0001B0100081B0100081B0100081B01000890
:1000E0001B0100081B0100081B010008DFF80CD0F1
:1000F00002F07AFF00480047C5900008B0110020C8
:100100000648804706480047FEE7FEE7FEE7FEE7B1
:10011000FEE7FEE7FEE7FEE7FEE7FEE7BD5F00085D
:10012000ED00000810B5F949C4074FF040434FF007
:10013000804205D08B66CB66C1E91C328A67CA67EC
:10014000840709D5C1F80031C1F80431C1E9423250
:10015000C1F81021C1F81421400709D5C1F8983120
:10016000C1F89C31C1E96832C1F8A821C1F8AC21BD
:1001700010BD2DE9F14F82B0002102988A468946D0
:10018000806F00287DD000220020401C0428FCDB6A
:1001900002984FF0000C00EBC203D3E90010A1FB62
:1001A0000167D3E9065400FB017701FB0077CDE935
:1001B0000067A646AE1B64EB0704AB460327A6FB0D
:1001C000075804FB078406FB0C44DDE90067AD1902
:1001D0007C41A5FB016704FB017405FB0045D3E9E5
:1001E0000C47341B65EB0705CDE900455D46A5FBD3
:1001F00005670324A6FB04580EFB0B770BFB0E7759
:1002000007FB048406FB0C44D3E91263761B63EB03
:1002100004034C18A4FB017C40EB000505FB01C561
:1002200004FB0055A7FB014C05FB01C507FB00556E
:10023000A4FB017C05FB01C504FB0054F6196341D6
:10024000DDE90045AD0045EA9475A400A4FB017CFE
:1002500005FB01C104FB0014F01B73EB040103D583
:100260000023404263EB0101BAEB000479EB010388
:1002700001DA82468946521C032A85DB50464946EC
:1002800000E010E002F085FCA149896B02F037FA2A
:1002900002F0BFFC9D4AD2F80C2203B09200BDE8E8
:1002A000F04F02F04DB9002003B00146BDE8F08FD9
:1002B0002DE9F14F0020009A0146926FF2B300241D
:1002C0000022521C042AFCDB009A02EBC405AA4659
:1002D000D5E90029A2FB023CD5E906769E46FB1A29
:1002E0000325A3FB057809FB02CC02FB09CB66EBD7
:1002F0000B0606FB05854FF0000C03FB0C5617EBB5
:100300000E03A3FB027C46EB0B0606FB02C203FBBB
:100310000923DAE90C25BA1AAB4103D5002552426C
:1003200065EB0303851A71EB030501DA10461946E4
:10033000641C032CC4DB02F02CFC00E00EE07449CA
:10034000896B02F0DCF902F064FC704AD2F80C22EE
:10035000BDE8F84F02EB420202F0F2B8002001467D
:10036000BDE8F88F2DE9FE43684D80460024D5F89E
:1003700010626F4605EBC4013246D1E9020102F07A
:10038000D0F805EB8401B1F884100904401847F84F
:10039000240004F10104032CECDB5C4898210830B4
:1003A00002F00BF90120FFF7BDFE95F8E801019975
:1003B000042807D1D5F81802B0F5201F02DD05206A
:1003C00085F8E801524C0098636AC11A01D40E46C0
:1003D00000E01E1A0198A26A801A01D4074601E0C3
:1003E000019FD71BBE4206DD002901D4084606E066
:1003F0000098181A03E0002801D50198101A029AF3
:10040000E16A521A01D4134601E0029BCB1A8342DF
:1004100005DB002A01D4104601E00298081AD8F83A
:10042000241007F0F3FDD5F81812814206DD0321F0
:10043000684608F063FC022008F00AFD009860623C
:100440000198A0620298E062BDE8FE83304AC2E9EA
:10045000020170472E4AC2E9060170472C4AC2E9E0
:1004600004017047294AD2F8E0310360D2E97402EE
:10047000C1E900027047254AD2F8E0310360D2E9B1
:100480007602C1E9000270472DE9FE47814600204F
:10049000EA468A6F22B901EB800339F91020DA6746
:1004A00001EB800239F91030D46F1D1B4AF820503F
:1004B000136E9D4200DD1566D36E9D4200DAD5664F
:1004C0000123002422464FEAE578A3FB056704FBDD
:1004D000057403FB0844334602EB420601EBC606F3
:1004E00006EBC00CDCE90076FF186641CCE900762B
:1004F000521C042AE9DB401C0328CADB886F401C1D
:1005000088670120C1F89000BDE8FE8750000020F8
:10051000B002002030B5002302EB830550F82340E1
:100520005B1CEC66032BF7DBC2F88810916F79B186
:10053000002102EB810450F82130E56F5B1B00D5F0
:100540005B42256E9D4200DA2366491C0329F0DBDD
:10055000906F401C90670120C2F8900030BD10B52C
:1005600000210B4600EB8102491CD46ED467136650
:100570000329F7DBD0F8881040F8783FC0E905136D
:1005800010BDD0E92210081A70470146D1E91802BF
:10059000824200DB1046896E814200DB08467047CC
:1005A0002DE9F0478046501E012686408946C2F15B
:1005B0002007404601F0C4FF04460D464046494628
:1005C0003A4601F0AEFF3A4601F0BAFFB04203DD11
:1005D000641C45F1000505E07142884202DA641EA0
:1005E00045F1FF3520462946BDE8F087F749002050
:1005F000086248628862C862086448648864C864A3
:10060000086348638863C863086548658865C8658A
:10061000704730B5EE4AD2F8483223B1D2E990544F
:100620002D1A8C4101DAC2E990015B1CC2F84832F4
:1006300030BD30B5E64AD2F8583223B1D2E99454ED
:100640002D1A8C4101DAC2E994015B1CC2F85832C0
:1006500030BD30B5DE4AD2F828322BB1D2E9884518
:10066000041B71EB050401DAC2E988015B1CC2F8C6
:10067000283230BD30B5D64AD2F838322BB1D2E963
:100680008C45041B71EB050401DAC2E98C015B1C8B
:10069000C2F8383230BD2DE9F0470246CC4801257A
:1006A00008308046C36E016E046FC91A436E1B1B6F
:1006B0008B4200DB1946836ED8F87400181A884202
:1006C00000DB0146C14F6037F86B884204DA002432
:1006D00000F00AFA204687E7108E0124BC4EC005C0
:1006E0004FF000010ED5D6F880303068834209DB28
:1006F000B2F87420D20506D5D6F8B021824201DBCB
:10070000052400E00C4674B3600719D5AF48C8381B
:100710008146FFF72EFD000D40EA01300915C6E9BC
:100720007601D7E904321B1A8A4102DA0025FFF765
:10073000A1FF9821484601F040FF0420FFF7F2FC9A
:10074000E0070ED04046FFF714FDC6E97C01D7E96B
:1007500006340246181A8C4103DA00251046FFF7CA
:1007600078FF284640E7FFE702203DE71EB5044634
:1007700090F83000C0F38110032804D19449201D63
:100780000831FFF781FE94F87400C0F3811003284C
:1007900005D18E4904F14800C839FFF775FED4F839
:1007A000B8008B4AC0F38113A0326946032B0FD0E7
:1007B000C0F3411003281AD1002004EB8003D3F8C2
:1007C000A0309B1341F82030401C0328F5DB09E0E2
:1007D000002004EB4003B3F98C3041F82030401C7A
:1007E0000328F6DB6846D4F8C010FFF793FE1EBD61
:1007F0002DE9F04705460020296BCA0567D501F0B1
:100800005001402900D1012095F8741001F05001E9
:10081000402900D1012095F8B8106D4C01F050012D
:10082000402900D030B100F05FF90020C4F8E001A9
:1008300084F8E801654ED4F80812E86A603681420F
:1008400025D0C4F808020A28306B0ADA400020607C
:10085000716B491CC4F80C1202F08DF90BF092F880
:1008600004E02060706BC4F80C02B06BC4F8140292
:10087000D4F80C02C0F11000C4F810024FF480400C
:10088000C4F8180296F8341019208840F0632846FE
:10089000FFF76CFF94F8E811DFF8349105274FF06B
:1008A000020809F1A009072911D2DFE801F00411BB
:1008B00027305E7E8500D4F8E001411CC4F8E011C9
:1008C0000A2804DB00F010F9012084F8E80186E032
:1008D000D4F89800012810D12846FFF7DCFE10B1AB
:1008E000012803D004E084F8E87101E084F8E8818D
:1008F0004846FFF734FEFFF779FE70E0032084F8E6
:10090000E8012846FFF72EFD00F0EEF867E02846E4
:10091000FFF7C1FEF0B3012861D1B5F8B8004FF080
:100920000403C00515D54846FFF72FFE0146C01742
:10093000C4E97410D6E902C2BCEB0101824102DABB
:1009400084F8E87108E04846FFF71BFE316A8842E8
:1009500002D384F8E83124E0F4E97601FFF769FE78
:10096000D4E90601FFF755FE39E0B5F8B800C00537
:100970000BD54846FFF709FE0146C017C4E97410BD
:10098000D6E90232591A824108DB2846FFF783FE76
:1009900000B100E002E0012803D020E084F8E87113
:1009A0001DE02846FFF7DEFCD6E7062084F8E801C4
:1009B000012008F04DFA0DE02846FFF76CFE0128F3
:1009C00001D038B10BE084F8E88108E05002002043
:1009D0005000002000F088F84846FFF7C0FD0020D6
:1009E00002E610B500214010002802D001F10101FB
:1009F000F9DC454C4FF0010001F1010100FA01F072
:100A0000C4E90C0102F0B7F80AF0BCFFA06394F847
:100A1000341019208840E06310BD10B54FF41871F0
:100A20003A4801F0CAFD4021374801F0C6FD0720D1
:100A3000FFF778FB344840F2DC510022C0E906128F
:100A40001421C0E902124FF41671C0E904123049B2
:100A50002E4C01620120C4F8E4011920FFF7C1FF08
:100A60000020C4F8080210BD10B54FF418712748D3
:100A700001F0A3FD0720FFF755FB244801210022C8
:100A8000C0F8E41180F8E8110321012008F0CAF948
:100A900007226421AFF2A720BDE8104007F0AEBEE8
:100AA00010B5012008F0D4F9AFF2BB20BDE810402A
:100AB00008F066BA10B5FFF7B0FF002805D1AFF215
:100AC0005700BDE8104007F0BBBF10BD10B5FFF7E1
:100AD000E7FFAFF26B00BDE8104008F0A7BA0B4982
:100AE000D1E97C0170477047084810B5982108305B
:100AF00001F063FD9821074801F05FFDBDE810405B
:100B00000520FFF70FBB0000B002002050000020BE
:100B10000008AF2F880100202DE9FC5F0D4600265C
:100B2000416B99469246B046002904DBD0F8BC00E0
:100B3000032800D10126FF492422081F01F016FDD9
:100B4000FC4FC03F0024C7F8E05007EB8400D0F80A
:100B5000BC10404601F049FD641C80460A2CF4DBC1
:100B6000F54901F0CCFDF54C80464FF0C80BC7F8B5
:100B7000E400BAF1320F21DB4846C7F81CB101F09E
:100B8000FAFF00900190EE49284601F0B8FD019966
:100B900001F083FD214601F0B2FD0446BAF57A7FEB
:100BA00033DBE8492846009C01F0A9FD214601F00D
:100BB00074FDE24901F0A3FD044626E041F28831CC
:100BC00099FBF1F04042D7F81C1100EB800040186F
:100BD000C7F81C0102D50020C7F81C01484601F0E7
:100BE000CAFF8246D849284601F089FD514601F0E6
:100BF00054FD214601F083FD0446D7F81C0120B9BD
:100C0000D7F82801012800D10024D7F8200100B12D
:100C10002C46CE49894500D12C4614F0FF4F11D007
:100C20004046C7F8E880414601F031FD20F0004021
:100C3000C74902F067F822D2D7F8B80010F0FF4F8A
:100C400003D01CE0D7F8E800EDE7C6B14846C7F886
:100C50001CB101F0B4FF04460E46284602F019F814
:100C60000022BC4B01F0AEFE2246334601F038FEB6
:100C70000022B94B01F0A6FE02F01EF80446204601
:100C8000BDE8FC9F2DE9F04FABB04FF0000AA94F33
:100C9000CDF810A0C03FCDF814A0CDF818A00446A0
:100CA000D7F82011022003297DD0002620AD07EBC4
:100CB0008600D0F8A80001F05EFF6FF01D0101F082
:100CC0005CFD45F82600761C042EF0DB0FA806F02C
:100CD00055FE24A806F0D0FE964B24AA183B0FA977
:100CE0002046279300F0F4F9064604F1180006F0B8
:100CF00059FF82099548D7F83031834200DB03461B
:100D000031462046FFF708FFBB4607F1B806D7F883
:100D1000EC1001F0C2FC30600BA806F02FFE13A906
:100D20000BA807F0CFFC83480FAA3C300BA906465E
:100D300007F008FA31460BA807F0D0F900210DF1B1
:100D40003C080DF14C090DF1100E0022134610461F
:100D500001EB410C0CEB000759F8276008EB80070A
:100D6000401C7F680328C6FB0723F3DB900F40EA93
:100D700083004EF82100491C0329E6DBDBF8200143
:100D80005F4600287DD05046CDF818A0404201F0C3
:100D9000F2FE6FF01D09494601F0EFFC0AF070FC0D
:100DA000D046564600E074E0CDE9000A0698CDF83A
:100DB00008A0404201F0DFFE494601F0DEFC0AF0E7
:100DC0001DFD0390D7F8300141F2883190FBF1F01E
:100DD0004FF0804A01F0CFFE28902990069801F04C
:100DE000CAFEDFF878B1594601F089FC299901F073
:100DF00086FC514601F083FC01F0F2FE40000690B3
:100E0000DDF8A0A001F0B7FE594601F046FC5146BE
:100E100001F043FC01F0E4FE069001F0ACFE49460F
:100E200001F0ABFC0AF02CFCCDE907060996069808
:100E300001F0A1FE494601F0A0FC0AF0DFFC0A9097
:100E40001CAA694620A807F01DFA6A4607A91CA833
:100E500007F018FAD4F8BC00EA46002810DD002696
:100E60001E215AF8260045F8260001F086FC01F004
:100E7000B7FE07EB8601761CC1F8A800042EEFDB55
:100E800000E00BE0D4F8BC004FF0FF3503280AD196
:100E900006E0C7F820012BB0BDE8F08F069875E793
:100EA00001F007FBF0B357F8A80F01F064FE4E46BF
:100EB000494601F062FC1C90786801F05CFE314606
:100EC00001F05BFC1D90B86801F055FE314601F061
:100ED00054FC1E90F86801F04EFE314601F04DFCC6
:100EE0001F90B86FA83F0028D5D0D7F8B800294682
:100EF000A83701F042FC0AF0C3FB1E2101F03DFCC3
:100F000001F06EFEC7E90008C7F808802946386975
:100F100001F033FC0AF072FC1E2101F02EFC01F0FE
:100F20005FFE00E01CE0F860D4F8C010A83F2798EE
:100F300044E00000B00300200000204100409C4538
:100F400000004843000048420000C84340420F00F0
:100F50000E2DB23D000079400088B340E1023747D2
:100F60002946D7F8B80001F008FC0AF089FBCDE962
:100F70000708CDF824802946D7F8B80001F0FDFB1A
:100F80000AF03CFC0A906A4607A920A807F07AF903
:100F9000684607F09DFA002556461E2156F82500A2
:100FA00001F0EBFB01F01CFE07EB85016D1CC1F8A5
:100FB000A800042DF1DBD4F8C010279807F074FEC8
:100FC000D7F8200100288FD0401E62E770B590F856
:100FD000B810664ACC064FF000034FF0030101D46D
:100FE000C2E94813B0F82041E40509D4048EE405B1
:100FF00003D5B0F87440E40502D4C2E948131AE0FE
:10100000D2F8341139B1D0E93013C91A4FF47A73D8
:10101000B1FBF3F105E0D0F8B01044F62064A14232
:1010200002DBC2F830110AE0D2F82C512944C2F890
:101030002C11A14201DA002070BDC2E94B31FFF74B
:1010400021FEF8E710B54FF49C71484801F0B5FA5D
:10105000464C4FF080400021C4F8FC0044F8A80F33
:101060004248A83007F020FE4FF47A7060674FF0D6
:101070007E50606410BD3D49C1F8EC00002070470F
:101080003A49C1F82801002070473849C1F83401B5
:101090000020704704224FF41671AFF2CF0007F022
:1010A000ADBBAFF2D70007F06BBF10B5FFF7CAFFBB
:1010B0002E490020C1F82801C1F83401AFF22B00FD
:1010C000BDE8104007F0BCBCAFF2370007F0AEBF80
:1010D0002DE9FF470C4625491546074699463C220F
:1010E0000C31224801F042FA204950225831A1F136
:1010F000100001F03BFA1D4E95E8070006F13C0395
:101100001B4D83E807001ECC06F1980080E81E0006
:10111000D6F82401401CC6F82401062802DD06206A
:10112000C6F82401C0F1060407F1A00818E006EB98
:1011300004116A464846483107F004F804EB4400BD
:1011400006EB80016A46404606F020FA074625F085
:10115000004120F0004001F0CBFD00D23D46641C70
:10116000062CE4DB04B02846BDE8F087F00200203E
:10117000002474491FB501461022684601F0F6F9B3
:10118000F6489DE80E0080E80E00F5499DF80C0039
:1011900081F8B001002004B010BD1FB5EF490EC9A1
:1011A0008DE80E00EE49102291F8B0118DF80C1068
:1011B000694601F0DBF90020EDE72DE9F04F91B031
:1011C00000251821684601F0F8F90024182106A826
:1011D00001F0F3F9E249A046C14691F8C0010128A7
:1011E0007ED1D1F8B8B1D1F8B4A10022C2EBC200CF
:1011F00000EB4001DA4800EB810E9EF850000F90A2
:10120000002863D000215EE05EF82130DDE9006750
:101210006D1CD8170E939B197841CDE900300EEB69
:101220008100EDB243690D93DDE9027CDE17DB1925
:1012300046EB0C06CDE90236836ADDE9047CDE1755
:101240000C93DB1946EB0C06CDE90436C06B0E9B04
:10125000DDE9067C83FB0063360C46EA0346F6199B
:101260004CEB2343CDE906630D9BDDE9087C83FB52
:1012700000634FEA164646EA0346F6194CEB234351
:10128000CDE908630C9BDDE90A7C83FB00634FEA30
:10129000164646EA0346F6194CEB2343CDE90A63AA
:1012A00080FB00634FEA164646EA034616EB080841
:1012B00049EB23490444584501DA834602E050458E
:1012C00000DD8246491C0F9888429DDC521C052A8D
:1012D0008CDBA348AAEB0B01D0F8BC01814200E0F3
:1012E00053E052DBA5FB0872E01700260F9006FBC7
:1012F000082005FB09000E9084FB0410090C41EA4C
:1013000000410014CDE90C0106A800EBC601D1E9AB
:101310000002A0FB05BC02FB05C2002100FB012C62
:10132000684600EBC601D1E90002A0FB043802FBCD
:1013300004820F9900FB0120190C0CAA41EA004914
:101340004FEA204A92E80B0087EA010283EA00088C
:1013500052EA080212D07A1A63EB0003BBEB0900D1
:101360006CEB0A0C4FEA0C4141EA1041000401F019
:10137000A7F87B4901EB8601C1F8A401761C032E76
:10138000C2DB7748012180F8B01111B00020BDE820
:10139000F08FF8B5724D0E460446D5E96D01091A75
:1013A000052291FBF2F1301A90FBF1F0C0B28DF8FA
:1013B0000000042801D92020F8BDC0EBC00000EBDC
:1013C000400005EB800191F85000052816D0421C22
:1013D00081F850209DF80010C1EBC10101EB4101E3
:1013E00005EB810202EB8001CE63236842F82030D6
:1013F00060684861A06888620020F8BD01F1400380
:10140000181F1022194601F0B1F89DF800001022B3
:10141000C0EBC00000EB400005EB8000011D01F0B7
:10142000A5F89DF800001022C0EBC00000EB4000C2
:1014300005EB800000F11801143001F097F89DF8D9
:1014400000001022C0EBC00000EB400005EB800064
:1014500000F12C01283001F089F80420BAE730B5FA
:1014600085B0044603A9684606F05CFB04A806F0B4
:1014700071FC02282BD0D4F8E4000399401A3849B3
:1014800091F8B02112B308B3D1F8A421009C80FBDD
:101490000232150445EA134222440092D1F8A821F1
:1014A000019C80FB0232150445EA1342224401925A
:1014B000D1F8AC11029A80FB0110030443EA1140F9
:1014C000104402900321684607F018FC0CE0606BA2
:1014D000032809D106F04AFB30B168460399FFF7AB
:1014E00058FF08B9FFF769FE05B0002030BD10B500
:1014F0004FF4E2711A4801F060F819481949C0F830
:10150000B4114FF4AA01C0F8B8114FF4A021C0F8EB
:10151000BC11012180F8C011002010BD1049C1F894
:10152000B801002070470E49C1F8B401002070478F
:101530000B49C1F8BC010020704758B10849D1F8E7
:10154000A4210260D1F8A8214260D1F8AC118160D9
:10155000002070470520704724207047CC050020EC
:10156000280400200000D8FF20B12D4981F8C001D7
:101570000020704724207047294B93F8B1010028C0
:1015800018D0D3E96D10401A052190FBF1F000202E
:10159000C0EBC00101EB410103EB810191F8502048
:1015A00022B1002100E0491C8A42FCDC401C0528D5
:1015B000EEDB00207047082296211A4807F01EB97A
:1015C000184807F0DDBC10B5FFF791FF4FF49A7390
:1015D00010221549154807F0D3F920B9AFF22900B8
:1015E00007F02EFA08B1012010BD0D49012081F845
:1015F000B101002010BD10B5094C94F8B1010028CC
:1016000008D0084807F0BCFCAFF2550007F00EFD0B
:1016100008B1012010BD002084F8B10110BD000008
:10162000280400205F1400089B11000875110008B1
:101630002DE9F043044699B01D4691460E46806858
:1016400001F099FA014601F028F88046606801F03F
:1016500092FA014601F021F80746206801F08BFA62
:10166000014601F01AF8394600F0BFFF414600F08C
:10167000BCFF0AF087F9074620F000404FF08D418B
:1016800001F040FB7ED2306801F075FA6FF01D0862
:10169000414601F072F80490706801F06CFA41461E
:1016A00001F06BF80590B06801F065FA414601F071
:1016B00064F80690F06801F05EFA414601F05DF8CA
:1016C00000260C960790206801F055FA394601F083
:1016D00016F80D90606801F04EFA394601F00FF8E7
:1016E0000E90A06801F047FA394601F008F80F9013
:1016F00010AA0CA904A806F0C5FD14A904A806F0B8
:1017000005FD6A4614A910A806F0BCFD019908461B
:1017100000F0C3FF02990446084600F0BEFF2146D0
:1017200000F063FFFE49884201DAFE4C0BE0FE49FF
:10173000884201DAFD4C06E0FD49884202DA4FF0AA
:101740007A5400E0FB4C484601F015FAFA4900F0E3
:10175000D6FF214600F0A1FF0446089621460298D4
:1017600000F09BFF09900198214680F0004000F0B6
:1017700094FFCDE90A066A4604A908A806F082FD8E
:101780006A4600E025E004A9104606F07FFC6846A2
:1017900006F040FE1E21009800F0EFFF01F020FA55
:1017A00028601E21019800F0E8FF01F019FA686036
:1017B0001E21029800F0E1FF01F012FAA8601E213C
:1017C000039800F0DAFF01F00BFAE86019B0BDE809
:1017D000F08396E80F0085E80F00F7E72DE9F05F4A
:1017E00005460C46806801F0C6F9014600F055FF39
:1017F0000746686801F0BFF9014600F04EFF064653
:10180000286801F0B8F9014600F047FF314600F0C2
:10181000ECFE394600F0E9FE0AF0B4F84FF07E59CC
:10182000002706464FF08048484505DCC4E900879C
:10183000A760E760BDE8F09FA86801F09CF9314619
:1018400000F05DFF82460146484600F020FF4FF45D
:101850000006B04200DA00204FF0FF3100F08DFFAB
:101860000AF090F883464946504600F0BEFEB0426A
:1018700000DA00204FF0FF3100F07FFF0AF082F81D
:101880008246686801F077F9014600F006FF0646D7
:10189000286801F070F9014600F0FFFE314600F0C3
:1018A000A4FE0AF06FF806464845BFDD1E215046EB
:1018B00000F063FF01F094F92060686801F05BF9C3
:1018C000314600F01CFF594600F0E7FE1E2100F0F3
:1018D00054FF01F085F96060286801F04CF9314649
:1018E00000F00DFF594600F0D8FE944900F0D5FEF7
:1018F00001F076F9C4E902079CE72DE9F0410546BD
:101900000C46C06801F037F9014600F0C6FE80467B
:10191000A86801F030F9014600F0BFFE074668688C
:1019200001F029F9014600F0B8FE0646286801F0EA
:1019300022F9014600F0B1FE314600F056FE39466C
:1019400000F053FE414600F050FEB0F5000F06DAFD
:101950004FF08040206000206060A0602DE00AF021
:1019600011F801464FF07E5000F0C9FE1E2100F034
:1019700004FF0646286801F0FEF8314600F08DFEAF
:1019800001F02EF92060686801F0F5F8314600F0AA
:1019900084FE01F025F96060A86801F0ECF831469A
:1019A00000F07BFE01F01CF9A060E86801F0E3F8AC
:1019B000314600F072FE01F013F9E060BDE8F081FD
:1019C00070B5044690F8300088B0400676D5A0691E
:1019D000002801DB014600E041424FF4803200263E
:1019E000574D91420BDAE169002900DA49429142F0
:1019F00005DA216A002900DA4942914260DB0028B9
:101A000000DA40424FF4C80188420BDCE06900284C
:101A100000DA4042884205DC206A002800DA4042B1
:101A2000884201DD032000E00220A863696BA06A00
:101A3000814219D06863A06A01F09DF8414900F025
:101A40005EFE1D2100F099FE01F023F93E4A3F4B56
:101A500000F046FF082201F024F800223C4B00F081
:101A6000B1FF01F0F7F828630496296BA06906F02E
:101A7000CDFA0590296BE06906F0C8FA0690296B4B
:101A8000206A06F0C3FA07906A4604A92C4806F0BB
:101A900059FB00982A4A800100900198694680010C
:101AA00001900298800102900398800103901046F3
:101AB00006F0CAFA22490846FFF71FFF08B070BDBA
:101AC000AE63FBE72DE9F0430446D0F820018FB068
:101AD00041067CD51A4DD4F810111E4B2A68891A7C
:101AE000D4F82C215A438A4201DA032100E0022172
:101AF000A963810504F58870804601D51049D4E0BA
:101B0000002104A806F00EF80D490C223C3104A86F
:101B100000F05EFD08BBD4F82801A96D88421BE0E7
:101B200017B75139A69BC43B0AD7233C8FC2753DDA
:101B3000CDCC4C3ECDCCCC3E0014CD47000080CE69
:101B4000EC05002000247449112D4454FB21094068
:101B50000080664071981C007ED0208807AB80B260
:101B600004AA616A05F07AFD099801F004F80146BB
:101B700000F093FD0746089800F0FDFF014600F0D5
:101B80008CFD0646079800F0F6FF014600F085FD43
:101B9000314600F02AFD394600F027FD09F0F2FE3B
:101BA0000646E84900F079FDE74900F0A8FD6FF02E
:101BB0000F0100F0E2FD0746D4F8280100F0DBFF3A
:101BC000394600F06AFDE14900F099FD00E06EE061
:101BD0004FF0FF3100F0D1FD074609F051FD81467D
:101BE000384609F00BFE07464FF08040864204DA83
:101BF000A8640020E864286533E01E21484600F010
:101C0000BCFD00F0EDFFA864079800F0B4FF81462A
:101C1000CF49384600F041FD0746494600F03DFDFA
:101C2000314600F06CFD00F0DBFFE864089800F03E
:101C3000A2FF0146384600F030FD314600F05FFD5E
:101C400000F0CEFF2865099800F095FF0146384660
:101C500000F023FD314600E00EE000F050FD00F002
:101C6000BFFF04AB686593E8070005F13C0383E818
:101C70000700D4F82801A8656A46B649404606F030
:101C800061FAB4480AAA14306946044606F05AFAC2
:101C90002146404606F022FAAE486A460AA948386C
:101CA00006F050FAAB4968464839FFF726FE0FB0F8
:101CB0008DE51FB50446A7486946483806F00EFA78
:101CC000A44A6946283A204606F03CFAA1491DCCB0
:101CD000383981E81D001FBD2DE9F0479D4E0446AF
:101CE000483E90F8740006F15C0A06F120080125D0
:101CF00000F05001103692B004F5887904F15C07C9
:101D0000402906D094F8200100F0500040280DD062
:101D10001EE031463846FFF761FDB4F82001C005EA
:101D20000CD55146484606F0D9F907E051464846D9
:101D300006F0D4F9B4F87400C00509D585486946A1
:101D4000483806F0CBF942466946304606F0FAF9C3
:101D5000B4F82001C005204602D5FFF7B3FE01E02C
:101D6000FFF72EFE7B4932464839404606F0EAF935
:101D700094F87400400671D5208EB4F82011084301
:101D8000C00578D50FAA3946304606F073FCD4E971
:101D9000172080FB0001C2FB0201626E6D4FC2FB87
:101DA0000201483F4FF08042801A71F1020014DBBB
:101DB00004A805F07DFFDDE9042080FB0001C2FBE3
:101DC0000201069AC2FB02014FF08042801A71F1B3
:101DD000020002DB0420B8630BE0B86B042808D0D3
:101DE00041F28832022806D0032804D001283AD0D4
:101DF00009E0002507E0E16E91FBF2F5012D00DA24
:101E00000125032800D0AD00534800244543109815
:101E100007948002294606F0F9F808900F982946A1
:101E20004042800206F0F2F8CDE909040BAA3146DF
:101E300007A806F087F932460BA9104606F004F908
:101E400031460846FFF759FD42486946483806F0D2
:101E500045F942466946304606F074F912B0002052
:101E6000BDE8F08707E0E06E90FBF2F0012800DAB1
:101E700001204500C7E7334619463846E26EFFF7B2
:101E8000D7FBE1E770B50446008EC105D4F8200108
:101E900007D4B4F87410C90503D4C10501D40020D7
:101EA00070BDC0F30120032808D02046FFF714FFBF
:101EB0002848A16B383807F045F8F0E704F5887139
:101EC00024482EC9383880E82E00F1E7234807F06F
:101ED00057B8204810B56C21483800F06EFB1D48FB
:101EE0004FF080414838016101600162C163C16502
:101EF000002010BD1D4810B5082219A1006800F08F
:101F000067FB08B1322010BD1322BDE81040C82184
:101F1000124806F073BC10B5FFF7DBFF002805D1AF
:101F2000AFF22F00BDE8104006F08ABD10BD10B51D
:101F30000A4807F025F8AFF24300BDE8104007F06B
:101F400075B80000DB0F4940000034430024744999
:101F5000000080CE34060020A69BC400851E000829
:101F6000654D504C20352E31000000001800002037
:101F7000002803DDFE490122C1E92002002070474C
:101F800010B5B821FA4800F018FBF948F949C160CA
:101F9000F9498160F9490160F94941604FF0804198
:101FA00041664FF4FA61C167F649C0F89C10002001
:101FB00010BD2DE9F041EE4C0E4607460025216884
:101FC00000F0A0FE11D33846616800F091FE0CD3FA
:101FD0002069012813D13046E16800F093FE04D354
:101FE0003046A16800F084FE09D2606F20B9E04855
:101FF000A16D183006F058FE0120C4E91D05D4E992
:102000001E01884204DB606F012800D1E565656729
:10201000BDE8F08170B50C46054605F0C7FCD44A12
:10202000002110B9D848854202DD1161516102E0FA
:102030001069002808D1506920445061B0F5FA7F3A
:1020400002DD0120C2E9040170BDF0B58DB00D467E
:1020500014460646694606F035FB09AA314628466D
:1020600006F070F82946304606F038F80021EC46B4
:102070000DF1240E00231A46184601EB41073D18C6
:102080000EEB80065CF825507668401CC5FB0632D6
:102090000328F4DB980F40EA820044F82100491C31
:1020A0000329E7DB0DB0F0BDB1490020C1F88C0079
:1020B000704770B50446806800F05DFD014600F091
:1020C000ECFA0546606800F056FD014600F0E5FABE
:1020D0000646206800F04FFD014600F0DEFA31466A
:1020E00000F083FA294600F080FA09F04BFCBDE8C5
:1020F00070406FF00F0100F040BB70B50E46002538
:102100009B4C012130B101280CD0C4F8981044F840
:102110008C5F29E0C4F8A060C4E92965E4E92415CE
:10212000A56070BD3046D4F8A01000F0B0FA20F0E1
:102130000040D4F89C1000F0DBFD13D254F8945FFB
:1021400031466D1C2560206900F04FFA2061943CF7
:10215000312DE6DD022144F8901F8C4900F0CFFAC2
:10216000A06170BD44F8905F656070BD2DE9FF4FC0
:102170008BB000267E4C0546039604960596D4F84F
:1021800088009346374600287ED005F001FD10B147
:1021900003A805F0B1FCD4F88000A146002819DDA1
:1021A00001204C46C9F8840005F0F2FC48B103A8B0
:1021B00005F0F8FC8009B0F5C87F02D2D4F88000A1
:1021C00004E0D4F88000401BC4F88000002801DC43
:1021D000C4F8847005F02EFE002855D000240E9817
:1021E00050F8240000F0C7FC82465BF8240000F0A1
:1021F000C2FC6FF00F08414600F0BFFA514600F0F4
:102200004CFA414600F0B9FA314600F0EEF9641C90
:102210000646032CE3DB5846FFF74BFF01460690CA
:10222000304600F06CFA4FF07E58DFF864A140456C
:1022300001DD404602E0504500D9504609F040F823
:102240008346D9F88C004E4670B13168069800F08C
:102250004FFD09D27168069800F054FD04D259462A
:10226000D6F89000FFF749FF684605F04BFD40495E
:102270000C22AC31684600F0ABF918B9D6F89800DA
:1022800001286CD13A4800E0C6E09DE80E00AC3071
:1022900080E80E00009818B9019808B9029858B360
:1022A0006846FFF706FF044610F0FF4F57D0DFF8EF
:1022B000E4902046494600F0EAF9014600F0EDF9C5
:1022C00009F060FB70604946204600F08EF9014637
:1022D00000F0E3F909F056FB3060029800F04BFC87
:1022E0006FF00F0100F049FA214600F008FA0446A9
:1022F00040451FDD444620E02048306020487060A3
:10230000D6F89800012804D01B48B0601948F06046
:1023100025E0D6F89C80D6F8A8404146204600F03B
:10232000B6F9B0604146204600F05FF9C6F89870F3
:10233000F06014E0544500D95446204608F0C0FF30
:10234000D6F89C1000F0A3F9B060204608F0B8FF62
:10235000D6F89C1000F049F9C6F88C70F060DFF8F0
:102360001080F16D08F1580801BB0120002413E032
:10237000580600200000B4420000B4C200007042C1
:102380000000F0417B142E3E00401C4600004842F5
:10239000000080BF00002041F06506EB04104146BC
:1023A000183005F045FB641C042CF6DB434907AAF2
:1023B0000C460C98FFF749FE21460C9805F08EFE5E
:1023C00003A805F0EFFB00F0DFFB6FF0050100F064
:1023D000D4F92946FFF71EFE59460698FFF7E9FD96
:1023E000D6E91E01884201DA2844B067706F90B9BF
:1023F000306E28443066B0F57A7F0CDD2F493022EC
:102400003C39A1F11000376600F0B0F82B48414686
:102410001C3805F00DFB706F0FB0BDE8F08F70B584
:1024200088B0044604A805F027FBD4E93001451A1A
:10243000684605F0A3FA064604AB04F1A00269461B
:102440002846FFF793FE06F04DFC08B0304670BDFD
:1024500004224FF49671AFF2390006F0CFB9AFF213
:10246000410006F08DBD10B5FFF78AFD00280DD1A3
:10247000124800216438C0F88C100121C0F888107F
:10248000AFF23300BDE8104006F0DABA10BD10B567
:10249000AFF2750006F074FDAFF27D00BDE81040AC
:1024A00006F06EBD054901206439C1F88C0000209A
:1024B000704702486438406F70470000BC06002037
:1024C0002DE9F0410024061B254671F1000605DACE
:1024D00001240027D0EB070067EB0101161E73F102
:1024E000000605DA0027D2EB0702012567EB03039C
:1024F00000F028FC86460E4617469C46AC4204D0A7
:102500000025D0EB050E65EB010624B10020D2EBCF
:10251000000760EB030C704631463A466346BDE85F
:10252000F081202A04DB203A00FA02F100207047F3
:102530009140C2F1200320FA03F319439040704701
:10254000202A06DBCB17203A41FA02F043EAE07377
:1025500006E041FA02F3D040C2F120029140084364
:1025600019467047002800DA4042704710B5431AF8
:10257000934209D28318881803E010F8011D03F86C
:10258000011D521EF9D210BD40EA01039B0703D082
:1025900009E008C9121F08C0042AFAD203E011F8A2
:1025A000013B00F8013B521EF9D210BDD2B201E04E
:1025B00000F8012B491EFBD270470022F6E710B548
:1025C00013460A4604461946FFF7F0FF204610BDA1
:1025D00030B504460020034600E05B1C934203D262
:1025E000E05CCD5C401BF8D030BDF0B480EA010265
:1025F000D40F4200B2EB410F02D202460846114608
:102600004A0042D0C30DDDB2C1F3C752AD1A202D2E
:1026100035DAC1F3160141F4000204B15242C5F1AA
:10262000200602FA06F12A411044B3EBD05F23D012
:10263000C4B1012DA0EBC35009DCF0BC4FF0004247
:1026400002EAC352DBB200F5000000F0C5BB400057
:1026500000F1807000EBC350A0F1807040EAD170AF
:10266000490009E0490841EAC071A0EBC35000F5F8
:102670000000400800EBC350F0BC00F0A4BB614276
:10268000012202EB4101001BF6E7F0BC704781F02C
:102690000041AAE780F00040A7E780EA010210B5F8
:1026A00002F00043400022D04A001FD0010E01EB8F
:1026B0001261C0F35600C2F3560240F4000042F427
:1026C0000002A0FB022000047F39140400D0401C4B
:1026D00050EA124001D44000491EC2B20C0604EB7D
:1026E000D010401C4008802A02D003E0002010BD1A
:1026F00020F00100002900DA0020184310BD30B49A
:1027000080EA010202F0004530F0004221F0004072
:1027100013D090B1C30DD40DC2F31601C0F316004F
:10272000E41A41F4000140F400027D34914201D3E7
:10273000641C00E04900002C02DA30BC0020704725
:102740004FF400000023914201D3891A034340084B
:102750004FEA4101F7D151B1914202D14FF000410E
:1027600005E002D24FF0010101E06FF0010103EB3F
:10277000C450284430BC00F026BB420005D0C0F352
:10278000C7525242914201DC0020704700EBC15019
:1027900070472DE9FE4F804681EA0300C00F0C46CA
:1027A000009021F0004123F00045B8EB0200A94160
:1027B00005D24046214690461C460B46024623F071
:1027C0000040104347D0270DC7F30A00C3F30A5156
:1027D0000290401A019040286BDAC3F3130040F4D2
:1027E000801B0098924620B10023D2EB030A63EBD2
:1027F0000B0B01985946C0F140025046FFF791FE7D
:1028000006460D4650465946019AFFF799FE10EBD1
:1028100008006141002487EA115284EAE7731A43F1
:1028200040D0009A62B3019A012A4FEA075215DCA0
:10283000001B61EB02014FF0004202EA0752CDE9B2
:102840000042001C41F5801132462B4600F04EFB41
:1028500003B0BDE8F08F40462146F9E7001B61EB6D
:102860000201001C41F5801300185B412018A2F5FD
:10287000001747EB030140EAD570B6196D4111E02E
:102880006D084FEA360645EAC0754FEA0752001B4D
:1028900061EB0201001C41F5801149084FEA30004C
:1028A0000019514132462B4603B0BDE8F04F00F00D
:1028B0000EBB0098012240000023D0EB020263EB24
:1028C000E073009821464FEAE074B8EB000061EB3A
:1028D0000401E9E783F000435BE781F0004158E73A
:1028E0002DE9FE4F81EA030404F0004421F0004189
:1028F00000944FF0000B23F0004350EA01045ED037
:1029000052EA03045BD0C3F30A54C1F30A552C44C2
:10291000A4F2F3340194A0FB0254C1F3130141F477
:102920008011C3F3130343F4801301FB024400FB43
:10293000034E840A970A44EA815447EA8357A4FB6A
:10294000076802958D0A05FB07854FEA932C04FB67
:102950000C542705029D4FEA065847EA1637B5EB97
:1029600008056EEB070C870E920E47EA811742EAC4
:102970008312A7FB0201B6EB0B0164EB00042B0DE5
:1029800043EA0C335E1844EB1C50DA465146E7FB31
:102990000201C5F313044FEA0B3343EA14534FEA21
:1029A0000432019C43EA0603A4F10C040294009C47
:1029B000CDE900B400F09AFA03B0BDE8F08F002032
:1029C0000146F9E72DE9F04D81EA030404F0004BDC
:1029D00021F0004514464FF0000A23F0004150EA70
:1029E000050220D054EA01021DD0C5F30A57024661
:1029F000C5F31303C1F31300C1F30A5640F4801565
:102A000043F48013A7EB0608101BD64608F2FD38E6
:102A100073EB050002D308F1010801E092185B4155
:102A2000B8F1000F03DA00200146BDE8F08D002068
:102A30004FF48011064684460EE0171B73EB050722
:102A400005D3121B63EB050306434CEA010C49084E
:102A50004FEA300092185B4150EA0107EDD152EA8B
:102A6000030012D082EA040083EA0501084305D07E
:102A7000101BAB4106D20122002306E000224FF0DA
:102A8000004302E06FF0010253101AEB06004CEB1A
:102A9000085110EB0A0041EB0B01BDE8F04D00F0CE
:102AA00016BA70B521F0004303430CD0C1F30A55A8
:102AB0000024D5EB040564EB0403D617AD1AB3412B
:102AC00002DB0020014670BD201841EB025170BDB1
:102AD000002801DBC0F10040002901DBC1F1004109
:102AE000814201D80120704700207047002801DB97
:102AF000C0F10040002901DBC1F10041814201D257
:102B00000120704700207047002801DBC0F1004021
:102B1000002901DBC1F10041814201D3012070474E
:102B200000207047002801DBC0F10040002901DBD4
:102B3000C1F10041814201D101207047002070475E
:102B400030B5041E71F1000404DB4FF00044404234
:102B500064EB0101141E73F1000405DB1C464FF009
:102B60000043524263EB0403801A994101D30120D0
:102B700030BD002030BDC10F80EAE0700844CA07B4
:102B80009623002100F028B996230022114600F078
:102B900023B9F0B4CA17CB0F50405140C61841F1C9
:102BA00000054FEAC372314628004FF0960303D068
:102BB000B623F0BC00F010B930460021F9E70EB59D
:102BC000C10F80EAE0700844CA07002140F2334395
:102BD0008DE80E000A460B4600F088F903B000BDF0
:102BE00000F0004220F00040C10DC0F3160040F498
:102BF00000007F2901DA00207047962903DCC1F12B
:102C00009601C84001E096398840002AF4D040423D
:102C1000704710B500F0004420F00040C20DC0F332
:102C2000160040F400007F2A02DA0020014610BDA1
:102C30000021962A03DCC2F19602D04002E0963AC7
:102C4000FFF76FFC002CF2D00023D0EB030063EB06
:102C5000010110BD70B5C1F30A5201F00045002416
:102C6000C1F3130140F2FF3341F480119A4201DABB
:102C7000002070BD40F233439A42A2F2334203DC9B
:102C8000524200F090F800E090402C43F1D04042D6
:102C900070BD00F0004230F000400AD0C10D01F5D7
:102CA0006071C0F3160042EA0151C20840071143A7
:102CB000704700200146704701F0004330B421F016
:102CC000004150EA010206D00A0DA2F56072C1F37C
:102CD0001301002A02DC30BC00207047440F44EA94
:102CE000C104C100E01830BC00EBC25000F06BB86A
:102CF000002801DBC0F10040002901DBC1F10041E7
:102D000081427047002801DBC0F10040002901DB4F
:102D1000C1F100418842704730B50B4601460020A2
:102D20002022012409E021FA02F59D4205D303FA8D
:102D300002F5491B04FA02F52844151EA2F101020E
:102D4000F1DC30BD2DE9F05F0546002092469B4640
:102D500088460646814640241BE0284641464746B1
:102D6000224600F020F853465A46C01A914110D32B
:102D7000114618462246FFF7D4FB2D1A67EB0108CF
:102D80004F46224601200021FFF7CBFB17EB00093D
:102D90004E41201EA4F10104DFDC484631462A469C
:102DA0004346BDE8F09F202A04DB203A21FA02F0D6
:102DB0000021704721FA02F3D040C2F12002914075
:102DC0000843194670470029A8BF7047401C4900B6
:102DD00008BF20F00100704710B4B0FA80FC00FA80
:102DE0000CF050EA010404BF10BC704749B1CCF1AB
:102DF000200421FA04F411FA0CF118BF0121214337
:102E00000843A3EB0C01CB1D4FEA00614FEA1020F1
:102E100042BF002010BC704700EBC3501044002993
:102E2000A4BF10BC7047401C490008BF20F001003F
:102E300010BC7047F0B4002802DCF0BC00207047E2
:102E4000C0F3C751C0F3160040F40000CA0701D117
:102E50004000491E3F2202EB6105002211464FF45B
:102E6000000626FA01F31344D418844201D8001B4B
:102E70001A464000491C1729F3DD5100814202D255
:102E80004FF0FF3100E0002102EBC550F0BCFFF72E
:102E90009ABF10B541000CD0C0F3C751962908DC89
:102EA0007E2909DC06DB410204D000F0004040F03E
:102EB0007E5010BD002010BDC1F19604C4F1200168
:102EC00000FA01F1E040FFF77EFFA04010BD10B511
:102ED000141E73F1000408DA401C41F1000192183D
:102EE0005B411A4301D120F0010010BD2DE9F04DE6
:102EF00092469B4611B1B1FA81F202E0B0FA80F23B
:102F000020329046FFF70DFB04460F4640EA0A00C8
:102F100041EA0B0153465A46084313D0114653EA7F
:102F2000010019D0C8F140025046FFF73CFF0546AA
:102F30000E46504659464246FFF7F3FA084305D07D
:102F4000012004E020463946BDE8F08D002005430D
:102F500046EAE0762C4337430A986305E40AA0EB7F
:102F600008000022FD0A44EA47540A3002D5002036
:102F70000146E9E7010510196941DDE90845001935
:102F80006941BDE8F04DA2E7C1F30A52C1F3130154
:102F900040F2FF3341F480119A4202DA00200146E8
:102FA000704740F233439A42A2F2334202DC52426B
:102FB000FFF7F9BEFFF7B5BA30B5041E71F1000492
:102FC00004DB4FF00044404264EB0101141E73F136
:102FD000000405DB1C464FF00043524263EB040340
:102FE000994208BF904230BD064C074D06E0E068AC
:102FF00040F0010394E8070098471034AC42F6D340
:10300000FDF778F8C0C60008E0C60008FFE7FEE755
:1030100080B588B000208DF81A0003A806F028FAC1
:103020000790079838B1FFE7FFE7FFE741F28830E4
:1030300000F014F9FFE704F02FFF0790079838B16C
:10304000FFE7FFE7FFE741F2883000F007F9FFE70D
:10305000FEF761FFFEF729F8FDF72CFDFEF7B3FA46
:1030600004F080FB05F042FF07900798322808D152
:10307000FFE7FFE7FFE7FFE74FF47A7000F0EEF8B5
:10308000F8E7079838B1FFE7FFE7FFE74FF47A70FA
:1030900000F0E4F8FFE7782007F094F9079007982C
:1030A00038B1FFE7FFE7FFE74FF47A7000F0D6F89A
:1030B000FFE7782006F04AF80790079838B1FFE755
:1030C000FFE7FFE74FF47A7000F0C8F8FFE714203D
:1030D00007F0FAF80790079838B1FFE7FFE7FFE736
:1030E0004FF47A7000F0BAF8FFE706A806F0A4F9EA
:1030F0000DF1160006F010F90DF11B0006F090F826
:10310000BDF8181044F24020C0F20F000190B0FB4F
:10311000F1F005F061FE0198BDF81810B0FBF1F078
:1031200005F090FD40F20C00C2F20000029004F0A5
:1031300039FFBDF81610C90305F040FE029804F0EF
:1031400031FF9DF81B10C90305F06CFD40F6E0014E
:10315000C2F200010320487000208870886181F865
:103160002100C8604861086104A804F003F903F075
:103170005FFA0790079838B1FFE7FFE7FFE74FF4E2
:103180007A7000F06BF8FFE740F20C00C2F200002A
:1031900004F008FF03F0C4FA0790079838B1FFE77E
:1031A000FFE7FFE74FF47A7000F058F8FFE74AF2C4
:1031B000C170C0F6000003F055FA46F24D20C0F68B
:1031C000000003F043FA40F6E000C2F2000040F2D3
:1031D00073118183808B03F07BF80790079838B1D7
:1031E000FFE7FFE7FFE74FF47A7000F037F8FFE7FB
:1031F000142003F043FA0790079838B1FFE7FFE780
:10320000FFE74FF47A7000F029F8FFE7012006F09D
:10321000BDFE0790079838B1FFE7FFE7FFE74FF4DF
:103220007A7000F01BF8FFE740F6E001C2F20001FF
:103230000120887007F0D4F908B080BD7047000005
:1032400080B5022000F00AF980BD000081B0EFF3E4
:10325000108072B60090FFE7FEE7000080B584B0F2
:10326000039000F0A7FA02900398019001980130B2
:1032700048B1FFE740F24800C2F20000017801982F
:1032800008440190FFE7FFE700F094FA0299401A22
:103290000199884201D2FFE7F6E704B080BD000043
:1032A0008DB00C900B9100200A90FFE70B980A99C3
:1032B000C840002800F0C180FFE70B980A9A01215E
:1032C0009140084009900998002800F0B280FFE77B
:1032D0000A9820F003000821C4F201014058089028
:1032E0000A9800F0030081000F2000FA01F108980D
:1032F00008400890089805900C9840F60001C4F228
:103300000101884203D1FFE70020049026E00C98D9
:1033100040F60041C4F20101884203D1FFE70120D9
:10332000039018E00C9841F20001C4F201018842B8
:1033300003D1FFE7022002900AE00C9941F200421B
:10334000C4F201020420914208BF03200290FFE76B
:1033500002980390FFE703980490FFE7059804990B
:103360000A9A02F0030292009140884232D1FFE7AC
:103370000A9800F0030081000F2088400890089B05
:103380000A9820F003010822C4F2010288589843E9
:103390008850099A40F20041C4F201010868904344
:1033A0000860099A40F20441C4F2010108689043A0
:1033B0000860099A40F20841C4F20101086890438C
:1033C0000860099A40F20C41C4F201010868904378
:1033D0000860FFE70998FF2803D8FFE70C980190E1
:1033E00003E00C9804300190FFE7019807900998DA
:1033F000FF2804D8FFE70A988000009006E00A99A9
:103400006FF01F0000EB81000090FFE7009806902E
:1034100007980068069A0F21914088430421914043
:10342000084307990860099A0C99C8689043C860D6
:10343000FFE70A9801300A9038E70DB070470000A6
:1034400080B582B0ADF80600BDF80600022803D1B1
:10345000FFE703F099FFFFE702B080BD80B582B0BF
:10346000ADF8060040F21440C4F201000068BDF857
:10347000061008420CD0FFE7BDF8060040F21441E8
:10348000C4F201010860BDF80600FFF7D9FFFFE7AD
:1034900002B080BD90B00F900E9100200D90099069
:1034A000FFE70E9800680D99C840002800F07F8162
:1034B000FFE70D99012088400C900E9800680C9948
:1034C00008400B900B980C99884240F06C81FFE704
:1034D0000E9840680590002851D0FFE70598012814
:1034E0003AD0FFE7059802283FD0FFE70598032868
:1034F0005FD0FFE70598112832D0FFE70598122822
:1035000038D0FFE705980021C1F21101884236D07A
:10351000FFE705980021C1F2120188422FD0FFE792
:1035200005980021C1F22101884228D0FFE70598C3
:103530000021C1F22201884221D0FFE70598002135
:10354000C1F2310188421AD0FFE705980021C1F28B
:103550003201884213D02FE00E98C06809902CE009
:103560000E98C0680430099027E00E98C0680830B3
:10357000099022E00E98C0680C3009901DE00E986A
:10358000806818B9FFE70420099011E00E98806860
:10359000012806D1FFE7082009900C980F990861CF
:1035A00005E0082009900C980F994861FFE7FFE7B4
:1035B00003E00020099000E0FFE70B98FF2803D804
:1035C000FFE70F98049003E00F9804300490FFE7A2
:1035D000049808900B98FF2804D8FFE70D98800006
:1035E000039006E00D996FF01F0000EB810003903F
:1035F000FFE70398079008980068079A0F21914009
:103600008843099991400843089908600E98C07949
:10361000C006002840F1C680FFE7FFE741F218002E
:10362000C4F20200016841F001010160006800F08D
:10363000010006900698FFE70D9820F0030008218E
:10364000C4F2010140580A900D9800F00300810077
:103650000F2000FA01F10A9888430A900F9840F66B
:103660000001C4F20101884203D1FFE7002002906B
:1036700026E00F9840F60041C4F20101884203D1D0
:10368000FFE70120019018E00F9841F20001C4F219
:103690000101884203D1FFE7022000900AE00F9960
:1036A00041F20042C4F201020420914208BF03200B
:1036B0000090FFE700980190FFE701980290FFE774
:1036C00002980D9901F00301890000FA01F10A98AE
:1036D00008430A900A980D9921F003010822C4F2C8
:1036E000010288500E988079C00748B1FFE70B9A15
:1036F00040F20041C4F2010108681043086008E08C
:103700000B9A40F20041C4F201010868904308603E
:10371000FFE70E9880798007002809D5FFE70B9A0C
:1037200040F20441C4F2010108681043086008E057
:103730000B9A40F20441C4F201010868904308600A
:10374000FFE70E988079C006002809D5FFE70B9A9D
:1037500040F20841C4F2010108681043086008E023
:103760000B9A40F20841C4F20101086890430860D6
:10377000FFE70E9880798006002809D5FFE70B9AAD
:1037800040F20C41C4F2010108681043086008E0EF
:103790000B9A40F20C41C4F20101086890430860A2
:1037A000FFE7FFE7FFE70D9801300D9079E610B0D5
:1037B0007047000040F6A850C2F200000068704751
:1037C00080B582B00090009820B9FFE701208DF805
:1037D000070021E00099242081F83D00009801684D
:1037E000086820F001000860009800F025FE0099AC
:1037F00000200864009981F83D0000990863009951
:1038000081F83E00FFE70099002081F83C00FFE7C7
:1038100000208DF80700FFE79DF8070002B080BD8B
:1038200081B00090009890F83D0001B07047000012
:1038300080B58EB00C900C9820B9FFE701208DF870
:10384000370043E10C9890F83D0040B9FFE70C9930
:10385000002081F83C000C9800F032FEFFE70C9944
:10386000242081F83D000C980168086820F00100D0
:1038700008600C980168086840F4004008600C98E3
:103880000168086820F40040086001F079F80A90A7
:103890000C98406848F2A061C0F2010188420BD840
:1038A000FFE70A9948F28042C0F21E0200209142CE
:1038B00038BF012009900AE00A9940F60012C0F2D0
:1038C0003D020020914238BF01200990FFE709988E
:1038D000012804D1FFE701208DF83700F6E00A98AF
:1038E0004DF68361C4F21B31A0FB0110800C0B90DC
:1038F0000C980068406820F03F000B9908430C9931
:10390000096848600C980068006A20F03F00089041
:103910000C98406848F2A061C0F20101884204D8C6
:10392000FFE70B98013007900EE00B984FF496716B
:10393000484344F6D351C1F26201A0FB01010120CA
:1039400000EB91100790FFE70898079908430C993E
:10395000096808620C980068C0694CF6FF718843DA
:1039600006900C98406848F2A061C0F201018842BC
:103970001FD8FFE70A9801380C9949684900B0FB45
:10398000F1F001306FF31F30032803D8FFE7042064
:1039900005900BE00A9801380C9949684900B0FB82
:1039A000F1F001306FF31F300590FFE705980490A8
:1039B0004CE00C98806868B9FFE70A9801380C99C8
:1039C000496801EB4101B0FBF1F001306FF31F30AA
:1039D00003900DE00A9801380C9949681922514367
:1039E000B0FBF1F00130042161F31F300390FFE7D9
:1039F0000398000518B9FFE70120029023E00C9816
:103A0000806868B9FFE70A9801380C99496801EBAA
:103A10004101B0FBF1F001306FF31F3001900DE078
:103A20000A9801380C99496819225143B0FBF1F00A
:103A30000130042161F31F300190FFE7019840F449
:103A400000400290FFE702980490FFE7069804996F
:103A500008430C990968C8610C980068006820F058
:103A6000C0000C9B1968DA691B6A1A43104308608E
:103A70000C980068806848F2FF3188430C9A1168FE
:103A8000D36812691A43104388600C980068C068B4
:103A900020F0FF000C9B19685A699B691A43104378
:103AA000C8600C980168086840F0010008600C9933
:103AB000002008640C9A202182F83D100C990863BC
:103AC0000C9981F83E008DF83700FFE79DF837002C
:103AD0000EB080BD80B58CB00A90ADF8261008926B
:103AE0000793FFF767FE0690012005900A9890F86B
:103AF0003D00202840F02B81FFE70A9806996A468E
:103B000011600221C0F210010122192301F0BCFD55
:103B100020B1FFE702208DF82F001CE1FFE70A9893
:103B200090F83C00012804D1FFE702208DF82F0017
:103B300011E10A99012081F83C00FFE7FFE70A98AC
:103B400000680068C00738B9FFE70A98016808688C
:103B500040F001000860FFE70A980168086820F457
:103B6000006008600A99242081F83D000A9900202D
:103B700008640A990020CFF6FF70C862FFE70A9830
:103B80000168086840F4807008600A98079B0699ED
:103B90006A4611604FF00111002201F075FD80B1FD
:103BA000FFE70A9800680068C005002805D5FFE710
:103BB0000A994FF400700864FFE703208DF82F0086
:103BC000C9E0BDF8260000F0FE000A990968086106
:103BD000FFF7F0FD06900A9800684069C0F34000C6
:103BE0008DF813000A9800684069C0F380208DF8B2
:103BF0001200FFE70A9890F83D100020A0290290DB
:103C00000DD0FFE79DF813100020029039B9FFE7AF
:103C10009DF81200B0FA80F040090290FFE7029888
:103C2000C007F8B1FFE7FFF7C5FD0699401A0799ED
:103C3000884203D8FFE7079828B9FFE70A99A02030
:103C400081F83D00FFE70A9800684069C0F3400032
:103C50008DF813000A9800684069C0F380208DF841
:103C60001200C7E70A99202081F83D000A980068F1
:103C7000406900F002010120B0EB510F32D1FFE7A3
:103C80000A980168086840F400700860FFE70020A7
:103C900003900A980068406903900A980068806958
:103CA00003900398FFE70A9806996A46116002217B
:103CB000C0F210010122192301F0E6FC20B1FFE758
:103CC00001208DF82F0046E00A99202081F83D0060
:103CD000FFE70A99002081F83C00FFE700208DF8FB
:103CE0002F0038E00A980168086840F40070086006
:103CF0000A9801686FF4806048610A9806996A46DC
:103D000011600221C0F210010122192301F0BCFC54
:103D100020B1FFE701208DF82F001CE0FFE7059898
:103D200001300590FFE7059808998842FFF427AF16
:103D3000FFE70A99202081F83D00FFE70A9900205B
:103D400081F83C00FFE701208DF82F0003E00220FE
:103D50008DF82F00FFE79DF82F000CB080BD00000C
:103D600010B590B0844614981398DDF848E0CDF86B
:103D700028C0ADF82610ADF82420ADF82230ADF8FB
:103D8000200000200790FFF715FD06900A9890F894
:103D90003D00202840F03F82FFE70A9806996A46D6
:103DA00011600221C0F210010122192301F06CFC04
:103DB00020B1FFE702208DF82F0030E2FFE70A98DC
:103DC00090F83C00012804D1FFE702208DF82F0075
:103DD00025E20A99012081F83C00FFE7FFE70A98F5
:103DE00000680068C00738B9FFE70A9801680868EA
:103DF00040F001000860FFE70A980168086820F4B5
:103E0000006008600A99222081F83D000A9940204C
:103E100081F83E000A990020086412980A994862C5
:103E2000BDF820000A9948850A98408D0A990885AE
:103E30000A990020CFF6FF70C8620A98BDF82610D4
:103E4000BDF82420BDF82230DDF850C0069CEE46B7
:103E5000CEF80440CEF800C001F03AFA20B1FFE7F6
:103E600001208DF82F00DAE10A98008DA0B9FFE754
:103E7000FFE7002005900A980068406905900A98BD
:103E80000068806905900598FFE70A98016808684E
:103E900040F4007008605DE00A98008D01281FD191
:103EA000FFE70A980168086820F480600860EFF373
:103EB000108072B60F90FFE7002004900A98006807
:103EC000406904900A980068806904900498FFE7AC
:103ED0000A980168086840F40070086062B638E02B
:103EE0000A98008D02281FD1FFE70A980168086828
:103EF00040F400600860EFF3108072B60E90FFE7A8
:103F0000002003900A980068406903900A980068AE
:103F1000806903900398FFE70A980168086820F415
:103F20008060086062B613E00A980168086840F48F
:103F300080600860FFE7002002900A9800684069EE
:103F400002900A980068806902900298FFE7FFE7F4
:103F5000FFE7FFE7FFE70A98008D002800F049819E
:103F6000FFE70A98008D032800F20781FFE70A980F
:103F7000008D01281ED1FFE70A981499069A01F0D6
:103F80006BFC20B1FFE701208DF82F0047E10A9874
:103F9000006800690A99496A08700A99486A0130FC
:103FA00048620A99088D013808850A99488D0138B8
:103FB0004885E1E00A98008D022841D1FFE70A9880
:103FC000149B06996A4611600421C0F20101002287
:103FD00001F05AFB20B1FFE701208DF82F001EE110
:103FE000EFF3108072B60D900A980168086840F4EB
:103FF000007008600A98006800690A99496A0870A8
:104000000A99486A013048620A99088D0138088582
:104010000A99488D0138488562B60A980068006997
:104020000A99496A08700A99486A013048620A99EF
:10403000088D013808850A99488D013848859AE02D
:104040000A98149B06996A4611600421C0F2010186
:10405000002201F019FB20B1FFE701208DF82F00AD
:10406000DDE00A980168086820F480600860EFF3DA
:10407000108072B60C900A98006800690A99496A23
:1040800008700A99486A013048620A99088D013817
:1040900008850A99488D0138488540F20800C2F227
:1040A0000000006848F21F51C5F2EB11A0FB01109F
:1040B000C00844F6D351C1F26201A0FB011080098F
:1040C000232148430790FFE7079801380790079896
:1040D000D0B9FFE70A99002008630A9A202182F8E4
:1040E0003D100A9981F83E000A99086C40F02000C2
:1040F000086462B6FFE70A99002081F83C00FFE7F8
:1041000001208DF82F008AE0FFE70A9800684069D7
:1041100000F004010020B0EB910FD5D0FFE70A9822
:104120000168086840F4007008600A980068006937
:104130000A99496A08700A99486A013048620A99DE
:10414000088D013808850A99488D0138488562B67E
:104150000A98006800690A99496A08700A99486AC9
:10416000013048620A99088D013808850A99488DFE
:1041700001384885FFE7FFE73AE00A981499069A64
:1041800001F06AFB20B1FFE701208DF82F0046E027
:104190000A98006800690A99496A08700A99486A89
:1041A000013048620A99088D013808850A99488DBE
:1041B000013848850A980068406900F00401012030
:1041C000B0EB910F13D1FFE70A98006800690A99D4
:1041D000496A08700A99486A013048620A99088D4C
:1041E000013808850A99488D01384885FFE7FFE7BF
:1041F000B1E60A99202081F83D000A99002081F853
:104200003E00FFE70A99002081F83C00FFE700200C
:104210008DF82F0003E002208DF82F00FFE79DF8B6
:104220002F0010B010BD000010B588B084460C9867
:104230000B98DDF828E0CDF818C0ADF81610ADF8F1
:104240001420ADF81230ADF81000FFF7B3FA039068
:10425000069890F83D00202840F0E680FFE7069899
:1042600003996A4611600221C0F21001012219234C
:1042700001F00AFA20B1FFE702208DF81F00D7E015
:10428000FFE7069890F83C00012804D1FFE70220E0
:104290008DF81F00CCE00699012081F83C00FFE773
:1042A000FFE7069800680068C00738B9FFE706987E
:1042B0000168086840F001000860FFE7069801689F
:1042C000086820F4006008600699212081F83D000C
:1042D0000699402081F83E000699002008640A985B
:1042E00006994862BDF81000069948850698408DE9
:1042F0000699088506990020CFF6FF70C8620698D7
:10430000BDF81610BDF81420BDF81230DDF830C02D
:10431000039CEE46CEF80440CEF800C001F0CAF887
:1043200020B1FFE701208DF81F0081E0FFE706982C
:10433000008D002849D0FFE706980C99039A01F0F8
:10434000EFFA80B1FFE70698006C042807D1FFE779
:1043500006980168086840F400700860FFE70120D3
:104360008DF81F0064E006980168406A00780861D3
:104370000699486A013048620699088D0138088517
:104380000699488D0138488506980068406900F014
:1043900004010120B0EB910F16D1FFE70698008DC4
:1043A00090B1FFE706980168406A007808610699B5
:1043B000486A013048620699088D013808850699D7
:1043C000488D01384885FFE7B1E706980C99039AB4
:1043D00001F00EF980B1FFE70698006C042807D1C0
:1043E000FFE706980168086840F400700860FFE77E
:1043F00001208DF81F001BE006980168086840F452
:10440000007008600699202081F83D000699002080
:1044100081F83E00FFE70699002081F83C00FFE7A5
:1044200000208DF81F0003E002208DF81F00FFE739
:104430009DF81F0008B010BD80B584B003900398AC
:10444000006845F20041C4F20001884215D1FFE73F
:1044500041F21C01C4F20201086820F40010086057
:1044600040F60040C4F2010002904021FEF718FF20
:1044700002988021FEF714FF20E00398006845F6BB
:104480000001C4F20001884217D1FFE741F21C018C
:10449000C4F20201086820F48000086040F6004081
:1044A000C4F2010001904FF48061FEF7F9FE01981B
:1044B0004FF40061FEF7F4FEFFE7FFE704B080BDB4
:1044C00080B58AB00990002008900790069005906A
:1044D0000998006845F20041C4F2000188422CD1DD
:1044E000FFE7FFE741F21800C4F20200016841F063
:1044F00008010160006800F0080004900498FFE7DC
:10450000C0200590122006900320089040F600403D
:10451000C4F2010005A9FEF7BDFFFFE741F21C0050
:10452000C4F20200016841F400110160006800F467
:10453000001003900398FFE736E00998006845F6FD
:104540000001C4F2000188422DD1FFE7FFE741F2EC
:104550001800C4F20200016841F00801016000681F
:1045600000F0080002900298FFE74FF440600590C9
:10457000122006900320089040F60040C4F201008B
:1045800005A9FEF787FFFFE741F21C00C4F2020015
:10459000016841F480010160006800F4800001902E
:1045A0000198FFE7FFE7FFE70AB080BD40F248004F
:1045B000C2F20000027840F6A851C2F20001086879
:1045C000104408607047000080B542F20001C4F258
:1045D0000201086840F010000860032000F096F81F
:1045E0000F2000F005F800F03BF8002080BD00002F
:1045F00080B582B0009040F20800C2F2000000686E
:1046000040F24801C2F200010A784FF47A71B1FB1E
:10461000F2F1B0FBF1F000F087FD20B1FFE70120DF
:104620008DF8070018E000980F280DD8FFE70099D3
:104630004FF0FF30002200F04FF8009840F24C019C
:10464000C2F20001086003E001208DF8070003E0DA
:1046500000208DF80700FFE79DF8070002B080BD3D
:1046600083B0FFE741F21800C4F20200016841F094
:1046700001010160006800F0010002900298FFE76C
:10468000FFE741F21C00C4F20200016841F08051D2
:104690000160006800F0805001900198FFE7FFE79B
:1046A0000421C4F2010108680090009820F0E06045
:1046B0000090009840F00070009000980860FFE7BC
:1046C00003B0704780B582B08DF807009DF90700F0
:1046D00001F0D6FC02B080BD80B586B08DF8170021
:1046E000049103920020029001F0E2FC02909DF9F7
:1046F0001700019002980499039A01F0EBFA014621
:10470000019801F0DDFC06B080BD000080B582B0EC
:104710000190019801F0F6FC02B080BD80B584B034
:1047200002900191029820B9FFE701208DF80F0057
:104730001BE1019842F20001C4F20201096801F094
:104740000701884216D9FFE742F20000C4F20200D6
:10475000016821F00701019A11430160006800F02F
:1047600007000199884204D0FFE701208DF80F006F
:10477000FBE0FFE702980078800700282AD5FFE7D2
:10478000029800784007002809D5FFE741F20401AC
:10479000C4F20201086840F4E0600860FFE7029894
:1047A00000780007002809D5FFE741F20401C4F2B0
:1047B0000201086840F460500860FFE741F204011C
:1047C000C4F20201086820F0F000029A92681043D7
:1047D0000860FFE702980078C007002860D0FFE774
:1047E0000298406801280ED1FFE741F20000C4F2B0
:1047F000020000688003002804D4FFE701208DF840
:104800000F00B2E021E00298406802280ED1FFE7D5
:1048100041F20000C4F2020000688001002804D4C4
:10482000FFE701208DF80F009FE00DE041F200004E
:10483000C4F2020000688007002804D4FFE70120CA
:104840008DF80F0091E0FFE7FFE741F20401C4F2A9
:104850000201086820F00300029A526810430860C1
:10486000FEF7A8FF0090FFE741F20400C4F2020047
:10487000006800F00C0002994968B0EB810F0ED07F
:10488000FFE7FEF797FF0099401A41F2893188420D
:1048900004D3FFE703208DF80F0066E0E4E7FFE7AD
:1048A000019842F20001C4F20201096801F0070117
:1048B000884216D2FFE742F20000C4F2020001680B
:1048C00021F00701019A11430160006800F0070020
:1048D0000199884204D0FFE701208DF80F0044E0E1
:1048E000FFE702980078400700280CD5FFE741F267
:1048F0000401C4F20201086820F4E060029AD26860
:1049000010430860FFE702980078000700280DD5E3
:10491000FFE741F20401C4F20201086820F460508C
:10492000029A126940EAC2000860FFE700F04CF802
:1049300041F20401C4F202010968C9B20A094BF646
:10494000D011C0F60001895CC84040F20801C2F2F3
:104950000001086040F24C00C2F200000068FFF75E
:1049600047FE00208DF80F00FFE79DF80F0004B010
:1049700080BD000040F20800C2F2000000687047ED
:1049800080B5FFF7F7FF41F20401C4F202010968A4
:10499000C1F302224BF6E011C0F60001895CC84069
:1049A00080BD000080B5FFF7E5FF41F20401C4F2CD
:1049B00002010968C1F3C2224BF6E011C0F6000102
:1049C000895CC84080BD00008BB040F60E70C1F21B
:1049D00010000A9040F60A30C0F60C50099040F2E0
:1049E0000670C0F60810089040F20230C0F2045081
:1049F000079040F20120ADF81A00002005900490C5
:104A000003900290019041F20400C4F20200006899
:104A10000590059800F00C0001460091E0B3FFE717
:104A20000098042804D0FFE70098082806D034E056
:104A300041F20020C0F27A00019034E00598C0F302
:104A4000834107A8405C02909DF81600C007C0B1E2
:104A5000FFE741F20400C4F20200006800F40031F4
:104A60000DF11A0040EA514000780490029841F29A
:104A70000021C0F27A0148430499B0FBF1F00390A1
:104A800007E0029840F60011C0F23D014843039050
:104A9000FFE70398019006E0FFE741F20020C0F233
:104AA0007A000190FFE701980BB0704780B586B09F
:104AB0000490049820B9FFE701208DF817002EE339
:104AC00004980078C007002800F0AE80FFE741F2AC
:104AD0000400C4F20200006800F00C00042813D0A7
:104AE000FFE741F20400C4F20200006800F00C008D
:104AF00008281BD1FFE741F20400C4F2020000685D
:104B0000C003002812D5FFE741F20000C4F2020002
:104B100000688003002808D5FFE70498406820B9A2
:104B2000FFE701208DF81700F9E27CE0FFE7049829
:104B30004068B0F5803F09D1FFE741F20001C4F2BF
:104B40000201086840F48030086032E00498406850
:104B500068B9FFE741F20001C4F20201086820F4DD
:104B600080300860086820F48020086020E0049805
:104B70004068B0F5A02F0DD1FFE741F20001C4F26B
:104B80000201086840F480200860086840F4803022
:104B900008600CE041F20001C4F20201086820F450
:104BA00080300860086820F480200860FFE7FFE795
:104BB000FFE7FFE704984068D0B1FFE7FEF7FAFD92
:104BC0000390FFE741F20000C4F202000068800396
:104BD00000280CD4FFE7FEF7EDFD0399401A652885
:104BE00004D3FFE703208DF8170098E2EAE719E005
:104BF000FEF7E0FD0390FFE741F20000C4F202007F
:104C00000068800300280CD5FFE7FEF7D3FD039969
:104C1000401A652804D3FFE703208DF817007EE2D1
:104C2000EAE7FFE7FFE7FFE704980078800700283E
:104C300040F18D80FFE741F20400C4F202000068F9
:104C400010F00C0F13D0FFE741F20400C4F2020091
:104C5000006800F00C00082829D1FFE741F20400A9
:104C6000C4F202000068C003002820D4FFE741F22C
:104C70000000C4F2020000688007002809D5FFE7A1
:104C800004980069012804D0FFE701208DF817007F
:104C900045E241F20001C4F20201086820F0F80088
:104CA000049A526940EAC2000860FFE74EE00498A7
:104CB000006958B3FFE70021C4F2422101200860D7
:104CC000FEF778FD0390FFE741F20000C4F2020016
:104CD0000068800700280CD4FFE7FEF76BFD0399FE
:104CE000401A032804D3FFE703208DF8170016E2CB
:104CF000EAE741F20001C4F20201086820F0F8007E
:104D0000049A526940EAC20008601EE00021C4F221
:104D1000422100200860FEF74DFD0390FFE741F2BD
:104D20000000C4F202000068800700280CD5FFE7ED
:104D3000FEF740FD0399401A032804D3FFE7032040
:104D40008DF81700EBE1EAE7FFE7FFE7FFE70498DC
:104D500000780007002848D5FFE70498806918B359
:104D6000FFE740F28041C4F2422101200860FEF7D3
:104D700021FD0390FFE741F22400C4F20200006825
:104D8000800700280CD4FFE7FEF714FD0399401AB2
:104D9000032804D3FFE703208DF81700BFE1EAE7FB
:104DA000012000F0CFFF1FE040F28041C4F2422119
:104DB00000200860FEF7FEFC0390FFE741F22400AC
:104DC000C4F202000068800700280CD5FFE7FEF758
:104DD000F1FC0399401A032804D3FFE703208DF860
:104DE00017009CE1EAE7FFE7FFE704980078400737
:104DF000002840F1D880FFE700208DF8070041F23D
:104E00001C00C4F202000068C000002813D4FFE7B1
:104E1000FFE741F21C00C4F20200016841F080513A
:104E20000160006800F0805000900098FFE70120CA
:104E30008DF80700FFE747F20000C4F200000068A9
:104E4000C005002822D4FFE747F20001C4F20001A8
:104E5000086840F480700860FEF7ACFC0390FFE740
:104E600047F20000C4F200000068C00500280CD41E
:104E7000FFE7FEF79FFC0399401A652804D3FFE77C
:104E800003208DF817004AE1EAE7FFE7FFE70498FF
:104E9000C068012809D1FFE741F22001C4F20201F4
:104EA000086840F00100086031E00498C06868B903
:104EB000FFE741F22001C4F20201086820F001007E
:104EC0000860086820F0040008601FE00498C068CB
:104ED00005280DD1FFE741F22001C4F20201086864
:104EE00040F004000860086840F0010008600CE031
:104EF00041F22001C4F20201086820F001000860BC
:104F0000086820F004000860FFE7FFE7FFE7FFE71D
:104F10000498C068E0B1FFE7FEF74CFC0390FFE7A0
:104F200041F22000C4F202000068800700280ED47D
:104F3000FFE7FEF73FFC0399401A41F289318842AE
:104F400004D3FFE703208DF81700E8E0E8E71BE053
:104F5000FEF730FC0390FFE741F22000C4F20200AC
:104F60000068800700280ED5FFE7FEF723FC0399B1
:104F7000401A41F28931884204D3FFE703208DF8BB
:104F80001700CCE0E8E7FFE79DF80700012809D10A
:104F9000FFE741F21C01C4F20201086820F08050D2
:104FA0000860FFE7FFE70498C069002800F0B380BD
:104FB000FFE741F20400C4F20200006800F00C00B8
:104FC000082800F08280FFE70498C06902285CD1BD
:104FD000FFE76021C4F2422100200860FEF7EAFBEF
:104FE0000390FFE741F20000C4F202000068800174
:104FF00000280CD5FFE7FEF7DDFB0399401A0328D4
:1050000004D3FFE703208DF8170088E0EAE704984F
:10501000006AB0F5803F0CD1FFE741F20401C4F211
:105020000201086820F40030049A92681043086076
:10503000FFE741F20401C4F20201086820F4741091
:10504000049B1A6A5B6A1A43104308606021C4F229
:10505000422101200860FEF7ADFB0390FFE741F21B
:105060000000C4F202000068800100280CD4FFE7B1
:10507000FEF7A0FB0399401A032804D3FFE703209F
:105080008DF817004BE0EAE71EE06021C4F24221F0
:1050900000200860FEF78EFB0390FFE741F200005E
:1050A000C4F202000068800100280CD5FFE7FEF77B
:1050B00081FB0399401A032804D3FFE703208DF8EE
:1050C00017002CE0EAE7FFE724E00498C069012814
:1050D00004D1FFE701208DF8170020E041F2040021
:1050E000C4F2020000680290029800F48030049933
:1050F000096A884208D1FFE7029800F47010049909
:10510000496A884204D0FFE701208DF8170006E0C5
:10511000FFE7FFE7FFE700208DF81700FFE79DF8A6
:10512000170006B080BD000080B582B001900198E4
:1051300000F0E0FE02B080BD80B582B00090009823
:1051400020B9FFE701208DF807003EE00098806954
:1051500008B1FFE700E0FFE7009890F83D0040B994
:10516000FFE70099002081F83C00009800F032F839
:10517000FFE70099242081F83D0000980168C86885
:1051800020F40050C860009800F01AFF00980168F1
:10519000086920F49040086100980168486920F08F
:1051A0002A00486100980168C86840F40050C8604F
:1051B000009900200864009A202182F83D10009A8E
:1051C00082F83E108DF80700FFE79DF8070002B057
:1051D00080BD000080B58AB009900020089007903B
:1051E000069005900998006844F20041C4F200015D
:1051F000884237D1FFE7FFE741F21C00C4F202000A
:10520000016841F400310160006800F4003004904E
:105210000498FFE7FFE741F21800C4F202000168BA
:1052200041F004010160006800F00400039003985D
:10523000FFE704200590022006900320089040F626
:105240000000C4F20100019005A90291FEF722F9C5
:105250000198029908220592002206920792FEF711
:1052600019F9FFE70AB080BDFFE7FEE782B00090C2
:1052700000980068406900F480610120B0EB912F34
:105280001ED1FFE7009801686FF4806048610099C3
:1052900000200863009A202182F83D10009981F8CF
:1052A0003E000099086C40F004000864FFE7009994
:1052B000002081F83C00FFE701208DF8070003E0A3
:1052C00000208DF80700FFE79DF8070002B0704747
:1052D00080B586B0DDF824C0DDF820C00490ADF8BC
:1052E0000E10ADF80C20ADF80A300498016808687B
:1052F00040F48060086004980168086840F4807099
:1053000008600498089B09996A4611604FF00111E2
:10531000002200F0B9F980B1FFE704980068006846
:10532000C005002805D5FFE704994FF40070086414
:10533000FFE703208DF81700B7E0BDF80E0000F07E
:10534000FE000499096808610498089A099B0221E3
:10535000C0F2010100F0F8F920B1FFE701208DF85B
:105360001700A2E0FFE70020019004980068406960
:10537000019004980068806901900198FFE7049803
:105380000899099A00F0CCFA80B1FFE70498006C04
:10539000042807D1FFE704980168086840F400700A
:1053A0000860FFE701208DF817007EE0BDF80A00D5
:1053B000012806D1FFE79DF80C00049909680861EF
:1053C00021E09DF80D000499096808610498089986
:1053D000099A00F0A5FA80B1FFE70498006C042850
:1053E00007D1FFE704980168086840F4007008607E
:1053F000FFE701208DF8170057E09DF80C00049995
:1054000009680861FFE704980899099A00F088FA8A
:1054100080B1FFE70498006C042807D1FFE70498E7
:105420000168086840F400700860FFE701208DF80B
:1054300017003AE004980168086840F4807008603A
:105440000498089B09996A4611604FF001110022E7
:1054500000F01AF980B1FFE7049800680068C00501
:10546000002805D5FFE704994FF400700864FFE7B2
:1054700003208DF8170018E09DF80E0040F00100A1
:105480000499096808610498089A099B0221C0F2EE
:10549000010100F059F920B1FFE701208DF8170054
:1054A00003E000208DF81700FFE79DF8170006B015
:1054B00080BD000080B586B0DDF824C0DDF820C0D6
:1054C0000490ADF80E10ADF80C20ADF80A30049839
:1054D0000168086840F4807008600498089B099986
:1054E0006A4611604FF00111002200F0CDF880B142
:1054F000FFE7049800680068C005002805D5FFE7AD
:1055000004994FF400700864FFE703208DF817003A
:1055100069E0BDF80E0000F0FE000499096808611A
:105520000498089A099B0221C0F2010100F00CF9CD
:1055300020B1FFE701208DF8170054E0FFE70020BD
:10554000019004980068406901900498006880699F
:1055500001900198FFE704980899099A00F0E0F992
:1055600080B1FFE70498006C042807D1FFE7049896
:105570000168086840F400700860FFE701208DF8BA
:10558000170030E0BDF80A00012806D1FFE79DF8BA
:105590000C0004990968086121E09DF80D00049948
:1055A0000968086104980899099A00F0B9F980B16E
:1055B000FFE70498006C042807D1FFE7049801680E
:1055C000086840F400700860FFE701208DF81700BC
:1055D00009E09DF80C00049909680861FFE70020C4
:1055E0008DF81700FFE79DF8170006B080BD00009A
:1055F00080B584B0029001910092FFE702980068A4
:10560000406900F004010020B0EB910F33D1FFE7B7
:105610000298FFF72BFE20B1FFE701208DF80F0065
:105620002DE00198013028B3FFE7FEF7C3F8009999
:10563000401A0199884203D8FFE70198C8B9FFE7EB
:10564000029900200863029A202182F83D100299F5
:1056500081F83E000299086C40F020000864FFE7E2
:105660000299002081F83C00FFE701208DF80F002F
:1056700005E0FFE7C2E700208DF80F00FFE79DF887
:105680000F0004B080BD000080B586B0DDF820C0FA
:10569000049003918DF80B200193FFE79DF80E0015
:1056A00001280CD1FFE7049800684069BDF80C1090
:1056B0000840401AB0FA80F0400900900BE00498CE
:1056C00000688069BDF80C100840401AB0FA80F0FC
:1056D00040090090FFE700989DF80B1088422AD1FE
:1056E000FFE70198013028B3FFE7FEF763F8089958
:1056F000401A0199884203D8FFE70198C8B9FFE72B
:10570000049900200863049A202182F83D1004992E
:1057100081F83E000499086C40F020000864FFE71F
:105720000499002081F83C00FFE701208DF8170064
:1057300005E0FFE7B2E700208DF81700FFE79DF8CE
:10574000170006B080BD000080B586B004900391BC
:1057500002920193FFE79DF80E0001280CD1FFE7AC
:10576000049800684069BDF80C100840401AB0FA6F
:1057700080F0400900900BE0049800688069BDF853
:105780000C100840401AB0FA80F040090090FFE782
:105790000098002858D1FFE704980068406900F499
:1057A00080610120B0EB912F24D1FFE704980168BC
:1057B000086840F400700860049801686FF4806025
:1057C0004861049900200863049A202182F83D1062
:1057D000049981F83E000499086C40F004000864C4
:1057E000FFE70499002081F83C00FFE701208DF8D5
:1057F00017002DE00298013028B3FFE7FDF7DAFF2C
:105800000199401A0299884203D8FFE70298C8B963
:10581000FFE7049900200863049A202182F83D10D4
:10582000049981F83E000499086C40F02000086457
:10583000FFE70499002081F83C00FFE701208DF884
:10584000170005E0FFE786E700208DF81700FFE767
:105850009DF8170006B080BD80B584B0029001911C
:105860000092FFE702980068406900F040010020C4
:10587000B0EB911F4BD1FFE702980068406900F040
:1058800010010120B0EB111F1CD1FFE70298016845
:105890006FF010004861029900200863029A2021ED
:1058A00082F83D10029981F83E000299086C086464
:1058B000FFE70299002081F83C00FFE701208DF806
:1058C0000F0028E0FDF776FF0099401A0199884201
:1058D00003D8FFE70198C8B9FFE7029900200863E1
:1058E000029A202182F83D10029981F83E00029927
:1058F000086C40F020000864FFE70299002081F85E
:105900003C00FFE701208DF80F0004E0AAE700202B
:105910008DF80F00FFE79DF80F0004B080BD000078
:1059200080B584B0029001910092FFE70298006870
:105930004069C1B20020B0EBD11F33D1FFE702981C
:10594000FFF794FC20B1FFE701208DF80F002DE058
:105950000198013028B3FFE7FDF72CFF0099401AAA
:105960000199884203D8FFE70198C8B9FFE7029977
:1059700000200863029A202182F83D10029981F8E4
:105980003E000299086C40F020000864FFE702998D
:10599000002081F83C00FFE701208DF80F0005E0B2
:1059A000FFE7C3E700208DF80F00FFE79DF80F0029
:1059B00004B080BD80B582B08DF8070040F60410B9
:1059C000C2F20000FDF7FCFE00F018F902B080BD45
:1059D00080B586B0059004910392D0203B21062229
:1059E0000DF1060300F088F88DF805009DF805001C
:1059F000C8B9FFE79DF806109DF8070040EA0120AE
:105A0000059908809DF808109DF8090040EA0120DA
:105A1000049908809DF80A109DF80B0040EA0120C7
:105A200003990880FFE79DF8050006B080BD0000DF
:105A300080B586B0059004910392D02043210622C0
:105A40000DF1060300F058F88DF805009DF80500EB
:105A5000C8B9FFE79DF806109DF8070040EA01204D
:105A6000059908809DF808109DF8090040EA01207A
:105A7000049908809DF80A109DF80B0040EA012067
:105A800003990880FFE79DF8050006B080BD00007F
:105A900080B582B0D020412102220DF1060300F032
:105AA0002BF89DF806109DF8070040EA0120ADF89C
:105AB0000400BDF90400FDF782F8002244F200035F
:105AC000C4F27503FCF77EFF47F2A402C0F63D2244
:105AD00044F2D733C4F24203FCF75BFEFDF7ECF867
