:020000040800F2
:10000000A80B002089010008F1160008E51500087A
:10001000ED16000871030008D51C00080000000060
:10002000000000000000000000000000051C0008A7
:100030007503000800000000611700085D1C00083F
:10004000A3010008A3010008A3010008A301000800
:10005000A3010008A301000879030008A301000818
:10006000A3010008A3010008A3010008A3010008E0
:10007000A3010008A3010008A3010008A3010008D0
:10008000A3010008A3010008A3010008A3010008C0
:10009000A3010008A3010008A3010008A3010008B0
:1000A000A3010008A3010008A3010008A3010008A0
:1000B000A3010008A3010008A3010008A301000890
:1000C000A3010008A3010008A3010008A301000880
:1000D000A3010008A3010008A3010008A301000870
:1000E000A3010008A3010008A301000800F002F822
:1000F00000F03AF80AA090E8000C82448344AAF188
:100100000107DA4501D100F02FF8AFF2090EBAE885
:100110000F0013F0010F18BFFB1A43F0010318473B
:100120006823000088230000103A24BF78C878C1F3
:10013000FAD8520724BF30C830C144BF04680C60ED
:10014000704700000023002400250026103A28BF35
:1001500078C1FBD8520728BF30C148BF0B60704739
:100160001FB51FBD10B510BD00F0D4F81146FFF744
:10017000F7FF02F035F900F0F2F803B4FFF7F2FFF1
:1001800003BC02F021F900000948804709480047F4
:10019000FEE7FEE7FEE7FEE7FEE7FEE7FEE7FEE737
:1001A000FEE7FEE704480549054A064B7047000094
:1001B000D11C0008ED000008A8050020A80B0020B5
:1001C000A8070020A8070020032A40F2308010F082
:1001D000030C00F0158011F8013BBCF1020F6244E2
:1001E00098BF11F801CB00F8013B38BF11F8013B73
:1001F000A2F1040298BF00F801CB38BF00F8013B20
:1002000011F0030300F04F80083AC0F0088051F865
:10021000043B083A51F804CBA0E80810F5E7121D9A
:100220005CBF51F8043B40F8043BAFF30080D207B9
:1002300024BF11F8013B11F801CB48BF11F8012B85
:1002400024BF00F8013B00F801CB48BF00F8012BA8
:1002500070474FF0000200B5134694469646203989
:1002600022BFA0E80C50A0E80C50B1F12001BFF46F
:10027000F7AF090728BFA0E80C5048BF0CC05DF8D5
:1002800004EB890028BF40F8042B08BF704748BF23
:1002900020F8022B11F0804F18BF00F8012B704797
:1002A00070477047704710B5203AC0F00B80B1E836
:1002B0001850A0E81850B1E81850A0E81850203A9B
:1002C000BFF4F5AF5FEA027C24BFB1E81850A0E8A4
:1002D000185044BF18C918C0BDE810405FEA827CBE
:1002E00024BF51F8043B40F8043B08BF7047D207D5
:1002F00028BF31F8023B48BF11F8012B28BF20F876
:10030000023B48BF00F8012B7047000000487047CF
:10031000100000207546FFF7F9FFAE46050069465C
:10032000534620F00700854618B020B5FFF73AFF86
:10033000BDE820404FF000064FF000074FF00008E6
:100340004FF0000BAC46ACE8C009ACE8C009ACE823
:10035000C009ACE8C00921F007018D46704710B50F
:100360000446AFF300802046BDE81040FFF705BF0C
:10037000FFE7FEE77047000080B5012000F03AF883
:1003800080BD000081B0EFF3108072B60090FFE7EF
:10039000FEE7000080B584B0039000F0D7F902902A
:1003A000039801900198013048B1FFE740F2040042
:1003B000C2F200000178019808440190FFE7FFE7CE
:1003C00000F0C4F90299401A0199884201D2FFE76E
:1003D000F6E704B080BD000080B582B0ADF806003D
:1003E000BDF80600012803D1FFE701F0F1FFFFE7A8
:1003F00002B080BD80B582B0ADF8060040F2144076
:10040000C4F201000068BDF8061008420CD0FFE7F6
:10041000BDF8060040F21441C4F201010860BDF8C5
:100420000600FFF7D9FFFFE702B080BD90B00F9044
:100430000E9100200D900990FFE70E9800680D992D
:10044000C840002800F07F81FFE70D990120884017
:100450000C900E9800680C9908400B900B980C9922
:10046000884240F06C81FFE70E98406805900028B4
:1004700051D0FFE7059801283AD0FFE705980228F8
:100480003FD0FFE7059803285FD0FFE705981128C4
:1004900032D0FFE70598122838D0FFE705980021F1
:1004A000C1F21101884236D0FFE705980021C1F260
:1004B000120188422FD0FFE705980021C1F22101E7
:1004C000884228D0FFE705980021C1F22201884226
:1004D00021D0FFE705980021C1F2310188421AD0EE
:1004E000FFE705980021C1F23201884213D02FE0C6
:1004F0000E98C06809902CE00E98C06804300990EE
:1005000027E00E98C0680830099022E00E98C06875
:100510000C3009901DE00E98806818B9FFE70420A0
:10052000099011E00E988068012806D1FFE70820A5
:1005300009900C980F99086105E0082009900C9823
:100540000F994861FFE7FFE703E00020099000E012
:10055000FFE70B98FF2803D8FFE70F98049003E00C
:100560000F9804300490FFE7049808900B98FF2838
:1005700004D8FFE70D988000039006E00D996FF016
:100580001F0000EB81000390FFE703980790089895
:100590000068079A0F2191408843099991400843C8
:1005A000089908600E98C079C006002840F1C680FE
:1005B000FFE7FFE741F21800C4F20200016841F0D2
:1005C00001010160006800F0010006900698FFE755
:1005D0000D9820F003000821C4F2010140580A9050
:1005E0000D9800F0030081000F2000FA01F10A9835
:1005F00088430A900F9840F60001C4F20101884236
:1006000003D1FFE70020029026E00F9840F600415A
:10061000C4F20101884203D1FFE70120019018E0F4
:100620000F9841F20001C4F20101884203D1FFE7B3
:10063000022000900AE00F9941F20042C4F2010248
:100640000420914208BF03200090FFE7009801902A
:10065000FFE701980290FFE702980D9901F003016E
:10066000890000FA01F10A9808430A900A980D9946
:1006700021F003010822C4F2010288500E9880790B
:10068000C00748B1FFE70B9A40F20041C4F20101F4
:1006900008681043086008E00B9A40F20041C4F279
:1006A0000101086890430860FFE70E988079800791
:1006B000002809D5FFE70B9A40F20441C4F201017A
:1006C00008681043086008E00B9A40F20441C4F245
:1006D0000101086890430860FFE70E988079C00622
:1006E000002809D5FFE70B9A40F20841C4F2010146
:1006F00008681043086008E00B9A40F20841C4F211
:100700000101086890430860FFE70E988079800631
:10071000002809D5FFE70B9A40F20C41C4F2010111
:1007200008681043086008E00B9A40F20C41C4F2DC
:100730000101086890430860FFE7FFE7FFE70D98B5
:1007400001300D9079E610B07047000040F2A050E3
:10075000C2F200000068704780B58EB00C900C9813
:1007600020B9FFE701208DF8370043E10C9890F89D
:100770003D0040B9FFE70C99002081F83C000C983F
:1007800000F03CF9FFE70C99242081F83D000C981B
:100790000168086820F0010008600C98016808688A
:1007A00040F4004008600C980168086820F400409C
:1007B000086000F04DFB0A900C98406848F2A06178
:1007C000C0F2010188420BD8FFE70A9948F2804243
:1007D000C0F21E020020914238BF012009900AE0B9
:1007E0000A9940F60012C0F23D020020914238BF43
:1007F00001200990FFE70998012804D1FFE70120B3
:100800008DF83700F6E00A984DF68361C4F21B318B
:10081000A0FB0110800C0B900C980068406820F041
:100820003F000B9908430C99096848600C980068D0
:10083000006A20F03F0008900C98406848F2A061E0
:10084000C0F20101884204D8FFE70B9801300790FD
:100850000EE00B984FF49671484344F6D351C1F221
:100860006201A0FB0101012000EB91100790FFE75E
:100870000898079908430C99096808620C98006861
:10088000C0694CF6FF71884306900C98406848F2A6
:10089000A061C0F2010188421FD8FFE70A98013821
:1008A0000C9949684900B0FBF1F001306FF31F303B
:1008B000032803D8FFE7042005900BE00A980138CD
:1008C0000C9949684900B0FBF1F001306FF31F301B
:1008D0000590FFE7059804904CE00C98806868B993
:1008E000FFE70A9801380C99496801EB4101B0FB18
:1008F000F1F001306FF31F3003900DE00A980138DA
:100900000C99496819225143B0FBF1F001300421E0
:1009100061F31F300390FFE70398000518B9FFE764
:100920000120029023E00C98806868B9FFE70A98DC
:1009300001380C99496801EB4101B0FBF1F001303D
:100940006FF31F3001900DE00A9801380C99496847
:1009500019225143B0FBF1F00130042161F31F3043
:100960000190FFE7019840F400400290FFE70298F1
:100970000490FFE70698049908430C990968C86138
:100980000C980068006820F0C0000C9B1968DA69B8
:100990001B6A1A43104308600C980068806848F28C
:1009A000FF3188430C9A1168D36812691A431043C7
:1009B00088600C980068C06820F0FF000C9B1968E4
:1009C0005A699B691A431043C8600C98016808680B
:1009D00040F0010008600C99002008640C9A202166
:1009E00082F83D100C9908630C9981F83E008DF84F
:1009F0003700FFE79DF837000EB080BD80B588B0A6
:100A000007900020069005900490039007980068D6
:100A100045F20041C4F2000188422CD1FFE7FFE714
:100A200041F21800C4F20200016841F008010160BF
:100A3000006800F0080002900298FFE7C0200390D1
:100A4000122004900320069040F60040C4F20100FA
:100A500003A9FFF7EBFCFFE741F21C00C4F2020020
:100A6000016841F400110160006800F40010019079
:100A70000198FFE7FFE708B080BD000040F20400E6
:100A8000C2F20000027840F2A051C2F200010868F0
:100A9000104408607047000080B542F20001C4F2C3
:100AA0000201086840F010000860032000F096F88A
:100AB0000F2000F005F800F03BF8002080BD00009A
:100AC00080B582B0009040F20000C2F200000068E1
:100AD00040F20401C2F200010A784FF47A71B1FBCE
:100AE000F2F1B0FBF1F000F075FD20B1FFE701205D
:100AF0008DF8070018E000980F280DD8FFE700993F
:100B00004FF0FF30002200F04FF8009840F208014B
:100B1000C2F20001086003E001208DF8070003E045
:100B200000208DF80700FFE79DF8070002B080BDA8
:100B300083B0FFE741F21800C4F20200016841F0FF
:100B400001010160006800F0010002900298FFE7D7
:100B5000FFE741F21C00C4F20200016841F080513D
:100B60000160006800F0805001900198FFE7FFE706
:100B70000421C4F2010108680090009820F0E060B0
:100B80000090009840F00070009000980860FFE727
:100B900003B0704780B582B08DF807009DF907005B
:100BA00001F0B2FB02B080BD80B586B08DF81700B1
:100BB000049103920020029001F0BEFB02909DF987
:100BC0001700019002980499039A00F093FD0146E2
:100BD000019801F0B9FB06B080BD000080B582B07D
:100BE0000190019801F0D2FB02B080BD80B584B0C5
:100BF00002900191029820B9FFE701208DF80F00C3
:100C00001BE1019842F20001C4F20201096801F0FF
:100C10000701884216D9FFE742F20000C4F2020041
:100C2000016821F00701019A11430160006800F09A
:100C300007000199884204D0FFE701208DF80F00DA
:100C4000FBE0FFE702980078800700282AD5FFE73D
:100C5000029800784007002809D5FFE741F2040117
:100C6000C4F20201086840F4E0600860FFE70298FF
:100C700000780007002809D5FFE741F20401C4F21B
:100C80000201086840F460500860FFE741F2040187
:100C9000C4F20201086820F0F000029A9268104342
:100CA0000860FFE702980078C007002860D0FFE7DF
:100CB0000298406801280ED1FFE741F20000C4F21B
:100CC000020000688003002804D4FFE701208DF8AB
:100CD0000F00B2E021E00298406802280ED1FFE741
:100CE00041F20000C4F2020000688001002804D430
:100CF000FFE701208DF80F009FE00DE041F20000BA
:100D0000C4F2020000688007002804D4FFE7012035
:100D10008DF80F0091E0FFE7FFE741F20401C4F214
:100D20000201086820F00300029A5268104308602C
:100D3000FFF70CFD0090FFE741F20400C4F202004F
:100D4000006800F00C0002994968B0EB810F0ED0EA
:100D5000FFE7FFF7FBFC0099401A41F28931884216
:100D600004D3FFE703208DF80F0066E0E4E7FFE718
:100D7000019842F20001C4F20201096801F0070182
:100D8000884216D2FFE742F20000C4F20200016876
:100D900021F00701019A11430160006800F007008B
:100DA0000199884204D0FFE701208DF80F0044E04C
:100DB000FFE702980078400700280CD5FFE741F2D2
:100DC0000401C4F20201086820F4E060029AD268CB
:100DD00010430860FFE702980078000700280DD54F
:100DE000FFE741F20401C4F20201086820F46050F8
:100DF000029A126940EAC2000860FFE700F03AF880
:100E000041F20401C4F202010968C9B20A0942F2BE
:100E10002841C0F60001895CC84040F20001C2F2DE
:100E20000001086040F20800C2F200000068FFF70D
:100E300047FE00208DF80F00FFE79DF80F0004B07B
:100E400080BD000040F20000C2F200000068704760
:100E500080B5FFF7F7FF41F20401C4F2020109680F
:100E6000C1F3022242F23841C0F60001895CC84059
:100E700080BD00008BB040F60E70C1F210000A90E9
:100E800040F60A30C0F60C50099040F20670C0F6E9
:100E90000810089040F20230C0F20450079040F26F
:100EA0000120ADF81A0000200590049003900290F4
:100EB000019041F20400C4F2020000680590059818
:100EC00000F00C0001460091E0B3FFE70098042811
:100ED00004D0FFE70098082806D034E041F2002053
:100EE000C0F27A00019034E00598C0F3834107A86E
:100EF000405C02909DF81600C007C0B1FFE741F2C8
:100F00000400C4F20200006800F400310DF11A0080
:100F100040EA514000780490029841F20021C0F26A
:100F20007A0148430499B0FBF1F0039007E002987E
:100F300040F60011C0F23D0148430390FFE70398DB
:100F4000019006E0FFE741F20020C0F27A00019034
:100F5000FFE701980BB0704780B586B00490049805
:100F600020B9FFE701208DF817002EE304980078E0
:100F7000C007002800F0AE80FFE741F20400C4F291
:100F80000200006800F00C00042813D0FFE741F2D3
:100F90000400C4F20200006800F00C0008281BD115
:100FA000FFE741F20400C4F202000068C003002819
:100FB00012D5FFE741F20000C4F20200006880038E
:100FC000002808D5FFE70498406820B9FFE7012012
:100FD0008DF81700F9E27CE0FFE704984068B0F56F
:100FE000803F09D1FFE741F20001C4F20201086825
:100FF00040F48030086032E00498406868B9FFE748
:1010000041F20001C4F20201086820F48030086057
:10101000086820F48020086020E004984068B0F55B
:10102000A02F0DD1FFE741F20001C4F202010868D0
:1010300040F480200860086840F4803008600CE0CC
:1010400041F20001C4F20201086820F48030086017
:10105000086820F480200860FFE7FFE7FFE7FFE76C
:1010600004984068D0B1FFE7FFF770FB0390FFE7FB
:1010700041F20000C4F202000068800300280CD492
:10108000FFE7FFF763FB0399401A652804D3FFE7E6
:1010900003208DF8170098E2EAE719E0FFF756FB06
:1010A0000390FFE741F20000C4F2020000688003F1
:1010B00000280CD5FFE7FFF749FB0399401A652884
:1010C00004D3FFE703208DF817007EE2EAE7FFE78D
:1010D000FFE7FFE7049800788007002840F18D8043
:1010E000FFE741F20400C4F20200006810F00C0FA8
:1010F00013D0FFE741F20400C4F20200006800F0E0
:101100000C00082829D1FFE741F20400C4F20200D4
:101110000068C003002820D4FFE741F20000C4F2B9
:10112000020000688007002809D5FFE704980069DD
:10113000012804D0FFE701208DF8170045E241F2B5
:101140000001C4F20201086820F0F800049A526914
:1011500040EAC2000860FFE74EE00498006958B317
:10116000FFE70021C4F2422101200860FFF7EEFAF8
:101170000390FFE741F20000C4F20200006880071C
:1011800000280CD4FFE7FFF7E1FA0399401A03287F
:1011900004D3FFE703208DF8170016E2EAE741F2D7
:1011A0000001C4F20201086820F0F800049A5269B4
:1011B00040EAC20008601EE00021C4F24221002083
:1011C0000860FFF7C3FA0390FFE741F20000C4F2A2
:1011D00002000068800700280CD5FFE7FFF7B6FA89
:1011E0000399401A032804D3FFE703208DF8170062
:1011F000EBE1EAE7FFE7FFE7FFE704980078000785
:10120000002848D5FFE70498806918B3FFE740F24B
:101210008041C4F2422101200860FFF797FA039051
:10122000FFE741F22400C4F20200006880070028B2
:101230000CD4FFE7FFF78AFA0399401A032804D376
:10124000FFE703208DF81700BFE1EAE7012000F077
:1012500089FA1FE040F28041C4F242210020086078
:10126000FFF774FA0390FFE741F22400C4F2020092
:101270000068800700280CD5FFE7FFF767FA03999D
:10128000401A032804D3FFE703208DF817009CE1E0
:10129000EAE7FFE7FFE7049800784007002840F1FD
:1012A000D880FFE700208DF8070041F21C00C4F24F
:1012B00002000068C000002813D4FFE7FFE741F2F6
:1012C0001C00C4F20200016841F080510160006816
:1012D00000F0805000900098FFE701208DF8070093
:1012E000FFE747F20000C4F200000068C0050028D4
:1012F00022D4FFE747F20001C4F20001086840F47D
:1013000080700860FFF722FA0390FFE747F20000C1
:10131000C4F200000068C00500280CD4FFE7FFF706
:1013200015FA0399401A652804D3FFE703208DF8C6
:1013300017004AE1EAE7FFE7FFE70498C0680128E1
:1013400009D1FFE741F22001C4F20201086840F030
:101350000100086031E00498C06868B9FFE741F215
:101360002001C4F20201086820F00100086008684A
:1013700020F0040008601FE00498C06805280DD123
:10138000FFE741F22001C4F20201086840F00400C6
:101390000860086840F0010008600CE041F220019C
:1013A000C4F20201086820F001000860086820F01B
:1013B00004000860FFE7FFE7FFE7FFE70498C06865
:1013C000E0B1FFE7FFF7C2F90390FFE741F2200029
:1013D000C4F202000068800700280ED4FFE7FFF780
:1013E000B5F90399401A41F28931884204D3FFE7E5
:1013F00003208DF81700E8E0E8E71BE0FFF7A6F907
:101400000390FFE741F22000C4F202000068800769
:1014100000280ED5FFE7FFF799F90399401A41F22A
:101420008931884204D3FFE703208DF81700CCE010
:10143000E8E7FFE79DF80700012809D1FFE741F23F
:101440001C01C4F20201086820F080500860FFE728
:10145000FFE70498C069002800F0B380FFE741F27D
:101460000400C4F20200006800F00C00082800F03C
:101470008280FFE70498C06902285CD1FFE7602101
:10148000C4F2422100200860FFF760F90390FFE7F3
:1014900041F20000C4F202000068800100280CD56F
:1014A000FFE7FFF753F90399401A032804D3FFE736
:1014B00003208DF8170088E0EAE70498006AB0F589
:1014C000803F0CD1FFE741F20401C4F20201086839
:1014D00020F40030049A926810430860FFE741F25C
:1014E0000401C4F20201086820F47410049B1A6A13
:1014F0005B6A1A43104308606021C4F24221012054
:101500000860FFF723F90390FFE741F20000C4F2FF
:1015100002000068800100280CD4FFE7FFF716F9ED
:101520000399401A032804D3FFE703208DF817001E
:101530004BE0EAE71EE06021C4F24221002008608F
:10154000FFF704F90390FFE741F20000C4F2020044
:101550000068800100280CD5FFE7FFF7F7F8039932
:10156000401A032804D3FFE703208DF817002CE06E
:10157000EAE7FFE724E00498C069012804D1FFE707
:1015800001208DF8170020E041F20400C4F20200AF
:1015900000680290029800F480300499096A884239
:1015A00008D1FFE7029800F470100499496A884254
:1015B00004D0FFE701208DF8170006E0FFE7FFE702
:1015C000FFE700208DF81700FFE79DF8170006B031
:1015D00080BD000080B582B00190019800F014FB3E
:1015E00002B080BDFFE7FEE780B58AB00020099019
:1015F000089007900690FFE741F21800C4F202003D
:10160000016841F010010160006800F010000590D1
:101610000598FFE7FFE741F21800C4F202000168F5
:1016200041F020010160006800F02000049004985F
:10163000FFE7FFE741F21800C4F20200016841F041
:1016400004010160006800F0040003900398FFE7C4
:10165000FFE741F21800C4F20200016841F00801FE
:101660000160006800F0080002900298FFE7012086
:1016700006900020C1F21100079000200090089011
:1016800040F60000C4F2010006A9FEF7CFFE009A62
:10169000062001900221FFF787FA0198FFF77AFAF6
:1016A0000AB080BD80B582B040F24C50C2F200005A
:1016B000019045F20041C4F20001016041F6802131
:1016C000C0F20601416000218160C1604FF4804298
:1016D000026141618161C1610162FFF73DF818B1AA
:1016E000FFE7FEF74FFEFFE702B080BDFFE7FEE732
:1016F000FFE7FEE788B0079006910592079800F093
:10170000070004900498C0F10700052803D3FFE701
:101710000420019004E00498C0F107000190FFE765
:101720000198039004980430062803D8FFE70020AE
:10173000009003E0049803380090FFE700980290BF
:1017400006980399012202FA01F101390840029B2F
:10175000984005999A40013A1140084308B07047F3
:101760007047000082B00190019840F20001C2F27F
:1017700000010968C90844F6D352C1F26202A1FB14
:101780000221890948430090FFE700BFFFE7009866
:10179000411E00910028F8D1FFE702B07047000019
:1017A00080B586B005900491039240F27000C2F2B9
:1017B00000000190FFE70198007818B9FFE700F0FA
:1017C0008BFAFFE7FFE7EFF311804FF0200181F381
:1017D0001188009005980499039A00F007F8029088
:1017E000009880F31188029806B080BD80B58AB059
:1017F00009900891079208980490099800EB40011D
:1018000040F27000C2F2000000EBC10018300390FB
:1018100003984069029040B1FFE70298012819D06F
:10182000FFE7029802282CD032E0039800F0A2FAD9
:10183000059005980799884203D2FFE7002006909B
:1018400007E00798069003980499079A00F01AFD9C
:10185000FFE720E0039800F08DFA059005980799BE
:10186000884203D2FFE70598019002E007980190B3
:10187000FFE70198069003980499069A00F002FD8C
:1018800009E003980499079A00F08CFC069002E0A6
:1018900000200690FFE706980AB080BD82B080B5B0
:1018A00084B0079306920390029106A800900398D3
:1018B00002996A4600F008F80190019804B0BDE86A
:1018C000804002B07047000080B5A4B02390229100
:1018D000219207A81B9040201C9000201D90239966
:1018E0001F911E90FFE7229800788DF883002298C0
:1018F000013022909DF8830008B9FFE76DE19DF863
:101900008300252840F05C81FFE70020189001202B
:101910001A90FFE7229800788DF883009DF88300E5
:101920002338014604910D2829D80499DFE801F0F5
:101930001F2727272727272717270727270F189825
:1019400040F0010018902298013022901AE0189877
:1019500040F00200189022980130229012E018986E
:1019600040F0040018902298013022900AE0189864
:1019700040F00800189022980130229002E00020E8
:101980001A90FFE7FFE71A980028C3D1FFE700206D
:101990001790FFE7229800788DF883009DF8830068
:1019A000302805DBFFE79DF883003A2801DBFFE7DD
:1019B00010E0229801302290179800EB80019DF8EA
:1019C000830000EB410030381790FFE7012000282A
:1019D000E0D1FFE700201990229800788DF883006D
:1019E0009DF883002E2825D1FFE722980130229010
:1019F000FFE7229800788DF883009DF88300302857
:101A000005DBFFE79DF883003A2801DBFFE710E0E4
:101A1000229801302290199800EB80019DF88300F4
:101A200000EB410030381990FFE701200028E0D199
:101A3000FFE7FFE7229800788DF88300FFE79DF825
:101A400083006C2805D0FFE79DF88300682808D143
:101A5000FFE7229801302290229800788DF88300C9
:101A600000E004E0FFE701200028E8D1FFE79DF84F
:101A7000830001460391252800F09880FFE7039832
:101A800058284FD0FFE70398632814D0FFE7039846
:101A900064281FD0FFE70398702876D0FFE70398EB
:101AA000732853D0FFE70398752827D0FFE70398E2
:101AB000782837D07FE0219A1068011D11600068F6
:101AC0001A901A988DF81B009DF81B101BA800F0A7
:101AD0002DFB71E0219A1068011D116000681A90B9
:101AE0001A99199B1798DDF860C06A46C2F804C0BD
:101AF00010601BA80A2200F05DF95DE0219A1068D1
:101B0000011D116000681A901A99199B1798DDF849
:101B100060C06A46C2F804C010601BA80A2200F028
:101B20002FFA49E0219A1068011D116000681A908F
:101B30001A99199B1798DDF860C06A46C2F804C06C
:101B400010601BA8102200F01BFA35E0219A1068E3
:101B5000011D116000680590FFE7059800788DF879
:101B600083000598013005909DF8830008B9FFE7D0
:101B70000AE09DF883101BA800F0D8FAFFE71E9832
:101B8000B0F1FF3FE9DCFFE716E0219A1068011D84
:101B9000116000681A901A99684600224260082372
:101BA00003601BA8102200F0EBF905E01BA825211B
:101BB00000F0BCFA00E0FFE722980130229005E037
:101BC0009DF883101BA800F0B1FAFFE7FFE71E980D
:101BD000B0F1FF3F3FF787AEFFE71E9801280EDB0D
:101BE000FFE71D9830B1FFE723981D9A07A9FFF77B
:101BF000D7FDFFE71D991E9808441E90FFE71E9829
:101C000024B080BD7047000080B582B0009000987D
:101C10000138B0F1807F03D3FFE70120019019E084
:101C2000009801384EF21401CEF2000108604FF026
:101C3000FF300F2100F088FB4EF21801CEF20001B8
:101C4000002008604EF21002CEF20002072111605F
:101C50000190FFE7019802B080BD000080B5FEF75B
:101C60000DFF80BD80B590B006A800902821FEF73A
:101C7000F0FA0098002305930493039302930193D1
:101C8000012206924FF48031079108930A920222B2
:101C90000D920E914FF4E0110F91FFF75DF918B11D
:101CA000FFE7FEF76FFBFFE70F2001900221029193
:101CB000002003904FF480620492059001A8FEF783
:101CC00095FF18B1FFE7FEF75DFBFFE710B080BDA1
:101CD00070470000FFE7FEE780B582B040F2700079
:101CE000C2F2000001900198A821FEF7B2FA019912
:101CF0000320086101994861019842F27E41C0F6D3
:101D000000018161019A40F22810C2F20000D06106
:101D1000019A4FF480601062019A00209062019A4B
:101D20005062019AD062019A1166019A40F218112C
:101D3000C2F200015166019A10219166019908676B
:101D40000199C866019948670090FFE700980F283D
:101D50000ED8FFE7009A42F24040C0F60000801A19
:101D6000C07B01998854FFE7009801300090EDE7AF
:101D700002B080BD84B0039003980069029003987C
:101D8000C068019002980199884209D8FFE703983A
:101D900080680199401A029908440138009005E0D2
:101DA00002990198C04308440090FFE7009804B0EE
:101DB0007047000010B58CB0DDF83CC0DDF838C0CD
:101DC0000B900A91099208930A98B0F1FF3F04DC46
:101DD000FFE70A984042059002E00A980590FFE765
:101DE0000598069001200790FFE706980999884218
:101DF00009DBFFE70698099990FBF1F00690079838
:101E000001300790F1E708980799884203D9FFE766
:101E100008980790FFE70E9870B1FFE70A9800282E
:101E200006D4FFE79DF83C004007002804D5FFE7F3
:101E30000E9801380E90FFE79DF83C0080070028BF
:101E400003D5FFE7089858B3FFE79DF83C00C007AB
:101E500030BBFFE70E9810B3FFE7FFE70E990020B5
:101E6000049041B1FFE707990E9A0020914238BFD4
:101E700001200490FFE70498C00778B1FFE70E98AF
:101E800001380E900B98202100F050F90B98C06893
:101E9000B0F1FF3F01DCFFE700E0DFE7FFE7FFE72E
:101EA0000B98C068002869D4FFE70A98B0F1FF3F9B
:101EB00008DCFFE70A9840420A900B982D2100F0B9
:101EC00035F90CE09DF83C004007002805D5FFE7F8
:101ED0000B982B2100F02AF900E0FFE7FFE70B98B1
:101EE000C068002849D4FFE79DF83C00800700281F
:101EF0002ED5FFE79DF83C00C00748BBFFE70898D8
:101F000030BBFFE70E9810B3FFE7FFE70E99002004
:101F1000039041B1FFE707990E9A0020914238BF24
:101F200001200390FFE70398C00778B1FFE70E9800
:101F300001380E900B98302100F0F8F80B98C0682B
:101F4000B0F1FF3F01DCFFE700E0DFE7FFE7FFE77D
:101F50000B98C06800280FD4FFE70B980A99099ADC
:101F6000089BDDF838C00F9CEE46CEF80440CEF852
:101F700000C000F005F8FFE7FFE7FFE70CB010BD79
:101F800080B58CB0DDF83CC0DDF838C00B900A910C
:101F9000099208930A980590012006900490FFE7A3
:101FA00005980999884209D3FFE705980999B0FB7C
:101FB000F1F00590049801300490F1E70898049935
:101FC000884203D9FFE708980490FFE79DF83C009A
:101FD000C007C0BBFFE70E98A0B3FFE79DF83C0029
:101FE0008007002807D5FFE7089820B9FFE73020D1
:101FF0008DF80F0003E020208DF80F00FFE7FFE7CA
:102000000E990020029041B1FFE704990E9A00203A
:10201000914238BF01200290FFE70298C00780B1CB
:10202000FFE70E9801380E900B989DF80F1000F006
:102030007DF80B98C068B0F1FF3F01DCFFE700E0DE
:10204000DEE7FFE7FFE70B98C06800286CD4FFE7E6
:10205000FFE70898022804D3FFE7089801380890A2
:102060000BE00A980699B0FBF1F0079007980999E0
:10207000884201D2FFE705E0FFE709990698484347
:102080000690E6E7FFE70A980699B0FBF1F00790A3
:10209000079806990A9A00FB11200A900B98079A54
:1020A00042F25141C0F60001895C00F03FF80B9804
:1020B000C068B0F1FF3F01DCFFE709E0099906982D
:1020C000B0FBF1F00690FFE706980028DBD1FFE7B0
:1020D0009DF83C00C00730B3FFE70E9810B3FFE750
:1020E000FFE70E990020019041B1FFE704990E9A95
:1020F0000020914238BF01200190FFE70198C007FE
:1021000078B1FFE70E9801380E900B98202100F06F
:102110000DF80B98C068B0F1FF3F01DCFFE700E06D
:10212000DFE7FFE7FFE7FFE70CB080BD80B584B0D5
:1021300003908DF80B10039880680190019801308E
:102140000399496888420FD8FFE79DF80B0003996F
:102150000968019A885401980130039988600399AD
:10216000C8680130C860FFE703984168806888420A
:1021700015D1FFE70398016882680069FFF710FB3B
:1021800003998968884205D0FFE703994FF0FF3033
:10219000C86003E0039900208860FFE7FFE704B010
:1021A00080BD000080B58AB0099008910792002098
:1021B00005900998C0680390FFE7099800690490AA
:1021C00004980399884206D9FFE704990398C0430D
:1021D0000844069008E0099881680398049A801AD8
:1021E000C04308440690FFE7069809998968039A56
:1021F000891A884203D2FFE70698019005E0099802
:1022000080680399401A0190FFE7019806900698AC
:102210000799884203D2FFE70698009002E00798EA
:102220000090FFE7009806900998406803990844D9
:10223000029002980899069AFDF7C6FF069905983C
:10224000084405900699089808440890069907984C
:10225000401A079006990398084403900398099937
:102260008968884203D1FFE700200390FFE70398C5
:102270000999C860FFE7079800289ED1FFE70598F5
:102280000AB080BD80B588B0079006910592079886
:10229000C0680390079880680399401A02900298DA
:1022A0000599884210D9FFE70798406803990844C8
:1022B000019001980699059AFDF786FF0398059904
:1022C00008440799C8601DE0029804900798406888
:1022D00003990844019001980699049AFDF774FF48
:1022E00005980299401A0490079840680190019857
:1022F0000699029A1144049AFDF766FF049807991B
:10230000C860FFE708B080BD81B08DF803009DF97B
:10231000030000280ED4FFE79DF9031001F01F020F
:10232000012090404A094EF20011CEF2000141F81E
:102330002200FFE701B070474EF60C50CEF20000CD
:102340000068C0F30220704782B08DF8070000914A
:102350009DF9070000280AD4FFE7009800019DF9C5
:1023600007104EF20042CEF2000288540BE00098B3
:1023700000019DF8071001F00F014EF61452CEF245
:1023800000028854FFE702B07047000083B002905B
:10239000029800F0070000904EF60C51CEF20001BA
:1023A0000868019001984FF6FF02104001900198D3
:1023B000009A40EA02200022C0F2FA521043019033
:1023C0000198086003B0704781B00090FFE7FEE716
:1023D00040F22851C2F2000101200871704700004C
:1023E00080B582B000200190FEF756FBFFF73AFC63
:1023F000FFF7FAF8FFF756F9FFE742F26140C0F63F
:1024000000006946086042F26641C0F6000142F2EF
:102410007D43C0F6000300201A46FFF73FFA4FF451
:102420007A70FDF7B7FFE8E7000000000000000049
:10243000010203040607080900000000010203046A
:1024400000000000000054545220524547474553B5
:102450000030313233343536373839414243444520
:10246000461B5B306D0020202573257348656C6C1E
:102470006F20576F726C6420210D0A25730054651C
:10248000726D696E616C0000A824000800000020D5
:102490001000000028010008B824000810000020E7
:1024A000980B0000440100080024F4000100000023
:0824B000100000000000000014
:04000005080000ED02
:00000001FF
